{
  "_format": "hh-sol-artifact-1",
  "contractName": "ERC721PresetMinterPauserAutoId",
  "sourceName": "@openzeppelin/contracts-4/token/ERC721/presets/ERC721PresetMinterPauserAutoId.sol",
  "abi": [
    {
      "inputs": [
        {
          "internalType": "string",
          "name": "name",
          "type": "string"
        },
        {
          "internalType": "string",
          "name": "symbol",
          "type": "string"
        },
        {
          "internalType": "string",
          "name": "baseTokenURI",
          "type": "string"
        }
      ],
      "stateMutability": "nonpayable",
      "type": "constructor"
    },
    {
      "anonymous": false,
      "inputs": [
        {
          "indexed": true,
          "internalType": "address",
          "name": "owner",
          "type": "address"
        },
        {
          "indexed": true,
          "internalType": "address",
          "name": "approved",
          "type": "address"
        },
        {
          "indexed": true,
          "internalType": "uint256",
          "name": "tokenId",
          "type": "uint256"
        }
      ],
      "name": "Approval",
      "type": "event"
    },
    {
      "anonymous": false,
      "inputs": [
        {
          "indexed": true,
          "internalType": "address",
          "name": "owner",
          "type": "address"
        },
        {
          "indexed": true,
          "internalType": "address",
          "name": "operator",
          "type": "address"
        },
        {
          "indexed": false,
          "internalType": "bool",
          "name": "approved",
          "type": "bool"
        }
      ],
      "name": "ApprovalForAll",
      "type": "event"
    },
    {
      "anonymous": false,
      "inputs": [
        {
          "indexed": false,
          "internalType": "address",
          "name": "account",
          "type": "address"
        }
      ],
      "name": "Paused",
      "type": "event"
    },
    {
      "anonymous": false,
      "inputs": [
        {
          "indexed": true,
          "internalType": "bytes32",
          "name": "role",
          "type": "bytes32"
        },
        {
          "indexed": true,
          "internalType": "bytes32",
          "name": "previousAdminRole",
          "type": "bytes32"
        },
        {
          "indexed": true,
          "internalType": "bytes32",
          "name": "newAdminRole",
          "type": "bytes32"
        }
      ],
      "name": "RoleAdminChanged",
      "type": "event"
    },
    {
      "anonymous": false,
      "inputs": [
        {
          "indexed": true,
          "internalType": "bytes32",
          "name": "role",
          "type": "bytes32"
        },
        {
          "indexed": true,
          "internalType": "address",
          "name": "account",
          "type": "address"
        },
        {
          "indexed": true,
          "internalType": "address",
          "name": "sender",
          "type": "address"
        }
      ],
      "name": "RoleGranted",
      "type": "event"
    },
    {
      "anonymous": false,
      "inputs": [
        {
          "indexed": true,
          "internalType": "bytes32",
          "name": "role",
          "type": "bytes32"
        },
        {
          "indexed": true,
          "internalType": "address",
          "name": "account",
          "type": "address"
        },
        {
          "indexed": true,
          "internalType": "address",
          "name": "sender",
          "type": "address"
        }
      ],
      "name": "RoleRevoked",
      "type": "event"
    },
    {
      "anonymous": false,
      "inputs": [
        {
          "indexed": true,
          "internalType": "address",
          "name": "from",
          "type": "address"
        },
        {
          "indexed": true,
          "internalType": "address",
          "name": "to",
          "type": "address"
        },
        {
          "indexed": true,
          "internalType": "uint256",
          "name": "tokenId",
          "type": "uint256"
        }
      ],
      "name": "Transfer",
      "type": "event"
    },
    {
      "anonymous": false,
      "inputs": [
        {
          "indexed": false,
          "internalType": "address",
          "name": "account",
          "type": "address"
        }
      ],
      "name": "Unpaused",
      "type": "event"
    },
    {
      "inputs": [],
      "name": "DEFAULT_ADMIN_ROLE",
      "outputs": [
        {
          "internalType": "bytes32",
          "name": "",
          "type": "bytes32"
        }
      ],
      "stateMutability": "view",
      "type": "function"
    },
    {
      "inputs": [],
      "name": "MINTER_ROLE",
      "outputs": [
        {
          "internalType": "bytes32",
          "name": "",
          "type": "bytes32"
        }
      ],
      "stateMutability": "view",
      "type": "function"
    },
    {
      "inputs": [],
      "name": "PAUSER_ROLE",
      "outputs": [
        {
          "internalType": "bytes32",
          "name": "",
          "type": "bytes32"
        }
      ],
      "stateMutability": "view",
      "type": "function"
    },
    {
      "inputs": [
        {
          "internalType": "address",
          "name": "to",
          "type": "address"
        },
        {
          "internalType": "uint256",
          "name": "tokenId",
          "type": "uint256"
        }
      ],
      "name": "approve",
      "outputs": [],
      "stateMutability": "nonpayable",
      "type": "function"
    },
    {
      "inputs": [
        {
          "internalType": "address",
          "name": "owner",
          "type": "address"
        }
      ],
      "name": "balanceOf",
      "outputs": [
        {
          "internalType": "uint256",
          "name": "",
          "type": "uint256"
        }
      ],
      "stateMutability": "view",
      "type": "function"
    },
    {
      "inputs": [
        {
          "internalType": "uint256",
          "name": "tokenId",
          "type": "uint256"
        }
      ],
      "name": "burn",
      "outputs": [],
      "stateMutability": "nonpayable",
      "type": "function"
    },
    {
      "inputs": [
        {
          "internalType": "uint256",
          "name": "tokenId",
          "type": "uint256"
        }
      ],
      "name": "getApproved",
      "outputs": [
        {
          "internalType": "address",
          "name": "",
          "type": "address"
        }
      ],
      "stateMutability": "view",
      "type": "function"
    },
    {
      "inputs": [
        {
          "internalType": "bytes32",
          "name": "role",
          "type": "bytes32"
        }
      ],
      "name": "getRoleAdmin",
      "outputs": [
        {
          "internalType": "bytes32",
          "name": "",
          "type": "bytes32"
        }
      ],
      "stateMutability": "view",
      "type": "function"
    },
    {
      "inputs": [
        {
          "internalType": "bytes32",
          "name": "role",
          "type": "bytes32"
        },
        {
          "internalType": "uint256",
          "name": "index",
          "type": "uint256"
        }
      ],
      "name": "getRoleMember",
      "outputs": [
        {
          "internalType": "address",
          "name": "",
          "type": "address"
        }
      ],
      "stateMutability": "view",
      "type": "function"
    },
    {
      "inputs": [
        {
          "internalType": "bytes32",
          "name": "role",
          "type": "bytes32"
        }
      ],
      "name": "getRoleMemberCount",
      "outputs": [
        {
          "internalType": "uint256",
          "name": "",
          "type": "uint256"
        }
      ],
      "stateMutability": "view",
      "type": "function"
    },
    {
      "inputs": [
        {
          "internalType": "bytes32",
          "name": "role",
          "type": "bytes32"
        },
        {
          "internalType": "address",
          "name": "account",
          "type": "address"
        }
      ],
      "name": "grantRole",
      "outputs": [],
      "stateMutability": "nonpayable",
      "type": "function"
    },
    {
      "inputs": [
        {
          "internalType": "bytes32",
          "name": "role",
          "type": "bytes32"
        },
        {
          "internalType": "address",
          "name": "account",
          "type": "address"
        }
      ],
      "name": "hasRole",
      "outputs": [
        {
          "internalType": "bool",
          "name": "",
          "type": "bool"
        }
      ],
      "stateMutability": "view",
      "type": "function"
    },
    {
      "inputs": [
        {
          "internalType": "address",
          "name": "owner",
          "type": "address"
        },
        {
          "internalType": "address",
          "name": "operator",
          "type": "address"
        }
      ],
      "name": "isApprovedForAll",
      "outputs": [
        {
          "internalType": "bool",
          "name": "",
          "type": "bool"
        }
      ],
      "stateMutability": "view",
      "type": "function"
    },
    {
      "inputs": [
        {
          "internalType": "address",
          "name": "to",
          "type": "address"
        }
      ],
      "name": "mint",
      "outputs": [],
      "stateMutability": "nonpayable",
      "type": "function"
    },
    {
      "inputs": [],
      "name": "name",
      "outputs": [
        {
          "internalType": "string",
          "name": "",
          "type": "string"
        }
      ],
      "stateMutability": "view",
      "type": "function"
    },
    {
      "inputs": [
        {
          "internalType": "uint256",
          "name": "tokenId",
          "type": "uint256"
        }
      ],
      "name": "ownerOf",
      "outputs": [
        {
          "internalType": "address",
          "name": "",
          "type": "address"
        }
      ],
      "stateMutability": "view",
      "type": "function"
    },
    {
      "inputs": [],
      "name": "pause",
      "outputs": [],
      "stateMutability": "nonpayable",
      "type": "function"
    },
    {
      "inputs": [],
      "name": "paused",
      "outputs": [
        {
          "internalType": "bool",
          "name": "",
          "type": "bool"
        }
      ],
      "stateMutability": "view",
      "type": "function"
    },
    {
      "inputs": [
        {
          "internalType": "bytes32",
          "name": "role",
          "type": "bytes32"
        },
        {
          "internalType": "address",
          "name": "account",
          "type": "address"
        }
      ],
      "name": "renounceRole",
      "outputs": [],
      "stateMutability": "nonpayable",
      "type": "function"
    },
    {
      "inputs": [
        {
          "internalType": "bytes32",
          "name": "role",
          "type": "bytes32"
        },
        {
          "internalType": "address",
          "name": "account",
          "type": "address"
        }
      ],
      "name": "revokeRole",
      "outputs": [],
      "stateMutability": "nonpayable",
      "type": "function"
    },
    {
      "inputs": [
        {
          "internalType": "address",
          "name": "from",
          "type": "address"
        },
        {
          "internalType": "address",
          "name": "to",
          "type": "address"
        },
        {
          "internalType": "uint256",
          "name": "tokenId",
          "type": "uint256"
        }
      ],
      "name": "safeTransferFrom",
      "outputs": [],
      "stateMutability": "nonpayable",
      "type": "function"
    },
    {
      "inputs": [
        {
          "internalType": "address",
          "name": "from",
          "type": "address"
        },
        {
          "internalType": "address",
          "name": "to",
          "type": "address"
        },
        {
          "internalType": "uint256",
          "name": "tokenId",
          "type": "uint256"
        },
        {
          "internalType": "bytes",
          "name": "data",
          "type": "bytes"
        }
      ],
      "name": "safeTransferFrom",
      "outputs": [],
      "stateMutability": "nonpayable",
      "type": "function"
    },
    {
      "inputs": [
        {
          "internalType": "address",
          "name": "operator",
          "type": "address"
        },
        {
          "internalType": "bool",
          "name": "approved",
          "type": "bool"
        }
      ],
      "name": "setApprovalForAll",
      "outputs": [],
      "stateMutability": "nonpayable",
      "type": "function"
    },
    {
      "inputs": [
        {
          "internalType": "bytes4",
          "name": "interfaceId",
          "type": "bytes4"
        }
      ],
      "name": "supportsInterface",
      "outputs": [
        {
          "internalType": "bool",
          "name": "",
          "type": "bool"
        }
      ],
      "stateMutability": "view",
      "type": "function"
    },
    {
      "inputs": [],
      "name": "symbol",
      "outputs": [
        {
          "internalType": "string",
          "name": "",
          "type": "string"
        }
      ],
      "stateMutability": "view",
      "type": "function"
    },
    {
      "inputs": [
        {
          "internalType": "uint256",
          "name": "index",
          "type": "uint256"
        }
      ],
      "name": "tokenByIndex",
      "outputs": [
        {
          "internalType": "uint256",
          "name": "",
          "type": "uint256"
        }
      ],
      "stateMutability": "view",
      "type": "function"
    },
    {
      "inputs": [
        {
          "internalType": "address",
          "name": "owner",
          "type": "address"
        },
        {
          "internalType": "uint256",
          "name": "index",
          "type": "uint256"
        }
      ],
      "name": "tokenOfOwnerByIndex",
      "outputs": [
        {
          "internalType": "uint256",
          "name": "",
          "type": "uint256"
        }
      ],
      "stateMutability": "view",
      "type": "function"
    },
    {
      "inputs": [
        {
          "internalType": "uint256",
          "name": "tokenId",
          "type": "uint256"
        }
      ],
      "name": "tokenURI",
      "outputs": [
        {
          "internalType": "string",
          "name": "",
          "type": "string"
        }
      ],
      "stateMutability": "view",
      "type": "function"
    },
    {
      "inputs": [],
      "name": "totalSupply",
      "outputs": [
        {
          "internalType": "uint256",
          "name": "",
          "type": "uint256"
        }
      ],
      "stateMutability": "view",
      "type": "function"
    },
    {
      "inputs": [
        {
          "internalType": "address",
          "name": "from",
          "type": "address"
        },
        {
          "internalType": "address",
          "name": "to",
          "type": "address"
        },
        {
          "internalType": "uint256",
          "name": "tokenId",
          "type": "uint256"
        }
      ],
      "name": "transferFrom",
      "outputs": [],
      "stateMutability": "nonpayable",
      "type": "function"
    },
    {
      "inputs": [],
      "name": "unpause",
      "outputs": [],
      "stateMutability": "nonpayable",
      "type": "function"
    }
  ],
  "bytecode": "0x60806040523480156200001157600080fd5b5060405162004e2738038062004e2783398181016040528101906200003791906200055a565b828281600290816200004a91906200085e565b5080600390816200005c91906200085e565b5050506000600c60006101000a81548160ff02191690831515021790555080600e90816200008b91906200085e565b50620000b06000801b620000a46200013b60201b60201c565b6200014360201b60201c565b620000f17f9f2df0fed2c77648de5860a4cc508cd0818c85b8b8a1ab4ceeef8d981c8956a6620000e56200013b60201b60201c565b6200014360201b60201c565b620001327f65d7a28e3265b37a6474929f336521b332c1681b933f6cb9f3376673440d862a620001266200013b60201b60201c565b6200014360201b60201c565b50505062000945565b600033905090565b6200015582826200015960201b60201c565b5050565b6200016b82826200019760201b60201c565b6200019281600160008581526020019081526020016000206200028860201b90919060201c565b505050565b620001a98282620002c060201b60201c565b6200028457600160008084815260200190815260200160002060000160008373ffffffffffffffffffffffffffffffffffffffff1673ffffffffffffffffffffffffffffffffffffffff16815260200190815260200160002060006101000a81548160ff021916908315150217905550620002296200013b60201b60201c565b73ffffffffffffffffffffffffffffffffffffffff168173ffffffffffffffffffffffffffffffffffffffff16837f2f8788117e7eff1d82e926ec794901d17c78024a50270940304540a733656f0d60405160405180910390a45b5050565b6000620002b8836000018373ffffffffffffffffffffffffffffffffffffffff1660001b6200032a60201b60201c565b905092915050565b600080600084815260200190815260200160002060000160008373ffffffffffffffffffffffffffffffffffffffff1673ffffffffffffffffffffffffffffffffffffffff16815260200190815260200160002060009054906101000a900460ff16905092915050565b60006200033e8383620003a460201b60201c565b620003995782600001829080600181540180825580915050600190039060005260206000200160009091909190915055826000018054905083600101600084815260200190815260200160002081905550600190506200039e565b600090505b92915050565b600080836001016000848152602001908152602001600020541415905092915050565b6000604051905090565b600080fd5b600080fd5b600080fd5b600080fd5b6000601f19601f8301169050919050565b7f4e487b7100000000000000000000000000000000000000000000000000000000600052604160045260246000fd5b6200043082620003e5565b810181811067ffffffffffffffff82111715620004525762000451620003f6565b5b80604052505050565b600062000467620003c7565b905062000475828262000425565b919050565b600067ffffffffffffffff821115620004985762000497620003f6565b5b620004a382620003e5565b9050602081019050919050565b60005b83811015620004d0578082015181840152602081019050620004b3565b60008484015250505050565b6000620004f3620004ed846200047a565b6200045b565b905082815260208101848484011115620005125762000511620003e0565b5b6200051f848285620004b0565b509392505050565b600082601f8301126200053f576200053e620003db565b5b815162000551848260208601620004dc565b91505092915050565b600080600060608486031215620005765762000575620003d1565b5b600084015167ffffffffffffffff811115620005975762000596620003d6565b5b620005a58682870162000527565b935050602084015167ffffffffffffffff811115620005c957620005c8620003d6565b5b620005d78682870162000527565b925050604084015167ffffffffffffffff811115620005fb57620005fa620003d6565b5b620006098682870162000527565b9150509250925092565b600081519050919050565b7f4e487b7100000000000000000000000000000000000000000000000000000000600052602260045260246000fd5b600060028204905060018216806200066657607f821691505b6020821081036200067c576200067b6200061e565b5b50919050565b60008190508160005260206000209050919050565b60006020601f8301049050919050565b600082821b905092915050565b600060088302620006e67fffffffffffffffffffffffffffffffffffffffffffffffffffffffffffffffff82620006a7565b620006f28683620006a7565b95508019841693508086168417925050509392505050565b6000819050919050565b6000819050919050565b60006200073f6200073962000733846200070a565b62000714565b6200070a565b9050919050565b6000819050919050565b6200075b836200071e565b620007736200076a8262000746565b848454620006b4565b825550505050565b600090565b6200078a6200077b565b6200079781848462000750565b505050565b5b81811015620007bf57620007b360008262000780565b6001810190506200079d565b5050565b601f8211156200080e57620007d88162000682565b620007e38462000697565b81016020851015620007f3578190505b6200080b620008028562000697565b8301826200079c565b50505b505050565b600082821c905092915050565b6000620008336000198460080262000813565b1980831691505092915050565b60006200084e838362000820565b9150826002028217905092915050565b620008698262000613565b67ffffffffffffffff811115620008855762000884620003f6565b5b6200089182546200064d565b6200089e828285620007c3565b600060209050601f831160018114620008d65760008415620008c1578287015190505b620008cd858262000840565b8655506200093d565b601f198416620008e68662000682565b60005b828110156200091057848901518255600182019150602085019450602081019050620008e9565b868310156200093057848901516200092c601f89168262000820565b8355505b6001600288020188555050505b505050505050565b6144d280620009556000396000f3fe608060405234801561001057600080fd5b50600436106101e55760003560e01c80636352211e1161010f578063a22cb465116100a2578063d539139311610071578063d5391393146105a0578063d547741f146105be578063e63ab1e9146105da578063e985e9c5146105f8576101e5565b8063a22cb46514610508578063b88d4fde14610524578063c87b56dd14610540578063ca15c87314610570576101e5565b80639010d07c116100de5780639010d07c1461046c57806391d148541461049c57806395d89b41146104cc578063a217fddf146104ea576101e5565b80636352211e146103e65780636a6278421461041657806370a08231146104325780638456cb5914610462576101e5565b80632f2ff15d1161018757806342842e0e1161015657806342842e0e1461036057806342966c681461037c5780634f6ccce7146103985780635c975abb146103c8576101e5565b80632f2ff15d146102ee5780632f745c591461030a57806336568abe1461033a5780633f4ba83a14610356576101e5565b8063095ea7b3116101c3578063095ea7b31461026857806318160ddd1461028457806323b872dd146102a2578063248a9ca3146102be576101e5565b806301ffc9a7146101ea57806306fdde031461021a578063081812fc14610238575b600080fd5b61020460048036038101906101ff9190612ea3565b610628565b6040516102119190612eeb565b60405180910390f35b61022261063a565b60405161022f9190612f96565b60405180910390f35b610252600480360381019061024d9190612fee565b6106cc565b60405161025f919061305c565b60405180910390f35b610282600480360381019061027d91906130a3565b610712565b005b61028c610829565b60405161029991906130f2565b60405180910390f35b6102bc60048036038101906102b7919061310d565b610836565b005b6102d860048036038101906102d39190613196565b610896565b6040516102e591906131d2565b60405180910390f35b610308600480360381019061030391906131ed565b6108b5565b005b610324600480360381019061031f91906130a3565b6108d6565b60405161033191906130f2565b60405180910390f35b610354600480360381019061034f91906131ed565b61097b565b005b61035e6109fe565b005b61037a6004803603810190610375919061310d565b610a78565b005b61039660048036038101906103919190612fee565b610a98565b005b6103b260048036038101906103ad9190612fee565b610af4565b6040516103bf91906130f2565b60405180910390f35b6103d0610b65565b6040516103dd9190612eeb565b60405180910390f35b61040060048036038101906103fb9190612fee565b610b7c565b60405161040d919061305c565b60405180910390f35b610430600480360381019061042b919061322d565b610c2d565b005b61044c6004803603810190610447919061322d565b610cbd565b60405161045991906130f2565b60405180910390f35b61046a610d74565b005b6104866004803603810190610481919061325a565b610dee565b604051610493919061305c565b60405180910390f35b6104b660048036038101906104b191906131ed565b610e1d565b6040516104c39190612eeb565b60405180910390f35b6104d4610e87565b6040516104e19190612f96565b60405180910390f35b6104f2610f19565b6040516104ff91906131d2565b60405180910390f35b610522600480360381019061051d91906132c6565b610f20565b005b61053e6004803603810190610539919061343b565b610f36565b005b61055a60048036038101906105559190612fee565b610f98565b6040516105679190612f96565b60405180910390f35b61058a60048036038101906105859190613196565b611000565b60405161059791906130f2565b60405180910390f35b6105a8611024565b6040516105b591906131d2565b60405180910390f35b6105d860048036038101906105d391906131ed565b611048565b005b6105e2611069565b6040516105ef91906131d2565b60405180910390f35b610612600480360381019061060d91906134be565b61108d565b60405161061f9190612eeb565b60405180910390f35b600061063382611121565b9050919050565b6060600280546106499061352d565b80601f01602080910402602001604051908101604052809291908181526020018280546106759061352d565b80156106c25780601f10610697576101008083540402835291602001916106c2565b820191906000526020600020905b8154815290600101906020018083116106a557829003601f168201915b5050505050905090565b60006106d78261119b565b6006600083815260200190815260200160002060009054906101000a900473ffffffffffffffffffffffffffffffffffffffff169050919050565b600061071d82610b7c565b90508073ffffffffffffffffffffffffffffffffffffffff168373ffffffffffffffffffffffffffffffffffffffff160361078d576040517f08c379a0000000000000000000000000000000000000000000000000000000008152600401610784906135d0565b60405180910390fd5b8073ffffffffffffffffffffffffffffffffffffffff166107ac6111e6565b73ffffffffffffffffffffffffffffffffffffffff1614806107db57506107da816107d56111e6565b61108d565b5b61081a576040517f08c379a000000000000000000000000000000000000000000000000000000000815260040161081190613662565b60405180910390fd5b61082483836111ee565b505050565b6000600a80549050905090565b6108476108416111e6565b826112a7565b610886576040517f08c379a000000000000000000000000000000000000000000000000000000000815260040161087d906136f4565b60405180910390fd5b61089183838361133c565b505050565b6000806000838152602001908152602001600020600101549050919050565b6108be82610896565b6108c7816115a2565b6108d183836115b6565b505050565b60006108e183610cbd565b8210610922576040517f08c379a000000000000000000000000000000000000000000000000000000000815260040161091990613786565b60405180910390fd5b600860008473ffffffffffffffffffffffffffffffffffffffff1673ffffffffffffffffffffffffffffffffffffffff168152602001908152602001600020600083815260200190815260200160002054905092915050565b6109836111e6565b73ffffffffffffffffffffffffffffffffffffffff168173ffffffffffffffffffffffffffffffffffffffff16146109f0576040517f08c379a00000000000000000000000000000000000000000000000000000000081526004016109e790613818565b60405180910390fd5b6109fa82826115ea565b5050565b610a2f7f65d7a28e3265b37a6474929f336521b332c1681b933f6cb9f3376673440d862a610a2a6111e6565b610e1d565b610a6e576040517f08c379a0000000000000000000000000000000000000000000000000000000008152600401610a65906138aa565b60405180910390fd5b610a7661161e565b565b610a9383838360405180602001604052806000815250610f36565b505050565b610aa9610aa36111e6565b826112a7565b610ae8576040517f08c379a0000000000000000000000000000000000000000000000000000000008152600401610adf906136f4565b60405180910390fd5b610af181611681565b50565b6000610afe610829565b8210610b3f576040517f08c379a0000000000000000000000000000000000000000000000000000000008152600401610b369061393c565b60405180910390fd5b600a8281548110610b5357610b5261395c565b5b90600052602060002001549050919050565b6000600c60009054906101000a900460ff16905090565b6000806004600084815260200190815260200160002060009054906101000a900473ffffffffffffffffffffffffffffffffffffffff169050600073ffffffffffffffffffffffffffffffffffffffff168173ffffffffffffffffffffffffffffffffffffffff1603610c24576040517f08c379a0000000000000000000000000000000000000000000000000000000008152600401610c1b906139d7565b60405180910390fd5b80915050919050565b610c5e7f9f2df0fed2c77648de5860a4cc508cd0818c85b8b8a1ab4ceeef8d981c8956a6610c596111e6565b610e1d565b610c9d576040517f08c379a0000000000000000000000000000000000000000000000000000000008152600401610c9490613a69565b60405180910390fd5b610cb081610cab600d61179e565b6117ac565b610cba600d611985565b50565b60008073ffffffffffffffffffffffffffffffffffffffff168273ffffffffffffffffffffffffffffffffffffffff1603610d2d576040517f08c379a0000000000000000000000000000000000000000000000000000000008152600401610d2490613afb565b60405180910390fd5b600560008373ffffffffffffffffffffffffffffffffffffffff1673ffffffffffffffffffffffffffffffffffffffff168152602001908152602001600020549050919050565b610da57f65d7a28e3265b37a6474929f336521b332c1681b933f6cb9f3376673440d862a610da06111e6565b610e1d565b610de4576040517f08c379a0000000000000000000000000000000000000000000000000000000008152600401610ddb90613b8d565b60405180910390fd5b610dec61199b565b565b6000610e1582600160008681526020019081526020016000206119fe90919063ffffffff16565b905092915050565b600080600084815260200190815260200160002060000160008373ffffffffffffffffffffffffffffffffffffffff1673ffffffffffffffffffffffffffffffffffffffff16815260200190815260200160002060009054906101000a900460ff16905092915050565b606060038054610e969061352d565b80601f0160208091040260200160405190810160405280929190818152602001828054610ec29061352d565b8015610f0f5780601f10610ee457610100808354040283529160200191610f0f565b820191906000526020600020905b815481529060010190602001808311610ef257829003601f168201915b5050505050905090565b6000801b81565b610f32610f2b6111e6565b8383611a18565b5050565b610f47610f416111e6565b836112a7565b610f86576040517f08c379a0000000000000000000000000000000000000000000000000000000008152600401610f7d906136f4565b60405180910390fd5b610f9284848484611b84565b50505050565b6060610fa38261119b565b6000610fad611be0565b90506000815111610fcd5760405180602001604052806000815250610ff8565b80610fd784611c72565b604051602001610fe8929190613be9565b6040516020818303038152906040525b915050919050565b600061101d60016000848152602001908152602001600020611dd2565b9050919050565b7f9f2df0fed2c77648de5860a4cc508cd0818c85b8b8a1ab4ceeef8d981c8956a681565b61105182610896565b61105a816115a2565b61106483836115ea565b505050565b7f65d7a28e3265b37a6474929f336521b332c1681b933f6cb9f3376673440d862a81565b6000600760008473ffffffffffffffffffffffffffffffffffffffff1673ffffffffffffffffffffffffffffffffffffffff16815260200190815260200160002060008373ffffffffffffffffffffffffffffffffffffffff1673ffffffffffffffffffffffffffffffffffffffff16815260200190815260200160002060009054906101000a900460ff16905092915050565b60007f780e9d63000000000000000000000000000000000000000000000000000000007bffffffffffffffffffffffffffffffffffffffffffffffffffffffff1916827bffffffffffffffffffffffffffffffffffffffffffffffffffffffff19161480611194575061119382611de7565b5b9050919050565b6111a481611ec9565b6111e3576040517f08c379a00000000000000000000000000000000000000000000000000000000081526004016111da906139d7565b60405180910390fd5b50565b600033905090565b816006600083815260200190815260200160002060006101000a81548173ffffffffffffffffffffffffffffffffffffffff021916908373ffffffffffffffffffffffffffffffffffffffff160217905550808273ffffffffffffffffffffffffffffffffffffffff1661126183610b7c565b73ffffffffffffffffffffffffffffffffffffffff167f8c5be1e5ebec7d5bd14f71427d1e84f3dd0314c0f7b2291e5b200ac8c7c3b92560405160405180910390a45050565b6000806112b383610b7c565b90508073ffffffffffffffffffffffffffffffffffffffff168473ffffffffffffffffffffffffffffffffffffffff1614806112f557506112f4818561108d565b5b8061133357508373ffffffffffffffffffffffffffffffffffffffff1661131b846106cc565b73ffffffffffffffffffffffffffffffffffffffff16145b91505092915050565b8273ffffffffffffffffffffffffffffffffffffffff1661135c82610b7c565b73ffffffffffffffffffffffffffffffffffffffff16146113b2576040517f08c379a00000000000000000000000000000000000000000000000000000000081526004016113a990613c7f565b60405180910390fd5b600073ffffffffffffffffffffffffffffffffffffffff168273ffffffffffffffffffffffffffffffffffffffff1603611421576040517f08c379a000000000000000000000000000000000000000000000000000000000815260040161141890613d11565b60405180910390fd5b61142c838383611f35565b6114376000826111ee565b6001600560008573ffffffffffffffffffffffffffffffffffffffff1673ffffffffffffffffffffffffffffffffffffffff16815260200190815260200160002060008282546114879190613d60565b925050819055506001600560008473ffffffffffffffffffffffffffffffffffffffff1673ffffffffffffffffffffffffffffffffffffffff16815260200190815260200160002060008282546114de9190613d94565b92505081905550816004600083815260200190815260200160002060006101000a81548173ffffffffffffffffffffffffffffffffffffffff021916908373ffffffffffffffffffffffffffffffffffffffff160217905550808273ffffffffffffffffffffffffffffffffffffffff168473ffffffffffffffffffffffffffffffffffffffff167fddf252ad1be2c89b69c2b068fc378daa952ba7f163c4a11628f55a4df523b3ef60405160405180910390a461159d838383611f45565b505050565b6115b3816115ae6111e6565b611f4a565b50565b6115c08282611fe7565b6115e581600160008581526020019081526020016000206120c790919063ffffffff16565b505050565b6115f482826120f7565b61161981600160008581526020019081526020016000206121d890919063ffffffff16565b505050565b611626612208565b6000600c60006101000a81548160ff0219169083151502179055507f5db9ee0a495bf2e6ff9c91a7834c1ba4fdd244a5e8aa4e537bd38aeae4b073aa61166a6111e6565b604051611677919061305c565b60405180910390a1565b600061168c82610b7c565b905061169a81600084611f35565b6116a56000836111ee565b6001600560008373ffffffffffffffffffffffffffffffffffffffff1673ffffffffffffffffffffffffffffffffffffffff16815260200190815260200160002060008282546116f59190613d60565b925050819055506004600083815260200190815260200160002060006101000a81549073ffffffffffffffffffffffffffffffffffffffff021916905581600073ffffffffffffffffffffffffffffffffffffffff168273ffffffffffffffffffffffffffffffffffffffff167fddf252ad1be2c89b69c2b068fc378daa952ba7f163c4a11628f55a4df523b3ef60405160405180910390a461179a81600084611f45565b5050565b600081600001549050919050565b600073ffffffffffffffffffffffffffffffffffffffff168273ffffffffffffffffffffffffffffffffffffffff160361181b576040517f08c379a000000000000000000000000000000000000000000000000000000000815260040161181290613e14565b60405180910390fd5b61182481611ec9565b15611864576040517f08c379a000000000000000000000000000000000000000000000000000000000815260040161185b90613e80565b60405180910390fd5b61187060008383611f35565b6001600560008473ffffffffffffffffffffffffffffffffffffffff1673ffffffffffffffffffffffffffffffffffffffff16815260200190815260200160002060008282546118c09190613d94565b92505081905550816004600083815260200190815260200160002060006101000a81548173ffffffffffffffffffffffffffffffffffffffff021916908373ffffffffffffffffffffffffffffffffffffffff160217905550808273ffffffffffffffffffffffffffffffffffffffff16600073ffffffffffffffffffffffffffffffffffffffff167fddf252ad1be2c89b69c2b068fc378daa952ba7f163c4a11628f55a4df523b3ef60405160405180910390a461198160008383611f45565b5050565b6001816000016000828254019250508190555050565b6119a3612251565b6001600c60006101000a81548160ff0219169083151502179055507f62e78cea01bee320cd4e420270b5ea74000d11b0c9f74754ebdbfc544b05a2586119e76111e6565b6040516119f4919061305c565b60405180910390a1565b6000611a0d836000018361229b565b60001c905092915050565b8173ffffffffffffffffffffffffffffffffffffffff168373ffffffffffffffffffffffffffffffffffffffff1603611a86576040517f08c379a0000000000000000000000000000000000000000000000000000000008152600401611a7d90613eec565b60405180910390fd5b80600760008573ffffffffffffffffffffffffffffffffffffffff1673ffffffffffffffffffffffffffffffffffffffff16815260200190815260200160002060008473ffffffffffffffffffffffffffffffffffffffff1673ffffffffffffffffffffffffffffffffffffffff16815260200190815260200160002060006101000a81548160ff0219169083151502179055508173ffffffffffffffffffffffffffffffffffffffff168373ffffffffffffffffffffffffffffffffffffffff167f17307eab39ab6107e8899845ad3d59bd9653f200f220920489ca2b5937696c3183604051611b779190612eeb565b60405180910390a3505050565b611b8f84848461133c565b611b9b848484846122c6565b611bda576040517f08c379a0000000000000000000000000000000000000000000000000000000008152600401611bd190613f7e565b60405180910390fd5b50505050565b6060600e8054611bef9061352d565b80601f0160208091040260200160405190810160405280929190818152602001828054611c1b9061352d565b8015611c685780601f10611c3d57610100808354040283529160200191611c68565b820191906000526020600020905b815481529060010190602001808311611c4b57829003601f168201915b5050505050905090565b606060008203611cb9576040518060400160405280600181526020017f30000000000000000000000000000000000000000000000000000000000000008152509050611dcd565b600082905060005b60008214611ceb578080611cd490613f9e565b915050600a82611ce49190614015565b9150611cc1565b60008167ffffffffffffffff811115611d0757611d06613310565b5b6040519080825280601f01601f191660200182016040528015611d395781602001600182028036833780820191505090505b5090505b60008514611dc657600182611d529190613d60565b9150600a85611d619190614046565b6030611d6d9190613d94565b60f81b818381518110611d8357611d8261395c565b5b60200101907effffffffffffffffffffffffffffffffffffffffffffffffffffffffffffff1916908160001a905350600a85611dbf9190614015565b9450611d3d565b8093505050505b919050565b6000611de08260000161244d565b9050919050565b60007f80ac58cd000000000000000000000000000000000000000000000000000000007bffffffffffffffffffffffffffffffffffffffffffffffffffffffff1916827bffffffffffffffffffffffffffffffffffffffffffffffffffffffff19161480611eb257507f5b5e139f000000000000000000000000000000000000000000000000000000007bffffffffffffffffffffffffffffffffffffffffffffffffffffffff1916827bffffffffffffffffffffffffffffffffffffffffffffffffffffffff1916145b80611ec25750611ec18261245e565b5b9050919050565b60008073ffffffffffffffffffffffffffffffffffffffff166004600084815260200190815260200160002060009054906101000a900473ffffffffffffffffffffffffffffffffffffffff1673ffffffffffffffffffffffffffffffffffffffff1614159050919050565b611f408383836124d8565b505050565b505050565b611f548282610e1d565b611fe357611f798173ffffffffffffffffffffffffffffffffffffffff166014612530565b611f878360001c6020612530565b604051602001611f9892919061410f565b6040516020818303038152906040526040517f08c379a0000000000000000000000000000000000000000000000000000000008152600401611fda9190612f96565b60405180910390fd5b5050565b611ff18282610e1d565b6120c357600160008084815260200190815260200160002060000160008373ffffffffffffffffffffffffffffffffffffffff1673ffffffffffffffffffffffffffffffffffffffff16815260200190815260200160002060006101000a81548160ff0219169083151502179055506120686111e6565b73ffffffffffffffffffffffffffffffffffffffff168173ffffffffffffffffffffffffffffffffffffffff16837f2f8788117e7eff1d82e926ec794901d17c78024a50270940304540a733656f0d60405160405180910390a45b5050565b60006120ef836000018373ffffffffffffffffffffffffffffffffffffffff1660001b61276c565b905092915050565b6121018282610e1d565b156121d457600080600084815260200190815260200160002060000160008373ffffffffffffffffffffffffffffffffffffffff1673ffffffffffffffffffffffffffffffffffffffff16815260200190815260200160002060006101000a81548160ff0219169083151502179055506121796111e6565b73ffffffffffffffffffffffffffffffffffffffff168173ffffffffffffffffffffffffffffffffffffffff16837ff6391f5c32d9c69d2a47ea670b442974b53935d1edc7fd64eb21e047a839171b60405160405180910390a45b5050565b6000612200836000018373ffffffffffffffffffffffffffffffffffffffff1660001b6127dc565b905092915050565b612210610b65565b61224f576040517f08c379a000000000000000000000000000000000000000000000000000000000815260040161224690614195565b60405180910390fd5b565b612259610b65565b15612299576040517f08c379a000000000000000000000000000000000000000000000000000000000815260040161229090614201565b60405180910390fd5b565b60008260000182815481106122b3576122b261395c565b5b9060005260206000200154905092915050565b60006122e78473ffffffffffffffffffffffffffffffffffffffff166128f0565b15612440578373ffffffffffffffffffffffffffffffffffffffff1663150b7a026123106111e6565b8786866040518563ffffffff1660e01b81526004016123329493929190614276565b6020604051808303816000875af192505050801561236e57506040513d601f19601f8201168201806040525081019061236b91906142d7565b60015b6123f0573d806000811461239e576040519150601f19603f3d011682016040523d82523d6000602084013e6123a3565b606091505b5060008151036123e8576040517f08c379a00000000000000000000000000000000000000000000000000000000081526004016123df90613f7e565b60405180910390fd5b805181602001fd5b63150b7a0260e01b7bffffffffffffffffffffffffffffffffffffffffffffffffffffffff1916817bffffffffffffffffffffffffffffffffffffffffffffffffffffffff191614915050612445565b600190505b949350505050565b600081600001805490509050919050565b60007f5a05180f000000000000000000000000000000000000000000000000000000007bffffffffffffffffffffffffffffffffffffffffffffffffffffffff1916827bffffffffffffffffffffffffffffffffffffffffffffffffffffffff191614806124d157506124d082612913565b5b9050919050565b6124e383838361298d565b6124eb610b65565b1561252b576040517f08c379a000000000000000000000000000000000000000000000000000000000815260040161252290614376565b60405180910390fd5b505050565b6060600060028360026125439190614396565b61254d9190613d94565b67ffffffffffffffff81111561256657612565613310565b5b6040519080825280601f01601f1916602001820160405280156125985781602001600182028036833780820191505090505b5090507f3000000000000000000000000000000000000000000000000000000000000000816000815181106125d0576125cf61395c565b5b60200101907effffffffffffffffffffffffffffffffffffffffffffffffffffffffffffff1916908160001a9053507f7800000000000000000000000000000000000000000000000000000000000000816001815181106126345761263361395c565b5b60200101907effffffffffffffffffffffffffffffffffffffffffffffffffffffffffffff1916908160001a905350600060018460026126749190614396565b61267e9190613d94565b90505b600181111561271e577f3031323334353637383961626364656600000000000000000000000000000000600f8616601081106126c0576126bf61395c565b5b1a60f81b8282815181106126d7576126d661395c565b5b60200101907effffffffffffffffffffffffffffffffffffffffffffffffffffffffffffff1916908160001a905350600485901c945080612717906143d8565b9050612681565b5060008414612762576040517f08c379a00000000000000000000000000000000000000000000000000000000081526004016127599061444d565b60405180910390fd5b8091505092915050565b60006127788383612a9f565b6127d15782600001829080600181540180825580915050600190039060005260206000200160009091909190915055826000018054905083600101600084815260200190815260200160002081905550600190506127d6565b600090505b92915050565b600080836001016000848152602001908152602001600020549050600081146128e457600060018261280e9190613d60565b90506000600186600001805490506128269190613d60565b90508181146128955760008660000182815481106128475761284661395c565b5b906000526020600020015490508087600001848154811061286b5761286a61395c565b5b90600052602060002001819055508387600101600083815260200190815260200160002081905550505b856000018054806128a9576128a861446d565b5b6001900381819060005260206000200160009055905585600101600086815260200190815260200160002060009055600193505050506128ea565b60009150505b92915050565b6000808273ffffffffffffffffffffffffffffffffffffffff163b119050919050565b60007f7965db0b000000000000000000000000000000000000000000000000000000007bffffffffffffffffffffffffffffffffffffffffffffffffffffffff1916827bffffffffffffffffffffffffffffffffffffffffffffffffffffffff19161480612986575061298582612ac2565b5b9050919050565b612998838383612b2c565b600073ffffffffffffffffffffffffffffffffffffffff168373ffffffffffffffffffffffffffffffffffffffff16036129da576129d581612b31565b612a19565b8173ffffffffffffffffffffffffffffffffffffffff168373ffffffffffffffffffffffffffffffffffffffff1614612a1857612a178382612b7a565b5b5b600073ffffffffffffffffffffffffffffffffffffffff168273ffffffffffffffffffffffffffffffffffffffff1603612a5b57612a5681612ce7565b612a9a565b8273ffffffffffffffffffffffffffffffffffffffff168273ffffffffffffffffffffffffffffffffffffffff1614612a9957612a988282612db8565b5b5b505050565b600080836001016000848152602001908152602001600020541415905092915050565b60007f01ffc9a7000000000000000000000000000000000000000000000000000000007bffffffffffffffffffffffffffffffffffffffffffffffffffffffff1916827bffffffffffffffffffffffffffffffffffffffffffffffffffffffff1916149050919050565b505050565b600a80549050600b600083815260200190815260200160002081905550600a81908060018154018082558091505060019003906000526020600020016000909190919091505550565b60006001612b8784610cbd565b612b919190613d60565b9050600060096000848152602001908152602001600020549050818114612c76576000600860008673ffffffffffffffffffffffffffffffffffffffff1673ffffffffffffffffffffffffffffffffffffffff168152602001908152602001600020600084815260200190815260200160002054905080600860008773ffffffffffffffffffffffffffffffffffffffff1673ffffffffffffffffffffffffffffffffffffffff168152602001908152602001600020600084815260200190815260200160002081905550816009600083815260200190815260200160002081905550505b6009600084815260200190815260200160002060009055600860008573ffffffffffffffffffffffffffffffffffffffff1673ffffffffffffffffffffffffffffffffffffffff16815260200190815260200160002060008381526020019081526020016000206000905550505050565b60006001600a80549050612cfb9190613d60565b90506000600b60008481526020019081526020016000205490506000600a8381548110612d2b57612d2a61395c565b5b9060005260206000200154905080600a8381548110612d4d57612d4c61395c565b5b906000526020600020018190555081600b600083815260200190815260200160002081905550600b600085815260200190815260200160002060009055600a805480612d9c57612d9b61446d565b5b6001900381819060005260206000200160009055905550505050565b6000612dc383610cbd565b905081600860008573ffffffffffffffffffffffffffffffffffffffff1673ffffffffffffffffffffffffffffffffffffffff168152602001908152602001600020600083815260200190815260200160002081905550806009600084815260200190815260200160002081905550505050565b6000604051905090565b600080fd5b600080fd5b60007fffffffff0000000000000000000000000000000000000000000000000000000082169050919050565b612e8081612e4b565b8114612e8b57600080fd5b50565b600081359050612e9d81612e77565b92915050565b600060208284031215612eb957612eb8612e41565b5b6000612ec784828501612e8e565b91505092915050565b60008115159050919050565b612ee581612ed0565b82525050565b6000602082019050612f006000830184612edc565b92915050565b600081519050919050565b600082825260208201905092915050565b60005b83811015612f40578082015181840152602081019050612f25565b60008484015250505050565b6000601f19601f8301169050919050565b6000612f6882612f06565b612f728185612f11565b9350612f82818560208601612f22565b612f8b81612f4c565b840191505092915050565b60006020820190508181036000830152612fb08184612f5d565b905092915050565b6000819050919050565b612fcb81612fb8565b8114612fd657600080fd5b50565b600081359050612fe881612fc2565b92915050565b60006020828403121561300457613003612e41565b5b600061301284828501612fd9565b91505092915050565b600073ffffffffffffffffffffffffffffffffffffffff82169050919050565b60006130468261301b565b9050919050565b6130568161303b565b82525050565b6000602082019050613071600083018461304d565b92915050565b6130808161303b565b811461308b57600080fd5b50565b60008135905061309d81613077565b92915050565b600080604083850312156130ba576130b9612e41565b5b60006130c88582860161308e565b92505060206130d985828601612fd9565b9150509250929050565b6130ec81612fb8565b82525050565b600060208201905061310760008301846130e3565b92915050565b60008060006060848603121561312657613125612e41565b5b60006131348682870161308e565b93505060206131458682870161308e565b925050604061315686828701612fd9565b9150509250925092565b6000819050919050565b61317381613160565b811461317e57600080fd5b50565b6000813590506131908161316a565b92915050565b6000602082840312156131ac576131ab612e41565b5b60006131ba84828501613181565b91505092915050565b6131cc81613160565b82525050565b60006020820190506131e760008301846131c3565b92915050565b6000806040838503121561320457613203612e41565b5b600061321285828601613181565b92505060206132238582860161308e565b9150509250929050565b60006020828403121561324357613242612e41565b5b60006132518482850161308e565b91505092915050565b6000806040838503121561327157613270612e41565b5b600061327f85828601613181565b925050602061329085828601612fd9565b9150509250929050565b6132a381612ed0565b81146132ae57600080fd5b50565b6000813590506132c08161329a565b92915050565b600080604083850312156132dd576132dc612e41565b5b60006132eb8582860161308e565b92505060206132fc858286016132b1565b9150509250929050565b600080fd5b600080fd5b7f4e487b7100000000000000000000000000000000000000000000000000000000600052604160045260246000fd5b61334882612f4c565b810181811067ffffffffffffffff8211171561336757613366613310565b5b80604052505050565b600061337a612e37565b9050613386828261333f565b919050565b600067ffffffffffffffff8211156133a6576133a5613310565b5b6133af82612f4c565b9050602081019050919050565b82818337600083830152505050565b60006133de6133d98461338b565b613370565b9050828152602081018484840111156133fa576133f961330b565b5b6134058482856133bc565b509392505050565b600082601f83011261342257613421613306565b5b81356134328482602086016133cb565b91505092915050565b6000806000806080858703121561345557613454612e41565b5b60006134638782880161308e565b94505060206134748782880161308e565b935050604061348587828801612fd9565b925050606085013567ffffffffffffffff8111156134a6576134a5612e46565b5b6134b28782880161340d565b91505092959194509250565b600080604083850312156134d5576134d4612e41565b5b60006134e38582860161308e565b92505060206134f48582860161308e565b9150509250929050565b7f4e487b7100000000000000000000000000000000000000000000000000000000600052602260045260246000fd5b6000600282049050600182168061354557607f821691505b602082108103613558576135576134fe565b5b50919050565b7f4552433732313a20617070726f76616c20746f2063757272656e74206f776e6560008201527f7200000000000000000000000000000000000000000000000000000000000000602082015250565b60006135ba602183612f11565b91506135c58261355e565b604082019050919050565b600060208201905081810360008301526135e9816135ad565b9050919050565b7f4552433732313a20617070726f76652063616c6c6572206973206e6f7420746f60008201527f6b656e206f776e6572206e6f7220617070726f76656420666f7220616c6c0000602082015250565b600061364c603e83612f11565b9150613657826135f0565b604082019050919050565b6000602082019050818103600083015261367b8161363f565b9050919050565b7f4552433732313a2063616c6c6572206973206e6f7420746f6b656e206f776e6560008201527f72206e6f7220617070726f766564000000000000000000000000000000000000602082015250565b60006136de602e83612f11565b91506136e982613682565b604082019050919050565b6000602082019050818103600083015261370d816136d1565b9050919050565b7f455243373231456e756d657261626c653a206f776e657220696e646578206f7560008201527f74206f6620626f756e6473000000000000000000000000000000000000000000602082015250565b6000613770602b83612f11565b915061377b82613714565b604082019050919050565b6000602082019050818103600083015261379f81613763565b9050919050565b7f416363657373436f6e74726f6c3a2063616e206f6e6c792072656e6f756e636560008201527f20726f6c657320666f722073656c660000000000000000000000000000000000602082015250565b6000613802602f83612f11565b915061380d826137a6565b604082019050919050565b60006020820190508181036000830152613831816137f5565b9050919050565b7f4552433732315072657365744d696e7465725061757365724175746f49643a2060008201527f6d75737420686176652070617573657220726f6c6520746f20756e7061757365602082015250565b6000613894604083612f11565b915061389f82613838565b604082019050919050565b600060208201905081810360008301526138c381613887565b9050919050565b7f455243373231456e756d657261626c653a20676c6f62616c20696e646578206f60008201527f7574206f6620626f756e64730000000000000000000000000000000000000000602082015250565b6000613926602c83612f11565b9150613931826138ca565b604082019050919050565b6000602082019050818103600083015261395581613919565b9050919050565b7f4e487b7100000000000000000000000000000000000000000000000000000000600052603260045260246000fd5b7f4552433732313a20696e76616c696420746f6b656e2049440000000000000000600082015250565b60006139c1601883612f11565b91506139cc8261398b565b602082019050919050565b600060208201905081810360008301526139f0816139b4565b9050919050565b7f4552433732315072657365744d696e7465725061757365724175746f49643a2060008201527f6d7573742068617665206d696e74657220726f6c6520746f206d696e74000000602082015250565b6000613a53603d83612f11565b9150613a5e826139f7565b604082019050919050565b60006020820190508181036000830152613a8281613a46565b9050919050565b7f4552433732313a2061646472657373207a65726f206973206e6f74206120766160008201527f6c6964206f776e65720000000000000000000000000000000000000000000000602082015250565b6000613ae5602983612f11565b9150613af082613a89565b604082019050919050565b60006020820190508181036000830152613b1481613ad8565b9050919050565b7f4552433732315072657365744d696e7465725061757365724175746f49643a2060008201527f6d75737420686176652070617573657220726f6c6520746f2070617573650000602082015250565b6000613b77603e83612f11565b9150613b8282613b1b565b604082019050919050565b60006020820190508181036000830152613ba681613b6a565b9050919050565b600081905092915050565b6000613bc382612f06565b613bcd8185613bad565b9350613bdd818560208601612f22565b80840191505092915050565b6000613bf58285613bb8565b9150613c018284613bb8565b91508190509392505050565b7f4552433732313a207472616e736665722066726f6d20696e636f72726563742060008201527f6f776e6572000000000000000000000000000000000000000000000000000000602082015250565b6000613c69602583612f11565b9150613c7482613c0d565b604082019050919050565b60006020820190508181036000830152613c9881613c5c565b9050919050565b7f4552433732313a207472616e7366657220746f20746865207a65726f2061646460008201527f7265737300000000000000000000000000000000000000000000000000000000602082015250565b6000613cfb602483612f11565b9150613d0682613c9f565b604082019050919050565b60006020820190508181036000830152613d2a81613cee565b9050919050565b7f4e487b7100000000000000000000000000000000000000000000000000000000600052601160045260246000fd5b6000613d6b82612fb8565b9150613d7683612fb8565b9250828203905081811115613d8e57613d8d613d31565b5b92915050565b6000613d9f82612fb8565b9150613daa83612fb8565b9250828201905080821115613dc257613dc1613d31565b5b92915050565b7f4552433732313a206d696e7420746f20746865207a65726f2061646472657373600082015250565b6000613dfe602083612f11565b9150613e0982613dc8565b602082019050919050565b60006020820190508181036000830152613e2d81613df1565b9050919050565b7f4552433732313a20746f6b656e20616c7265616479206d696e74656400000000600082015250565b6000613e6a601c83612f11565b9150613e7582613e34565b602082019050919050565b60006020820190508181036000830152613e9981613e5d565b9050919050565b7f4552433732313a20617070726f766520746f2063616c6c657200000000000000600082015250565b6000613ed6601983612f11565b9150613ee182613ea0565b602082019050919050565b60006020820190508181036000830152613f0581613ec9565b9050919050565b7f4552433732313a207472616e7366657220746f206e6f6e20455243373231526560008201527f63656976657220696d706c656d656e7465720000000000000000000000000000602082015250565b6000613f68603283612f11565b9150613f7382613f0c565b604082019050919050565b60006020820190508181036000830152613f9781613f5b565b9050919050565b6000613fa982612fb8565b91507fffffffffffffffffffffffffffffffffffffffffffffffffffffffffffffffff8203613fdb57613fda613d31565b5b600182019050919050565b7f4e487b7100000000000000000000000000000000000000000000000000000000600052601260045260246000fd5b600061402082612fb8565b915061402b83612fb8565b92508261403b5761403a613fe6565b5b828204905092915050565b600061405182612fb8565b915061405c83612fb8565b92508261406c5761406b613fe6565b5b828206905092915050565b7f416363657373436f6e74726f6c3a206163636f756e7420000000000000000000600082015250565b60006140ad601783613bad565b91506140b882614077565b601782019050919050565b7f206973206d697373696e6720726f6c6520000000000000000000000000000000600082015250565b60006140f9601183613bad565b9150614104826140c3565b601182019050919050565b600061411a826140a0565b91506141268285613bb8565b9150614131826140ec565b915061413d8284613bb8565b91508190509392505050565b7f5061757361626c653a206e6f7420706175736564000000000000000000000000600082015250565b600061417f601483612f11565b915061418a82614149565b602082019050919050565b600060208201905081810360008301526141ae81614172565b9050919050565b7f5061757361626c653a2070617573656400000000000000000000000000000000600082015250565b60006141eb601083612f11565b91506141f6826141b5565b602082019050919050565b6000602082019050818103600083015261421a816141de565b9050919050565b600081519050919050565b600082825260208201905092915050565b600061424882614221565b614252818561422c565b9350614262818560208601612f22565b61426b81612f4c565b840191505092915050565b600060808201905061428b600083018761304d565b614298602083018661304d565b6142a560408301856130e3565b81810360608301526142b7818461423d565b905095945050505050565b6000815190506142d181612e77565b92915050565b6000602082840312156142ed576142ec612e41565b5b60006142fb848285016142c2565b91505092915050565b7f4552433732315061757361626c653a20746f6b656e207472616e73666572207760008201527f68696c6520706175736564000000000000000000000000000000000000000000602082015250565b6000614360602b83612f11565b915061436b82614304565b604082019050919050565b6000602082019050818103600083015261438f81614353565b9050919050565b60006143a182612fb8565b91506143ac83612fb8565b92508282026143ba81612fb8565b915082820484148315176143d1576143d0613d31565b5b5092915050565b60006143e382612fb8565b9150600082036143f6576143f5613d31565b5b600182039050919050565b7f537472696e67733a20686578206c656e67746820696e73756666696369656e74600082015250565b6000614437602083612f11565b915061444282614401565b602082019050919050565b600060208201905081810360008301526144668161442a565b9050919050565b7f4e487b7100000000000000000000000000000000000000000000000000000000600052603160045260246000fdfea26469706673582212200a95181f2ec379240335338009d0101094e9da4bef34f0f6454cda7ae0d5834364736f6c63430008130033",
  "linkReferences": {},
  "deployedLinkReferences": {}
}