{
  "_format": "hh-sol-artifact-1",
  "contractName": "ERC721Regular",
  "sourceName": "contracts/token/ERC721Regular.sol",
  "abi": [
    {
      "inputs": [
        {
          "internalType": "string",
          "name": "name",
          "type": "string"
        },
        {
          "internalType": "string",
          "name": "symbol",
          "type": "string"
        }
      ],
      "stateMutability": "nonpayable",
      "type": "constructor"
    },
    {
      "anonymous": false,
      "inputs": [
        {
          "indexed": true,
          "internalType": "address",
          "name": "owner",
          "type": "address"
        },
        {
          "indexed": true,
          "internalType": "address",
          "name": "approved",
          "type": "address"
        },
        {
          "indexed": true,
          "internalType": "uint256",
          "name": "tokenId",
          "type": "uint256"
        }
      ],
      "name": "Approval",
      "type": "event"
    },
    {
      "anonymous": false,
      "inputs": [
        {
          "indexed": true,
          "internalType": "address",
          "name": "owner",
          "type": "address"
        },
        {
          "indexed": true,
          "internalType": "address",
          "name": "operator",
          "type": "address"
        },
        {
          "indexed": false,
          "internalType": "bool",
          "name": "approved",
          "type": "bool"
        }
      ],
      "name": "ApprovalForAll",
      "type": "event"
    },
    {
      "anonymous": false,
      "inputs": [
        {
          "indexed": false,
          "internalType": "address",
          "name": "account",
          "type": "address"
        }
      ],
      "name": "Paused",
      "type": "event"
    },
    {
      "anonymous": false,
      "inputs": [
        {
          "indexed": true,
          "internalType": "bytes32",
          "name": "role",
          "type": "bytes32"
        },
        {
          "indexed": true,
          "internalType": "bytes32",
          "name": "previousAdminRole",
          "type": "bytes32"
        },
        {
          "indexed": true,
          "internalType": "bytes32",
          "name": "newAdminRole",
          "type": "bytes32"
        }
      ],
      "name": "RoleAdminChanged",
      "type": "event"
    },
    {
      "anonymous": false,
      "inputs": [
        {
          "indexed": true,
          "internalType": "bytes32",
          "name": "role",
          "type": "bytes32"
        },
        {
          "indexed": true,
          "internalType": "address",
          "name": "account",
          "type": "address"
        },
        {
          "indexed": true,
          "internalType": "address",
          "name": "sender",
          "type": "address"
        }
      ],
      "name": "RoleGranted",
      "type": "event"
    },
    {
      "anonymous": false,
      "inputs": [
        {
          "indexed": true,
          "internalType": "bytes32",
          "name": "role",
          "type": "bytes32"
        },
        {
          "indexed": true,
          "internalType": "address",
          "name": "account",
          "type": "address"
        },
        {
          "indexed": true,
          "internalType": "address",
          "name": "sender",
          "type": "address"
        }
      ],
      "name": "RoleRevoked",
      "type": "event"
    },
    {
      "anonymous": false,
      "inputs": [
        {
          "indexed": true,
          "internalType": "address",
          "name": "from",
          "type": "address"
        },
        {
          "indexed": true,
          "internalType": "address",
          "name": "to",
          "type": "address"
        },
        {
          "indexed": true,
          "internalType": "uint256",
          "name": "tokenId",
          "type": "uint256"
        }
      ],
      "name": "Transfer",
      "type": "event"
    },
    {
      "anonymous": false,
      "inputs": [
        {
          "indexed": false,
          "internalType": "address",
          "name": "account",
          "type": "address"
        }
      ],
      "name": "Unpaused",
      "type": "event"
    },
    {
      "inputs": [],
      "name": "DEFAULT_ADMIN_ROLE",
      "outputs": [
        {
          "internalType": "bytes32",
          "name": "",
          "type": "bytes32"
        }
      ],
      "stateMutability": "view",
      "type": "function"
    },
    {
      "inputs": [],
      "name": "MINTER_ROLE",
      "outputs": [
        {
          "internalType": "bytes32",
          "name": "",
          "type": "bytes32"
        }
      ],
      "stateMutability": "view",
      "type": "function"
    },
    {
      "inputs": [],
      "name": "PAUSER_ROLE",
      "outputs": [
        {
          "internalType": "bytes32",
          "name": "",
          "type": "bytes32"
        }
      ],
      "stateMutability": "view",
      "type": "function"
    },
    {
      "inputs": [
        {
          "internalType": "address",
          "name": "to",
          "type": "address"
        },
        {
          "internalType": "uint256",
          "name": "tokenId",
          "type": "uint256"
        }
      ],
      "name": "approve",
      "outputs": [],
      "stateMutability": "nonpayable",
      "type": "function"
    },
    {
      "inputs": [
        {
          "internalType": "address",
          "name": "owner",
          "type": "address"
        }
      ],
      "name": "balanceOf",
      "outputs": [
        {
          "internalType": "uint256",
          "name": "",
          "type": "uint256"
        }
      ],
      "stateMutability": "view",
      "type": "function"
    },
    {
      "inputs": [
        {
          "internalType": "uint256",
          "name": "tokenId",
          "type": "uint256"
        }
      ],
      "name": "burn",
      "outputs": [],
      "stateMutability": "nonpayable",
      "type": "function"
    },
    {
      "inputs": [
        {
          "internalType": "uint256",
          "name": "tokenId",
          "type": "uint256"
        }
      ],
      "name": "getApproved",
      "outputs": [
        {
          "internalType": "address",
          "name": "",
          "type": "address"
        }
      ],
      "stateMutability": "view",
      "type": "function"
    },
    {
      "inputs": [
        {
          "internalType": "bytes32",
          "name": "role",
          "type": "bytes32"
        }
      ],
      "name": "getRoleAdmin",
      "outputs": [
        {
          "internalType": "bytes32",
          "name": "",
          "type": "bytes32"
        }
      ],
      "stateMutability": "view",
      "type": "function"
    },
    {
      "inputs": [
        {
          "internalType": "bytes32",
          "name": "role",
          "type": "bytes32"
        },
        {
          "internalType": "uint256",
          "name": "index",
          "type": "uint256"
        }
      ],
      "name": "getRoleMember",
      "outputs": [
        {
          "internalType": "address",
          "name": "",
          "type": "address"
        }
      ],
      "stateMutability": "view",
      "type": "function"
    },
    {
      "inputs": [
        {
          "internalType": "bytes32",
          "name": "role",
          "type": "bytes32"
        }
      ],
      "name": "getRoleMemberCount",
      "outputs": [
        {
          "internalType": "uint256",
          "name": "",
          "type": "uint256"
        }
      ],
      "stateMutability": "view",
      "type": "function"
    },
    {
      "inputs": [
        {
          "internalType": "bytes32",
          "name": "role",
          "type": "bytes32"
        },
        {
          "internalType": "address",
          "name": "account",
          "type": "address"
        }
      ],
      "name": "grantRole",
      "outputs": [],
      "stateMutability": "nonpayable",
      "type": "function"
    },
    {
      "inputs": [
        {
          "internalType": "bytes32",
          "name": "role",
          "type": "bytes32"
        },
        {
          "internalType": "address",
          "name": "account",
          "type": "address"
        }
      ],
      "name": "hasRole",
      "outputs": [
        {
          "internalType": "bool",
          "name": "",
          "type": "bool"
        }
      ],
      "stateMutability": "view",
      "type": "function"
    },
    {
      "inputs": [
        {
          "internalType": "address",
          "name": "owner",
          "type": "address"
        },
        {
          "internalType": "address",
          "name": "operator",
          "type": "address"
        }
      ],
      "name": "isApprovedForAll",
      "outputs": [
        {
          "internalType": "bool",
          "name": "",
          "type": "bool"
        }
      ],
      "stateMutability": "view",
      "type": "function"
    },
    {
      "inputs": [
        {
          "internalType": "address",
          "name": "to",
          "type": "address"
        }
      ],
      "name": "mint",
      "outputs": [],
      "stateMutability": "nonpayable",
      "type": "function"
    },
    {
      "inputs": [],
      "name": "name",
      "outputs": [
        {
          "internalType": "string",
          "name": "",
          "type": "string"
        }
      ],
      "stateMutability": "view",
      "type": "function"
    },
    {
      "inputs": [
        {
          "internalType": "uint256",
          "name": "tokenId",
          "type": "uint256"
        }
      ],
      "name": "ownerOf",
      "outputs": [
        {
          "internalType": "address",
          "name": "",
          "type": "address"
        }
      ],
      "stateMutability": "view",
      "type": "function"
    },
    {
      "inputs": [],
      "name": "pause",
      "outputs": [],
      "stateMutability": "nonpayable",
      "type": "function"
    },
    {
      "inputs": [],
      "name": "paused",
      "outputs": [
        {
          "internalType": "bool",
          "name": "",
          "type": "bool"
        }
      ],
      "stateMutability": "view",
      "type": "function"
    },
    {
      "inputs": [
        {
          "internalType": "bytes32",
          "name": "role",
          "type": "bytes32"
        },
        {
          "internalType": "address",
          "name": "account",
          "type": "address"
        }
      ],
      "name": "renounceRole",
      "outputs": [],
      "stateMutability": "nonpayable",
      "type": "function"
    },
    {
      "inputs": [
        {
          "internalType": "bytes32",
          "name": "role",
          "type": "bytes32"
        },
        {
          "internalType": "address",
          "name": "account",
          "type": "address"
        }
      ],
      "name": "revokeRole",
      "outputs": [],
      "stateMutability": "nonpayable",
      "type": "function"
    },
    {
      "inputs": [
        {
          "internalType": "address",
          "name": "from",
          "type": "address"
        },
        {
          "internalType": "address",
          "name": "to",
          "type": "address"
        },
        {
          "internalType": "uint256",
          "name": "tokenId",
          "type": "uint256"
        }
      ],
      "name": "safeTransferFrom",
      "outputs": [],
      "stateMutability": "nonpayable",
      "type": "function"
    },
    {
      "inputs": [
        {
          "internalType": "address",
          "name": "from",
          "type": "address"
        },
        {
          "internalType": "address",
          "name": "to",
          "type": "address"
        },
        {
          "internalType": "uint256",
          "name": "tokenId",
          "type": "uint256"
        },
        {
          "internalType": "bytes",
          "name": "data",
          "type": "bytes"
        }
      ],
      "name": "safeTransferFrom",
      "outputs": [],
      "stateMutability": "nonpayable",
      "type": "function"
    },
    {
      "inputs": [
        {
          "internalType": "address",
          "name": "operator",
          "type": "address"
        },
        {
          "internalType": "bool",
          "name": "approved",
          "type": "bool"
        }
      ],
      "name": "setApprovalForAll",
      "outputs": [],
      "stateMutability": "nonpayable",
      "type": "function"
    },
    {
      "inputs": [
        {
          "internalType": "uint256",
          "name": "tokenId",
          "type": "uint256"
        },
        {
          "internalType": "string",
          "name": "uri",
          "type": "string"
        }
      ],
      "name": "setTokenURI",
      "outputs": [],
      "stateMutability": "nonpayable",
      "type": "function"
    },
    {
      "inputs": [
        {
          "internalType": "bytes4",
          "name": "interfaceId",
          "type": "bytes4"
        }
      ],
      "name": "supportsInterface",
      "outputs": [
        {
          "internalType": "bool",
          "name": "",
          "type": "bool"
        }
      ],
      "stateMutability": "view",
      "type": "function"
    },
    {
      "inputs": [],
      "name": "symbol",
      "outputs": [
        {
          "internalType": "string",
          "name": "",
          "type": "string"
        }
      ],
      "stateMutability": "view",
      "type": "function"
    },
    {
      "inputs": [
        {
          "internalType": "uint256",
          "name": "index",
          "type": "uint256"
        }
      ],
      "name": "tokenByIndex",
      "outputs": [
        {
          "internalType": "uint256",
          "name": "",
          "type": "uint256"
        }
      ],
      "stateMutability": "view",
      "type": "function"
    },
    {
      "inputs": [
        {
          "internalType": "address",
          "name": "owner",
          "type": "address"
        },
        {
          "internalType": "uint256",
          "name": "index",
          "type": "uint256"
        }
      ],
      "name": "tokenOfOwnerByIndex",
      "outputs": [
        {
          "internalType": "uint256",
          "name": "",
          "type": "uint256"
        }
      ],
      "stateMutability": "view",
      "type": "function"
    },
    {
      "inputs": [
        {
          "internalType": "uint256",
          "name": "tokenId",
          "type": "uint256"
        }
      ],
      "name": "tokenURI",
      "outputs": [
        {
          "internalType": "string",
          "name": "",
          "type": "string"
        }
      ],
      "stateMutability": "view",
      "type": "function"
    },
    {
      "inputs": [],
      "name": "totalSupply",
      "outputs": [
        {
          "internalType": "uint256",
          "name": "",
          "type": "uint256"
        }
      ],
      "stateMutability": "view",
      "type": "function"
    },
    {
      "inputs": [
        {
          "internalType": "address",
          "name": "from",
          "type": "address"
        },
        {
          "internalType": "address",
          "name": "to",
          "type": "address"
        },
        {
          "internalType": "uint256",
          "name": "tokenId",
          "type": "uint256"
        }
      ],
      "name": "transferFrom",
      "outputs": [],
      "stateMutability": "nonpayable",
      "type": "function"
    },
    {
      "inputs": [],
      "name": "unpause",
      "outputs": [],
      "stateMutability": "nonpayable",
      "type": "function"
    }
  ],
  "bytecode": "0x60806040523480156200001157600080fd5b5060405162004f2f38038062004f2f83398181016040528101906200003791906200056e565b818160405180602001604052806000815250828281600290816200005c91906200083e565b5080600390816200006e91906200083e565b5050506000600c60006101000a81548160ff02191690831515021790555080600e90816200009d91906200083e565b50620000c26000801b620000b66200014f60201b60201c565b6200015760201b60201c565b620001037f9f2df0fed2c77648de5860a4cc508cd0818c85b8b8a1ab4ceeef8d981c8956a6620000f76200014f60201b60201c565b6200015760201b60201c565b620001447f65d7a28e3265b37a6474929f336521b332c1681b933f6cb9f3376673440d862a620001386200014f60201b60201c565b6200015760201b60201c565b505050505062000925565b600033905090565b6200016982826200016d60201b60201c565b5050565b6200017f8282620001ab60201b60201c565b620001a681600160008581526020019081526020016000206200029c60201b90919060201c565b505050565b620001bd8282620002d460201b60201c565b6200029857600160008084815260200190815260200160002060000160008373ffffffffffffffffffffffffffffffffffffffff1673ffffffffffffffffffffffffffffffffffffffff16815260200190815260200160002060006101000a81548160ff0219169083151502179055506200023d6200014f60201b60201c565b73ffffffffffffffffffffffffffffffffffffffff168173ffffffffffffffffffffffffffffffffffffffff16837f2f8788117e7eff1d82e926ec794901d17c78024a50270940304540a733656f0d60405160405180910390a45b5050565b6000620002cc836000018373ffffffffffffffffffffffffffffffffffffffff1660001b6200033e60201b60201c565b905092915050565b600080600084815260200190815260200160002060000160008373ffffffffffffffffffffffffffffffffffffffff1673ffffffffffffffffffffffffffffffffffffffff16815260200190815260200160002060009054906101000a900460ff16905092915050565b6000620003528383620003b860201b60201c565b620003ad578260000182908060018154018082558091505060019003906000526020600020016000909190919091505582600001805490508360010160008481526020019081526020016000208190555060019050620003b2565b600090505b92915050565b600080836001016000848152602001908152602001600020541415905092915050565b6000604051905090565b600080fd5b600080fd5b600080fd5b600080fd5b6000601f19601f8301169050919050565b7f4e487b7100000000000000000000000000000000000000000000000000000000600052604160045260246000fd5b6200044482620003f9565b810181811067ffffffffffffffff821117156200046657620004656200040a565b5b80604052505050565b60006200047b620003db565b905062000489828262000439565b919050565b600067ffffffffffffffff821115620004ac57620004ab6200040a565b5b620004b782620003f9565b9050602081019050919050565b60005b83811015620004e4578082015181840152602081019050620004c7565b60008484015250505050565b60006200050762000501846200048e565b6200046f565b905082815260208101848484011115620005265762000525620003f4565b5b62000533848285620004c4565b509392505050565b600082601f830112620005535762000552620003ef565b5b815162000565848260208601620004f0565b91505092915050565b60008060408385031215620005885762000587620003e5565b5b600083015167ffffffffffffffff811115620005a957620005a8620003ea565b5b620005b7858286016200053b565b925050602083015167ffffffffffffffff811115620005db57620005da620003ea565b5b620005e9858286016200053b565b9150509250929050565b600081519050919050565b7f4e487b7100000000000000000000000000000000000000000000000000000000600052602260045260246000fd5b600060028204905060018216806200064657607f821691505b6020821081036200065c576200065b620005fe565b5b50919050565b60008190508160005260206000209050919050565b60006020601f8301049050919050565b600082821b905092915050565b600060088302620006c67fffffffffffffffffffffffffffffffffffffffffffffffffffffffffffffffff8262000687565b620006d2868362000687565b95508019841693508086168417925050509392505050565b6000819050919050565b6000819050919050565b60006200071f620007196200071384620006ea565b620006f4565b620006ea565b9050919050565b6000819050919050565b6200073b83620006fe565b620007536200074a8262000726565b84845462000694565b825550505050565b600090565b6200076a6200075b565b6200077781848462000730565b505050565b5b818110156200079f576200079360008262000760565b6001810190506200077d565b5050565b601f821115620007ee57620007b88162000662565b620007c38462000677565b81016020851015620007d3578190505b620007eb620007e28562000677565b8301826200077c565b50505b505050565b600082821c905092915050565b60006200081360001984600802620007f3565b1980831691505092915050565b60006200082e838362000800565b9150826002028217905092915050565b6200084982620005f3565b67ffffffffffffffff8111156200086557620008646200040a565b5b6200087182546200062d565b6200087e828285620007a3565b600060209050601f831160018114620008b65760008415620008a1578287015190505b620008ad858262000820565b8655506200091d565b601f198416620008c68662000662565b60005b82811015620008f057848901518255600182019150602085019450602081019050620008c9565b868310156200091057848901516200090c601f89168262000800565b8355505b6001600288020188555050505b505050505050565b6145fa80620009356000396000f3fe608060405234801561001057600080fd5b50600436106101f05760003560e01c80636352211e1161010f578063a22cb465116100a2578063d539139311610071578063d5391393146105c7578063d547741f146105e5578063e63ab1e914610601578063e985e9c51461061f576101f0565b8063a22cb4651461052f578063b88d4fde1461054b578063c87b56dd14610567578063ca15c87314610597576101f0565b80639010d07c116100de5780639010d07c1461049357806391d14854146104c357806395d89b41146104f3578063a217fddf14610511576101f0565b80636352211e1461040d5780636a6278421461043d57806370a08231146104595780638456cb5914610489576101f0565b80632f2ff15d1161018757806342842e0e1161015657806342842e0e1461038757806342966c68146103a35780634f6ccce7146103bf5780635c975abb146103ef576101f0565b80632f2ff15d146103155780632f745c591461033157806336568abe146103615780633f4ba83a1461037d576101f0565b8063162094c4116101c3578063162094c41461028f57806318160ddd146102ab57806323b872dd146102c9578063248a9ca3146102e5576101f0565b806301ffc9a7146101f557806306fdde0314610225578063081812fc14610243578063095ea7b314610273575b600080fd5b61020f600480360381019061020a9190612ece565b61064f565b60405161021c9190612f16565b60405180910390f35b61022d610661565b60405161023a9190612fc1565b60405180910390f35b61025d60048036038101906102589190613019565b6106f3565b60405161026a9190613087565b60405180910390f35b61028d600480360381019061028891906130ce565b610739565b005b6102a960048036038101906102a49190613243565b610850565b005b6102b3610854565b6040516102c091906132ae565b60405180910390f35b6102e360048036038101906102de91906132c9565b610861565b005b6102ff60048036038101906102fa9190613352565b6108c1565b60405161030c919061338e565b60405180910390f35b61032f600480360381019061032a91906133a9565b6108e0565b005b61034b600480360381019061034691906130ce565b610901565b60405161035891906132ae565b60405180910390f35b61037b600480360381019061037691906133a9565b6109a6565b005b610385610a29565b005b6103a1600480360381019061039c91906132c9565b610aa3565b005b6103bd60048036038101906103b89190613019565b610ac3565b005b6103d960048036038101906103d49190613019565b610b1f565b6040516103e691906132ae565b60405180910390f35b6103f7610b90565b6040516104049190612f16565b60405180910390f35b61042760048036038101906104229190613019565b610ba7565b6040516104349190613087565b60405180910390f35b610457600480360381019061045291906133e9565b610c58565b005b610473600480360381019061046e91906133e9565b610ce8565b60405161048091906132ae565b60405180910390f35b610491610d9f565b005b6104ad60048036038101906104a89190613416565b610e19565b6040516104ba9190613087565b60405180910390f35b6104dd60048036038101906104d891906133a9565b610e48565b6040516104ea9190612f16565b60405180910390f35b6104fb610eb2565b6040516105089190612fc1565b60405180910390f35b610519610f44565b604051610526919061338e565b60405180910390f35b61054960048036038101906105449190613482565b610f4b565b005b61056560048036038101906105609190613563565b610f61565b005b610581600480360381019061057c9190613019565b610fc3565b60405161058e9190612fc1565b60405180910390f35b6105b160048036038101906105ac9190613352565b61102b565b6040516105be91906132ae565b60405180910390f35b6105cf61104f565b6040516105dc919061338e565b60405180910390f35b6105ff60048036038101906105fa91906133a9565b611073565b005b610609611094565b604051610616919061338e565b60405180910390f35b610639600480360381019061063491906135e6565b6110b8565b6040516106469190612f16565b60405180910390f35b600061065a8261114c565b9050919050565b60606002805461067090613655565b80601f016020809104026020016040519081016040528092919081815260200182805461069c90613655565b80156106e95780601f106106be576101008083540402835291602001916106e9565b820191906000526020600020905b8154815290600101906020018083116106cc57829003601f168201915b5050505050905090565b60006106fe826111c6565b6006600083815260200190815260200160002060009054906101000a900473ffffffffffffffffffffffffffffffffffffffff169050919050565b600061074482610ba7565b90508073ffffffffffffffffffffffffffffffffffffffff168373ffffffffffffffffffffffffffffffffffffffff16036107b4576040517f08c379a00000000000000000000000000000000000000000000000000000000081526004016107ab906136f8565b60405180910390fd5b8073ffffffffffffffffffffffffffffffffffffffff166107d3611211565b73ffffffffffffffffffffffffffffffffffffffff1614806108025750610801816107fc611211565b6110b8565b5b610841576040517f08c379a00000000000000000000000000000000000000000000000000000000081526004016108389061378a565b60405180910390fd5b61084b8383611219565b505050565b5050565b6000600a80549050905090565b61087261086c611211565b826112d2565b6108b1576040517f08c379a00000000000000000000000000000000000000000000000000000000081526004016108a89061381c565b60405180910390fd5b6108bc838383611367565b505050565b6000806000838152602001908152602001600020600101549050919050565b6108e9826108c1565b6108f2816115cd565b6108fc83836115e1565b505050565b600061090c83610ce8565b821061094d576040517f08c379a0000000000000000000000000000000000000000000000000000000008152600401610944906138ae565b60405180910390fd5b600860008473ffffffffffffffffffffffffffffffffffffffff1673ffffffffffffffffffffffffffffffffffffffff168152602001908152602001600020600083815260200190815260200160002054905092915050565b6109ae611211565b73ffffffffffffffffffffffffffffffffffffffff168173ffffffffffffffffffffffffffffffffffffffff1614610a1b576040517f08c379a0000000000000000000000000000000000000000000000000000000008152600401610a1290613940565b60405180910390fd5b610a258282611615565b5050565b610a5a7f65d7a28e3265b37a6474929f336521b332c1681b933f6cb9f3376673440d862a610a55611211565b610e48565b610a99576040517f08c379a0000000000000000000000000000000000000000000000000000000008152600401610a90906139d2565b60405180910390fd5b610aa1611649565b565b610abe83838360405180602001604052806000815250610f61565b505050565b610ad4610ace611211565b826112d2565b610b13576040517f08c379a0000000000000000000000000000000000000000000000000000000008152600401610b0a9061381c565b60405180910390fd5b610b1c816116ac565b50565b6000610b29610854565b8210610b6a576040517f08c379a0000000000000000000000000000000000000000000000000000000008152600401610b6190613a64565b60405180910390fd5b600a8281548110610b7e57610b7d613a84565b5b90600052602060002001549050919050565b6000600c60009054906101000a900460ff16905090565b6000806004600084815260200190815260200160002060009054906101000a900473ffffffffffffffffffffffffffffffffffffffff169050600073ffffffffffffffffffffffffffffffffffffffff168173ffffffffffffffffffffffffffffffffffffffff1603610c4f576040517f08c379a0000000000000000000000000000000000000000000000000000000008152600401610c4690613aff565b60405180910390fd5b80915050919050565b610c897f9f2df0fed2c77648de5860a4cc508cd0818c85b8b8a1ab4ceeef8d981c8956a6610c84611211565b610e48565b610cc8576040517f08c379a0000000000000000000000000000000000000000000000000000000008152600401610cbf90613b91565b60405180910390fd5b610cdb81610cd6600d6117c9565b6117d7565b610ce5600d6119b0565b50565b60008073ffffffffffffffffffffffffffffffffffffffff168273ffffffffffffffffffffffffffffffffffffffff1603610d58576040517f08c379a0000000000000000000000000000000000000000000000000000000008152600401610d4f90613c23565b60405180910390fd5b600560008373ffffffffffffffffffffffffffffffffffffffff1673ffffffffffffffffffffffffffffffffffffffff168152602001908152602001600020549050919050565b610dd07f65d7a28e3265b37a6474929f336521b332c1681b933f6cb9f3376673440d862a610dcb611211565b610e48565b610e0f576040517f08c379a0000000000000000000000000000000000000000000000000000000008152600401610e0690613cb5565b60405180910390fd5b610e176119c6565b565b6000610e408260016000868152602001908152602001600020611a2990919063ffffffff16565b905092915050565b600080600084815260200190815260200160002060000160008373ffffffffffffffffffffffffffffffffffffffff1673ffffffffffffffffffffffffffffffffffffffff16815260200190815260200160002060009054906101000a900460ff16905092915050565b606060038054610ec190613655565b80601f0160208091040260200160405190810160405280929190818152602001828054610eed90613655565b8015610f3a5780601f10610f0f57610100808354040283529160200191610f3a565b820191906000526020600020905b815481529060010190602001808311610f1d57829003601f168201915b5050505050905090565b6000801b81565b610f5d610f56611211565b8383611a43565b5050565b610f72610f6c611211565b836112d2565b610fb1576040517f08c379a0000000000000000000000000000000000000000000000000000000008152600401610fa89061381c565b60405180910390fd5b610fbd84848484611baf565b50505050565b6060610fce826111c6565b6000610fd8611c0b565b90506000815111610ff85760405180602001604052806000815250611023565b8061100284611c9d565b604051602001611013929190613d11565b6040516020818303038152906040525b915050919050565b600061104860016000848152602001908152602001600020611dfd565b9050919050565b7f9f2df0fed2c77648de5860a4cc508cd0818c85b8b8a1ab4ceeef8d981c8956a681565b61107c826108c1565b611085816115cd565b61108f8383611615565b505050565b7f65d7a28e3265b37a6474929f336521b332c1681b933f6cb9f3376673440d862a81565b6000600760008473ffffffffffffffffffffffffffffffffffffffff1673ffffffffffffffffffffffffffffffffffffffff16815260200190815260200160002060008373ffffffffffffffffffffffffffffffffffffffff1673ffffffffffffffffffffffffffffffffffffffff16815260200190815260200160002060009054906101000a900460ff16905092915050565b60007f780e9d63000000000000000000000000000000000000000000000000000000007bffffffffffffffffffffffffffffffffffffffffffffffffffffffff1916827bffffffffffffffffffffffffffffffffffffffffffffffffffffffff191614806111bf57506111be82611e12565b5b9050919050565b6111cf81611ef4565b61120e576040517f08c379a000000000000000000000000000000000000000000000000000000000815260040161120590613aff565b60405180910390fd5b50565b600033905090565b816006600083815260200190815260200160002060006101000a81548173ffffffffffffffffffffffffffffffffffffffff021916908373ffffffffffffffffffffffffffffffffffffffff160217905550808273ffffffffffffffffffffffffffffffffffffffff1661128c83610ba7565b73ffffffffffffffffffffffffffffffffffffffff167f8c5be1e5ebec7d5bd14f71427d1e84f3dd0314c0f7b2291e5b200ac8c7c3b92560405160405180910390a45050565b6000806112de83610ba7565b90508073ffffffffffffffffffffffffffffffffffffffff168473ffffffffffffffffffffffffffffffffffffffff161480611320575061131f81856110b8565b5b8061135e57508373ffffffffffffffffffffffffffffffffffffffff16611346846106f3565b73ffffffffffffffffffffffffffffffffffffffff16145b91505092915050565b8273ffffffffffffffffffffffffffffffffffffffff1661138782610ba7565b73ffffffffffffffffffffffffffffffffffffffff16146113dd576040517f08c379a00000000000000000000000000000000000000000000000000000000081526004016113d490613da7565b60405180910390fd5b600073ffffffffffffffffffffffffffffffffffffffff168273ffffffffffffffffffffffffffffffffffffffff160361144c576040517f08c379a000000000000000000000000000000000000000000000000000000000815260040161144390613e39565b60405180910390fd5b611457838383611f60565b611462600082611219565b6001600560008573ffffffffffffffffffffffffffffffffffffffff1673ffffffffffffffffffffffffffffffffffffffff16815260200190815260200160002060008282546114b29190613e88565b925050819055506001600560008473ffffffffffffffffffffffffffffffffffffffff1673ffffffffffffffffffffffffffffffffffffffff16815260200190815260200160002060008282546115099190613ebc565b92505081905550816004600083815260200190815260200160002060006101000a81548173ffffffffffffffffffffffffffffffffffffffff021916908373ffffffffffffffffffffffffffffffffffffffff160217905550808273ffffffffffffffffffffffffffffffffffffffff168473ffffffffffffffffffffffffffffffffffffffff167fddf252ad1be2c89b69c2b068fc378daa952ba7f163c4a11628f55a4df523b3ef60405160405180910390a46115c8838383611f70565b505050565b6115de816115d9611211565b611f75565b50565b6115eb8282612012565b61161081600160008581526020019081526020016000206120f290919063ffffffff16565b505050565b61161f8282612122565b611644816001600085815260200190815260200160002061220390919063ffffffff16565b505050565b611651612233565b6000600c60006101000a81548160ff0219169083151502179055507f5db9ee0a495bf2e6ff9c91a7834c1ba4fdd244a5e8aa4e537bd38aeae4b073aa611695611211565b6040516116a29190613087565b60405180910390a1565b60006116b782610ba7565b90506116c581600084611f60565b6116d0600083611219565b6001600560008373ffffffffffffffffffffffffffffffffffffffff1673ffffffffffffffffffffffffffffffffffffffff16815260200190815260200160002060008282546117209190613e88565b925050819055506004600083815260200190815260200160002060006101000a81549073ffffffffffffffffffffffffffffffffffffffff021916905581600073ffffffffffffffffffffffffffffffffffffffff168273ffffffffffffffffffffffffffffffffffffffff167fddf252ad1be2c89b69c2b068fc378daa952ba7f163c4a11628f55a4df523b3ef60405160405180910390a46117c581600084611f70565b5050565b600081600001549050919050565b600073ffffffffffffffffffffffffffffffffffffffff168273ffffffffffffffffffffffffffffffffffffffff1603611846576040517f08c379a000000000000000000000000000000000000000000000000000000000815260040161183d90613f3c565b60405180910390fd5b61184f81611ef4565b1561188f576040517f08c379a000000000000000000000000000000000000000000000000000000000815260040161188690613fa8565b60405180910390fd5b61189b60008383611f60565b6001600560008473ffffffffffffffffffffffffffffffffffffffff1673ffffffffffffffffffffffffffffffffffffffff16815260200190815260200160002060008282546118eb9190613ebc565b92505081905550816004600083815260200190815260200160002060006101000a81548173ffffffffffffffffffffffffffffffffffffffff021916908373ffffffffffffffffffffffffffffffffffffffff160217905550808273ffffffffffffffffffffffffffffffffffffffff16600073ffffffffffffffffffffffffffffffffffffffff167fddf252ad1be2c89b69c2b068fc378daa952ba7f163c4a11628f55a4df523b3ef60405160405180910390a46119ac60008383611f70565b5050565b6001816000016000828254019250508190555050565b6119ce61227c565b6001600c60006101000a81548160ff0219169083151502179055507f62e78cea01bee320cd4e420270b5ea74000d11b0c9f74754ebdbfc544b05a258611a12611211565b604051611a1f9190613087565b60405180910390a1565b6000611a3883600001836122c6565b60001c905092915050565b8173ffffffffffffffffffffffffffffffffffffffff168373ffffffffffffffffffffffffffffffffffffffff1603611ab1576040517f08c379a0000000000000000000000000000000000000000000000000000000008152600401611aa890614014565b60405180910390fd5b80600760008573ffffffffffffffffffffffffffffffffffffffff1673ffffffffffffffffffffffffffffffffffffffff16815260200190815260200160002060008473ffffffffffffffffffffffffffffffffffffffff1673ffffffffffffffffffffffffffffffffffffffff16815260200190815260200160002060006101000a81548160ff0219169083151502179055508173ffffffffffffffffffffffffffffffffffffffff168373ffffffffffffffffffffffffffffffffffffffff167f17307eab39ab6107e8899845ad3d59bd9653f200f220920489ca2b5937696c3183604051611ba29190612f16565b60405180910390a3505050565b611bba848484611367565b611bc6848484846122f1565b611c05576040517f08c379a0000000000000000000000000000000000000000000000000000000008152600401611bfc906140a6565b60405180910390fd5b50505050565b6060600e8054611c1a90613655565b80601f0160208091040260200160405190810160405280929190818152602001828054611c4690613655565b8015611c935780601f10611c6857610100808354040283529160200191611c93565b820191906000526020600020905b815481529060010190602001808311611c7657829003601f168201915b5050505050905090565b606060008203611ce4576040518060400160405280600181526020017f30000000000000000000000000000000000000000000000000000000000000008152509050611df8565b600082905060005b60008214611d16578080611cff906140c6565b915050600a82611d0f919061413d565b9150611cec565b60008167ffffffffffffffff811115611d3257611d31613118565b5b6040519080825280601f01601f191660200182016040528015611d645781602001600182028036833780820191505090505b5090505b60008514611df157600182611d7d9190613e88565b9150600a85611d8c919061416e565b6030611d989190613ebc565b60f81b818381518110611dae57611dad613a84565b5b60200101907effffffffffffffffffffffffffffffffffffffffffffffffffffffffffffff1916908160001a905350600a85611dea919061413d565b9450611d68565b8093505050505b919050565b6000611e0b82600001612478565b9050919050565b60007f80ac58cd000000000000000000000000000000000000000000000000000000007bffffffffffffffffffffffffffffffffffffffffffffffffffffffff1916827bffffffffffffffffffffffffffffffffffffffffffffffffffffffff19161480611edd57507f5b5e139f000000000000000000000000000000000000000000000000000000007bffffffffffffffffffffffffffffffffffffffffffffffffffffffff1916827bffffffffffffffffffffffffffffffffffffffffffffffffffffffff1916145b80611eed5750611eec82612489565b5b9050919050565b60008073ffffffffffffffffffffffffffffffffffffffff166004600084815260200190815260200160002060009054906101000a900473ffffffffffffffffffffffffffffffffffffffff1673ffffffffffffffffffffffffffffffffffffffff1614159050919050565b611f6b838383612503565b505050565b505050565b611f7f8282610e48565b61200e57611fa48173ffffffffffffffffffffffffffffffffffffffff16601461255b565b611fb28360001c602061255b565b604051602001611fc3929190614237565b6040516020818303038152906040526040517f08c379a00000000000000000000000000000000000000000000000000000000081526004016120059190612fc1565b60405180910390fd5b5050565b61201c8282610e48565b6120ee57600160008084815260200190815260200160002060000160008373ffffffffffffffffffffffffffffffffffffffff1673ffffffffffffffffffffffffffffffffffffffff16815260200190815260200160002060006101000a81548160ff021916908315150217905550612093611211565b73ffffffffffffffffffffffffffffffffffffffff168173ffffffffffffffffffffffffffffffffffffffff16837f2f8788117e7eff1d82e926ec794901d17c78024a50270940304540a733656f0d60405160405180910390a45b5050565b600061211a836000018373ffffffffffffffffffffffffffffffffffffffff1660001b612797565b905092915050565b61212c8282610e48565b156121ff57600080600084815260200190815260200160002060000160008373ffffffffffffffffffffffffffffffffffffffff1673ffffffffffffffffffffffffffffffffffffffff16815260200190815260200160002060006101000a81548160ff0219169083151502179055506121a4611211565b73ffffffffffffffffffffffffffffffffffffffff168173ffffffffffffffffffffffffffffffffffffffff16837ff6391f5c32d9c69d2a47ea670b442974b53935d1edc7fd64eb21e047a839171b60405160405180910390a45b5050565b600061222b836000018373ffffffffffffffffffffffffffffffffffffffff1660001b612807565b905092915050565b61223b610b90565b61227a576040517f08c379a0000000000000000000000000000000000000000000000000000000008152600401612271906142bd565b60405180910390fd5b565b612284610b90565b156122c4576040517f08c379a00000000000000000000000000000000000000000000000000000000081526004016122bb90614329565b60405180910390fd5b565b60008260000182815481106122de576122dd613a84565b5b9060005260206000200154905092915050565b60006123128473ffffffffffffffffffffffffffffffffffffffff1661291b565b1561246b578373ffffffffffffffffffffffffffffffffffffffff1663150b7a0261233b611211565b8786866040518563ffffffff1660e01b815260040161235d949392919061439e565b6020604051808303816000875af192505050801561239957506040513d601f19601f8201168201806040525081019061239691906143ff565b60015b61241b573d80600081146123c9576040519150601f19603f3d011682016040523d82523d6000602084013e6123ce565b606091505b506000815103612413576040517f08c379a000000000000000000000000000000000000000000000000000000000815260040161240a906140a6565b60405180910390fd5b805181602001fd5b63150b7a0260e01b7bffffffffffffffffffffffffffffffffffffffffffffffffffffffff1916817bffffffffffffffffffffffffffffffffffffffffffffffffffffffff191614915050612470565b600190505b949350505050565b600081600001805490509050919050565b60007f5a05180f000000000000000000000000000000000000000000000000000000007bffffffffffffffffffffffffffffffffffffffffffffffffffffffff1916827bffffffffffffffffffffffffffffffffffffffffffffffffffffffff191614806124fc57506124fb8261293e565b5b9050919050565b61250e8383836129b8565b612516610b90565b15612556576040517f08c379a000000000000000000000000000000000000000000000000000000000815260040161254d9061449e565b60405180910390fd5b505050565b60606000600283600261256e91906144be565b6125789190613ebc565b67ffffffffffffffff81111561259157612590613118565b5b6040519080825280601f01601f1916602001820160405280156125c35781602001600182028036833780820191505090505b5090507f3000000000000000000000000000000000000000000000000000000000000000816000815181106125fb576125fa613a84565b5b60200101907effffffffffffffffffffffffffffffffffffffffffffffffffffffffffffff1916908160001a9053507f78000000000000000000000000000000000000000000000000000000000000008160018151811061265f5761265e613a84565b5b60200101907effffffffffffffffffffffffffffffffffffffffffffffffffffffffffffff1916908160001a9053506000600184600261269f91906144be565b6126a99190613ebc565b90505b6001811115612749577f3031323334353637383961626364656600000000000000000000000000000000600f8616601081106126eb576126ea613a84565b5b1a60f81b82828151811061270257612701613a84565b5b60200101907effffffffffffffffffffffffffffffffffffffffffffffffffffffffffffff1916908160001a905350600485901c94508061274290614500565b90506126ac565b506000841461278d576040517f08c379a000000000000000000000000000000000000000000000000000000000815260040161278490614575565b60405180910390fd5b8091505092915050565b60006127a38383612aca565b6127fc578260000182908060018154018082558091505060019003906000526020600020016000909190919091505582600001805490508360010160008481526020019081526020016000208190555060019050612801565b600090505b92915050565b6000808360010160008481526020019081526020016000205490506000811461290f5760006001826128399190613e88565b90506000600186600001805490506128519190613e88565b90508181146128c057600086600001828154811061287257612871613a84565b5b906000526020600020015490508087600001848154811061289657612895613a84565b5b90600052602060002001819055508387600101600083815260200190815260200160002081905550505b856000018054806128d4576128d3614595565b5b600190038181906000526020600020016000905590558560010160008681526020019081526020016000206000905560019350505050612915565b60009150505b92915050565b6000808273ffffffffffffffffffffffffffffffffffffffff163b119050919050565b60007f7965db0b000000000000000000000000000000000000000000000000000000007bffffffffffffffffffffffffffffffffffffffffffffffffffffffff1916827bffffffffffffffffffffffffffffffffffffffffffffffffffffffff191614806129b157506129b082612aed565b5b9050919050565b6129c3838383612b57565b600073ffffffffffffffffffffffffffffffffffffffff168373ffffffffffffffffffffffffffffffffffffffff1603612a0557612a0081612b5c565b612a44565b8173ffffffffffffffffffffffffffffffffffffffff168373ffffffffffffffffffffffffffffffffffffffff1614612a4357612a428382612ba5565b5b5b600073ffffffffffffffffffffffffffffffffffffffff168273ffffffffffffffffffffffffffffffffffffffff1603612a8657612a8181612d12565b612ac5565b8273ffffffffffffffffffffffffffffffffffffffff168273ffffffffffffffffffffffffffffffffffffffff1614612ac457612ac38282612de3565b5b5b505050565b600080836001016000848152602001908152602001600020541415905092915050565b60007f01ffc9a7000000000000000000000000000000000000000000000000000000007bffffffffffffffffffffffffffffffffffffffffffffffffffffffff1916827bffffffffffffffffffffffffffffffffffffffffffffffffffffffff1916149050919050565b505050565b600a80549050600b600083815260200190815260200160002081905550600a81908060018154018082558091505060019003906000526020600020016000909190919091505550565b60006001612bb284610ce8565b612bbc9190613e88565b9050600060096000848152602001908152602001600020549050818114612ca1576000600860008673ffffffffffffffffffffffffffffffffffffffff1673ffffffffffffffffffffffffffffffffffffffff168152602001908152602001600020600084815260200190815260200160002054905080600860008773ffffffffffffffffffffffffffffffffffffffff1673ffffffffffffffffffffffffffffffffffffffff168152602001908152602001600020600084815260200190815260200160002081905550816009600083815260200190815260200160002081905550505b6009600084815260200190815260200160002060009055600860008573ffffffffffffffffffffffffffffffffffffffff1673ffffffffffffffffffffffffffffffffffffffff16815260200190815260200160002060008381526020019081526020016000206000905550505050565b60006001600a80549050612d269190613e88565b90506000600b60008481526020019081526020016000205490506000600a8381548110612d5657612d55613a84565b5b9060005260206000200154905080600a8381548110612d7857612d77613a84565b5b906000526020600020018190555081600b600083815260200190815260200160002081905550600b600085815260200190815260200160002060009055600a805480612dc757612dc6614595565b5b6001900381819060005260206000200160009055905550505050565b6000612dee83610ce8565b905081600860008573ffffffffffffffffffffffffffffffffffffffff1673ffffffffffffffffffffffffffffffffffffffff168152602001908152602001600020600083815260200190815260200160002081905550806009600084815260200190815260200160002081905550505050565b6000604051905090565b600080fd5b600080fd5b60007fffffffff0000000000000000000000000000000000000000000000000000000082169050919050565b612eab81612e76565b8114612eb657600080fd5b50565b600081359050612ec881612ea2565b92915050565b600060208284031215612ee457612ee3612e6c565b5b6000612ef284828501612eb9565b91505092915050565b60008115159050919050565b612f1081612efb565b82525050565b6000602082019050612f2b6000830184612f07565b92915050565b600081519050919050565b600082825260208201905092915050565b60005b83811015612f6b578082015181840152602081019050612f50565b60008484015250505050565b6000601f19601f8301169050919050565b6000612f9382612f31565b612f9d8185612f3c565b9350612fad818560208601612f4d565b612fb681612f77565b840191505092915050565b60006020820190508181036000830152612fdb8184612f88565b905092915050565b6000819050919050565b612ff681612fe3565b811461300157600080fd5b50565b60008135905061301381612fed565b92915050565b60006020828403121561302f5761302e612e6c565b5b600061303d84828501613004565b91505092915050565b600073ffffffffffffffffffffffffffffffffffffffff82169050919050565b600061307182613046565b9050919050565b61308181613066565b82525050565b600060208201905061309c6000830184613078565b92915050565b6130ab81613066565b81146130b657600080fd5b50565b6000813590506130c8816130a2565b92915050565b600080604083850312156130e5576130e4612e6c565b5b60006130f3858286016130b9565b925050602061310485828601613004565b9150509250929050565b600080fd5b600080fd5b7f4e487b7100000000000000000000000000000000000000000000000000000000600052604160045260246000fd5b61315082612f77565b810181811067ffffffffffffffff8211171561316f5761316e613118565b5b80604052505050565b6000613182612e62565b905061318e8282613147565b919050565b600067ffffffffffffffff8211156131ae576131ad613118565b5b6131b782612f77565b9050602081019050919050565b82818337600083830152505050565b60006131e66131e184613193565b613178565b90508281526020810184848401111561320257613201613113565b5b61320d8482856131c4565b509392505050565b600082601f83011261322a5761322961310e565b5b813561323a8482602086016131d3565b91505092915050565b6000806040838503121561325a57613259612e6c565b5b600061326885828601613004565b925050602083013567ffffffffffffffff81111561328957613288612e71565b5b61329585828601613215565b9150509250929050565b6132a881612fe3565b82525050565b60006020820190506132c3600083018461329f565b92915050565b6000806000606084860312156132e2576132e1612e6c565b5b60006132f0868287016130b9565b9350506020613301868287016130b9565b925050604061331286828701613004565b9150509250925092565b6000819050919050565b61332f8161331c565b811461333a57600080fd5b50565b60008135905061334c81613326565b92915050565b60006020828403121561336857613367612e6c565b5b60006133768482850161333d565b91505092915050565b6133888161331c565b82525050565b60006020820190506133a3600083018461337f565b92915050565b600080604083850312156133c0576133bf612e6c565b5b60006133ce8582860161333d565b92505060206133df858286016130b9565b9150509250929050565b6000602082840312156133ff576133fe612e6c565b5b600061340d848285016130b9565b91505092915050565b6000806040838503121561342d5761342c612e6c565b5b600061343b8582860161333d565b925050602061344c85828601613004565b9150509250929050565b61345f81612efb565b811461346a57600080fd5b50565b60008135905061347c81613456565b92915050565b6000806040838503121561349957613498612e6c565b5b60006134a7858286016130b9565b92505060206134b88582860161346d565b9150509250929050565b600067ffffffffffffffff8211156134dd576134dc613118565b5b6134e682612f77565b9050602081019050919050565b6000613506613501846134c2565b613178565b90508281526020810184848401111561352257613521613113565b5b61352d8482856131c4565b509392505050565b600082601f83011261354a5761354961310e565b5b813561355a8482602086016134f3565b91505092915050565b6000806000806080858703121561357d5761357c612e6c565b5b600061358b878288016130b9565b945050602061359c878288016130b9565b93505060406135ad87828801613004565b925050606085013567ffffffffffffffff8111156135ce576135cd612e71565b5b6135da87828801613535565b91505092959194509250565b600080604083850312156135fd576135fc612e6c565b5b600061360b858286016130b9565b925050602061361c858286016130b9565b9150509250929050565b7f4e487b7100000000000000000000000000000000000000000000000000000000600052602260045260246000fd5b6000600282049050600182168061366d57607f821691505b6020821081036136805761367f613626565b5b50919050565b7f4552433732313a20617070726f76616c20746f2063757272656e74206f776e6560008201527f7200000000000000000000000000000000000000000000000000000000000000602082015250565b60006136e2602183612f3c565b91506136ed82613686565b604082019050919050565b60006020820190508181036000830152613711816136d5565b9050919050565b7f4552433732313a20617070726f76652063616c6c6572206973206e6f7420746f60008201527f6b656e206f776e6572206e6f7220617070726f76656420666f7220616c6c0000602082015250565b6000613774603e83612f3c565b915061377f82613718565b604082019050919050565b600060208201905081810360008301526137a381613767565b9050919050565b7f4552433732313a2063616c6c6572206973206e6f7420746f6b656e206f776e6560008201527f72206e6f7220617070726f766564000000000000000000000000000000000000602082015250565b6000613806602e83612f3c565b9150613811826137aa565b604082019050919050565b60006020820190508181036000830152613835816137f9565b9050919050565b7f455243373231456e756d657261626c653a206f776e657220696e646578206f7560008201527f74206f6620626f756e6473000000000000000000000000000000000000000000602082015250565b6000613898602b83612f3c565b91506138a38261383c565b604082019050919050565b600060208201905081810360008301526138c78161388b565b9050919050565b7f416363657373436f6e74726f6c3a2063616e206f6e6c792072656e6f756e636560008201527f20726f6c657320666f722073656c660000000000000000000000000000000000602082015250565b600061392a602f83612f3c565b9150613935826138ce565b604082019050919050565b600060208201905081810360008301526139598161391d565b9050919050565b7f4552433732315072657365744d696e7465725061757365724175746f49643a2060008201527f6d75737420686176652070617573657220726f6c6520746f20756e7061757365602082015250565b60006139bc604083612f3c565b91506139c782613960565b604082019050919050565b600060208201905081810360008301526139eb816139af565b9050919050565b7f455243373231456e756d657261626c653a20676c6f62616c20696e646578206f60008201527f7574206f6620626f756e64730000000000000000000000000000000000000000602082015250565b6000613a4e602c83612f3c565b9150613a59826139f2565b604082019050919050565b60006020820190508181036000830152613a7d81613a41565b9050919050565b7f4e487b7100000000000000000000000000000000000000000000000000000000600052603260045260246000fd5b7f4552433732313a20696e76616c696420746f6b656e2049440000000000000000600082015250565b6000613ae9601883612f3c565b9150613af482613ab3565b602082019050919050565b60006020820190508181036000830152613b1881613adc565b9050919050565b7f4552433732315072657365744d696e7465725061757365724175746f49643a2060008201527f6d7573742068617665206d696e74657220726f6c6520746f206d696e74000000602082015250565b6000613b7b603d83612f3c565b9150613b8682613b1f565b604082019050919050565b60006020820190508181036000830152613baa81613b6e565b9050919050565b7f4552433732313a2061646472657373207a65726f206973206e6f74206120766160008201527f6c6964206f776e65720000000000000000000000000000000000000000000000602082015250565b6000613c0d602983612f3c565b9150613c1882613bb1565b604082019050919050565b60006020820190508181036000830152613c3c81613c00565b9050919050565b7f4552433732315072657365744d696e7465725061757365724175746f49643a2060008201527f6d75737420686176652070617573657220726f6c6520746f2070617573650000602082015250565b6000613c9f603e83612f3c565b9150613caa82613c43565b604082019050919050565b60006020820190508181036000830152613cce81613c92565b9050919050565b600081905092915050565b6000613ceb82612f31565b613cf58185613cd5565b9350613d05818560208601612f4d565b80840191505092915050565b6000613d1d8285613ce0565b9150613d298284613ce0565b91508190509392505050565b7f4552433732313a207472616e736665722066726f6d20696e636f72726563742060008201527f6f776e6572000000000000000000000000000000000000000000000000000000602082015250565b6000613d91602583612f3c565b9150613d9c82613d35565b604082019050919050565b60006020820190508181036000830152613dc081613d84565b9050919050565b7f4552433732313a207472616e7366657220746f20746865207a65726f2061646460008201527f7265737300000000000000000000000000000000000000000000000000000000602082015250565b6000613e23602483612f3c565b9150613e2e82613dc7565b604082019050919050565b60006020820190508181036000830152613e5281613e16565b9050919050565b7f4e487b7100000000000000000000000000000000000000000000000000000000600052601160045260246000fd5b6000613e9382612fe3565b9150613e9e83612fe3565b9250828203905081811115613eb657613eb5613e59565b5b92915050565b6000613ec782612fe3565b9150613ed283612fe3565b9250828201905080821115613eea57613ee9613e59565b5b92915050565b7f4552433732313a206d696e7420746f20746865207a65726f2061646472657373600082015250565b6000613f26602083612f3c565b9150613f3182613ef0565b602082019050919050565b60006020820190508181036000830152613f5581613f19565b9050919050565b7f4552433732313a20746f6b656e20616c7265616479206d696e74656400000000600082015250565b6000613f92601c83612f3c565b9150613f9d82613f5c565b602082019050919050565b60006020820190508181036000830152613fc181613f85565b9050919050565b7f4552433732313a20617070726f766520746f2063616c6c657200000000000000600082015250565b6000613ffe601983612f3c565b915061400982613fc8565b602082019050919050565b6000602082019050818103600083015261402d81613ff1565b9050919050565b7f4552433732313a207472616e7366657220746f206e6f6e20455243373231526560008201527f63656976657220696d706c656d656e7465720000000000000000000000000000602082015250565b6000614090603283612f3c565b915061409b82614034565b604082019050919050565b600060208201905081810360008301526140bf81614083565b9050919050565b60006140d182612fe3565b91507fffffffffffffffffffffffffffffffffffffffffffffffffffffffffffffffff820361410357614102613e59565b5b600182019050919050565b7f4e487b7100000000000000000000000000000000000000000000000000000000600052601260045260246000fd5b600061414882612fe3565b915061415383612fe3565b9250826141635761416261410e565b5b828204905092915050565b600061417982612fe3565b915061418483612fe3565b9250826141945761419361410e565b5b828206905092915050565b7f416363657373436f6e74726f6c3a206163636f756e7420000000000000000000600082015250565b60006141d5601783613cd5565b91506141e08261419f565b601782019050919050565b7f206973206d697373696e6720726f6c6520000000000000000000000000000000600082015250565b6000614221601183613cd5565b915061422c826141eb565b601182019050919050565b6000614242826141c8565b915061424e8285613ce0565b915061425982614214565b91506142658284613ce0565b91508190509392505050565b7f5061757361626c653a206e6f7420706175736564000000000000000000000000600082015250565b60006142a7601483612f3c565b91506142b282614271565b602082019050919050565b600060208201905081810360008301526142d68161429a565b9050919050565b7f5061757361626c653a2070617573656400000000000000000000000000000000600082015250565b6000614313601083612f3c565b915061431e826142dd565b602082019050919050565b6000602082019050818103600083015261434281614306565b9050919050565b600081519050919050565b600082825260208201905092915050565b600061437082614349565b61437a8185614354565b935061438a818560208601612f4d565b61439381612f77565b840191505092915050565b60006080820190506143b36000830187613078565b6143c06020830186613078565b6143cd604083018561329f565b81810360608301526143df8184614365565b905095945050505050565b6000815190506143f981612ea2565b92915050565b60006020828403121561441557614414612e6c565b5b6000614423848285016143ea565b91505092915050565b7f4552433732315061757361626c653a20746f6b656e207472616e73666572207760008201527f68696c6520706175736564000000000000000000000000000000000000000000602082015250565b6000614488602b83612f3c565b91506144938261442c565b604082019050919050565b600060208201905081810360008301526144b78161447b565b9050919050565b60006144c982612fe3565b91506144d483612fe3565b92508282026144e281612fe3565b915082820484148315176144f9576144f8613e59565b5b5092915050565b600061450b82612fe3565b91506000820361451e5761451d613e59565b5b600182039050919050565b7f537472696e67733a20686578206c656e67746820696e73756666696369656e74600082015250565b600061455f602083612f3c565b915061456a82614529565b602082019050919050565b6000602082019050818103600083015261458e81614552565b9050919050565b7f4e487b7100000000000000000000000000000000000000000000000000000000600052603160045260246000fdfea264697066735822122023cd2f6278a8774e4a22d8f5c631cdb86923c7d3a370712f1647374b47be29cd64736f6c63430008130033",
  "linkReferences": {},
  "deployedLinkReferences": {}
}