{
  "_format": "hh-sol-artifact-1",
  "contractName": "ERC721Exportable",
  "sourceName": "contracts/token/ERC721Exportable.sol",
  "abi": [
    {
      "inputs": [
        {
          "internalType": "string",
          "name": "name",
          "type": "string"
        },
        {
          "internalType": "string",
          "name": "symbol",
          "type": "string"
        }
      ],
      "stateMutability": "nonpayable",
      "type": "constructor"
    },
    {
      "anonymous": false,
      "inputs": [
        {
          "indexed": true,
          "internalType": "address",
          "name": "owner",
          "type": "address"
        },
        {
          "indexed": true,
          "internalType": "address",
          "name": "approved",
          "type": "address"
        },
        {
          "indexed": true,
          "internalType": "uint256",
          "name": "tokenId",
          "type": "uint256"
        }
      ],
      "name": "Approval",
      "type": "event"
    },
    {
      "anonymous": false,
      "inputs": [
        {
          "indexed": true,
          "internalType": "address",
          "name": "owner",
          "type": "address"
        },
        {
          "indexed": true,
          "internalType": "address",
          "name": "operator",
          "type": "address"
        },
        {
          "indexed": false,
          "internalType": "bool",
          "name": "approved",
          "type": "bool"
        }
      ],
      "name": "ApprovalForAll",
      "type": "event"
    },
    {
      "anonymous": false,
      "inputs": [
        {
          "indexed": false,
          "internalType": "address",
          "name": "account",
          "type": "address"
        }
      ],
      "name": "Paused",
      "type": "event"
    },
    {
      "anonymous": false,
      "inputs": [
        {
          "indexed": true,
          "internalType": "bytes32",
          "name": "role",
          "type": "bytes32"
        },
        {
          "indexed": true,
          "internalType": "bytes32",
          "name": "previousAdminRole",
          "type": "bytes32"
        },
        {
          "indexed": true,
          "internalType": "bytes32",
          "name": "newAdminRole",
          "type": "bytes32"
        }
      ],
      "name": "RoleAdminChanged",
      "type": "event"
    },
    {
      "anonymous": false,
      "inputs": [
        {
          "indexed": true,
          "internalType": "bytes32",
          "name": "role",
          "type": "bytes32"
        },
        {
          "indexed": true,
          "internalType": "address",
          "name": "account",
          "type": "address"
        },
        {
          "indexed": true,
          "internalType": "address",
          "name": "sender",
          "type": "address"
        }
      ],
      "name": "RoleGranted",
      "type": "event"
    },
    {
      "anonymous": false,
      "inputs": [
        {
          "indexed": true,
          "internalType": "bytes32",
          "name": "role",
          "type": "bytes32"
        },
        {
          "indexed": true,
          "internalType": "address",
          "name": "account",
          "type": "address"
        },
        {
          "indexed": true,
          "internalType": "address",
          "name": "sender",
          "type": "address"
        }
      ],
      "name": "RoleRevoked",
      "type": "event"
    },
    {
      "anonymous": false,
      "inputs": [
        {
          "indexed": true,
          "internalType": "address",
          "name": "from",
          "type": "address"
        },
        {
          "indexed": true,
          "internalType": "address",
          "name": "to",
          "type": "address"
        },
        {
          "indexed": true,
          "internalType": "uint256",
          "name": "tokenId",
          "type": "uint256"
        }
      ],
      "name": "Transfer",
      "type": "event"
    },
    {
      "anonymous": false,
      "inputs": [
        {
          "indexed": false,
          "internalType": "address",
          "name": "account",
          "type": "address"
        }
      ],
      "name": "Unpaused",
      "type": "event"
    },
    {
      "inputs": [],
      "name": "DEFAULT_ADMIN_ROLE",
      "outputs": [
        {
          "internalType": "bytes32",
          "name": "",
          "type": "bytes32"
        }
      ],
      "stateMutability": "view",
      "type": "function"
    },
    {
      "inputs": [],
      "name": "MINTER_ROLE",
      "outputs": [
        {
          "internalType": "bytes32",
          "name": "",
          "type": "bytes32"
        }
      ],
      "stateMutability": "view",
      "type": "function"
    },
    {
      "inputs": [],
      "name": "PAUSER_ROLE",
      "outputs": [
        {
          "internalType": "bytes32",
          "name": "",
          "type": "bytes32"
        }
      ],
      "stateMutability": "view",
      "type": "function"
    },
    {
      "inputs": [
        {
          "internalType": "address",
          "name": "to",
          "type": "address"
        },
        {
          "internalType": "uint256",
          "name": "tokenId",
          "type": "uint256"
        }
      ],
      "name": "approve",
      "outputs": [],
      "stateMutability": "nonpayable",
      "type": "function"
    },
    {
      "inputs": [
        {
          "internalType": "address",
          "name": "owner",
          "type": "address"
        }
      ],
      "name": "balanceOf",
      "outputs": [
        {
          "internalType": "uint256",
          "name": "",
          "type": "uint256"
        }
      ],
      "stateMutability": "view",
      "type": "function"
    },
    {
      "inputs": [
        {
          "internalType": "uint256",
          "name": "tokenId",
          "type": "uint256"
        }
      ],
      "name": "burn",
      "outputs": [],
      "stateMutability": "nonpayable",
      "type": "function"
    },
    {
      "inputs": [],
      "name": "countExportedTokens",
      "outputs": [
        {
          "internalType": "uint256",
          "name": "",
          "type": "uint256"
        }
      ],
      "stateMutability": "view",
      "type": "function"
    },
    {
      "inputs": [],
      "name": "countExportingTokens",
      "outputs": [
        {
          "internalType": "uint256",
          "name": "",
          "type": "uint256"
        }
      ],
      "stateMutability": "view",
      "type": "function"
    },
    {
      "inputs": [],
      "name": "countImportedTokens",
      "outputs": [
        {
          "internalType": "uint256",
          "name": "",
          "type": "uint256"
        }
      ],
      "stateMutability": "view",
      "type": "function"
    },
    {
      "inputs": [
        {
          "internalType": "uint256",
          "name": "tokenId",
          "type": "uint256"
        }
      ],
      "name": "exported",
      "outputs": [],
      "stateMutability": "nonpayable",
      "type": "function"
    },
    {
      "inputs": [],
      "name": "exportedTokens",
      "outputs": [
        {
          "internalType": "uint256[]",
          "name": "",
          "type": "uint256[]"
        }
      ],
      "stateMutability": "view",
      "type": "function"
    },
    {
      "inputs": [
        {
          "internalType": "uint256",
          "name": "tokenId",
          "type": "uint256"
        },
        {
          "internalType": "address",
          "name": "escrowee",
          "type": "address"
        }
      ],
      "name": "exporting",
      "outputs": [],
      "stateMutability": "nonpayable",
      "type": "function"
    },
    {
      "inputs": [],
      "name": "exportingTokens",
      "outputs": [
        {
          "internalType": "uint256[]",
          "name": "",
          "type": "uint256[]"
        }
      ],
      "stateMutability": "view",
      "type": "function"
    },
    {
      "inputs": [
        {
          "internalType": "uint256",
          "name": "tokenId",
          "type": "uint256"
        }
      ],
      "name": "getApproved",
      "outputs": [
        {
          "internalType": "address",
          "name": "",
          "type": "address"
        }
      ],
      "stateMutability": "view",
      "type": "function"
    },
    {
      "inputs": [
        {
          "internalType": "bytes32",
          "name": "role",
          "type": "bytes32"
        }
      ],
      "name": "getRoleAdmin",
      "outputs": [
        {
          "internalType": "bytes32",
          "name": "",
          "type": "bytes32"
        }
      ],
      "stateMutability": "view",
      "type": "function"
    },
    {
      "inputs": [
        {
          "internalType": "bytes32",
          "name": "role",
          "type": "bytes32"
        },
        {
          "internalType": "uint256",
          "name": "index",
          "type": "uint256"
        }
      ],
      "name": "getRoleMember",
      "outputs": [
        {
          "internalType": "address",
          "name": "",
          "type": "address"
        }
      ],
      "stateMutability": "view",
      "type": "function"
    },
    {
      "inputs": [
        {
          "internalType": "bytes32",
          "name": "role",
          "type": "bytes32"
        }
      ],
      "name": "getRoleMemberCount",
      "outputs": [
        {
          "internalType": "uint256",
          "name": "",
          "type": "uint256"
        }
      ],
      "stateMutability": "view",
      "type": "function"
    },
    {
      "inputs": [
        {
          "internalType": "bytes32",
          "name": "role",
          "type": "bytes32"
        },
        {
          "internalType": "address",
          "name": "account",
          "type": "address"
        }
      ],
      "name": "grantRole",
      "outputs": [],
      "stateMutability": "nonpayable",
      "type": "function"
    },
    {
      "inputs": [
        {
          "internalType": "bytes32",
          "name": "role",
          "type": "bytes32"
        },
        {
          "internalType": "address",
          "name": "account",
          "type": "address"
        }
      ],
      "name": "hasRole",
      "outputs": [
        {
          "internalType": "bool",
          "name": "",
          "type": "bool"
        }
      ],
      "stateMutability": "view",
      "type": "function"
    },
    {
      "inputs": [
        {
          "internalType": "uint256",
          "name": "preferredTokenId",
          "type": "uint256"
        },
        {
          "internalType": "address",
          "name": "owner",
          "type": "address"
        }
      ],
      "name": "imported",
      "outputs": [
        {
          "internalType": "uint256",
          "name": "tokenId",
          "type": "uint256"
        }
      ],
      "stateMutability": "nonpayable",
      "type": "function"
    },
    {
      "inputs": [],
      "name": "importedTokens",
      "outputs": [
        {
          "internalType": "uint256[]",
          "name": "",
          "type": "uint256[]"
        }
      ],
      "stateMutability": "view",
      "type": "function"
    },
    {
      "inputs": [
        {
          "internalType": "address",
          "name": "owner",
          "type": "address"
        },
        {
          "internalType": "address",
          "name": "operator",
          "type": "address"
        }
      ],
      "name": "isApprovedForAll",
      "outputs": [
        {
          "internalType": "bool",
          "name": "",
          "type": "bool"
        }
      ],
      "stateMutability": "view",
      "type": "function"
    },
    {
      "inputs": [
        {
          "internalType": "address",
          "name": "to",
          "type": "address"
        }
      ],
      "name": "mint",
      "outputs": [],
      "stateMutability": "nonpayable",
      "type": "function"
    },
    {
      "inputs": [],
      "name": "name",
      "outputs": [
        {
          "internalType": "string",
          "name": "",
          "type": "string"
        }
      ],
      "stateMutability": "view",
      "type": "function"
    },
    {
      "inputs": [
        {
          "internalType": "uint256",
          "name": "tokenId",
          "type": "uint256"
        }
      ],
      "name": "ownerOf",
      "outputs": [
        {
          "internalType": "address",
          "name": "",
          "type": "address"
        }
      ],
      "stateMutability": "view",
      "type": "function"
    },
    {
      "inputs": [],
      "name": "pause",
      "outputs": [],
      "stateMutability": "nonpayable",
      "type": "function"
    },
    {
      "inputs": [],
      "name": "paused",
      "outputs": [
        {
          "internalType": "bool",
          "name": "",
          "type": "bool"
        }
      ],
      "stateMutability": "view",
      "type": "function"
    },
    {
      "inputs": [
        {
          "internalType": "bytes32",
          "name": "role",
          "type": "bytes32"
        },
        {
          "internalType": "address",
          "name": "account",
          "type": "address"
        }
      ],
      "name": "renounceRole",
      "outputs": [],
      "stateMutability": "nonpayable",
      "type": "function"
    },
    {
      "inputs": [
        {
          "internalType": "bytes32",
          "name": "role",
          "type": "bytes32"
        },
        {
          "internalType": "address",
          "name": "account",
          "type": "address"
        }
      ],
      "name": "revokeRole",
      "outputs": [],
      "stateMutability": "nonpayable",
      "type": "function"
    },
    {
      "inputs": [
        {
          "internalType": "address",
          "name": "from",
          "type": "address"
        },
        {
          "internalType": "address",
          "name": "to",
          "type": "address"
        },
        {
          "internalType": "uint256",
          "name": "tokenId",
          "type": "uint256"
        }
      ],
      "name": "safeTransferFrom",
      "outputs": [],
      "stateMutability": "nonpayable",
      "type": "function"
    },
    {
      "inputs": [
        {
          "internalType": "address",
          "name": "from",
          "type": "address"
        },
        {
          "internalType": "address",
          "name": "to",
          "type": "address"
        },
        {
          "internalType": "uint256",
          "name": "tokenId",
          "type": "uint256"
        },
        {
          "internalType": "bytes",
          "name": "data",
          "type": "bytes"
        }
      ],
      "name": "safeTransferFrom",
      "outputs": [],
      "stateMutability": "nonpayable",
      "type": "function"
    },
    {
      "inputs": [
        {
          "internalType": "address",
          "name": "operator",
          "type": "address"
        },
        {
          "internalType": "bool",
          "name": "approved",
          "type": "bool"
        }
      ],
      "name": "setApprovalForAll",
      "outputs": [],
      "stateMutability": "nonpayable",
      "type": "function"
    },
    {
      "inputs": [
        {
          "internalType": "uint256",
          "name": "tokenId",
          "type": "uint256"
        },
        {
          "internalType": "string",
          "name": "uri",
          "type": "string"
        }
      ],
      "name": "setTokenURI",
      "outputs": [],
      "stateMutability": "nonpayable",
      "type": "function"
    },
    {
      "inputs": [
        {
          "internalType": "bytes4",
          "name": "interfaceId",
          "type": "bytes4"
        }
      ],
      "name": "supportsInterface",
      "outputs": [
        {
          "internalType": "bool",
          "name": "",
          "type": "bool"
        }
      ],
      "stateMutability": "view",
      "type": "function"
    },
    {
      "inputs": [],
      "name": "symbol",
      "outputs": [
        {
          "internalType": "string",
          "name": "",
          "type": "string"
        }
      ],
      "stateMutability": "view",
      "type": "function"
    },
    {
      "inputs": [
        {
          "internalType": "uint256",
          "name": "index",
          "type": "uint256"
        }
      ],
      "name": "tokenByIndex",
      "outputs": [
        {
          "internalType": "uint256",
          "name": "",
          "type": "uint256"
        }
      ],
      "stateMutability": "view",
      "type": "function"
    },
    {
      "inputs": [
        {
          "internalType": "address",
          "name": "owner",
          "type": "address"
        },
        {
          "internalType": "uint256",
          "name": "index",
          "type": "uint256"
        }
      ],
      "name": "tokenOfOwnerByIndex",
      "outputs": [
        {
          "internalType": "uint256",
          "name": "",
          "type": "uint256"
        }
      ],
      "stateMutability": "view",
      "type": "function"
    },
    {
      "inputs": [
        {
          "internalType": "uint256",
          "name": "tokenId",
          "type": "uint256"
        }
      ],
      "name": "tokenURI",
      "outputs": [
        {
          "internalType": "string",
          "name": "",
          "type": "string"
        }
      ],
      "stateMutability": "view",
      "type": "function"
    },
    {
      "inputs": [],
      "name": "totalSupply",
      "outputs": [
        {
          "internalType": "uint256",
          "name": "",
          "type": "uint256"
        }
      ],
      "stateMutability": "view",
      "type": "function"
    },
    {
      "inputs": [
        {
          "internalType": "address",
          "name": "from",
          "type": "address"
        },
        {
          "internalType": "address",
          "name": "to",
          "type": "address"
        },
        {
          "internalType": "uint256",
          "name": "tokenId",
          "type": "uint256"
        }
      ],
      "name": "transferFrom",
      "outputs": [],
      "stateMutability": "nonpayable",
      "type": "function"
    },
    {
      "inputs": [],
      "name": "unpause",
      "outputs": [],
      "stateMutability": "nonpayable",
      "type": "function"
    }
  ],
  "bytecode": "0x60806040523480156200001157600080fd5b506040516200620d3803806200620d83398181016040528101906200003791906200056e565b818160405180602001604052806000815250828281600290816200005c91906200083e565b5080600390816200006e91906200083e565b5050506000600c60006101000a81548160ff02191690831515021790555080600e90816200009d91906200083e565b50620000c26000801b620000b66200014f60201b60201c565b6200015760201b60201c565b620001037f9f2df0fed2c77648de5860a4cc508cd0818c85b8b8a1ab4ceeef8d981c8956a6620000f76200014f60201b60201c565b6200015760201b60201c565b620001447f65d7a28e3265b37a6474929f336521b332c1681b933f6cb9f3376673440d862a620001386200014f60201b60201c565b6200015760201b60201c565b505050505062000925565b600033905090565b6200016982826200016d60201b60201c565b5050565b6200017f8282620001ab60201b60201c565b620001a681600160008581526020019081526020016000206200029c60201b90919060201c565b505050565b620001bd8282620002d460201b60201c565b6200029857600160008084815260200190815260200160002060000160008373ffffffffffffffffffffffffffffffffffffffff1673ffffffffffffffffffffffffffffffffffffffff16815260200190815260200160002060006101000a81548160ff0219169083151502179055506200023d6200014f60201b60201c565b73ffffffffffffffffffffffffffffffffffffffff168173ffffffffffffffffffffffffffffffffffffffff16837f2f8788117e7eff1d82e926ec794901d17c78024a50270940304540a733656f0d60405160405180910390a45b5050565b6000620002cc836000018373ffffffffffffffffffffffffffffffffffffffff1660001b6200033e60201b60201c565b905092915050565b600080600084815260200190815260200160002060000160008373ffffffffffffffffffffffffffffffffffffffff1673ffffffffffffffffffffffffffffffffffffffff16815260200190815260200160002060009054906101000a900460ff16905092915050565b6000620003528383620003b860201b60201c565b620003ad578260000182908060018154018082558091505060019003906000526020600020016000909190919091505582600001805490508360010160008481526020019081526020016000208190555060019050620003b2565b600090505b92915050565b600080836001016000848152602001908152602001600020541415905092915050565b6000604051905090565b600080fd5b600080fd5b600080fd5b600080fd5b6000601f19601f8301169050919050565b7f4e487b7100000000000000000000000000000000000000000000000000000000600052604160045260246000fd5b6200044482620003f9565b810181811067ffffffffffffffff821117156200046657620004656200040a565b5b80604052505050565b60006200047b620003db565b905062000489828262000439565b919050565b600067ffffffffffffffff821115620004ac57620004ab6200040a565b5b620004b782620003f9565b9050602081019050919050565b60005b83811015620004e4578082015181840152602081019050620004c7565b60008484015250505050565b60006200050762000501846200048e565b6200046f565b905082815260208101848484011115620005265762000525620003f4565b5b62000533848285620004c4565b509392505050565b600082601f830112620005535762000552620003ef565b5b815162000565848260208601620004f0565b91505092915050565b60008060408385031215620005885762000587620003e5565b5b600083015167ffffffffffffffff811115620005a957620005a8620003ea565b5b620005b7858286016200053b565b925050602083015167ffffffffffffffff811115620005db57620005da620003ea565b5b620005e9858286016200053b565b9150509250929050565b600081519050919050565b7f4e487b7100000000000000000000000000000000000000000000000000000000600052602260045260246000fd5b600060028204905060018216806200064657607f821691505b6020821081036200065c576200065b620005fe565b5b50919050565b60008190508160005260206000209050919050565b60006020601f8301049050919050565b600082821b905092915050565b600060088302620006c67fffffffffffffffffffffffffffffffffffffffffffffffffffffffffffffffff8262000687565b620006d2868362000687565b95508019841693508086168417925050509392505050565b6000819050919050565b6000819050919050565b60006200071f620007196200071384620006ea565b620006f4565b620006ea565b9050919050565b6000819050919050565b6200073b83620006fe565b620007536200074a8262000726565b84845462000694565b825550505050565b600090565b6200076a6200075b565b6200077781848462000730565b505050565b5b818110156200079f576200079360008262000760565b6001810190506200077d565b5050565b601f821115620007ee57620007b88162000662565b620007c38462000677565b81016020851015620007d3578190505b620007eb620007e28562000677565b8301826200077c565b50505b505050565b600082821c905092915050565b60006200081360001984600802620007f3565b1980831691505092915050565b60006200082e838362000800565b9150826002028217905092915050565b6200084982620005f3565b67ffffffffffffffff8111156200086557620008646200040a565b5b6200087182546200062d565b6200087e828285620007a3565b600060209050601f831160018114620008b65760008415620008a1578287015190505b620008ad858262000820565b8655506200091d565b601f198416620008c68662000662565b60005b82811015620008f057848901518255600182019150602085019450602081019050620008c9565b868310156200091057848901516200090c601f89168262000800565b8355505b6001600288020188555050505b505050505050565b6158d880620009356000396000f3fe608060405234801561001057600080fd5b50600436106102535760003560e01c806367d28d1611610146578063a217fddf116100c3578063c87b56dd11610087578063c87b56dd146106e6578063ca15c87314610716578063d539139314610746578063d547741f14610764578063e63ab1e914610780578063e985e9c51461079e57610253565b8063a217fddf14610642578063a22cb46514610660578063b88d4fde1461067c578063bc51527614610698578063c55dae70146106b657610253565b80638ffee9391161010a5780638ffee9391461058a5780639010d07c146105a857806391d14854146105d857806395d89b411461060857806399a1f1311461062657610253565b806367d28d16146104f85780636a627842146105165780636f1133b01461053257806370a08231146105505780638456cb591461058057610253565b80632f2ff15d116101d457806342842e0e1161019857806342842e0e1461044257806342966c681461045e5780634f6ccce71461047a5780635c975abb146104aa5780636352211e146104c857610253565b80632f2ff15d146103b45780632f745c59146103d057806334e681f31461040057806336568abe1461041c5780633f4ba83a1461043857610253565b8063158f761a1161021b578063158f761a14610310578063162094c41461032e57806318160ddd1461034a57806323b872dd14610368578063248a9ca31461038457610253565b806301ffc9a71461025857806306fdde0314610288578063081812fc146102a6578063095ea7b3146102d65780630c823abe146102f2575b600080fd5b610272600480360381019061026d9190613929565b6107ce565b60405161027f9190613971565b60405180910390f35b6102906107e0565b60405161029d9190613a1c565b60405180910390f35b6102c060048036038101906102bb9190613a74565b610872565b6040516102cd9190613ae2565b60405180910390f35b6102f060048036038101906102eb9190613b29565b6108b8565b005b6102fa6109cf565b6040516103079190613c27565b60405180910390f35b6103186109e0565b6040516103259190613c58565b60405180910390f35b61034860048036038101906103439190613da8565b6109f1565b005b6103526109ff565b60405161035f9190613c58565b60405180910390f35b610382600480360381019061037d9190613e04565b610a0c565b005b61039e60048036038101906103999190613e8d565b610a6c565b6040516103ab9190613ec9565b60405180910390f35b6103ce60048036038101906103c99190613ee4565b610a8b565b005b6103ea60048036038101906103e59190613b29565b610aac565b6040516103f79190613c58565b60405180910390f35b61041a60048036038101906104159190613f24565b610b51565b005b61043660048036038101906104319190613ee4565b610ba8565b005b610440610c2b565b005b61045c60048036038101906104579190613e04565b610ca5565b005b61047860048036038101906104739190613a74565b610cc5565b005b610494600480360381019061048f9190613a74565b610d21565b6040516104a19190613c58565b60405180910390f35b6104b2610d92565b6040516104bf9190613971565b60405180910390f35b6104e260048036038101906104dd9190613a74565b610da9565b6040516104ef9190613ae2565b60405180910390f35b610500610e5a565b60405161050d9190613c58565b60405180910390f35b610530600480360381019061052b9190613f64565b610e6b565b005b61053a610efb565b6040516105479190613c58565b60405180910390f35b61056a60048036038101906105659190613f64565b610f0c565b6040516105779190613c58565b60405180910390f35b610588610fc3565b005b61059261103d565b60405161059f9190613c27565b60405180910390f35b6105c260048036038101906105bd9190613f91565b61104e565b6040516105cf9190613ae2565b60405180910390f35b6105f260048036038101906105ed9190613ee4565b61107d565b6040516105ff9190613971565b60405180910390f35b6106106110e7565b60405161061d9190613a1c565b60405180910390f35b610640600480360381019061063b9190613a74565b611179565b005b61064a6111fb565b6040516106579190613ec9565b60405180910390f35b61067a60048036038101906106759190613ffd565b611202565b005b610696600480360381019061069191906140de565b611218565b005b6106a061127a565b6040516106ad9190613c27565b60405180910390f35b6106d060048036038101906106cb9190613f24565b61128b565b6040516106dd9190613c58565b60405180910390f35b61070060048036038101906106fb9190613a74565b611308565b60405161070d9190613a1c565b60405180910390f35b610730600480360381019061072b9190613e8d565b61131a565b60405161073d9190613c58565b60405180910390f35b61074e61133e565b60405161075b9190613ec9565b60405180910390f35b61077e60048036038101906107799190613ee4565b611362565b005b610788611383565b6040516107959190613ec9565b60405180910390f35b6107b860048036038101906107b39190614161565b6113a7565b6040516107c59190613971565b60405180910390f35b60006107d98261143b565b9050919050565b6060600280546107ef906141d0565b80601f016020809104026020016040519081016040528092919081815260200182805461081b906141d0565b80156108685780601f1061083d57610100808354040283529160200191610868565b820191906000526020600020905b81548152906001019060200180831161084b57829003601f168201915b5050505050905090565b600061087d8261144d565b6006600083815260200190815260200160002060009054906101000a900473ffffffffffffffffffffffffffffffffffffffff169050919050565b60006108c382610da9565b90508073ffffffffffffffffffffffffffffffffffffffff168373ffffffffffffffffffffffffffffffffffffffff1603610933576040517f08c379a000000000000000000000000000000000000000000000000000000000815260040161092a90614273565b60405180910390fd5b8073ffffffffffffffffffffffffffffffffffffffff16610952611498565b73ffffffffffffffffffffffffffffffffffffffff16148061098157506109808161097b611498565b6113a7565b5b6109c0576040517f08c379a00000000000000000000000000000000000000000000000000000000081526004016109b790614305565b60405180910390fd5b6109ca83836114a0565b505050565b60606109db6002611559565b905090565b60006109ec60026115a1565b905090565b6109fb82826115e9565b5050565b6000600a80549050905090565b610a1d610a17611498565b82611656565b610a5c576040517f08c379a0000000000000000000000000000000000000000000000000000000008152600401610a5390614397565b60405180910390fd5b610a678383836116eb565b505050565b6000806000838152602001908152602001600020600101549050919050565b610a9482610a6c565b610a9d81611951565b610aa78383611965565b505050565b6000610ab783610f0c565b8210610af8576040517f08c379a0000000000000000000000000000000000000000000000000000000008152600401610aef90614429565b60405180910390fd5b600860008473ffffffffffffffffffffffffffffffffffffffff1673ffffffffffffffffffffffffffffffffffffffff168152602001908152602001600020600083815260200190815260200160002054905092915050565b610b5b3383611656565b610b9a576040517f08c379a0000000000000000000000000000000000000000000000000000000008152600401610b91906144bb565b60405180910390fd5b610ba48282611999565b5050565b610bb0611498565b73ffffffffffffffffffffffffffffffffffffffff168173ffffffffffffffffffffffffffffffffffffffff1614610c1d576040517f08c379a0000000000000000000000000000000000000000000000000000000008152600401610c149061454d565b60405180910390fd5b610c278282611a4c565b5050565b610c5c7f65d7a28e3265b37a6474929f336521b332c1681b933f6cb9f3376673440d862a610c57611498565b61107d565b610c9b576040517f08c379a0000000000000000000000000000000000000000000000000000000008152600401610c92906145df565b60405180910390fd5b610ca3611a80565b565b610cc083838360405180602001604052806000815250611218565b505050565b610cd6610cd0611498565b82611656565b610d15576040517f08c379a0000000000000000000000000000000000000000000000000000000008152600401610d0c90614397565b60405180910390fd5b610d1e81611ae3565b50565b6000610d2b6109ff565b8210610d6c576040517f08c379a0000000000000000000000000000000000000000000000000000000008152600401610d6390614671565b60405180910390fd5b600a8281548110610d8057610d7f614691565b5b90600052602060002001549050919050565b6000600c60009054906101000a900460ff16905090565b6000806004600084815260200190815260200160002060009054906101000a900473ffffffffffffffffffffffffffffffffffffffff169050600073ffffffffffffffffffffffffffffffffffffffff168173ffffffffffffffffffffffffffffffffffffffff1603610e51576040517f08c379a0000000000000000000000000000000000000000000000000000000008152600401610e489061470c565b60405180910390fd5b80915050919050565b6000610e6660016115a1565b905090565b610e9c7f9f2df0fed2c77648de5860a4cc508cd0818c85b8b8a1ab4ceeef8d981c8956a6610e97611498565b61107d565b610edb576040517f08c379a0000000000000000000000000000000000000000000000000000000008152600401610ed29061479e565b60405180910390fd5b610eee81610ee96010611aef565b611afd565b610ef86010611cd6565b50565b6000610f0760006115a1565b905090565b60008073ffffffffffffffffffffffffffffffffffffffff168273ffffffffffffffffffffffffffffffffffffffff1603610f7c576040517f08c379a0000000000000000000000000000000000000000000000000000000008152600401610f7390614830565b60405180910390fd5b600560008373ffffffffffffffffffffffffffffffffffffffff1673ffffffffffffffffffffffffffffffffffffffff168152602001908152602001600020549050919050565b610ff47f65d7a28e3265b37a6474929f336521b332c1681b933f6cb9f3376673440d862a610fef611498565b61107d565b611033576040517f08c379a000000000000000000000000000000000000000000000000000000000815260040161102a906148c2565b60405180910390fd5b61103b611cec565b565b60606110496000611559565b905090565b60006110758260016000868152602001908152602001600020611d4f90919063ffffffff16565b905092915050565b600080600084815260200190815260200160002060000160008373ffffffffffffffffffffffffffffffffffffffff1673ffffffffffffffffffffffffffffffffffffffff16815260200190815260200160002060009054906101000a900460ff16905092915050565b6060600380546110f6906141d0565b80601f0160208091040260200160405190810160405280929190818152602001828054611122906141d0565b801561116f5780601f106111445761010080835404028352916020019161116f565b820191906000526020600020905b81548152906001019060200180831161115257829003601f168201915b5050505050905090565b3373ffffffffffffffffffffffffffffffffffffffff1661119982610da9565b73ffffffffffffffffffffffffffffffffffffffff16146111ef576040517f08c379a00000000000000000000000000000000000000000000000000000000081526004016111e690614954565b60405180910390fd5b6111f881611d69565b50565b6000801b81565b61121461120d611498565b8383611dc8565b5050565b611229611223611498565b83611656565b611268576040517f08c379a000000000000000000000000000000000000000000000000000000000815260040161125f90614397565b60405180910390fd5b61127484848484611f34565b50505050565b60606112866001611559565b905090565b60006112b77f9f2df0fed2c77648de5860a4cc508cd0818c85b8b8a1ab4ceeef8d981c8956a63361107d565b6112f6576040517f08c379a00000000000000000000000000000000000000000000000000000000081526004016112ed906149e6565b60405180910390fd5b6113008383611f90565b905092915050565b606061131382612047565b9050919050565b600061133760016000848152602001908152602001600020612159565b9050919050565b7f9f2df0fed2c77648de5860a4cc508cd0818c85b8b8a1ab4ceeef8d981c8956a681565b61136b82610a6c565b61137481611951565b61137e8383611a4c565b505050565b7f65d7a28e3265b37a6474929f336521b332c1681b933f6cb9f3376673440d862a81565b6000600760008473ffffffffffffffffffffffffffffffffffffffff1673ffffffffffffffffffffffffffffffffffffffff16815260200190815260200160002060008373ffffffffffffffffffffffffffffffffffffffff1673ffffffffffffffffffffffffffffffffffffffff16815260200190815260200160002060009054906101000a900460ff16905092915050565b60006114468261216e565b9050919050565b611456816121e8565b611495576040517f08c379a000000000000000000000000000000000000000000000000000000000815260040161148c9061470c565b60405180910390fd5b50565b600033905090565b816006600083815260200190815260200160002060006101000a81548173ffffffffffffffffffffffffffffffffffffffff021916908373ffffffffffffffffffffffffffffffffffffffff160217905550808273ffffffffffffffffffffffffffffffffffffffff1661151383610da9565b73ffffffffffffffffffffffffffffffffffffffff167f8c5be1e5ebec7d5bd14f71427d1e84f3dd0314c0f7b2291e5b200ac8c7c3b92560405160405180910390a45050565b606061159a6011600084600281111561157557611574614a06565b5b600281111561158757611586614a06565b5b8152602001908152602001600020612254565b9050919050565b60006115e2601160008460028111156115bd576115bc614a06565b5b60028111156115cf576115ce614a06565b5b8152602001908152602001600020612275565b9050919050565b6115f2826121e8565b611631576040517f08c379a000000000000000000000000000000000000000000000000000000000815260040161162890614aa7565b60405180910390fd5b80600f600084815260200190815260200160002090816116519190614c73565b505050565b60008061166283610da9565b90508073ffffffffffffffffffffffffffffffffffffffff168473ffffffffffffffffffffffffffffffffffffffff1614806116a457506116a381856113a7565b5b806116e257508373ffffffffffffffffffffffffffffffffffffffff166116ca84610872565b73ffffffffffffffffffffffffffffffffffffffff16145b91505092915050565b8273ffffffffffffffffffffffffffffffffffffffff1661170b82610da9565b73ffffffffffffffffffffffffffffffffffffffff1614611761576040517f08c379a000000000000000000000000000000000000000000000000000000000815260040161175890614db7565b60405180910390fd5b600073ffffffffffffffffffffffffffffffffffffffff168273ffffffffffffffffffffffffffffffffffffffff16036117d0576040517f08c379a00000000000000000000000000000000000000000000000000000000081526004016117c790614e49565b60405180910390fd5b6117db83838361228a565b6117e66000826114a0565b6001600560008573ffffffffffffffffffffffffffffffffffffffff1673ffffffffffffffffffffffffffffffffffffffff16815260200190815260200160002060008282546118369190614e98565b925050819055506001600560008473ffffffffffffffffffffffffffffffffffffffff1673ffffffffffffffffffffffffffffffffffffffff168152602001908152602001600020600082825461188d9190614ecc565b92505081905550816004600083815260200190815260200160002060006101000a81548173ffffffffffffffffffffffffffffffffffffffff021916908373ffffffffffffffffffffffffffffffffffffffff160217905550808273ffffffffffffffffffffffffffffffffffffffff168473ffffffffffffffffffffffffffffffffffffffff167fddf252ad1be2c89b69c2b068fc378daa952ba7f163c4a11628f55a4df523b3ef60405160405180910390a461194c83838361229a565b505050565b6119628161195d611498565b61229f565b50565b61196f828261233c565b611994816001600085815260200190815260200160002061241c90919063ffffffff16565b505050565b6119a2826121e8565b6119e1576040517f08c379a00000000000000000000000000000000000000000000000000000000081526004016119d890614f98565b60405180910390fd5b6119ea8261244c565b15611a2a576040517f08c379a0000000000000000000000000000000000000000000000000000000008152600401611a219061502a565b60405180910390fd5b611a3d611a3683610da9565b82846116eb565b611a4882600061249e565b5050565b611a5682826125ab565b611a7b816001600085815260200190815260200160002061268c90919063ffffffff16565b505050565b611a886126bc565b6000600c60006101000a81548160ff0219169083151502179055507f5db9ee0a495bf2e6ff9c91a7834c1ba4fdd244a5e8aa4e537bd38aeae4b073aa611acc611498565b604051611ad99190613ae2565b60405180910390a1565b611aec81612705565b50565b600081600001549050919050565b600073ffffffffffffffffffffffffffffffffffffffff168273ffffffffffffffffffffffffffffffffffffffff1603611b6c576040517f08c379a0000000000000000000000000000000000000000000000000000000008152600401611b6390615096565b60405180910390fd5b611b75816121e8565b15611bb5576040517f08c379a0000000000000000000000000000000000000000000000000000000008152600401611bac90615102565b60405180910390fd5b611bc16000838361228a565b6001600560008473ffffffffffffffffffffffffffffffffffffffff1673ffffffffffffffffffffffffffffffffffffffff1681526020019081526020016000206000828254611c119190614ecc565b92505081905550816004600083815260200190815260200160002060006101000a81548173ffffffffffffffffffffffffffffffffffffffff021916908373ffffffffffffffffffffffffffffffffffffffff160217905550808273ffffffffffffffffffffffffffffffffffffffff16600073ffffffffffffffffffffffffffffffffffffffff167fddf252ad1be2c89b69c2b068fc378daa952ba7f163c4a11628f55a4df523b3ef60405160405180910390a4611cd26000838361229a565b5050565b6001816000016000828254019250508190555050565b611cf4612758565b6001600c60006101000a81548160ff0219169083151502179055507f62e78cea01bee320cd4e420270b5ea74000d11b0c9f74754ebdbfc544b05a258611d38611498565b604051611d459190613ae2565b60405180910390a1565b6000611d5e83600001836127a2565b60001c905092915050565b611d728161244c565b611db1576040517f08c379a0000000000000000000000000000000000000000000000000000000008152600401611da890615194565b60405180910390fd5b611dba81611ae3565b611dc581600161249e565b50565b8173ffffffffffffffffffffffffffffffffffffffff168373ffffffffffffffffffffffffffffffffffffffff1603611e36576040517f08c379a0000000000000000000000000000000000000000000000000000000008152600401611e2d90615200565b60405180910390fd5b80600760008573ffffffffffffffffffffffffffffffffffffffff1673ffffffffffffffffffffffffffffffffffffffff16815260200190815260200160002060008473ffffffffffffffffffffffffffffffffffffffff1673ffffffffffffffffffffffffffffffffffffffff16815260200190815260200160002060006101000a81548160ff0219169083151502179055508173ffffffffffffffffffffffffffffffffffffffff168373ffffffffffffffffffffffffffffffffffffffff167f17307eab39ab6107e8899845ad3d59bd9653f200f220920489ca2b5937696c3183604051611f279190613971565b60405180910390a3505050565b611f3f8484846116eb565b611f4b848484846127cd565b611f8a576040517f08c379a0000000000000000000000000000000000000000000000000000000008152600401611f8190615292565b60405180910390fd5b50505050565b60008073ffffffffffffffffffffffffffffffffffffffff168273ffffffffffffffffffffffffffffffffffffffff1603612000576040517f08c379a0000000000000000000000000000000000000000000000000000000008152600401611ff790615324565b60405180910390fd5b82905061200c836121e8565b1561202b5761201a82610e6b565b6120246010611aef565b9050612036565b6120358282611afd565b5b61204181600261249e565b92915050565b60606120528261144d565b6000600f60008481526020019081526020016000208054612072906141d0565b80601f016020809104026020016040519081016040528092919081815260200182805461209e906141d0565b80156120eb5780601f106120c0576101008083540402835291602001916120eb565b820191906000526020600020905b8154815290600101906020018083116120ce57829003601f168201915b5050505050905060006120fc612954565b90506000815103612111578192505050612154565b60008251111561214657808260405160200161212e929190615380565b60405160208183030381529060405292505050612154565b61214f84612963565b925050505b919050565b6000612167826000016129cb565b9050919050565b60007f780e9d63000000000000000000000000000000000000000000000000000000007bffffffffffffffffffffffffffffffffffffffffffffffffffffffff1916827bffffffffffffffffffffffffffffffffffffffffffffffffffffffff191614806121e157506121e0826129dc565b5b9050919050565b60008073ffffffffffffffffffffffffffffffffffffffff166004600084815260200190815260200160002060009054906101000a900473ffffffffffffffffffffffffffffffffffffffff1673ffffffffffffffffffffffffffffffffffffffff1614159050919050565b6060600061226483600001612abe565b905060608190508092505050919050565b6000612283826000016129cb565b9050919050565b612295838383612b1a565b505050565b505050565b6122a9828261107d565b612338576122ce8173ffffffffffffffffffffffffffffffffffffffff166014612b2a565b6122dc8360001c6020612b2a565b6040516020016122ed92919061543c565b6040516020818303038152906040526040517f08c379a000000000000000000000000000000000000000000000000000000000815260040161232f9190613a1c565b60405180910390fd5b5050565b612346828261107d565b61241857600160008084815260200190815260200160002060000160008373ffffffffffffffffffffffffffffffffffffffff1673ffffffffffffffffffffffffffffffffffffffff16815260200190815260200160002060006101000a81548160ff0219169083151502179055506123bd611498565b73ffffffffffffffffffffffffffffffffffffffff168173ffffffffffffffffffffffffffffffffffffffff16837f2f8788117e7eff1d82e926ec794901d17c78024a50270940304540a733656f0d60405160405180910390a45b5050565b6000612444836000018373ffffffffffffffffffffffffffffffffffffffff1660001b612d66565b905092915050565b6000612497826011600080600281111561246957612468614a06565b5b600281111561247b5761247a614a06565b5b8152602001908152602001600020612dd690919063ffffffff16565b9050919050565b60005b60038110156125a6578160028111156124bd576124bc614a06565b5b8160028111156124d0576124cf614a06565b5b60028111156124e2576124e1614a06565b5b0361253657612530836011600085600281111561250257612501614a06565b5b600281111561251457612513614a06565b5b8152602001908152602001600020612df090919063ffffffff16565b50612593565b612591836011600084600281111561255157612550614a06565b5b600281111561256357612562614a06565b5b600281111561257557612574614a06565b5b8152602001908152602001600020612e0a90919063ffffffff16565b505b808061259e90615476565b9150506124a1565b505050565b6125b5828261107d565b1561268857600080600084815260200190815260200160002060000160008373ffffffffffffffffffffffffffffffffffffffff1673ffffffffffffffffffffffffffffffffffffffff16815260200190815260200160002060006101000a81548160ff02191690831515021790555061262d611498565b73ffffffffffffffffffffffffffffffffffffffff168173ffffffffffffffffffffffffffffffffffffffff16837ff6391f5c32d9c69d2a47ea670b442974b53935d1edc7fd64eb21e047a839171b60405160405180910390a45b5050565b60006126b4836000018373ffffffffffffffffffffffffffffffffffffffff1660001b612e24565b905092915050565b6126c4610d92565b612703576040517f08c379a00000000000000000000000000000000000000000000000000000000081526004016126fa9061550a565b60405180910390fd5b565b61270e81612f38565b6000600f6000838152602001908152602001600020805461272e906141d0565b90501461275557600f600082815260200190815260200160002060006127549190613860565b5b50565b612760610d92565b156127a0576040517f08c379a000000000000000000000000000000000000000000000000000000000815260040161279790615576565b60405180910390fd5b565b60008260000182815481106127ba576127b9614691565b5b9060005260206000200154905092915050565b60006127ee8473ffffffffffffffffffffffffffffffffffffffff16613055565b15612947578373ffffffffffffffffffffffffffffffffffffffff1663150b7a02612817611498565b8786866040518563ffffffff1660e01b815260040161283994939291906155eb565b6020604051808303816000875af192505050801561287557506040513d601f19601f82011682018060405250810190612872919061564c565b60015b6128f7573d80600081146128a5576040519150601f19603f3d011682016040523d82523d6000602084013e6128aa565b606091505b5060008151036128ef576040517f08c379a00000000000000000000000000000000000000000000000000000000081526004016128e690615292565b60405180910390fd5b805181602001fd5b63150b7a0260e01b7bffffffffffffffffffffffffffffffffffffffffffffffffffffffff1916817bffffffffffffffffffffffffffffffffffffffffffffffffffffffff19161491505061294c565b600190505b949350505050565b606061295e613078565b905090565b606061296e8261144d565b6000612978612954565b9050600081511161299857604051806020016040528060008152506129c3565b806129a28461310a565b6040516020016129b3929190615380565b6040516020818303038152906040525b915050919050565b600081600001805490509050919050565b60007f80ac58cd000000000000000000000000000000000000000000000000000000007bffffffffffffffffffffffffffffffffffffffffffffffffffffffff1916827bffffffffffffffffffffffffffffffffffffffffffffffffffffffff19161480612aa757507f5b5e139f000000000000000000000000000000000000000000000000000000007bffffffffffffffffffffffffffffffffffffffffffffffffffffffff1916827bffffffffffffffffffffffffffffffffffffffffffffffffffffffff1916145b80612ab75750612ab68261326a565b5b9050919050565b606081600001805480602002602001604051908101604052809291908181526020018280548015612b0e57602002820191906000526020600020905b815481526020019060010190808311612afa575b50505050509050919050565b612b258383836132e4565b505050565b606060006002836002612b3d9190615679565b612b479190614ecc565b67ffffffffffffffff811115612b6057612b5f613c7d565b5b6040519080825280601f01601f191660200182016040528015612b925781602001600182028036833780820191505090505b5090507f300000000000000000000000000000000000000000000000000000000000000081600081518110612bca57612bc9614691565b5b60200101907effffffffffffffffffffffffffffffffffffffffffffffffffffffffffffff1916908160001a9053507f780000000000000000000000000000000000000000000000000000000000000081600181518110612c2e57612c2d614691565b5b60200101907effffffffffffffffffffffffffffffffffffffffffffffffffffffffffffff1916908160001a90535060006001846002612c6e9190615679565b612c789190614ecc565b90505b6001811115612d18577f3031323334353637383961626364656600000000000000000000000000000000600f861660108110612cba57612cb9614691565b5b1a60f81b828281518110612cd157612cd0614691565b5b60200101907effffffffffffffffffffffffffffffffffffffffffffffffffffffffffffff1916908160001a905350600485901c945080612d11906156bb565b9050612c7b565b5060008414612d5c576040517f08c379a0000000000000000000000000000000000000000000000000000000008152600401612d5390615730565b60405180910390fd5b8091505092915050565b6000612d72838361333c565b612dcb578260000182908060018154018082558091505060019003906000526020600020016000909190919091505582600001805490508360010160008481526020019081526020016000208190555060019050612dd0565b600090505b92915050565b6000612de8836000018360001b61333c565b905092915050565b6000612e02836000018360001b612d66565b905092915050565b6000612e1c836000018360001b612e24565b905092915050565b60008083600101600084815260200190815260200160002054905060008114612f2c576000600182612e569190614e98565b9050600060018660000180549050612e6e9190614e98565b9050818114612edd576000866000018281548110612e8f57612e8e614691565b5b9060005260206000200154905080876000018481548110612eb357612eb2614691565b5b90600052602060002001819055508387600101600083815260200190815260200160002081905550505b85600001805480612ef157612ef0615750565b5b600190038181906000526020600020016000905590558560010160008681526020019081526020016000206000905560019350505050612f32565b60009150505b92915050565b6000612f4382610da9565b9050612f518160008461228a565b612f5c6000836114a0565b6001600560008373ffffffffffffffffffffffffffffffffffffffff1673ffffffffffffffffffffffffffffffffffffffff1681526020019081526020016000206000828254612fac9190614e98565b925050819055506004600083815260200190815260200160002060006101000a81549073ffffffffffffffffffffffffffffffffffffffff021916905581600073ffffffffffffffffffffffffffffffffffffffff168273ffffffffffffffffffffffffffffffffffffffff167fddf252ad1be2c89b69c2b068fc378daa952ba7f163c4a11628f55a4df523b3ef60405160405180910390a46130518160008461229a565b5050565b6000808273ffffffffffffffffffffffffffffffffffffffff163b119050919050565b6060600e8054613087906141d0565b80601f01602080910402602001604051908101604052809291908181526020018280546130b3906141d0565b80156131005780601f106130d557610100808354040283529160200191613100565b820191906000526020600020905b8154815290600101906020018083116130e357829003601f168201915b5050505050905090565b606060008203613151576040518060400160405280600181526020017f30000000000000000000000000000000000000000000000000000000000000008152509050613265565b600082905060005b6000821461318357808061316c90615476565b915050600a8261317c91906157ae565b9150613159565b60008167ffffffffffffffff81111561319f5761319e613c7d565b5b6040519080825280601f01601f1916602001820160405280156131d15781602001600182028036833780820191505090505b5090505b6000851461325e576001826131ea9190614e98565b9150600a856131f991906157df565b60306132059190614ecc565b60f81b81838151811061321b5761321a614691565b5b60200101907effffffffffffffffffffffffffffffffffffffffffffffffffffffffffffff1916908160001a905350600a8561325791906157ae565b94506131d5565b8093505050505b919050565b60007f5a05180f000000000000000000000000000000000000000000000000000000007bffffffffffffffffffffffffffffffffffffffffffffffffffffffff1916827bffffffffffffffffffffffffffffffffffffffffffffffffffffffff191614806132dd57506132dc8261335f565b5b9050919050565b6132ef8383836133d9565b6132f7610d92565b15613337576040517f08c379a000000000000000000000000000000000000000000000000000000000815260040161332e90615882565b60405180910390fd5b505050565b600080836001016000848152602001908152602001600020541415905092915050565b60007f7965db0b000000000000000000000000000000000000000000000000000000007bffffffffffffffffffffffffffffffffffffffffffffffffffffffff1916827bffffffffffffffffffffffffffffffffffffffffffffffffffffffff191614806133d257506133d1826134eb565b5b9050919050565b6133e4838383613555565b600073ffffffffffffffffffffffffffffffffffffffff168373ffffffffffffffffffffffffffffffffffffffff1603613426576134218161355a565b613465565b8173ffffffffffffffffffffffffffffffffffffffff168373ffffffffffffffffffffffffffffffffffffffff16146134645761346383826135a3565b5b5b600073ffffffffffffffffffffffffffffffffffffffff168273ffffffffffffffffffffffffffffffffffffffff16036134a7576134a281613710565b6134e6565b8273ffffffffffffffffffffffffffffffffffffffff168273ffffffffffffffffffffffffffffffffffffffff16146134e5576134e482826137e1565b5b5b505050565b60007f01ffc9a7000000000000000000000000000000000000000000000000000000007bffffffffffffffffffffffffffffffffffffffffffffffffffffffff1916827bffffffffffffffffffffffffffffffffffffffffffffffffffffffff1916149050919050565b505050565b600a80549050600b600083815260200190815260200160002081905550600a81908060018154018082558091505060019003906000526020600020016000909190919091505550565b600060016135b084610f0c565b6135ba9190614e98565b905060006009600084815260200190815260200160002054905081811461369f576000600860008673ffffffffffffffffffffffffffffffffffffffff1673ffffffffffffffffffffffffffffffffffffffff168152602001908152602001600020600084815260200190815260200160002054905080600860008773ffffffffffffffffffffffffffffffffffffffff1673ffffffffffffffffffffffffffffffffffffffff168152602001908152602001600020600084815260200190815260200160002081905550816009600083815260200190815260200160002081905550505b6009600084815260200190815260200160002060009055600860008573ffffffffffffffffffffffffffffffffffffffff1673ffffffffffffffffffffffffffffffffffffffff16815260200190815260200160002060008381526020019081526020016000206000905550505050565b60006001600a805490506137249190614e98565b90506000600b60008481526020019081526020016000205490506000600a838154811061375457613753614691565b5b9060005260206000200154905080600a838154811061377657613775614691565b5b906000526020600020018190555081600b600083815260200190815260200160002081905550600b600085815260200190815260200160002060009055600a8054806137c5576137c4615750565b5b6001900381819060005260206000200160009055905550505050565b60006137ec83610f0c565b905081600860008573ffffffffffffffffffffffffffffffffffffffff1673ffffffffffffffffffffffffffffffffffffffff168152602001908152602001600020600083815260200190815260200160002081905550806009600084815260200190815260200160002081905550505050565b50805461386c906141d0565b6000825580601f1061387e575061389d565b601f01602090049060005260206000209081019061389c91906138a0565b5b50565b5b808211156138b95760008160009055506001016138a1565b5090565b6000604051905090565b600080fd5b600080fd5b60007fffffffff0000000000000000000000000000000000000000000000000000000082169050919050565b613906816138d1565b811461391157600080fd5b50565b600081359050613923816138fd565b92915050565b60006020828403121561393f5761393e6138c7565b5b600061394d84828501613914565b91505092915050565b60008115159050919050565b61396b81613956565b82525050565b60006020820190506139866000830184613962565b92915050565b600081519050919050565b600082825260208201905092915050565b60005b838110156139c65780820151818401526020810190506139ab565b60008484015250505050565b6000601f19601f8301169050919050565b60006139ee8261398c565b6139f88185613997565b9350613a088185602086016139a8565b613a11816139d2565b840191505092915050565b60006020820190508181036000830152613a3681846139e3565b905092915050565b6000819050919050565b613a5181613a3e565b8114613a5c57600080fd5b50565b600081359050613a6e81613a48565b92915050565b600060208284031215613a8a57613a896138c7565b5b6000613a9884828501613a5f565b91505092915050565b600073ffffffffffffffffffffffffffffffffffffffff82169050919050565b6000613acc82613aa1565b9050919050565b613adc81613ac1565b82525050565b6000602082019050613af76000830184613ad3565b92915050565b613b0681613ac1565b8114613b1157600080fd5b50565b600081359050613b2381613afd565b92915050565b60008060408385031215613b4057613b3f6138c7565b5b6000613b4e85828601613b14565b9250506020613b5f85828601613a5f565b9150509250929050565b600081519050919050565b600082825260208201905092915050565b6000819050602082019050919050565b613b9e81613a3e565b82525050565b6000613bb08383613b95565b60208301905092915050565b6000602082019050919050565b6000613bd482613b69565b613bde8185613b74565b9350613be983613b85565b8060005b83811015613c1a578151613c018882613ba4565b9750613c0c83613bbc565b925050600181019050613bed565b5085935050505092915050565b60006020820190508181036000830152613c418184613bc9565b905092915050565b613c5281613a3e565b82525050565b6000602082019050613c6d6000830184613c49565b92915050565b600080fd5b600080fd5b7f4e487b7100000000000000000000000000000000000000000000000000000000600052604160045260246000fd5b613cb5826139d2565b810181811067ffffffffffffffff82111715613cd457613cd3613c7d565b5b80604052505050565b6000613ce76138bd565b9050613cf38282613cac565b919050565b600067ffffffffffffffff821115613d1357613d12613c7d565b5b613d1c826139d2565b9050602081019050919050565b82818337600083830152505050565b6000613d4b613d4684613cf8565b613cdd565b905082815260208101848484011115613d6757613d66613c78565b5b613d72848285613d29565b509392505050565b600082601f830112613d8f57613d8e613c73565b5b8135613d9f848260208601613d38565b91505092915050565b60008060408385031215613dbf57613dbe6138c7565b5b6000613dcd85828601613a5f565b925050602083013567ffffffffffffffff811115613dee57613ded6138cc565b5b613dfa85828601613d7a565b9150509250929050565b600080600060608486031215613e1d57613e1c6138c7565b5b6000613e2b86828701613b14565b9350506020613e3c86828701613b14565b9250506040613e4d86828701613a5f565b9150509250925092565b6000819050919050565b613e6a81613e57565b8114613e7557600080fd5b50565b600081359050613e8781613e61565b92915050565b600060208284031215613ea357613ea26138c7565b5b6000613eb184828501613e78565b91505092915050565b613ec381613e57565b82525050565b6000602082019050613ede6000830184613eba565b92915050565b60008060408385031215613efb57613efa6138c7565b5b6000613f0985828601613e78565b9250506020613f1a85828601613b14565b9150509250929050565b60008060408385031215613f3b57613f3a6138c7565b5b6000613f4985828601613a5f565b9250506020613f5a85828601613b14565b9150509250929050565b600060208284031215613f7a57613f796138c7565b5b6000613f8884828501613b14565b91505092915050565b60008060408385031215613fa857613fa76138c7565b5b6000613fb685828601613e78565b9250506020613fc785828601613a5f565b9150509250929050565b613fda81613956565b8114613fe557600080fd5b50565b600081359050613ff781613fd1565b92915050565b60008060408385031215614014576140136138c7565b5b600061402285828601613b14565b925050602061403385828601613fe8565b9150509250929050565b600067ffffffffffffffff82111561405857614057613c7d565b5b614061826139d2565b9050602081019050919050565b600061408161407c8461403d565b613cdd565b90508281526020810184848401111561409d5761409c613c78565b5b6140a8848285613d29565b509392505050565b600082601f8301126140c5576140c4613c73565b5b81356140d584826020860161406e565b91505092915050565b600080600080608085870312156140f8576140f76138c7565b5b600061410687828801613b14565b945050602061411787828801613b14565b935050604061412887828801613a5f565b925050606085013567ffffffffffffffff811115614149576141486138cc565b5b614155878288016140b0565b91505092959194509250565b60008060408385031215614178576141776138c7565b5b600061418685828601613b14565b925050602061419785828601613b14565b9150509250929050565b7f4e487b7100000000000000000000000000000000000000000000000000000000600052602260045260246000fd5b600060028204905060018216806141e857607f821691505b6020821081036141fb576141fa6141a1565b5b50919050565b7f4552433732313a20617070726f76616c20746f2063757272656e74206f776e6560008201527f7200000000000000000000000000000000000000000000000000000000000000602082015250565b600061425d602183613997565b915061426882614201565b604082019050919050565b6000602082019050818103600083015261428c81614250565b9050919050565b7f4552433732313a20617070726f76652063616c6c6572206973206e6f7420746f60008201527f6b656e206f776e6572206e6f7220617070726f76656420666f7220616c6c0000602082015250565b60006142ef603e83613997565b91506142fa82614293565b604082019050919050565b6000602082019050818103600083015261431e816142e2565b9050919050565b7f4552433732313a2063616c6c6572206973206e6f7420746f6b656e206f776e6560008201527f72206e6f7220617070726f766564000000000000000000000000000000000000602082015250565b6000614381602e83613997565b915061438c82614325565b604082019050919050565b600060208201905081810360008301526143b081614374565b9050919050565b7f455243373231456e756d657261626c653a206f776e657220696e646578206f7560008201527f74206f6620626f756e6473000000000000000000000000000000000000000000602082015250565b6000614413602b83613997565b915061441e826143b7565b604082019050919050565b6000602082019050818103600083015261444281614406565b9050919050565b7f4552433732314578706f727461626c653a2063616c6c6572206973206e6f742060008201527f6f776e6572206e6f7220617070726f7665640000000000000000000000000000602082015250565b60006144a5603283613997565b91506144b082614449565b604082019050919050565b600060208201905081810360008301526144d481614498565b9050919050565b7f416363657373436f6e74726f6c3a2063616e206f6e6c792072656e6f756e636560008201527f20726f6c657320666f722073656c660000000000000000000000000000000000602082015250565b6000614537602f83613997565b9150614542826144db565b604082019050919050565b600060208201905081810360008301526145668161452a565b9050919050565b7f4552433732315072657365744d696e7465725061757365724175746f49643a2060008201527f6d75737420686176652070617573657220726f6c6520746f20756e7061757365602082015250565b60006145c9604083613997565b91506145d48261456d565b604082019050919050565b600060208201905081810360008301526145f8816145bc565b9050919050565b7f455243373231456e756d657261626c653a20676c6f62616c20696e646578206f60008201527f7574206f6620626f756e64730000000000000000000000000000000000000000602082015250565b600061465b602c83613997565b9150614666826145ff565b604082019050919050565b6000602082019050818103600083015261468a8161464e565b9050919050565b7f4e487b7100000000000000000000000000000000000000000000000000000000600052603260045260246000fd5b7f4552433732313a20696e76616c696420746f6b656e2049440000000000000000600082015250565b60006146f6601883613997565b9150614701826146c0565b602082019050919050565b60006020820190508181036000830152614725816146e9565b9050919050565b7f4552433732315072657365744d696e7465725061757365724175746f49643a2060008201527f6d7573742068617665206d696e74657220726f6c6520746f206d696e74000000602082015250565b6000614788603d83613997565b91506147938261472c565b604082019050919050565b600060208201905081810360008301526147b78161477b565b9050919050565b7f4552433732313a2061646472657373207a65726f206973206e6f74206120766160008201527f6c6964206f776e65720000000000000000000000000000000000000000000000602082015250565b600061481a602983613997565b9150614825826147be565b604082019050919050565b600060208201905081810360008301526148498161480d565b9050919050565b7f4552433732315072657365744d696e7465725061757365724175746f49643a2060008201527f6d75737420686176652070617573657220726f6c6520746f2070617573650000602082015250565b60006148ac603e83613997565b91506148b782614850565b604082019050919050565b600060208201905081810360008301526148db8161489f565b9050919050565b7f4552433732314578706f727461626c653a204d696e74657220726f6c6520697360008201527f20726571756972656420746f2073657420746f6b656e206578706f7274656400602082015250565b600061493e603f83613997565b9150614949826148e2565b604082019050919050565b6000602082019050818103600083015261496d81614931565b9050919050565b7f4552433732314578706f727461626c653a204d696e74657220726f6c6520697360008201527f20726571756972656420746f20696d706f7274206120746f6b656e0000000000602082015250565b60006149d0603b83613997565b91506149db82614974565b604082019050919050565b600060208201905081810360008301526149ff816149c3565b9050919050565b7f4e487b7100000000000000000000000000000000000000000000000000000000600052602160045260246000fd5b7f45524337323155524953746f726167653a2055524920736574206f66206e6f6e60008201527f6578697374656e7420746f6b656e000000000000000000000000000000000000602082015250565b6000614a91602e83613997565b9150614a9c82614a35565b604082019050919050565b60006020820190508181036000830152614ac081614a84565b9050919050565b60008190508160005260206000209050919050565b60006020601f8301049050919050565b600082821b905092915050565b600060088302614b297fffffffffffffffffffffffffffffffffffffffffffffffffffffffffffffffff82614aec565b614b338683614aec565b95508019841693508086168417925050509392505050565b6000819050919050565b6000614b70614b6b614b6684613a3e565b614b4b565b613a3e565b9050919050565b6000819050919050565b614b8a83614b55565b614b9e614b9682614b77565b848454614af9565b825550505050565b600090565b614bb3614ba6565b614bbe818484614b81565b505050565b5b81811015614be257614bd7600082614bab565b600181019050614bc4565b5050565b601f821115614c2757614bf881614ac7565b614c0184614adc565b81016020851015614c10578190505b614c24614c1c85614adc565b830182614bc3565b50505b505050565b600082821c905092915050565b6000614c4a60001984600802614c2c565b1980831691505092915050565b6000614c638383614c39565b9150826002028217905092915050565b614c7c8261398c565b67ffffffffffffffff811115614c9557614c94613c7d565b5b614c9f82546141d0565b614caa828285614be6565b600060209050601f831160018114614cdd5760008415614ccb578287015190505b614cd58582614c57565b865550614d3d565b601f198416614ceb86614ac7565b60005b82811015614d1357848901518255600182019150602085019450602081019050614cee565b86831015614d305784890151614d2c601f891682614c39565b8355505b6001600288020188555050505b505050505050565b7f4552433732313a207472616e736665722066726f6d20696e636f72726563742060008201527f6f776e6572000000000000000000000000000000000000000000000000000000602082015250565b6000614da1602583613997565b9150614dac82614d45565b604082019050919050565b60006020820190508181036000830152614dd081614d94565b9050919050565b7f4552433732313a207472616e7366657220746f20746865207a65726f2061646460008201527f7265737300000000000000000000000000000000000000000000000000000000602082015250565b6000614e33602483613997565b9150614e3e82614dd7565b604082019050919050565b60006020820190508181036000830152614e6281614e26565b9050919050565b7f4e487b7100000000000000000000000000000000000000000000000000000000600052601160045260246000fd5b6000614ea382613a3e565b9150614eae83613a3e565b9250828203905081811115614ec657614ec5614e69565b5b92915050565b6000614ed782613a3e565b9150614ee283613a3e565b9250828201905080821115614efa57614ef9614e69565b5b92915050565b7f4552433732314578706f727461626c653a20546f6b656e20746f206578706f7260008201527f7420646f73656e2774206578697374206f722069736e277420696e206e6f726d60208201527f616c2073746174652e0000000000000000000000000000000000000000000000604082015250565b6000614f82604983613997565b9150614f8d82614f00565b606082019050919050565b60006020820190508181036000830152614fb181614f75565b9050919050565b7f4552433732314578706f727461626c653a20546f6b656e20697320616c72656160008201527f647920696e206578706f7274696e672e00000000000000000000000000000000602082015250565b6000615014603083613997565b915061501f82614fb8565b604082019050919050565b6000602082019050818103600083015261504381615007565b9050919050565b7f4552433732313a206d696e7420746f20746865207a65726f2061646472657373600082015250565b6000615080602083613997565b915061508b8261504a565b602082019050919050565b600060208201905081810360008301526150af81615073565b9050919050565b7f4552433732313a20746f6b656e20616c7265616479206d696e74656400000000600082015250565b60006150ec601c83613997565b91506150f7826150b6565b602082019050919050565b6000602082019050818103600083015261511b816150df565b9050919050565b7f4552433732314578706f727461626c653a2043757272656e746c7920746f6b6560008201527f6e206973206e6f74206578706f7274696e672e00000000000000000000000000602082015250565b600061517e603383613997565b915061518982615122565b604082019050919050565b600060208201905081810360008301526151ad81615171565b9050919050565b7f4552433732313a20617070726f766520746f2063616c6c657200000000000000600082015250565b60006151ea601983613997565b91506151f5826151b4565b602082019050919050565b60006020820190508181036000830152615219816151dd565b9050919050565b7f4552433732313a207472616e7366657220746f206e6f6e20455243373231526560008201527f63656976657220696d706c656d656e7465720000000000000000000000000000602082015250565b600061527c603283613997565b915061528782615220565b604082019050919050565b600060208201905081810360008301526152ab8161526f565b9050919050565b7f4552433732314578706f7274616c62653a2043616e277420696d706f7274207460008201527f6f207a65726f20616464726573732e0000000000000000000000000000000000602082015250565b600061530e602f83613997565b9150615319826152b2565b604082019050919050565b6000602082019050818103600083015261533d81615301565b9050919050565b600081905092915050565b600061535a8261398c565b6153648185615344565b93506153748185602086016139a8565b80840191505092915050565b600061538c828561534f565b9150615398828461534f565b91508190509392505050565b7f416363657373436f6e74726f6c3a206163636f756e7420000000000000000000600082015250565b60006153da601783615344565b91506153e5826153a4565b601782019050919050565b7f206973206d697373696e6720726f6c6520000000000000000000000000000000600082015250565b6000615426601183615344565b9150615431826153f0565b601182019050919050565b6000615447826153cd565b9150615453828561534f565b915061545e82615419565b915061546a828461534f565b91508190509392505050565b600061548182613a3e565b91507fffffffffffffffffffffffffffffffffffffffffffffffffffffffffffffffff82036154b3576154b2614e69565b5b600182019050919050565b7f5061757361626c653a206e6f7420706175736564000000000000000000000000600082015250565b60006154f4601483613997565b91506154ff826154be565b602082019050919050565b60006020820190508181036000830152615523816154e7565b9050919050565b7f5061757361626c653a2070617573656400000000000000000000000000000000600082015250565b6000615560601083613997565b915061556b8261552a565b602082019050919050565b6000602082019050818103600083015261558f81615553565b9050919050565b600081519050919050565b600082825260208201905092915050565b60006155bd82615596565b6155c781856155a1565b93506155d78185602086016139a8565b6155e0816139d2565b840191505092915050565b60006080820190506156006000830187613ad3565b61560d6020830186613ad3565b61561a6040830185613c49565b818103606083015261562c81846155b2565b905095945050505050565b600081519050615646816138fd565b92915050565b600060208284031215615662576156616138c7565b5b600061567084828501615637565b91505092915050565b600061568482613a3e565b915061568f83613a3e565b925082820261569d81613a3e565b915082820484148315176156b4576156b3614e69565b5b5092915050565b60006156c682613a3e565b9150600082036156d9576156d8614e69565b5b600182039050919050565b7f537472696e67733a20686578206c656e67746820696e73756666696369656e74600082015250565b600061571a602083613997565b9150615725826156e4565b602082019050919050565b600060208201905081810360008301526157498161570d565b9050919050565b7f4e487b7100000000000000000000000000000000000000000000000000000000600052603160045260246000fd5b7f4e487b7100000000000000000000000000000000000000000000000000000000600052601260045260246000fd5b60006157b982613a3e565b91506157c483613a3e565b9250826157d4576157d361577f565b5b828204905092915050565b60006157ea82613a3e565b91506157f583613a3e565b9250826158055761580461577f565b5b828206905092915050565b7f4552433732315061757361626c653a20746f6b656e207472616e73666572207760008201527f68696c6520706175736564000000000000000000000000000000000000000000602082015250565b600061586c602b83613997565b915061587782615810565b604082019050919050565b6000602082019050818103600083015261589b8161585f565b905091905056fea26469706673582212201364f3b9294ca319c7e365833c1b403e04877a1858bfbebc092e29d7376cd5b864736f6c63430008130033",
  "linkReferences": {},
  "deployedLinkReferences": {}
}