{
  "_format": "hh-sol-artifact-1",
  "contractName": "DocDigests",
  "sourceName": "contracts/docs/DocDigests.sol",
  "abi": [
    {
      "anonymous": false,
      "inputs": [
        {
          "indexed": true,
          "internalType": "uint256",
          "name": "id",
          "type": "uint256"
        },
        {
          "indexed": false,
          "internalType": "bytes32",
          "name": "no",
          "type": "bytes32"
        },
        {
          "indexed": false,
          "internalType": "address",
          "name": "registar",
          "type": "address"
        },
        {
          "indexed": false,
          "internalType": "bytes",
          "name": "hash",
          "type": "bytes"
        }
      ],
      "name": "DocAdded",
      "type": "event"
    },
    {
      "inputs": [
        {
          "internalType": "string",
          "name": "title",
          "type": "string"
        },
        {
          "internalType": "string",
          "name": "format",
          "type": "string"
        },
        {
          "internalType": "string",
          "name": "filename",
          "type": "string"
        },
        {
          "internalType": "string",
          "name": "url",
          "type": "string"
        },
        {
          "internalType": "bytes",
          "name": "hash",
          "type": "bytes"
        },
        {
          "internalType": "string",
          "name": "algrthm",
          "type": "string"
        },
        {
          "internalType": "address[]",
          "name": "stakeholders",
          "type": "address[]"
        }
      ],
      "name": "addDoc",
      "outputs": [],
      "stateMutability": "nonpayable",
      "type": "function"
    },
    {
      "inputs": [
        {
          "internalType": "address",
          "name": "_registar",
          "type": "address"
        }
      ],
      "name": "countDocsByRegistar",
      "outputs": [
        {
          "internalType": "uint256",
          "name": "",
          "type": "uint256"
        }
      ],
      "stateMutability": "view",
      "type": "function"
    },
    {
      "inputs": [
        {
          "internalType": "address",
          "name": "_stakeholder",
          "type": "address"
        }
      ],
      "name": "countDocsByStakeholder",
      "outputs": [
        {
          "internalType": "uint256",
          "name": "",
          "type": "uint256"
        }
      ],
      "stateMutability": "view",
      "type": "function"
    },
    {
      "inputs": [
        {
          "internalType": "uint256",
          "name": "_id",
          "type": "uint256"
        }
      ],
      "name": "findDocById",
      "outputs": [
        {
          "components": [
            {
              "internalType": "bytes",
              "name": "hash",
              "type": "bytes"
            },
            {
              "internalType": "string",
              "name": "algorithm",
              "type": "string"
            },
            {
              "internalType": "string",
              "name": "title",
              "type": "string"
            },
            {
              "internalType": "string",
              "name": "format",
              "type": "string"
            },
            {
              "internalType": "string",
              "name": "filename",
              "type": "string"
            },
            {
              "internalType": "string",
              "name": "url",
              "type": "string"
            },
            {
              "internalType": "address",
              "name": "registar",
              "type": "address"
            },
            {
              "internalType": "address[]",
              "name": "stakeholders",
              "type": "address[]"
            }
          ],
          "internalType": "struct DocDigest",
          "name": "",
          "type": "tuple"
        }
      ],
      "stateMutability": "view",
      "type": "function"
    },
    {
      "inputs": [
        {
          "internalType": "address",
          "name": "_registar",
          "type": "address"
        },
        {
          "internalType": "uint256",
          "name": "_from",
          "type": "uint256"
        },
        {
          "internalType": "uint256",
          "name": "_cnt",
          "type": "uint256"
        }
      ],
      "name": "findDocsByRegistar",
      "outputs": [
        {
          "components": [
            {
              "internalType": "bytes",
              "name": "hash",
              "type": "bytes"
            },
            {
              "internalType": "string",
              "name": "algorithm",
              "type": "string"
            },
            {
              "internalType": "string",
              "name": "title",
              "type": "string"
            },
            {
              "internalType": "string",
              "name": "format",
              "type": "string"
            },
            {
              "internalType": "string",
              "name": "filename",
              "type": "string"
            },
            {
              "internalType": "string",
              "name": "url",
              "type": "string"
            },
            {
              "internalType": "address",
              "name": "registar",
              "type": "address"
            },
            {
              "internalType": "address[]",
              "name": "stakeholders",
              "type": "address[]"
            }
          ],
          "internalType": "struct DocDigest[]",
          "name": "",
          "type": "tuple[]"
        }
      ],
      "stateMutability": "view",
      "type": "function"
    },
    {
      "inputs": [
        {
          "internalType": "address",
          "name": "_stakeholder",
          "type": "address"
        },
        {
          "internalType": "uint256",
          "name": "_from",
          "type": "uint256"
        },
        {
          "internalType": "uint256",
          "name": "_cnt",
          "type": "uint256"
        }
      ],
      "name": "findDocsByStakeholder",
      "outputs": [
        {
          "components": [
            {
              "internalType": "bytes",
              "name": "hash",
              "type": "bytes"
            },
            {
              "internalType": "string",
              "name": "algorithm",
              "type": "string"
            },
            {
              "internalType": "string",
              "name": "title",
              "type": "string"
            },
            {
              "internalType": "string",
              "name": "format",
              "type": "string"
            },
            {
              "internalType": "string",
              "name": "filename",
              "type": "string"
            },
            {
              "internalType": "string",
              "name": "url",
              "type": "string"
            },
            {
              "internalType": "address",
              "name": "registar",
              "type": "address"
            },
            {
              "internalType": "address[]",
              "name": "stakeholders",
              "type": "address[]"
            }
          ],
          "internalType": "struct DocDigest[]",
          "name": "",
          "type": "tuple[]"
        }
      ],
      "stateMutability": "view",
      "type": "function"
    }
  ],
  "bytecode": "0x608060405234801561001057600080fd5b50612576806100206000396000f3fe608060405234801561001057600080fd5b50600436106100625760003560e01c806305a29f7f146100675780630edda0d61461009757806357b31ecd146100c7578063bb226865146100f7578063cb58af3314610113578063d69c258214610143575b600080fd5b610081600480360381019061007c9190611bc8565b610173565b60405161008e91906121c4565b60405180910390f35b6100b160048036038101906100ac9190611bc8565b6107c3565b6040516100be91906121c4565b60405180910390f35b6100e160048036038101906100dc9190611b9f565b610e13565b6040516100ee9190612266565b60405180910390f35b610111600480360381019061010c9190611c17565b610e63565b005b61012d60048036038101906101289190611d5d565b61113b565b60405161013a9190612244565b60405180910390f35b61015d60048036038101906101589190611b9f565b611618565b60405161016a9190612266565b60405180910390f35b606060008310156101b9576040517f08c379a00000000000000000000000000000000000000000000000000000000081526004016101b090612224565b60405180910390fd5b60008210156101fd576040517f08c379a00000000000000000000000000000000000000000000000000000000081526004016101f490612224565b60405180910390fd5b60606000610248600360008873ffffffffffffffffffffffffffffffffffffffff1673ffffffffffffffffffffffffffffffffffffffff168152602001908152602001600020611668565b9050808510156107b75760005b61026a8683038661167d90919063ffffffff16565b8110156107b5576000806102c7838901600360008c73ffffffffffffffffffffffffffffffffffffffff1673ffffffffffffffffffffffffffffffffffffffff16815260200190815260200160002061169690919063ffffffff16565b815260200190815260200160002060405180610100016040529081600082018054600181600116156101000203166002900480601f01602080910402602001604051908101604052809291908181526020018280546001816001161561010002031660029004801561037a5780601f1061034f5761010080835404028352916020019161037a565b820191906000526020600020905b81548152906001019060200180831161035d57829003601f168201915b50505050508152602001600182018054600181600116156101000203166002900480601f01602080910402602001604051908101604052809291908181526020018280546001816001161561010002031660029004801561041c5780601f106103f15761010080835404028352916020019161041c565b820191906000526020600020905b8154815290600101906020018083116103ff57829003601f168201915b50505050508152602001600282018054600181600116156101000203166002900480601f0160208091040260200160405190810160405280929190818152602001828054600181600116156101000203166002900480156104be5780601f10610493576101008083540402835291602001916104be565b820191906000526020600020905b8154815290600101906020018083116104a157829003601f168201915b50505050508152602001600382018054600181600116156101000203166002900480601f0160208091040260200160405190810160405280929190818152602001828054600181600116156101000203166002900480156105605780601f1061053557610100808354040283529160200191610560565b820191906000526020600020905b81548152906001019060200180831161054357829003601f168201915b50505050508152602001600482018054600181600116156101000203166002900480601f0160208091040260200160405190810160405280929190818152602001828054600181600116156101000203166002900480156106025780601f106105d757610100808354040283529160200191610602565b820191906000526020600020905b8154815290600101906020018083116105e557829003601f168201915b50505050508152602001600582018054600181600116156101000203166002900480601f0160208091040260200160405190810160405280929190818152602001828054600181600116156101000203166002900480156106a45780601f10610679576101008083540402835291602001916106a4565b820191906000526020600020905b81548152906001019060200180831161068757829003601f168201915b505050505081526020016006820160009054906101000a900473ffffffffffffffffffffffffffffffffffffffff1673ffffffffffffffffffffffffffffffffffffffff1673ffffffffffffffffffffffffffffffffffffffff1681526020016007820180548060200260200160405190810160405280929190818152602001828054801561078857602002820191906000526020600020905b8160009054906101000a900473ffffffffffffffffffffffffffffffffffffffff1673ffffffffffffffffffffffffffffffffffffffff168152602001906001019080831161073e575b50505050508152505083828151811061079d57fe5b60200260200101819052508080600101915050610255565b505b81925050509392505050565b60606000831015610809576040517f08c379a000000000000000000000000000000000000000000000000000000000815260040161080090612224565b60405180910390fd5b600082101561084d576040517f08c379a000000000000000000000000000000000000000000000000000000000815260040161084490612224565b60405180910390fd5b60606000610898600460008873ffffffffffffffffffffffffffffffffffffffff1673ffffffffffffffffffffffffffffffffffffffff168152602001908152602001600020611668565b905080851015610e075760005b6108ba8683038661167d90919063ffffffff16565b811015610e0557600080610917838901600460008c73ffffffffffffffffffffffffffffffffffffffff1673ffffffffffffffffffffffffffffffffffffffff16815260200190815260200160002061169690919063ffffffff16565b815260200190815260200160002060405180610100016040529081600082018054600181600116156101000203166002900480601f0160208091040260200160405190810160405280929190818152602001828054600181600116156101000203166002900480156109ca5780601f1061099f576101008083540402835291602001916109ca565b820191906000526020600020905b8154815290600101906020018083116109ad57829003601f168201915b50505050508152602001600182018054600181600116156101000203166002900480601f016020809104026020016040519081016040528092919081815260200182805460018160011615610100020316600290048015610a6c5780601f10610a4157610100808354040283529160200191610a6c565b820191906000526020600020905b815481529060010190602001808311610a4f57829003601f168201915b50505050508152602001600282018054600181600116156101000203166002900480601f016020809104026020016040519081016040528092919081815260200182805460018160011615610100020316600290048015610b0e5780601f10610ae357610100808354040283529160200191610b0e565b820191906000526020600020905b815481529060010190602001808311610af157829003601f168201915b50505050508152602001600382018054600181600116156101000203166002900480601f016020809104026020016040519081016040528092919081815260200182805460018160011615610100020316600290048015610bb05780601f10610b8557610100808354040283529160200191610bb0565b820191906000526020600020905b815481529060010190602001808311610b9357829003601f168201915b50505050508152602001600482018054600181600116156101000203166002900480601f016020809104026020016040519081016040528092919081815260200182805460018160011615610100020316600290048015610c525780601f10610c2757610100808354040283529160200191610c52565b820191906000526020600020905b815481529060010190602001808311610c3557829003601f168201915b50505050508152602001600582018054600181600116156101000203166002900480601f016020809104026020016040519081016040528092919081815260200182805460018160011615610100020316600290048015610cf45780601f10610cc957610100808354040283529160200191610cf4565b820191906000526020600020905b815481529060010190602001808311610cd757829003601f168201915b505050505081526020016006820160009054906101000a900473ffffffffffffffffffffffffffffffffffffffff1673ffffffffffffffffffffffffffffffffffffffff1673ffffffffffffffffffffffffffffffffffffffff16815260200160078201805480602002602001604051908101604052809291908181526020018280548015610dd857602002820191906000526020600020905b8160009054906101000a900473ffffffffffffffffffffffffffffffffffffffff1673ffffffffffffffffffffffffffffffffffffffff1681526020019060010190808311610d8e575b505050505081525050838281518110610ded57fe5b602002602001018190525080806001019150506108a5565b505b81925050509392505050565b6000610e5c600360008473ffffffffffffffffffffffffffffffffffffffff1673ffffffffffffffffffffffffffffffffffffffff168152602001908152602001600020611668565b9050919050565b600087878742604051602001610e7c9493929190612182565b60405160208183030381529060405280519060200120905060008160c01c67ffffffffffffffff16905060006040518061010001604052808781526020018681526020018b81526020018a81526020018981526020018881526020013373ffffffffffffffffffffffffffffffffffffffff168152602001858152509050806000808481526020019081526020016000206000820151816000019080519060200190610f299291906117f1565b506020820151816001019080519060200190610f4692919061187f565b506040820151816002019080519060200190610f6392919061187f565b506060820151816003019080519060200190610f8092919061187f565b506080820151816004019080519060200190610f9d92919061187f565b5060a0820151816005019080519060200190610fba92919061187f565b5060c08201518160060160006101000a81548173ffffffffffffffffffffffffffffffffffffffff021916908373ffffffffffffffffffffffffffffffffffffffff16021790555060e082015181600701908051906020019061101e92919061190d565b5090505061107382600360003373ffffffffffffffffffffffffffffffffffffffff1673ffffffffffffffffffffffffffffffffffffffff1681526020019081526020016000206116b090919063ffffffff16565b5060005b84518110156110f2576110e4836004600088858151811061109457fe5b602002602001015173ffffffffffffffffffffffffffffffffffffffff1673ffffffffffffffffffffffffffffffffffffffff1681526020019081526020016000206116b090919063ffffffff16565b508080600101915050611077565b50817f33e5aa14813d6921822480fed21e9588007f936d34ec472d6edb2740e12bb332843389604051611127939291906121e6565b60405180910390a250505050505050505050565b611143611997565b60008083815260200190815260200160002060405180610100016040529081600082018054600181600116156101000203166002900480601f0160208091040260200160405190810160405280929190818152602001828054600181600116156101000203166002900480156111fa5780601f106111cf576101008083540402835291602001916111fa565b820191906000526020600020905b8154815290600101906020018083116111dd57829003601f168201915b50505050508152602001600182018054600181600116156101000203166002900480601f01602080910402602001604051908101604052809291908181526020018280546001816001161561010002031660029004801561129c5780601f106112715761010080835404028352916020019161129c565b820191906000526020600020905b81548152906001019060200180831161127f57829003601f168201915b50505050508152602001600282018054600181600116156101000203166002900480601f01602080910402602001604051908101604052809291908181526020018280546001816001161561010002031660029004801561133e5780601f106113135761010080835404028352916020019161133e565b820191906000526020600020905b81548152906001019060200180831161132157829003601f168201915b50505050508152602001600382018054600181600116156101000203166002900480601f0160208091040260200160405190810160405280929190818152602001828054600181600116156101000203166002900480156113e05780601f106113b5576101008083540402835291602001916113e0565b820191906000526020600020905b8154815290600101906020018083116113c357829003601f168201915b50505050508152602001600482018054600181600116156101000203166002900480601f0160208091040260200160405190810160405280929190818152602001828054600181600116156101000203166002900480156114825780601f1061145757610100808354040283529160200191611482565b820191906000526020600020905b81548152906001019060200180831161146557829003601f168201915b50505050508152602001600582018054600181600116156101000203166002900480601f0160208091040260200160405190810160405280929190818152602001828054600181600116156101000203166002900480156115245780601f106114f957610100808354040283529160200191611524565b820191906000526020600020905b81548152906001019060200180831161150757829003601f168201915b505050505081526020016006820160009054906101000a900473ffffffffffffffffffffffffffffffffffffffff1673ffffffffffffffffffffffffffffffffffffffff1673ffffffffffffffffffffffffffffffffffffffff1681526020016007820180548060200260200160405190810160405280929190818152602001828054801561160857602002820191906000526020600020905b8160009054906101000a900473ffffffffffffffffffffffffffffffffffffffff1673ffffffffffffffffffffffffffffffffffffffff16815260200190600101908083116115be575b5050505050815250509050919050565b6000611661600460008473ffffffffffffffffffffffffffffffffffffffff1673ffffffffffffffffffffffffffffffffffffffff168152602001908152602001600020611668565b9050919050565b6000611676826000016116ca565b9050919050565b600081831061168c578161168e565b825b905092915050565b60006116a583600001836116db565b60001c905092915050565b60006116c2836000018360001b61175e565b905092915050565b600081600001805490509050919050565b60008183600001805490501161173c576040517f08c379a000000000000000000000000000000000000000000000000000000000815260040180806020018281038252602281526020018061251f6022913960400191505060405180910390fd5b82600001828154811061174b57fe5b9060005260206000200154905092915050565b600061176a83836117ce565b6117c35782600001829080600181540180825580915050600190039060005260206000200160009091909190915055826000018054905083600101600084815260200190815260200160002081905550600190506117c8565b600090505b92915050565b600080836001016000848152602001908152602001600020541415905092915050565b828054600181600116156101000203166002900490600052602060002090601f016020900481019282611827576000855561186e565b82601f1061184057805160ff191683800117855561186e565b8280016001018555821561186e579182015b8281111561186d578251825591602001919060010190611852565b5b50905061187b91906119f2565b5090565b828054600181600116156101000203166002900490600052602060002090601f0160209004810192826118b557600085556118fc565b82601f106118ce57805160ff19168380011785556118fc565b828001600101855582156118fc579182015b828111156118fb5782518255916020019190600101906118e0565b5b50905061190991906119f2565b5090565b828054828255906000526020600020908101928215611986579160200282015b828111156119855782518260006101000a81548173ffffffffffffffffffffffffffffffffffffffff021916908373ffffffffffffffffffffffffffffffffffffffff1602179055509160200191906001019061192d565b5b50905061199391906119f2565b5090565b604051806101000160405280606081526020016060815260200160608152602001606081526020016060815260200160608152602001600073ffffffffffffffffffffffffffffffffffffffff168152602001606081525090565b5b80821115611a0b5760008160009055506001016119f3565b5090565b6000611a22611a1d846122b2565b612281565b90508083825260208201905082856020860282011115611a4157600080fd5b60005b85811015611a715781611a578882611af7565b845260208401935060208301925050600181019050611a44565b5050509392505050565b6000611a8e611a89846122de565b612281565b905082815260208101848484011115611aa657600080fd5b611ab1848285612491565b509392505050565b6000611acc611ac78461230e565b612281565b905082815260208101848484011115611ae457600080fd5b611aef848285612491565b509392505050565b600081359050611b06816124f0565b92915050565b600082601f830112611b1d57600080fd5b8135611b2d848260208601611a0f565b91505092915050565b600082601f830112611b4757600080fd5b8135611b57848260208601611a7b565b91505092915050565b600082601f830112611b7157600080fd5b8135611b81848260208601611ab9565b91505092915050565b600081359050611b9981612507565b92915050565b600060208284031215611bb157600080fd5b6000611bbf84828501611af7565b91505092915050565b600080600060608486031215611bdd57600080fd5b6000611beb86828701611af7565b9350506020611bfc86828701611b8a565b9250506040611c0d86828701611b8a565b9150509250925092565b600080600080600080600060e0888a031215611c3257600080fd5b600088013567ffffffffffffffff811115611c4c57600080fd5b611c588a828b01611b60565b975050602088013567ffffffffffffffff811115611c7557600080fd5b611c818a828b01611b60565b965050604088013567ffffffffffffffff811115611c9e57600080fd5b611caa8a828b01611b60565b955050606088013567ffffffffffffffff811115611cc757600080fd5b611cd38a828b01611b60565b945050608088013567ffffffffffffffff811115611cf057600080fd5b611cfc8a828b01611b36565b93505060a088013567ffffffffffffffff811115611d1957600080fd5b611d258a828b01611b60565b92505060c088013567ffffffffffffffff811115611d4257600080fd5b611d4e8a828b01611b0c565b91505092959891949750929550565b600060208284031215611d6f57600080fd5b6000611d7d84828501611b8a565b91505092915050565b6000611d928383611dc1565b60208301905092915050565b6000611daa8383611fa8565b905092915050565b611dbb8161245b565b82525050565b611dca81612415565b82525050565b6000611ddb8261235e565b611de581856123a4565b9350611df08361233e565b8060005b83811015611e21578151611e088882611d86565b9750611e138361238a565b925050600181019050611df4565b5085935050505092915050565b6000611e3982612369565b611e4381856123b5565b935083602082028501611e558561234e565b8060005b85811015611e915784840389528151611e728582611d9e565b9450611e7d83612397565b925060208a01995050600181019050611e59565b50829750879550505050505092915050565b611eac81612427565b82525050565b6000611ebd82612374565b611ec781856123c6565b9350611ed78185602086016124a0565b611ee0816124df565b840191505092915050565b6000611ef682612374565b611f0081856123d7565b9350611f108185602086016124a0565b611f19816124df565b840191505092915050565b6000611f2f8261237f565b611f3981856123e8565b9350611f498185602086016124a0565b611f52816124df565b840191505092915050565b6000611f688261237f565b611f72818561240a565b9350611f828185602086016124a0565b80840191505092915050565b6000611f9b6000836123f9565b9150600082019050919050565b6000610100830160008301518482036000860152611fc68282611eb2565b91505060208301518482036020860152611fe08282611f24565b91505060408301518482036040860152611ffa8282611f24565b915050606083015184820360608601526120148282611f24565b9150506080830151848203608086015261202e8282611f24565b91505060a083015184820360a08601526120488282611f24565b91505060c083015161205d60c0860182611dc1565b5060e083015184820360e08601526120758282611dd0565b9150508091505092915050565b60006101008301600083015184820360008601526120a08282611eb2565b915050602083015184820360208601526120ba8282611f24565b915050604083015184820360408601526120d48282611f24565b915050606083015184820360608601526120ee8282611f24565b915050608083015184820360808601526121088282611f24565b91505060a083015184820360a08601526121228282611f24565b91505060c083015161213760c0860182611dc1565b5060e083015184820360e086015261214f8282611dd0565b9150508091505092915050565b61216581612451565b82525050565b61217c61217782612451565b6124d3565b82525050565b600061218e8287611f5d565b915061219a8286611f5d565b91506121a68285611f5d565b91506121b2828461216b565b60208201915081905095945050505050565b600060208201905081810360008301526121de8184611e2e565b905092915050565b60006060820190506121fb6000830186611ea3565b6122086020830185611db2565b818103604083015261221a8184611eeb565b9050949350505050565b6000602082019050818103600083015261223d81611f8e565b9050919050565b6000602082019050818103600083015261225e8184612082565b905092915050565b600060208201905061227b600083018461215c565b92915050565b6000604051905081810181811067ffffffffffffffff821117156122a8576122a76124dd565b5b8060405250919050565b600067ffffffffffffffff8211156122cd576122cc6124dd565b5b602082029050602081019050919050565b600067ffffffffffffffff8211156122f9576122f86124dd565b5b601f19601f8301169050602081019050919050565b600067ffffffffffffffff821115612329576123286124dd565b5b601f19601f8301169050602081019050919050565b6000819050602082019050919050565b6000819050602082019050919050565b600081519050919050565b600081519050919050565b600081519050919050565b600081519050919050565b6000602082019050919050565b6000602082019050919050565b600082825260208201905092915050565b600082825260208201905092915050565b600082825260208201905092915050565b600082825260208201905092915050565b600082825260208201905092915050565b600082825260208201905092915050565b600081905092915050565b600061242082612431565b9050919050565b6000819050919050565b600073ffffffffffffffffffffffffffffffffffffffff82169050919050565b6000819050919050565b60006124668261246d565b9050919050565b60006124788261247f565b9050919050565b600061248a82612431565b9050919050565b82818337600083830152505050565b60005b838110156124be5780820151818401526020810190506124a3565b838111156124cd576000848401525b50505050565b6000819050919050565bfe5b6000601f19601f8301169050919050565b6124f981612415565b811461250457600080fd5b50565b61251081612451565b811461251b57600080fd5b5056fe456e756d657261626c655365743a20696e646578206f7574206f6620626f756e6473a2646970667358221220f64136fbbe0f72c8461d6afa849b9a09afd88fa4208ac194056f4ae5c27c0d7064736f6c63430007060033",
  "linkReferences": {},
  "deployedLinkReferences": {}
}