{
  "_format": "hh-sol-artifact-1",
  "contractName": "SolidityTest",
  "sourceName": "contracts/misc/SolidityTest.sol",
  "abi": [
    {
      "inputs": [],
      "name": "testArrayInitialization",
      "outputs": [
        {
          "internalType": "uint256[]",
          "name": "",
          "type": "uint256[]"
        },
        {
          "internalType": "bytes[3]",
          "name": "",
          "type": "bytes[3]"
        },
        {
          "internalType": "string[]",
          "name": "",
          "type": "string[]"
        },
        {
          "components": [
            {
              "internalType": "string",
              "name": "name",
              "type": "string"
            },
            {
              "internalType": "uint256",
              "name": "area",
              "type": "uint256"
            }
          ],
          "internalType": "struct Land[]",
          "name": "",
          "type": "tuple[]"
        }
      ],
      "stateMutability": "pure",
      "type": "function"
    },
    {
      "inputs": [],
      "name": "testStaticBytesDynamicBytesAndString",
      "outputs": [
        {
          "internalType": "bytes[7]",
          "name": "",
          "type": "bytes[7]"
        },
        {
          "internalType": "bytes32[]",
          "name": "",
          "type": "bytes32[]"
        },
        {
          "internalType": "bytes[]",
          "name": "",
          "type": "bytes[]"
        },
        {
          "internalType": "string[]",
          "name": "",
          "type": "string[]"
        }
      ],
      "stateMutability": "pure",
      "type": "function"
    }
  ],
  "bytecode": "0x608060405234801561001057600080fd5b50611339806100206000396000f3fe608060405234801561001057600080fd5b50600436106100365760003560e01c80631d80f1a11461003b578063af2625871461005c575b600080fd5b61004361007d565b6040516100539493929190610e2e565b60405180910390f35b610064610470565b60405161007494939291906110f8565b60405180910390f35b6100856109f3565b606080606060006040518060e001604052806040518060400160405280600381526020017f526564000000000000000000000000000000000000000000000000000000000081525081526020016040518060400160405280600681526020017f4f72616e6765000000000000000000000000000000000000000000000000000081525081526020016040518060400160405280600681526020017f59656c6c6f77000000000000000000000000000000000000000000000000000081525081526020016040518060400160405280600581526020017f477265656e00000000000000000000000000000000000000000000000000000081525081526020016040518060400160405280600481526020017f426c75650000000000000000000000000000000000000000000000000000000081525081526020016040518060400160405280600681526020017f496e6469676f000000000000000000000000000000000000000000000000000081525081526020016040518060400160405280600681526020017f56696c6f65740000000000000000000000000000000000000000000000000000815250815250905060006007905060008167ffffffffffffffff81111561025657610255611159565b5b6040519080825280602002602001820160405280156102845781602001602082028036833780820191505090505b50905060005b828110156102e5578381600781106102a5576102a4611188565b5b60200201516102b3906111e9565b8282815181106102c6576102c5611188565b5b60200260200101818152505080806102dd9061127f565b91505061028a565b5060008267ffffffffffffffff81111561030257610301611159565b5b60405190808252806020026020018201604052801561033557816020015b60608152602001906001900390816103205790505b50905060008367ffffffffffffffff81111561035457610353611159565b5b60405190808252806020026020018201604052801561038757816020015b60608152602001906001900390816103725790505b50905060005b84811015610458578381815181106103a8576103a7611188565b5b60200260200101516040516020016103c091906112e8565b6040516020818303038152906040528382815181106103e2576103e1611188565b5b6020026020010181905250838181518110610400576103ff611188565b5b602002602001015160405160200161041891906112e8565b60405160208183030381529060405282828151811061043a57610439611188565b5b602002602001018190525080806104509061127f565b91505061038d565b50848383839850985098509850505050505090919293565b606061047a610a1a565b60608060006005905060008167ffffffffffffffff81111561049f5761049e611159565b5b6040519080825280602002602001820160405280156104cd5781602001602082028036833780820191505090505b509050600060405180606001604052806040518060400160405280600381526020017f524544000000000000000000000000000000000000000000000000000000000081525081526020016040518060400160405280600581526020017f475245454e00000000000000000000000000000000000000000000000000000081525081526020016040518060400160405280600481526020017f424c55450000000000000000000000000000000000000000000000000000000081525081525090506000600267ffffffffffffffff8111156105ab576105aa611159565b5b6040519080825280602002602001820160405280156105de57816020015b60608152602001906001900390816105c95790505b5090506040518060400160405280600781526020017f4d657263757279000000000000000000000000000000000000000000000000008152508160008151811061062b5761062a611188565b5b60200260200101819052506040518060400160405280600581526020017f56656e7573000000000000000000000000000000000000000000000000000000815250816001815181106106805761067f611188565b5b60200260200101819052506000600767ffffffffffffffff8111156106a8576106a7611159565b5b6040519080825280602002602001820160405280156106e157816020015b6106ce610a41565b8152602001906001900390816106c65790505b50905060405180604001604052806040518060400160405280600681526020017f416672696361000000000000000000000000000000000000000000000000000081525081526020016301cf68d08152508160008151811061074657610745611188565b5b602002602001018190525060405180604001604052806040518060400160405280600a81526020017f416e746172637469636100000000000000000000000000000000000000000000815250815260200162d59f80815250816001815181106107b2576107b1611188565b5b602002602001018190525060405180604001604052806040518060400160405280600481526020017f417369610000000000000000000000000000000000000000000000000000000081525081526020016302a838b88152508160028151811061081f5761081e611188565b5b602002602001018190525060405180604001604052806040518060400160405280600681526020017f4575726f706500000000000000000000000000000000000000000000000000008152508152602001629b55a08152508160038151811061088b5761088a611188565b5b602002602001018190525060405180604001604052806040518060400160405280600d81526020017f4e6f72746820416d65726963610000000000000000000000000000000000000081525081526020016301790788815250816004815181106108f8576108f7611188565b5b602002602001018190525060405180604001604052806040518060400160405280600d81526020017f536f75746820416d657269636100000000000000000000000000000000000000815250815260200163011037808152508160058151811061096557610964611188565b5b602002602001018190525060405180604001604052806040518060400160405280600981526020017f4175737472616c696100000000000000000000000000000000000000000000008152508152602001628339c0815250816006815181106109d1576109d0611188565b5b6020026020010181905250838383839850985098509850505050505090919293565b6040518060e001604052806007905b6060815260200190600190039081610a025790505090565b60405180606001604052806003905b6060815260200190600190039081610a295790505090565b604051806040016040528060608152602001600081525090565b600060079050919050565b600081905092915050565b6000819050919050565b600081519050919050565b600082825260208201905092915050565b60005b83811015610ab5578082015181840152602081019050610a9a565b60008484015250505050565b6000601f19601f8301169050919050565b6000610add82610a7b565b610ae78185610a86565b9350610af7818560208601610a97565b610b0081610ac1565b840191505092915050565b6000610b178383610ad2565b905092915050565b6000602082019050919050565b6000610b3782610a5b565b610b418185610a66565b935083602082028501610b5385610a71565b8060005b85811015610b8f5784840389528151610b708582610b0b565b9450610b7b83610b1f565b925060208a01995050600181019050610b57565b50829750879550505050505092915050565b600081519050919050565b600082825260208201905092915050565b6000819050602082019050919050565b6000819050919050565b610be081610bcd565b82525050565b6000610bf28383610bd7565b60208301905092915050565b6000602082019050919050565b6000610c1682610ba1565b610c208185610bac565b9350610c2b83610bbd565b8060005b83811015610c5c578151610c438882610be6565b9750610c4e83610bfe565b925050600181019050610c2f565b5085935050505092915050565b600081519050919050565b600082825260208201905092915050565b6000819050602082019050919050565b6000602082019050919050565b6000610cad82610c69565b610cb78185610c74565b935083602082028501610cc985610c85565b8060005b85811015610d055784840389528151610ce68582610b0b565b9450610cf183610c95565b925060208a01995050600181019050610ccd565b50829750879550505050505092915050565b600081519050919050565b600082825260208201905092915050565b6000819050602082019050919050565b600081519050919050565b600082825260208201905092915050565b6000610d6a82610d43565b610d748185610d4e565b9350610d84818560208601610a97565b610d8d81610ac1565b840191505092915050565b6000610da48383610d5f565b905092915050565b6000602082019050919050565b6000610dc482610d17565b610dce8185610d22565b935083602082028501610de085610d33565b8060005b85811015610e1c5784840389528151610dfd8582610d98565b9450610e0883610dac565b925060208a01995050600181019050610de4565b50829750879550505050505092915050565b60006080820190508181036000830152610e488187610b2c565b90508181036020830152610e5c8186610c0b565b90508181036040830152610e708185610ca2565b90508181036060830152610e848184610db9565b905095945050505050565b600081519050919050565b600082825260208201905092915050565b6000819050602082019050919050565b6000819050919050565b610ece81610ebb565b82525050565b6000610ee08383610ec5565b60208301905092915050565b6000602082019050919050565b6000610f0482610e8f565b610f0e8185610e9a565b9350610f1983610eab565b8060005b83811015610f4a578151610f318882610ed4565b9750610f3c83610eec565b925050600181019050610f1d565b5085935050505092915050565b600060039050919050565b600081905092915050565b6000819050919050565b6000602082019050919050565b6000610f8f82610f57565b610f998185610f62565b935083602082028501610fab85610f6d565b8060005b85811015610fe75784840389528151610fc88582610b0b565b9450610fd383610f77565b925060208a01995050600181019050610faf565b50829750879550505050505092915050565b600081519050919050565b600082825260208201905092915050565b6000819050602082019050919050565b600060408301600083015184820360008601526110428282610d5f565b91505060208301516110576020860182610ec5565b508091505092915050565b600061106e8383611025565b905092915050565b6000602082019050919050565b600061108e82610ff9565b6110988185611004565b9350836020820285016110aa85611015565b8060005b858110156110e657848403895281516110c78582611062565b94506110d283611076565b925060208a019950506001810190506110ae565b50829750879550505050505092915050565b600060808201905081810360008301526111128187610ef9565b905081810360208301526111268186610f84565b9050818103604083015261113a8185610db9565b9050818103606083015261114e8184611083565b905095945050505050565b7f4e487b7100000000000000000000000000000000000000000000000000000000600052604160045260246000fd5b7f4e487b7100000000000000000000000000000000000000000000000000000000600052603260045260246000fd5b6000819050602082019050919050565b60006111d38251610bcd565b80915050919050565b600082821b905092915050565b60006111f482610a7b565b826111fe846111b7565b9050611209816111c7565b92506020821015611249576112447fffffffffffffffffffffffffffffffffffffffffffffffffffffffffffffffff836020036008026111dc565b831692505b5050919050565b7f4e487b7100000000000000000000000000000000000000000000000000000000600052601160045260246000fd5b600061128a82610ebb565b91507fffffffffffffffffffffffffffffffffffffffffffffffffffffffffffffffff82036112bc576112bb611250565b5b600182019050919050565b6000819050919050565b6112e26112dd82610bcd565b6112c7565b82525050565b60006112f482846112d1565b6020820191508190509291505056fea2646970667358221220ba87e509a04a576ea4fb474e535be3c969140390eeb96a32d8bc28483f9fc9a064736f6c63430008130033",
  "linkReferences": {},
  "deployedLinkReferences": {}
}