{
  "_format": "hh-sol-artifact-1",
  "contractName": "Web3TestContract",
  "sourceName": "contracts/misc/Web3TestContract.sol",
  "abi": [
    {
      "inputs": [],
      "stateMutability": "nonpayable",
      "type": "constructor"
    },
    {
      "anonymous": false,
      "inputs": [
        {
          "indexed": false,
          "internalType": "uint256",
          "name": "count",
          "type": "uint256"
        }
      ],
      "name": "CountUp",
      "type": "event"
    },
    {
      "anonymous": false,
      "inputs": [
        {
          "indexed": false,
          "internalType": "string",
          "name": "memo",
          "type": "string"
        }
      ],
      "name": "MemoUpdated",
      "type": "event"
    },
    {
      "inputs": [],
      "name": "countUp",
      "outputs": [
        {
          "internalType": "uint256",
          "name": "",
          "type": "uint256"
        }
      ],
      "stateMutability": "nonpayable",
      "type": "function"
    },
    {
      "inputs": [
        {
          "internalType": "uint8",
          "name": "cnt",
          "type": "uint8"
        }
      ],
      "name": "fibonnaci",
      "outputs": [
        {
          "internalType": "uint256[]",
          "name": "",
          "type": "uint256[]"
        }
      ],
      "stateMutability": "view",
      "type": "function"
    },
    {
      "inputs": [],
      "name": "getMemo",
      "outputs": [
        {
          "internalType": "string",
          "name": "",
          "type": "string"
        }
      ],
      "stateMutability": "view",
      "type": "function"
    },
    {
      "inputs": [],
      "name": "innerPlanets",
      "outputs": [
        {
          "components": [
            {
              "internalType": "string",
              "name": "name",
              "type": "string"
            },
            {
              "internalType": "uint256",
              "name": "radius",
              "type": "uint256"
            },
            {
              "internalType": "uint256",
              "name": "distance",
              "type": "uint256"
            },
            {
              "internalType": "bool",
              "name": "rings",
              "type": "bool"
            }
          ],
          "internalType": "struct Planet[]",
          "name": "",
          "type": "tuple[]"
        }
      ],
      "stateMutability": "view",
      "type": "function"
    },
    {
      "inputs": [],
      "name": "monthNames",
      "outputs": [
        {
          "internalType": "string[]",
          "name": "names",
          "type": "string[]"
        }
      ],
      "stateMutability": "view",
      "type": "function"
    },
    {
      "inputs": [],
      "name": "monthNamesFullAndShort",
      "outputs": [
        {
          "internalType": "string[]",
          "name": "fullNames",
          "type": "string[]"
        },
        {
          "internalType": "string[]",
          "name": "shortNames",
          "type": "string[]"
        }
      ],
      "stateMutability": "view",
      "type": "function"
    },
    {
      "inputs": [],
      "name": "outerPlanets",
      "outputs": [
        {
          "components": [
            {
              "internalType": "string",
              "name": "name",
              "type": "string"
            },
            {
              "internalType": "uint256",
              "name": "radius",
              "type": "uint256"
            },
            {
              "internalType": "uint256",
              "name": "distance",
              "type": "uint256"
            },
            {
              "internalType": "bool",
              "name": "rings",
              "type": "bool"
            }
          ],
          "internalType": "struct Planet[]",
          "name": "",
          "type": "tuple[]"
        }
      ],
      "stateMutability": "view",
      "type": "function"
    },
    {
      "inputs": [],
      "name": "planets",
      "outputs": [
        {
          "components": [
            {
              "internalType": "string",
              "name": "name",
              "type": "string"
            },
            {
              "internalType": "uint256",
              "name": "radius",
              "type": "uint256"
            },
            {
              "internalType": "uint256",
              "name": "distance",
              "type": "uint256"
            },
            {
              "internalType": "bool",
              "name": "rings",
              "type": "bool"
            }
          ],
          "internalType": "struct Planet[]",
          "name": "",
          "type": "tuple[]"
        }
      ],
      "stateMutability": "view",
      "type": "function"
    },
    {
      "inputs": [],
      "name": "rainbow",
      "outputs": [
        {
          "internalType": "bytes[]",
          "name": "colors",
          "type": "bytes[]"
        }
      ],
      "stateMutability": "pure",
      "type": "function"
    },
    {
      "inputs": [],
      "name": "ringedPlanets",
      "outputs": [
        {
          "components": [
            {
              "internalType": "string",
              "name": "name",
              "type": "string"
            },
            {
              "internalType": "uint256",
              "name": "radius",
              "type": "uint256"
            },
            {
              "internalType": "uint256",
              "name": "distance",
              "type": "uint256"
            },
            {
              "internalType": "bool",
              "name": "rings",
              "type": "bool"
            }
          ],
          "internalType": "struct Planet[]",
          "name": "",
          "type": "tuple[]"
        }
      ],
      "stateMutability": "view",
      "type": "function"
    },
    {
      "inputs": [
        {
          "internalType": "string",
          "name": "memo",
          "type": "string"
        }
      ],
      "name": "setMemo",
      "outputs": [],
      "stateMutability": "nonpayable",
      "type": "function"
    },
    {
      "inputs": [
        {
          "internalType": "uint128",
          "name": "a",
          "type": "uint128"
        },
        {
          "internalType": "uint128",
          "name": "b",
          "type": "uint128"
        }
      ],
      "name": "sum",
      "outputs": [
        {
          "internalType": "uint144",
          "name": "",
          "type": "uint144"
        }
      ],
      "stateMutability": "pure",
      "type": "function"
    },
    {
      "inputs": [
        {
          "internalType": "uint128[]",
          "name": "nums",
          "type": "uint128[]"
        }
      ],
      "name": "sum",
      "outputs": [
        {
          "internalType": "uint256",
          "name": "",
          "type": "uint256"
        }
      ],
      "stateMutability": "pure",
      "type": "function"
    }
  ],
  "bytecode": "0x608060405260008055604051806103c00160405280600062ffffff168152602001600162ffffff168152602001600162ffffff168152602001600262ffffff168152602001600362ffffff168152602001600562ffffff168152602001600862ffffff168152602001600d62ffffff168152602001601562ffffff168152602001602262ffffff168152602001603762ffffff168152602001605962ffffff168152602001609062ffffff16815260200160e962ffffff16815260200161017962ffffff16815260200161026262ffffff1681526020016103db62ffffff16815260200161063d62ffffff168152602001610a1862ffffff16815260200161105562ffffff168152602001611a6d62ffffff168152602001612ac262ffffff16815260200161452f62ffffff168152602001616ff162ffffff16815260200161b52062ffffff1681526020016201251162ffffff1681526020016201da3162ffffff1681526020016202ff4262ffffff1681526020016204d97362ffffff1681526020016207d8b562ffffff16815250600290601e620001a192919062000ecc565b506040518061018001604052806040518060400160405280600781526020017f4a616e756172790000000000000000000000000000000000000000000000000081525081526020016040518060400160405280600881526020017f466562727561727900000000000000000000000000000000000000000000000081525081526020016040518060400160405280600581526020017f4d6172636800000000000000000000000000000000000000000000000000000081525081526020016040518060400160405280600581526020017f417072696c00000000000000000000000000000000000000000000000000000081525081526020016040518060400160405280600381526020017f4d6179000000000000000000000000000000000000000000000000000000000081525081526020016040518060400160405280600481526020017f4a756e650000000000000000000000000000000000000000000000000000000081525081526020016040518060400160405280600481526020017f4a756c790000000000000000000000000000000000000000000000000000000081525081526020016040518060400160405280600681526020017f417567757374000000000000000000000000000000000000000000000000000081525081526020016040518060400160405280600981526020017f53657074656d626572000000000000000000000000000000000000000000000081525081526020016040518060400160405280600781526020017f4f63746f6265720000000000000000000000000000000000000000000000000081525081526020016040518060400160405280600881526020017f4e6f76656d62657200000000000000000000000000000000000000000000000081525081526020016040518060400160405280600881526020017f446563656d626572000000000000000000000000000000000000000000000000815250815250600390600c6200048292919062000f25565b506040518061018001604052806040518060400160405280600381526020017f4a616e000000000000000000000000000000000000000000000000000000000081525081526020016040518060400160405280600381526020017f466562000000000000000000000000000000000000000000000000000000000081525081526020016040518060400160405280600381526020017f4d6172000000000000000000000000000000000000000000000000000000000081525081526020016040518060400160405280600381526020017f417072000000000000000000000000000000000000000000000000000000000081525081526020016040518060400160405280600381526020017f4d6179000000000000000000000000000000000000000000000000000000000081525081526020016040518060400160405280600381526020017f4a756e000000000000000000000000000000000000000000000000000000000081525081526020016040518060400160405280600381526020017f4a756c000000000000000000000000000000000000000000000000000000000081525081526020016040518060400160405280600381526020017f417567000000000000000000000000000000000000000000000000000000000081525081526020016040518060400160405280600381526020017f536570000000000000000000000000000000000000000000000000000000000081525081526020016040518060400160405280600381526020017f4f6374000000000000000000000000000000000000000000000000000000000081525081526020016040518060400160405280600381526020017f4e6f76000000000000000000000000000000000000000000000000000000000081525081526020016040518060400160405280600381526020017f4465630000000000000000000000000000000000000000000000000000000000815250815250600490600c6200076392919062000f25565b5060405180604001604052806040518060400160405280600781526020017f4d6572637572790000000000000000000000000000000000000000000000000081525081526020016040518060400160405280600581526020017f56656e75730000000000000000000000000000000000000000000000000000008152508152506005906002620007f592919062000f85565b503480156200080357600080fd5b50600660405180608001604052806040518060400160405280600781526020017f4d65726375727900000000000000000000000000000000000000000000000000815250815260200161098881526020016303739f3a81526020016000151581525090806001815401808255809150506001900390600052602060002090600402016000909190919091506000820151816000019081620008a59190620012ec565b50602082015181600101556040820151816002015560608201518160030160006101000a81548160ff0219169083151502179055505050600660405180608001604052806040518060400160405280600581526020017f56656e757300000000000000000000000000000000000000000000000000000081525081526020016117a481526020016306731f80815260200160001515815250908060018154018082558091505060019003906000526020600020906004020160009091909190915060008201518160000190816200097d9190620012ec565b50602082015181600101556040820151816002015560608201518160030160006101000a81548160ff0219169083151502179055505050600660405180608001604052806040518060400160405280600581526020017f456172746800000000000000000000000000000000000000000000000000000081525081526020016118e381526020016308eaaf478152602001600015158152509080600181540180825580915050600190039060005260206000209060040201600090919091909150600082015181600001908162000a559190620012ec565b50602082015181600101556040820151816002015560608201518160030160006101000a81548160ff0219169083151502179055505050600660405180608001604052806040518060400160405280600481526020017f4d617273000000000000000000000000000000000000000000000000000000008152508152602001610d3e8152602001630d9613808152602001600015158152509080600181540180825580915050600190039060005260206000209060040201600090919091909150600082015181600001908162000b2d9190620012ec565b50602082015181600101556040820151816002015560608201518160030160006101000a81548160ff0219169083151502179055505050600660405180608001604052806040518060400160405280600781526020017f4a757069746572000000000000000000000000000000000000000000000000008152508152602001620111178152602001632e6809108152602001600115158152509080600181540180825580915050600190039060005260206000209060040201600090919091909150600082015181600001908162000c069190620012ec565b50602082015181600101556040820151816002015560608201518160030160006101000a81548160ff0219169083151502179055505050600660405180608001604052806040518060400160405280600681526020017f53617475726e0000000000000000000000000000000000000000000000000000815250815260200161e3788152602001635569d8408152602001600115158152509080600181540180825580915050600190039060005260206000209060040201600090919091909150600082015181600001908162000cde9190620012ec565b50602082015181600101556040820151816002015560608201518160030160006101000a81548160ff0219169083151502179055505050600660405180608001604052806040518060400160405280600681526020017f5572616e757300000000000000000000000000000000000000000000000000008152508152602001616312815260200163ab5da1008152602001600115158152509080600181540180825580915050600190039060005260206000209060040201600090919091909150600082015181600001908162000db69190620012ec565b50602082015181600101556040820151816002015560608201518160030160006101000a81548160ff0219169083151502179055505050600660405180608001604052806040518060400160405280600681526020017f53617475726e0000000000000000000000000000000000000000000000000000815250815260200161602e815260200164010c388d008152602001600115158152509080600181540180825580915050600190039060005260206000209060040201600090919091909150600082015181600001908162000e8f9190620012ec565b50602082015181600101556040820151816002015560608201518160030160006101000a81548160ff0219169083151502179055505050620013d3565b82805482825590600052602060002090810192821562000f12579160200282015b8281111562000f11578251829062ffffff1690559160200191906001019062000eed565b5b50905062000f21919062000fe5565b5090565b82805482825590600052602060002090810192821562000f72579160200282015b8281111562000f7157825182908162000f609190620012ec565b509160200191906001019062000f46565b5b50905062000f81919062001004565b5090565b82805482825590600052602060002090810192821562000fd2579160200282015b8281111562000fd157825182908162000fc09190620012ec565b509160200191906001019062000fa6565b5b50905062000fe1919062001004565b5090565b5b808211156200100057600081600090555060010162000fe6565b5090565b5b808211156200102857600081816200101e91906200102c565b5060010162001005565b5090565b5080546200103a90620010db565b6000825580601f106200104e57506200106f565b601f0160209004906000526020600020908101906200106e919062000fe5565b5b50565b600081519050919050565b7f4e487b7100000000000000000000000000000000000000000000000000000000600052604160045260246000fd5b7f4e487b7100000000000000000000000000000000000000000000000000000000600052602260045260246000fd5b60006002820490506001821680620010f457607f821691505b6020821081036200110a5762001109620010ac565b5b50919050565b60008190508160005260206000209050919050565b60006020601f8301049050919050565b600082821b905092915050565b600060088302620011747fffffffffffffffffffffffffffffffffffffffffffffffffffffffffffffffff8262001135565b62001180868362001135565b95508019841693508086168417925050509392505050565b6000819050919050565b6000819050919050565b6000620011cd620011c7620011c18462001198565b620011a2565b62001198565b9050919050565b6000819050919050565b620011e983620011ac565b62001201620011f882620011d4565b84845462001142565b825550505050565b600090565b6200121862001209565b62001225818484620011de565b505050565b5b818110156200124d57620012416000826200120e565b6001810190506200122b565b5050565b601f8211156200129c57620012668162001110565b620012718462001125565b8101602085101562001281578190505b62001299620012908562001125565b8301826200122a565b50505b505050565b600082821c905092915050565b6000620012c160001984600802620012a1565b1980831691505092915050565b6000620012dc8383620012ae565b9150826002028217905092915050565b620012f78262001072565b67ffffffffffffffff8111156200131357620013126200107d565b5b6200131f8254620010db565b6200132c82828562001251565b600060209050601f8311600181146200136457600084156200134f578287015190505b6200135b8582620012ce565b865550620013cb565b601f198416620013748662001110565b60005b828110156200139e5784890151825560018201915060208501945060208101905062001377565b86831015620013be5784890151620013ba601f891682620012ae565b8355505b6001600288020188555050505b505050505050565b611fa680620013e36000396000f3fe608060405234801561001057600080fd5b50600436106100cf5760003560e01c80638aa7b4b11161008c578063c766586011610066578063c766586014610205578063d683479b14610223578063ea2752aa14610241578063fb5e20011461025f576100cf565b80638aa7b4b1146101995780639a416b5a146101b7578063a3cc9479146101d5576100cf565b80630bd8599e146100d45780631c7b9a6b146100f2578063225534f61461011057806325d608611461012f5780632b25af581461014b578063889dcd8514610169575b600080fd5b6100dc61028f565b6040516100e9919061115c565b60405180910390f35b6100fa6102ec565b6040516101079190611356565b60405180910390f35b61011861056a565b60405161012692919061143a565b60405180910390f35b610149600480360381019061014491906115ba565b610719565b005b610153610763565b6040516101609190611356565b60405180910390f35b610183600480360381019061017e919061163c565b6108fd565b6040516101909190611718565b60405180910390f35b6101a16109fe565b6040516101ae9190611784565b60405180910390f35b6101bf610a90565b6040516101cc9190611356565b60405180910390f35b6101ef60048036038101906101ea91906117ee565b610bb6565b6040516101fc919061185b565b60405180910390f35b61020d610bde565b60405161021a9190611356565b60405180910390f35b61022b610d78565b6040516102389190611876565b60405180910390f35b610249610e51565b60405161025691906119af565b60405180910390f35b61027960048036038101906102749190611a99565b6110a9565b604051610286919061115c565b60405180910390f35b60008060005490506000808154809291906102a990611b11565b91905055507f51c8487375f68f1cd2899e63d7deeb74cfdfbd12c5defa6728dc874a4e3d2f0a816040516102dd919061115c565b60405180910390a18091505090565b60606000600267ffffffffffffffff81111561030b5761030a61148f565b5b60405190808252806020026020018201604052801561034457816020015b610331611119565b8152602001906001900390816103295790505b509050600660008154811061035c5761035b611b59565b5b906000526020600020906004020160405180608001604052908160008201805461038590611bb7565b80601f01602080910402602001604051908101604052809291908181526020018280546103b190611bb7565b80156103fe5780601f106103d3576101008083540402835291602001916103fe565b820191906000526020600020905b8154815290600101906020018083116103e157829003601f168201915b5050505050815260200160018201548152602001600282015481526020016003820160009054906101000a900460ff1615151515815250508160008151811061044a57610449611b59565b5b6020026020010181905250600660018154811061046a57610469611b59565b5b906000526020600020906004020160405180608001604052908160008201805461049390611bb7565b80601f01602080910402602001604051908101604052809291908181526020018280546104bf90611bb7565b801561050c5780601f106104e15761010080835404028352916020019161050c565b820191906000526020600020905b8154815290600101906020018083116104ef57829003601f168201915b5050505050815260200160018201548152602001600282015481526020016003820160009054906101000a900460ff1615151515815250508160018151811061055857610557611b59565b5b60200260200101819052508091505090565b6060806003805480602002602001604051908101604052809291908181526020016000905b8282101561063b5783829060005260206000200180546105ae90611bb7565b80601f01602080910402602001604051908101604052809291908181526020018280546105da90611bb7565b80156106275780601f106105fc57610100808354040283529160200191610627565b820191906000526020600020905b81548152906001019060200180831161060a57829003601f168201915b50505050508152602001906001019061058f565b5050505091506004805480602002602001604051908101604052809291908181526020016000905b8282101561070f57838290600052602060002001805461068290611bb7565b80601f01602080910402602001604051908101604052809291908181526020018280546106ae90611bb7565b80156106fb5780601f106106d0576101008083540402835291602001916106fb565b820191906000526020600020905b8154815290600101906020018083116106de57829003601f168201915b505050505081526020019060010190610663565b5050505090509091565b80600190816107289190611d94565b507f2e03fd6bfe9d29854cd5baa2aa88e2fd25bbfadeb12029bd7ac986ddaf02fcc4816040516107589190611784565b60405180910390a150565b60606000600467ffffffffffffffff8111156107825761078161148f565b5b6040519080825280602002602001820160405280156107bb57816020015b6107a8611119565b8152602001906001900390816107a05790505b50905060005b60048110156108f55760066005826107d99190611e66565b815481106107ea576107e9611b59565b5b906000526020600020906004020160405180608001604052908160008201805461081390611bb7565b80601f016020809104026020016040519081016040528092919081815260200182805461083f90611bb7565b801561088c5780601f106108615761010080835404028352916020019161088c565b820191906000526020600020905b81548152906001019060200180831161086f57829003601f168201915b5050505050815260200160018201548152602001600282015481526020016003820160009054906101000a900460ff1615151515815250508282815181106108d7576108d6611b59565b5b602002602001018190525080806108ed90611b11565b9150506107c1565b508091505090565b6060601f8260ff1610610945576040517f08c379a000000000000000000000000000000000000000000000000000000000815260040161093c90611f0c565b60405180910390fd5b60008260ff1667ffffffffffffffff8111156109645761096361148f565b5b6040519080825280602002602001820160405280156109925781602001602082028036833780820191505090505b50905060005b8360ff168110156109f457600281815481106109b7576109b6611b59565b5b90600052602060002001548282815181106109d5576109d4611b59565b5b60200260200101818152505080806109ec90611b11565b915050610998565b5080915050919050565b606060018054610a0d90611bb7565b80601f0160208091040260200160405190810160405280929190818152602001828054610a3990611bb7565b8015610a865780601f10610a5b57610100808354040283529160200191610a86565b820191906000526020600020905b815481529060010190602001808311610a6957829003601f168201915b5050505050905090565b606060006006805480602002602001604051908101604052809291908181526020016000905b82821015610ba95783829060005260206000209060040201604051806080016040529081600082018054610ae990611bb7565b80601f0160208091040260200160405190810160405280929190818152602001828054610b1590611bb7565b8015610b625780601f10610b3757610100808354040283529160200191610b62565b820191906000526020600020905b815481529060010190602001808311610b4557829003601f168201915b5050505050815260200160018201548152602001600282015481526020016003820160009054906101000a900460ff16151515158152505081526020019060010190610ab6565b5050505090508091505090565b60008183610bc49190611f2c565b6fffffffffffffffffffffffffffffffff16905092915050565b60606000600567ffffffffffffffff811115610bfd57610bfc61148f565b5b604051908082528060200260200182016040528015610c3657816020015b610c23611119565b815260200190600190039081610c1b5790505b50905060005b6005811015610d70576006816004610c549190611e66565b81548110610c6557610c64611b59565b5b9060005260206000209060040201604051806080016040529081600082018054610c8e90611bb7565b80601f0160208091040260200160405190810160405280929190818152602001828054610cba90611bb7565b8015610d075780601f10610cdc57610100808354040283529160200191610d07565b820191906000526020600020905b815481529060010190602001808311610cea57829003601f168201915b5050505050815260200160018201548152602001600282015481526020016003820160009054906101000a900460ff161515151581525050828281518110610d5257610d51611b59565b5b60200260200101819052508080610d6890611b11565b915050610c3c565b508091505090565b60606003805480602002602001604051908101604052809291908181526020016000905b82821015610e48578382906000526020600020018054610dbb90611bb7565b80601f0160208091040260200160405190810160405280929190818152602001828054610de790611bb7565b8015610e345780601f10610e0957610100808354040283529160200191610e34565b820191906000526020600020905b815481529060010190602001808311610e1757829003601f168201915b505050505081526020019060010190610d9c565b50505050905090565b60606040518060400160405280600381526020017f526564000000000000000000000000000000000000000000000000000000000081525081600081518110610e9d57610e9c611b59565b5b60200260200101819052506040518060400160405280600681526020017f4f72616e6765000000000000000000000000000000000000000000000000000081525081600181518110610ef257610ef1611b59565b5b60200260200101819052506040518060400160405280600581526020017f59656c6c6f00000000000000000000000000000000000000000000000000000081525081600281518110610f4757610f46611b59565b5b60200260200101819052506040518060400160405280600581526020017f477265656e00000000000000000000000000000000000000000000000000000081525081600381518110610f9c57610f9b611b59565b5b60200260200101819052506040518060400160405280600481526020017f426c75650000000000000000000000000000000000000000000000000000000081525081600481518110610ff157610ff0611b59565b5b60200260200101819052506040518060400160405280600681526020017f496e6469676f00000000000000000000000000000000000000000000000000008152508160058151811061104657611045611b59565b5b60200260200101819052506040518060400160405280600681526020017f56696f6c657400000000000000000000000000000000000000000000000000008152508160068151811061109b5761109a611b59565b5b602002602001018190525090565b6000806000905060008351905060005b8181101561110e578481815181106110d4576110d3611b59565b5b60200260200101516fffffffffffffffffffffffffffffffff16836110f99190611e66565b9250808061110690611b11565b9150506110b9565b508192505050919050565b60405180608001604052806060815260200160008152602001600081526020016000151581525090565b6000819050919050565b61115681611143565b82525050565b6000602082019050611171600083018461114d565b92915050565b600081519050919050565b600082825260208201905092915050565b6000819050602082019050919050565b600081519050919050565b600082825260208201905092915050565b60005b838110156111dd5780820151818401526020810190506111c2565b60008484015250505050565b6000601f19601f8301169050919050565b6000611205826111a3565b61120f81856111ae565b935061121f8185602086016111bf565b611228816111e9565b840191505092915050565b61123c81611143565b82525050565b60008115159050919050565b61125781611242565b82525050565b6000608083016000830151848203600086015261127a82826111fa565b915050602083015161128f6020860182611233565b5060408301516112a26040860182611233565b5060608301516112b5606086018261124e565b508091505092915050565b60006112cc838361125d565b905092915050565b6000602082019050919050565b60006112ec82611177565b6112f68185611182565b93508360208202850161130885611193565b8060005b85811015611344578484038952815161132585826112c0565b9450611330836112d4565b925060208a0199505060018101905061130c565b50829750879550505050505092915050565b6000602082019050818103600083015261137081846112e1565b905092915050565b600081519050919050565b600082825260208201905092915050565b6000819050602082019050919050565b60006113b083836111fa565b905092915050565b6000602082019050919050565b60006113d082611378565b6113da8185611383565b9350836020820285016113ec85611394565b8060005b85811015611428578484038952815161140985826113a4565b9450611414836113b8565b925060208a019950506001810190506113f0565b50829750879550505050505092915050565b6000604082019050818103600083015261145481856113c5565b9050818103602083015261146881846113c5565b90509392505050565b6000604051905090565b600080fd5b600080fd5b600080fd5b600080fd5b7f4e487b7100000000000000000000000000000000000000000000000000000000600052604160045260246000fd5b6114c7826111e9565b810181811067ffffffffffffffff821117156114e6576114e561148f565b5b80604052505050565b60006114f9611471565b905061150582826114be565b919050565b600067ffffffffffffffff8211156115255761152461148f565b5b61152e826111e9565b9050602081019050919050565b82818337600083830152505050565b600061155d6115588461150a565b6114ef565b9050828152602081018484840111156115795761157861148a565b5b61158484828561153b565b509392505050565b600082601f8301126115a1576115a0611485565b5b81356115b184826020860161154a565b91505092915050565b6000602082840312156115d0576115cf61147b565b5b600082013567ffffffffffffffff8111156115ee576115ed611480565b5b6115fa8482850161158c565b91505092915050565b600060ff82169050919050565b61161981611603565b811461162457600080fd5b50565b60008135905061163681611610565b92915050565b6000602082840312156116525761165161147b565b5b600061166084828501611627565b91505092915050565b600081519050919050565b600082825260208201905092915050565b6000819050602082019050919050565b60006116a18383611233565b60208301905092915050565b6000602082019050919050565b60006116c582611669565b6116cf8185611674565b93506116da83611685565b8060005b8381101561170b5781516116f28882611695565b97506116fd836116ad565b9250506001810190506116de565b5085935050505092915050565b6000602082019050818103600083015261173281846116ba565b905092915050565b600082825260208201905092915050565b6000611756826111a3565b611760818561173a565b93506117708185602086016111bf565b611779816111e9565b840191505092915050565b6000602082019050818103600083015261179e818461174b565b905092915050565b60006fffffffffffffffffffffffffffffffff82169050919050565b6117cb816117a6565b81146117d657600080fd5b50565b6000813590506117e8816117c2565b92915050565b600080604083850312156118055761180461147b565b5b6000611813858286016117d9565b9250506020611824858286016117d9565b9150509250929050565b600071ffffffffffffffffffffffffffffffffffff82169050919050565b6118558161182e565b82525050565b6000602082019050611870600083018461184c565b92915050565b6000602082019050818103600083015261189081846113c5565b905092915050565b600081519050919050565b600082825260208201905092915050565b6000819050602082019050919050565b600081519050919050565b600082825260208201905092915050565b60006118eb826118c4565b6118f581856118cf565b93506119058185602086016111bf565b61190e816111e9565b840191505092915050565b600061192583836118e0565b905092915050565b6000602082019050919050565b600061194582611898565b61194f81856118a3565b935083602082028501611961856118b4565b8060005b8581101561199d578484038952815161197e8582611919565b94506119898361192d565b925060208a01995050600181019050611965565b50829750879550505050505092915050565b600060208201905081810360008301526119c9818461193a565b905092915050565b600067ffffffffffffffff8211156119ec576119eb61148f565b5b602082029050602081019050919050565b600080fd5b6000611a15611a10846119d1565b6114ef565b90508083825260208201905060208402830185811115611a3857611a376119fd565b5b835b81811015611a615780611a4d88826117d9565b845260208401935050602081019050611a3a565b5050509392505050565b600082601f830112611a8057611a7f611485565b5b8135611a90848260208601611a02565b91505092915050565b600060208284031215611aaf57611aae61147b565b5b600082013567ffffffffffffffff811115611acd57611acc611480565b5b611ad984828501611a6b565b91505092915050565b7f4e487b7100000000000000000000000000000000000000000000000000000000600052601160045260246000fd5b6000611b1c82611143565b91507fffffffffffffffffffffffffffffffffffffffffffffffffffffffffffffffff8203611b4e57611b4d611ae2565b5b600182019050919050565b7f4e487b7100000000000000000000000000000000000000000000000000000000600052603260045260246000fd5b7f4e487b7100000000000000000000000000000000000000000000000000000000600052602260045260246000fd5b60006002820490506001821680611bcf57607f821691505b602082108103611be257611be1611b88565b5b50919050565b60008190508160005260206000209050919050565b60006020601f8301049050919050565b600082821b905092915050565b600060088302611c4a7fffffffffffffffffffffffffffffffffffffffffffffffffffffffffffffffff82611c0d565b611c548683611c0d565b95508019841693508086168417925050509392505050565b6000819050919050565b6000611c91611c8c611c8784611143565b611c6c565b611143565b9050919050565b6000819050919050565b611cab83611c76565b611cbf611cb782611c98565b848454611c1a565b825550505050565b600090565b611cd4611cc7565b611cdf818484611ca2565b505050565b5b81811015611d0357611cf8600082611ccc565b600181019050611ce5565b5050565b601f821115611d4857611d1981611be8565b611d2284611bfd565b81016020851015611d31578190505b611d45611d3d85611bfd565b830182611ce4565b50505b505050565b600082821c905092915050565b6000611d6b60001984600802611d4d565b1980831691505092915050565b6000611d848383611d5a565b9150826002028217905092915050565b611d9d826111a3565b67ffffffffffffffff811115611db657611db561148f565b5b611dc08254611bb7565b611dcb828285611d07565b600060209050601f831160018114611dfe5760008415611dec578287015190505b611df68582611d78565b865550611e5e565b601f198416611e0c86611be8565b60005b82811015611e3457848901518255600182019150602085019450602081019050611e0f565b86831015611e515784890151611e4d601f891682611d5a565b8355505b6001600288020188555050505b505050505050565b6000611e7182611143565b9150611e7c83611143565b9250828201905080821115611e9457611e93611ae2565b5b92915050565b7f43757272656e746c79206f6e6c79207570746f2066697273742033302046696260008201527f6f6e61636369206e756d626572732061726520737570706f727465642e000000602082015250565b6000611ef6603d8361173a565b9150611f0182611e9a565b604082019050919050565b60006020820190508181036000830152611f2581611ee9565b9050919050565b6000611f37826117a6565b9150611f42836117a6565b925082820190506fffffffffffffffffffffffffffffffff811115611f6a57611f69611ae2565b5b9291505056fea2646970667358221220851d341e18cd4c2a969ce0feb92af6fc44aa966ec7eb6627b0cf80d7820813a764736f6c63430008130033",
  "linkReferences": {},
  "deployedLinkReferences": {}
}