{
  "_format": "hh-sol-artifact-1",
  "contractName": "ColoredBadge",
  "sourceName": "contracts/badges/ColoredBadge.sol",
  "abi": [
    {
      "inputs": [
        {
          "internalType": "string[]",
          "name": "colors",
          "type": "string[]"
        }
      ],
      "stateMutability": "nonpayable",
      "type": "constructor"
    },
    {
      "anonymous": false,
      "inputs": [
        {
          "indexed": true,
          "internalType": "address",
          "name": "owner",
          "type": "address"
        },
        {
          "indexed": true,
          "internalType": "address",
          "name": "approved",
          "type": "address"
        },
        {
          "indexed": true,
          "internalType": "uint256",
          "name": "tokenId",
          "type": "uint256"
        }
      ],
      "name": "Approval",
      "type": "event"
    },
    {
      "anonymous": false,
      "inputs": [
        {
          "indexed": true,
          "internalType": "address",
          "name": "owner",
          "type": "address"
        },
        {
          "indexed": true,
          "internalType": "address",
          "name": "operator",
          "type": "address"
        },
        {
          "indexed": false,
          "internalType": "bool",
          "name": "approved",
          "type": "bool"
        }
      ],
      "name": "ApprovalForAll",
      "type": "event"
    },
    {
      "anonymous": false,
      "inputs": [
        {
          "indexed": false,
          "internalType": "address",
          "name": "account",
          "type": "address"
        }
      ],
      "name": "Paused",
      "type": "event"
    },
    {
      "anonymous": false,
      "inputs": [
        {
          "indexed": true,
          "internalType": "bytes32",
          "name": "role",
          "type": "bytes32"
        },
        {
          "indexed": true,
          "internalType": "bytes32",
          "name": "previousAdminRole",
          "type": "bytes32"
        },
        {
          "indexed": true,
          "internalType": "bytes32",
          "name": "newAdminRole",
          "type": "bytes32"
        }
      ],
      "name": "RoleAdminChanged",
      "type": "event"
    },
    {
      "anonymous": false,
      "inputs": [
        {
          "indexed": true,
          "internalType": "bytes32",
          "name": "role",
          "type": "bytes32"
        },
        {
          "indexed": true,
          "internalType": "address",
          "name": "account",
          "type": "address"
        },
        {
          "indexed": true,
          "internalType": "address",
          "name": "sender",
          "type": "address"
        }
      ],
      "name": "RoleGranted",
      "type": "event"
    },
    {
      "anonymous": false,
      "inputs": [
        {
          "indexed": true,
          "internalType": "bytes32",
          "name": "role",
          "type": "bytes32"
        },
        {
          "indexed": true,
          "internalType": "address",
          "name": "account",
          "type": "address"
        },
        {
          "indexed": true,
          "internalType": "address",
          "name": "sender",
          "type": "address"
        }
      ],
      "name": "RoleRevoked",
      "type": "event"
    },
    {
      "anonymous": false,
      "inputs": [
        {
          "indexed": true,
          "internalType": "uint256",
          "name": "tokenId",
          "type": "uint256"
        },
        {
          "indexed": true,
          "internalType": "string",
          "name": "color",
          "type": "string"
        },
        {
          "indexed": false,
          "internalType": "uint8",
          "name": "score",
          "type": "uint8"
        }
      ],
      "name": "TokenColored",
      "type": "event"
    },
    {
      "anonymous": false,
      "inputs": [
        {
          "indexed": true,
          "internalType": "address",
          "name": "from",
          "type": "address"
        },
        {
          "indexed": true,
          "internalType": "address",
          "name": "to",
          "type": "address"
        },
        {
          "indexed": true,
          "internalType": "uint256",
          "name": "tokenId",
          "type": "uint256"
        }
      ],
      "name": "Transfer",
      "type": "event"
    },
    {
      "anonymous": false,
      "inputs": [
        {
          "indexed": false,
          "internalType": "address",
          "name": "account",
          "type": "address"
        }
      ],
      "name": "Unpaused",
      "type": "event"
    },
    {
      "inputs": [],
      "name": "DEFAULT_ADMIN_ROLE",
      "outputs": [
        {
          "internalType": "bytes32",
          "name": "",
          "type": "bytes32"
        }
      ],
      "stateMutability": "view",
      "type": "function"
    },
    {
      "inputs": [],
      "name": "MINTER_ROLE",
      "outputs": [
        {
          "internalType": "bytes32",
          "name": "",
          "type": "bytes32"
        }
      ],
      "stateMutability": "view",
      "type": "function"
    },
    {
      "inputs": [],
      "name": "PAUSER_ROLE",
      "outputs": [
        {
          "internalType": "bytes32",
          "name": "",
          "type": "bytes32"
        }
      ],
      "stateMutability": "view",
      "type": "function"
    },
    {
      "inputs": [
        {
          "internalType": "uint256",
          "name": "tokenId",
          "type": "uint256"
        },
        {
          "internalType": "string",
          "name": "color",
          "type": "string"
        },
        {
          "internalType": "uint8",
          "name": "score",
          "type": "uint8"
        }
      ],
      "name": "_setTokenColor",
      "outputs": [],
      "stateMutability": "nonpayable",
      "type": "function"
    },
    {
      "inputs": [
        {
          "internalType": "string",
          "name": "color",
          "type": "string"
        }
      ],
      "name": "addColor",
      "outputs": [],
      "stateMutability": "nonpayable",
      "type": "function"
    },
    {
      "inputs": [
        {
          "internalType": "address",
          "name": "to",
          "type": "address"
        },
        {
          "internalType": "uint256",
          "name": "tokenId",
          "type": "uint256"
        }
      ],
      "name": "approve",
      "outputs": [],
      "stateMutability": "nonpayable",
      "type": "function"
    },
    {
      "inputs": [
        {
          "internalType": "address",
          "name": "owner",
          "type": "address"
        }
      ],
      "name": "balanceOf",
      "outputs": [
        {
          "internalType": "uint256",
          "name": "",
          "type": "uint256"
        }
      ],
      "stateMutability": "view",
      "type": "function"
    },
    {
      "inputs": [
        {
          "internalType": "uint256",
          "name": "tokenId",
          "type": "uint256"
        }
      ],
      "name": "burn",
      "outputs": [],
      "stateMutability": "nonpayable",
      "type": "function"
    },
    {
      "inputs": [
        {
          "internalType": "uint256",
          "name": "tokenId",
          "type": "uint256"
        },
        {
          "internalType": "string",
          "name": "color",
          "type": "string"
        }
      ],
      "name": "clearTokenColor",
      "outputs": [],
      "stateMutability": "nonpayable",
      "type": "function"
    },
    {
      "inputs": [
        {
          "internalType": "string",
          "name": "color",
          "type": "string"
        }
      ],
      "name": "countTokensByColor",
      "outputs": [
        {
          "internalType": "uint256",
          "name": "",
          "type": "uint256"
        }
      ],
      "stateMutability": "nonpayable",
      "type": "function"
    },
    {
      "inputs": [
        {
          "internalType": "string",
          "name": "color",
          "type": "string"
        },
        {
          "internalType": "uint256",
          "name": "pageNo",
          "type": "uint256"
        }
      ],
      "name": "findTokensByColor",
      "outputs": [
        {
          "internalType": "uint256[]",
          "name": "",
          "type": "uint256[]"
        }
      ],
      "stateMutability": "nonpayable",
      "type": "function"
    },
    {
      "inputs": [
        {
          "internalType": "string",
          "name": "color",
          "type": "string"
        },
        {
          "internalType": "uint256",
          "name": "pageSize",
          "type": "uint256"
        },
        {
          "internalType": "uint256",
          "name": "pageNo",
          "type": "uint256"
        }
      ],
      "name": "findTokensByColor",
      "outputs": [
        {
          "internalType": "uint256[]",
          "name": "",
          "type": "uint256[]"
        }
      ],
      "stateMutability": "nonpayable",
      "type": "function"
    },
    {
      "inputs": [],
      "name": "getAllColors",
      "outputs": [
        {
          "internalType": "string[]",
          "name": "",
          "type": "string[]"
        }
      ],
      "stateMutability": "view",
      "type": "function"
    },
    {
      "inputs": [
        {
          "internalType": "uint256",
          "name": "tokenId",
          "type": "uint256"
        }
      ],
      "name": "getApproved",
      "outputs": [
        {
          "internalType": "address",
          "name": "",
          "type": "address"
        }
      ],
      "stateMutability": "view",
      "type": "function"
    },
    {
      "inputs": [
        {
          "internalType": "bytes32",
          "name": "role",
          "type": "bytes32"
        }
      ],
      "name": "getRoleAdmin",
      "outputs": [
        {
          "internalType": "bytes32",
          "name": "",
          "type": "bytes32"
        }
      ],
      "stateMutability": "view",
      "type": "function"
    },
    {
      "inputs": [
        {
          "internalType": "bytes32",
          "name": "role",
          "type": "bytes32"
        },
        {
          "internalType": "uint256",
          "name": "index",
          "type": "uint256"
        }
      ],
      "name": "getRoleMember",
      "outputs": [
        {
          "internalType": "address",
          "name": "",
          "type": "address"
        }
      ],
      "stateMutability": "view",
      "type": "function"
    },
    {
      "inputs": [
        {
          "internalType": "bytes32",
          "name": "role",
          "type": "bytes32"
        }
      ],
      "name": "getRoleMemberCount",
      "outputs": [
        {
          "internalType": "uint256",
          "name": "",
          "type": "uint256"
        }
      ],
      "stateMutability": "view",
      "type": "function"
    },
    {
      "inputs": [
        {
          "internalType": "uint256",
          "name": "tokenId",
          "type": "uint256"
        }
      ],
      "name": "getTokenColors",
      "outputs": [
        {
          "components": [
            {
              "internalType": "string",
              "name": "name",
              "type": "string"
            },
            {
              "internalType": "uint8",
              "name": "score",
              "type": "uint8"
            }
          ],
          "internalType": "struct ColorFacet[]",
          "name": "",
          "type": "tuple[]"
        }
      ],
      "stateMutability": "nonpayable",
      "type": "function"
    },
    {
      "inputs": [
        {
          "internalType": "bytes32",
          "name": "role",
          "type": "bytes32"
        },
        {
          "internalType": "address",
          "name": "account",
          "type": "address"
        }
      ],
      "name": "grantRole",
      "outputs": [],
      "stateMutability": "nonpayable",
      "type": "function"
    },
    {
      "inputs": [
        {
          "internalType": "bytes32",
          "name": "role",
          "type": "bytes32"
        },
        {
          "internalType": "address",
          "name": "account",
          "type": "address"
        }
      ],
      "name": "hasRole",
      "outputs": [
        {
          "internalType": "bool",
          "name": "",
          "type": "bool"
        }
      ],
      "stateMutability": "view",
      "type": "function"
    },
    {
      "inputs": [
        {
          "internalType": "address",
          "name": "owner",
          "type": "address"
        },
        {
          "internalType": "address",
          "name": "operator",
          "type": "address"
        }
      ],
      "name": "isApprovedForAll",
      "outputs": [
        {
          "internalType": "bool",
          "name": "",
          "type": "bool"
        }
      ],
      "stateMutability": "view",
      "type": "function"
    },
    {
      "inputs": [
        {
          "internalType": "address",
          "name": "to",
          "type": "address"
        }
      ],
      "name": "mint",
      "outputs": [],
      "stateMutability": "nonpayable",
      "type": "function"
    },
    {
      "inputs": [],
      "name": "name",
      "outputs": [
        {
          "internalType": "string",
          "name": "",
          "type": "string"
        }
      ],
      "stateMutability": "view",
      "type": "function"
    },
    {
      "inputs": [
        {
          "internalType": "uint256",
          "name": "tokenId",
          "type": "uint256"
        }
      ],
      "name": "ownerOf",
      "outputs": [
        {
          "internalType": "address",
          "name": "",
          "type": "address"
        }
      ],
      "stateMutability": "view",
      "type": "function"
    },
    {
      "inputs": [],
      "name": "pause",
      "outputs": [],
      "stateMutability": "nonpayable",
      "type": "function"
    },
    {
      "inputs": [],
      "name": "paused",
      "outputs": [
        {
          "internalType": "bool",
          "name": "",
          "type": "bool"
        }
      ],
      "stateMutability": "view",
      "type": "function"
    },
    {
      "inputs": [
        {
          "internalType": "bytes32",
          "name": "role",
          "type": "bytes32"
        },
        {
          "internalType": "address",
          "name": "account",
          "type": "address"
        }
      ],
      "name": "renounceRole",
      "outputs": [],
      "stateMutability": "nonpayable",
      "type": "function"
    },
    {
      "inputs": [
        {
          "internalType": "bytes32",
          "name": "role",
          "type": "bytes32"
        },
        {
          "internalType": "address",
          "name": "account",
          "type": "address"
        }
      ],
      "name": "revokeRole",
      "outputs": [],
      "stateMutability": "nonpayable",
      "type": "function"
    },
    {
      "inputs": [
        {
          "internalType": "address",
          "name": "from",
          "type": "address"
        },
        {
          "internalType": "address",
          "name": "to",
          "type": "address"
        },
        {
          "internalType": "uint256",
          "name": "tokenId",
          "type": "uint256"
        }
      ],
      "name": "safeTransferFrom",
      "outputs": [],
      "stateMutability": "nonpayable",
      "type": "function"
    },
    {
      "inputs": [
        {
          "internalType": "address",
          "name": "from",
          "type": "address"
        },
        {
          "internalType": "address",
          "name": "to",
          "type": "address"
        },
        {
          "internalType": "uint256",
          "name": "tokenId",
          "type": "uint256"
        },
        {
          "internalType": "bytes",
          "name": "data",
          "type": "bytes"
        }
      ],
      "name": "safeTransferFrom",
      "outputs": [],
      "stateMutability": "nonpayable",
      "type": "function"
    },
    {
      "inputs": [
        {
          "internalType": "address",
          "name": "operator",
          "type": "address"
        },
        {
          "internalType": "bool",
          "name": "approved",
          "type": "bool"
        }
      ],
      "name": "setApprovalForAll",
      "outputs": [],
      "stateMutability": "nonpayable",
      "type": "function"
    },
    {
      "inputs": [
        {
          "internalType": "uint256",
          "name": "tokenId",
          "type": "uint256"
        },
        {
          "internalType": "string",
          "name": "color",
          "type": "string"
        },
        {
          "internalType": "uint8",
          "name": "score",
          "type": "uint8"
        }
      ],
      "name": "setTokenColor",
      "outputs": [],
      "stateMutability": "nonpayable",
      "type": "function"
    },
    {
      "inputs": [
        {
          "internalType": "uint256",
          "name": "tokenId",
          "type": "uint256"
        },
        {
          "components": [
            {
              "internalType": "string",
              "name": "name",
              "type": "string"
            },
            {
              "internalType": "uint8",
              "name": "score",
              "type": "uint8"
            }
          ],
          "internalType": "struct ColorFacet[]",
          "name": "colors",
          "type": "tuple[]"
        }
      ],
      "name": "setTokenColors",
      "outputs": [],
      "stateMutability": "nonpayable",
      "type": "function"
    },
    {
      "inputs": [
        {
          "internalType": "bytes4",
          "name": "interfaceId",
          "type": "bytes4"
        }
      ],
      "name": "supportsInterface",
      "outputs": [
        {
          "internalType": "bool",
          "name": "",
          "type": "bool"
        }
      ],
      "stateMutability": "view",
      "type": "function"
    },
    {
      "inputs": [],
      "name": "symbol",
      "outputs": [
        {
          "internalType": "string",
          "name": "",
          "type": "string"
        }
      ],
      "stateMutability": "view",
      "type": "function"
    },
    {
      "inputs": [
        {
          "internalType": "uint256",
          "name": "index",
          "type": "uint256"
        }
      ],
      "name": "tokenByIndex",
      "outputs": [
        {
          "internalType": "uint256",
          "name": "",
          "type": "uint256"
        }
      ],
      "stateMutability": "view",
      "type": "function"
    },
    {
      "inputs": [
        {
          "internalType": "address",
          "name": "owner",
          "type": "address"
        },
        {
          "internalType": "uint256",
          "name": "index",
          "type": "uint256"
        }
      ],
      "name": "tokenOfOwnerByIndex",
      "outputs": [
        {
          "internalType": "uint256",
          "name": "",
          "type": "uint256"
        }
      ],
      "stateMutability": "view",
      "type": "function"
    },
    {
      "inputs": [
        {
          "internalType": "uint256",
          "name": "tokenId",
          "type": "uint256"
        }
      ],
      "name": "tokenURI",
      "outputs": [
        {
          "internalType": "string",
          "name": "",
          "type": "string"
        }
      ],
      "stateMutability": "view",
      "type": "function"
    },
    {
      "inputs": [],
      "name": "totalSupply",
      "outputs": [
        {
          "internalType": "uint256",
          "name": "",
          "type": "uint256"
        }
      ],
      "stateMutability": "view",
      "type": "function"
    },
    {
      "inputs": [
        {
          "internalType": "address",
          "name": "from",
          "type": "address"
        },
        {
          "internalType": "address",
          "name": "to",
          "type": "address"
        },
        {
          "internalType": "uint256",
          "name": "tokenId",
          "type": "uint256"
        }
      ],
      "name": "transferFrom",
      "outputs": [],
      "stateMutability": "nonpayable",
      "type": "function"
    },
    {
      "inputs": [],
      "name": "unpause",
      "outputs": [],
      "stateMutability": "nonpayable",
      "type": "function"
    }
  ],
  "bytecode": "0x60806040523480156200001157600080fd5b50604051620061df380380620061df83398181016040528101906200003791906200079c565b6040518060400160405280600481526020017f54657374000000000000000000000000000000000000000000000000000000008152506040518060400160405280600381526020017f54535400000000000000000000000000000000000000000000000000000000008152506040518060200160405280600081525082828160029081620000c6919062000a38565b508060039081620000d8919062000a38565b5050506000600c60006101000a81548160ff02191690831515021790555080600e908162000107919062000a38565b506200012c6000801b620001206200024360201b60201c565b6200024b60201b60201c565b6200016d7f9f2df0fed2c77648de5860a4cc508cd0818c85b8b8a1ab4ceeef8d981c8956a6620001616200024360201b60201c565b6200024b60201b60201c565b620001ae7f65d7a28e3265b37a6474929f336521b332c1681b933f6cb9f3376673440d862a620001a26200024360201b60201c565b6200024b60201b60201c565b50505060008151905060005b818110156200023a576000838281518110620001db57620001da62000b1f565b5b6020026020010151620001ee9062000b8a565b90506200020681600f6200026160201b90919060201c565b62000223576200022181600f6200028060201b90919060201c565b505b508080620002319062000c29565b915050620001ba565b50505062000c76565b600033905090565b6200025d82826200029f60201b60201c565b5050565b6000620002788360000183620002dd60201b60201c565b905092915050565b60006200029783600001836200030060201b60201c565b905092915050565b620002b182826200037a60201b60201c565b620002d881600160008581526020019081526020016000206200046b60201b90919060201c565b505050565b600080836001016000848152602001908152602001600020541415905092915050565b6000620003148383620002dd60201b60201c565b6200036f57826000018290806001815401808255809150506001900390600052602060002001600090919091909150558260000180549050836001016000848152602001908152602001600020819055506001905062000374565b600090505b92915050565b6200038c8282620004a360201b60201c565b6200046757600160008084815260200190815260200160002060000160008373ffffffffffffffffffffffffffffffffffffffff1673ffffffffffffffffffffffffffffffffffffffff16815260200190815260200160002060006101000a81548160ff0219169083151502179055506200040c6200024360201b60201c565b73ffffffffffffffffffffffffffffffffffffffff168173ffffffffffffffffffffffffffffffffffffffff16837f2f8788117e7eff1d82e926ec794901d17c78024a50270940304540a733656f0d60405160405180910390a45b5050565b60006200049b836000018373ffffffffffffffffffffffffffffffffffffffff1660001b6200030060201b60201c565b905092915050565b600080600084815260200190815260200160002060000160008373ffffffffffffffffffffffffffffffffffffffff1673ffffffffffffffffffffffffffffffffffffffff16815260200190815260200160002060009054906101000a900460ff16905092915050565b6000604051905090565b600080fd5b600080fd5b600080fd5b6000601f19601f8301169050919050565b7f4e487b7100000000000000000000000000000000000000000000000000000000600052604160045260246000fd5b620005718262000526565b810181811067ffffffffffffffff8211171562000593576200059262000537565b5b80604052505050565b6000620005a86200050d565b9050620005b6828262000566565b919050565b600067ffffffffffffffff821115620005d957620005d862000537565b5b602082029050602081019050919050565b600080fd5b600080fd5b600067ffffffffffffffff82111562000612576200061162000537565b5b6200061d8262000526565b9050602081019050919050565b60005b838110156200064a5780820151818401526020810190506200062d565b60008484015250505050565b60006200066d6200066784620005f4565b6200059c565b9050828152602081018484840111156200068c576200068b620005ef565b5b620006998482856200062a565b509392505050565b600082601f830112620006b957620006b862000521565b5b8151620006cb84826020860162000656565b91505092915050565b6000620006eb620006e584620005bb565b6200059c565b90508083825260208201905060208402830185811115620007115762000710620005ea565b5b835b818110156200075f57805167ffffffffffffffff8111156200073a576200073962000521565b5b808601620007498982620006a1565b8552602085019450505060208101905062000713565b5050509392505050565b600082601f83011262000781576200078062000521565b5b815162000793848260208601620006d4565b91505092915050565b600060208284031215620007b557620007b462000517565b5b600082015167ffffffffffffffff811115620007d657620007d56200051c565b5b620007e48482850162000769565b91505092915050565b600081519050919050565b7f4e487b7100000000000000000000000000000000000000000000000000000000600052602260045260246000fd5b600060028204905060018216806200084057607f821691505b602082108103620008565762000855620007f8565b5b50919050565b60008190508160005260206000209050919050565b60006020601f8301049050919050565b600082821b905092915050565b600060088302620008c07fffffffffffffffffffffffffffffffffffffffffffffffffffffffffffffffff8262000881565b620008cc868362000881565b95508019841693508086168417925050509392505050565b6000819050919050565b6000819050919050565b600062000919620009136200090d84620008e4565b620008ee565b620008e4565b9050919050565b6000819050919050565b6200093583620008f8565b6200094d620009448262000920565b8484546200088e565b825550505050565b600090565b6200096462000955565b620009718184846200092a565b505050565b5b8181101562000999576200098d6000826200095a565b60018101905062000977565b5050565b601f821115620009e857620009b2816200085c565b620009bd8462000871565b81016020851015620009cd578190505b620009e5620009dc8562000871565b83018262000976565b50505b505050565b600082821c905092915050565b600062000a0d60001984600802620009ed565b1980831691505092915050565b600062000a288383620009fa565b9150826002028217905092915050565b62000a4382620007ed565b67ffffffffffffffff81111562000a5f5762000a5e62000537565b5b62000a6b825462000827565b62000a788282856200099d565b600060209050601f83116001811462000ab0576000841562000a9b578287015190505b62000aa7858262000a1a565b86555062000b17565b601f19841662000ac0866200085c565b60005b8281101562000aea5784890151825560018201915060208501945060208101905062000ac3565b8683101562000b0a578489015162000b06601f891682620009fa565b8355505b6001600288020188555050505b505050505050565b7f4e487b7100000000000000000000000000000000000000000000000000000000600052603260045260246000fd5b600081519050919050565b6000819050602082019050919050565b6000819050919050565b600062000b81825162000b69565b80915050919050565b600062000b978262000b4e565b8262000ba38462000b59565b905062000bb08162000b73565b9250602082101562000bf35762000bee7fffffffffffffffffffffffffffffffffffffffffffffffffffffffffffffffff8360200360080262000881565b831692505b5050919050565b7f4e487b7100000000000000000000000000000000000000000000000000000000600052601160045260246000fd5b600062000c3682620008e4565b91507fffffffffffffffffffffffffffffffffffffffffffffffffffffffffffffffff820362000c6b5762000c6a62000bfa565b5b600182019050919050565b6155598062000c866000396000f3fe608060405234801561001057600080fd5b50600436106102535760003560e01c80636352211e11610146578063a217fddf116100c3578063ca15c87311610087578063ca15c87314610718578063d310041e14610748578063d539139314610778578063d547741f14610796578063e63ab1e9146107b2578063e985e9c5146107d057610253565b8063a217fddf14610676578063a22cb46514610694578063b88d4fde146106b0578063c2f80ba1146106cc578063c87b56dd146106e857610253565b80638456cb591161010a5780638456cb59146105be5780639010d07c146105c857806391304bb8146105f857806391d148541461062857806395d89b411461065857610253565b80636352211e1461050a5780636917b6011461053a5780636a627842146105565780636b1d388e1461057257806370a082311461058e57610253565b80632f745c59116101d457806342966c681161019857806342966c68146104545780634a1a19df146104705780634f6ccce7146104a05780635c975abb146104d057806363170800146104ee57610253565b80632f745c59146103c457806335de7c62146103f457806336568abe146104125780633f4ba83a1461042e57806342842e0e1461043857610253565b806318160ddd1161021b57806318160ddd1461030e57806323b872dd1461032c578063248a9ca31461034857806325418475146103785780632f2ff15d146103a857610253565b806301ffc9a71461025857806306fdde0314610288578063081812fc146102a6578063095ea7b3146102d657806315341f2b146102f2575b600080fd5b610272600480360381019061026d91906134b5565b610800565b60405161027f91906134fd565b60405180910390f35b610290610812565b60405161029d91906135a8565b60405180910390f35b6102c060048036038101906102bb9190613600565b6108a4565b6040516102cd919061366e565b60405180910390f35b6102f060048036038101906102eb91906136b5565b6108ea565b005b61030c6004803603810190610307919061382a565b610a01565b005b610316610a7c565b6040516103239190613882565b60405180910390f35b6103466004803603810190610341919061389d565b610a89565b005b610362600480360381019061035d9190613926565b610ae9565b60405161036f9190613962565b60405180910390f35b610392600480360381019061038d9190613600565b610b08565b60405161039f9190613ae2565b60405180910390f35b6103c260048036038101906103bd9190613b04565b610b14565b005b6103de60048036038101906103d991906136b5565b610b35565b6040516103eb9190613882565b60405180910390f35b6103fc610bda565b6040516104099190613c06565b60405180910390f35b61042c60048036038101906104279190613b04565b610cb4565b005b610436610d37565b005b610452600480360381019061044d919061389d565b610db1565b005b61046e60048036038101906104699190613600565b610dd1565b005b61048a60048036038101906104859190613c28565b610e2d565b6040516104979190613d42565b60405180910390f35b6104ba60048036038101906104b59190613600565b610e3a565b6040516104c79190613882565b60405180910390f35b6104d8610eab565b6040516104e591906134fd565b60405180910390f35b61050860048036038101906105039190613d90565b610ec2565b005b610524600480360381019061051f9190613600565b610fa3565b604051610531919061366e565b60405180910390f35b610554600480360381019061054f9190613f5b565b611054565b005b610570600480360381019061056b9190613fb7565b611176565b005b61058c60048036038101906105879190613fe4565b611206565b005b6105a860048036038101906105a39190613fb7565b61120a565b6040516105b59190613882565b60405180910390f35b6105c66112c1565b005b6105e260048036038101906105dd9190614040565b61133b565b6040516105ef919061366e565b60405180910390f35b610612600480360381019061060d919061382a565b61136a565b60405161061f9190613882565b60405180910390f35b610642600480360381019061063d9190613b04565b611371565b60405161064f91906134fd565b60405180910390f35b6106606113db565b60405161066d91906135a8565b60405180910390f35b61067e61146d565b60405161068b9190613962565b60405180910390f35b6106ae60048036038101906106a991906140ac565b611474565b005b6106ca60048036038101906106c5919061418d565b61148a565b005b6106e660048036038101906106e19190613d90565b6114ec565b005b61070260048036038101906106fd9190613600565b611542565b60405161070f91906135a8565b60405180910390f35b610732600480360381019061072d9190613926565b6115aa565b60405161073f9190613882565b60405180910390f35b610762600480360381019061075d9190614210565b6115ce565b60405161076f9190613d42565b60405180910390f35b6107806115dc565b60405161078d9190613962565b60405180910390f35b6107b060048036038101906107ab9190613b04565b611600565b005b6107ba611621565b6040516107c79190613962565b60405180910390f35b6107ea60048036038101906107e5919061427f565b611645565b6040516107f791906134fd565b60405180910390f35b600061080b826116d9565b9050919050565b606060028054610821906142ee565b80601f016020809104026020016040519081016040528092919081815260200182805461084d906142ee565b801561089a5780601f1061086f5761010080835404028352916020019161089a565b820191906000526020600020905b81548152906001019060200180831161087d57829003601f168201915b5050505050905090565b60006108af82611753565b6006600083815260200190815260200160002060009054906101000a900473ffffffffffffffffffffffffffffffffffffffff169050919050565b60006108f582610fa3565b90508073ffffffffffffffffffffffffffffffffffffffff168373ffffffffffffffffffffffffffffffffffffffff1603610965576040517f08c379a000000000000000000000000000000000000000000000000000000000815260040161095c90614391565b60405180910390fd5b8073ffffffffffffffffffffffffffffffffffffffff1661098461179e565b73ffffffffffffffffffffffffffffffffffffffff1614806109b357506109b2816109ad61179e565b611645565b5b6109f2576040517f08c379a00000000000000000000000000000000000000000000000000000000081526004016109e990614423565b60405180910390fd5b6109fc83836117a6565b505050565b600081610a0d90614480565b9050610a2381600f61185f90919063ffffffff16565b15610a63576040517f08c379a0000000000000000000000000000000000000000000000000000000008152600401610a5a90614533565b60405180910390fd5b610a7781600f61187690919063ffffffff16565b505050565b6000600a80549050905090565b610a9a610a9461179e565b8261188d565b610ad9576040517f08c379a0000000000000000000000000000000000000000000000000000000008152600401610ad0906145c5565b60405180910390fd5b610ae4838383611922565b505050565b6000806000838152602001908152602001600020600101549050919050565b60608080915050919050565b610b1d82610ae9565b610b2681611b88565b610b308383611b9c565b505050565b6000610b408361120a565b8210610b81576040517f08c379a0000000000000000000000000000000000000000000000000000000008152600401610b7890614657565b60405180910390fd5b600860008473ffffffffffffffffffffffffffffffffffffffff1673ffffffffffffffffffffffffffffffffffffffff168152602001908152602001600020600083815260200190815260200160002054905092915050565b60606000610be8600f611bd0565b905060008167ffffffffffffffff811115610c0657610c056136ff565b5b604051908082528060200260200182016040528015610c3957816020015b6060815260200190600190039081610c245790505b50905060005b82811015610cab57610c5b81600f611be590919063ffffffff16565b604051602001610c6b9190614698565b604051602081830303815290604052828281518110610c8d57610c8c6146b3565b5b60200260200101819052508080610ca390614711565b915050610c3f565b50809250505090565b610cbc61179e565b73ffffffffffffffffffffffffffffffffffffffff168173ffffffffffffffffffffffffffffffffffffffff1614610d29576040517f08c379a0000000000000000000000000000000000000000000000000000000008152600401610d20906147cb565b60405180910390fd5b610d338282611bfc565b5050565b610d687f65d7a28e3265b37a6474929f336521b332c1681b933f6cb9f3376673440d862a610d6361179e565b611371565b610da7576040517f08c379a0000000000000000000000000000000000000000000000000000000008152600401610d9e9061485d565b60405180910390fd5b610daf611c30565b565b610dcc8383836040518060200160405280600081525061148a565b505050565b610de2610ddc61179e565b8261188d565b610e21576040517f08c379a0000000000000000000000000000000000000000000000000000000008152600401610e18906145c5565b60405180910390fd5b610e2a81611c93565b50565b6060808091505092915050565b6000610e44610a7c565b8210610e85576040517f08c379a0000000000000000000000000000000000000000000000000000000008152600401610e7c906148ef565b60405180910390fd5b600a8281548110610e9957610e986146b3565b5b90600052602060002001549050919050565b6000600c60009054906101000a900460ff16905090565b600082610ece90614480565b9050610ee481600f61185f90919063ffffffff16565b610f23576040517f08c379a0000000000000000000000000000000000000000000000000000000008152600401610f1a9061495b565b60405180910390fd5b8160ff166011600086815260200190815260200160002060008381526020019081526020016000208190555082604051610f5d91906149b7565b6040518091039020847f329ce9f094f4ccb491a2b2cc83be8dba6fae4474a71ffc3e838492a3971b314b84604051610f9591906149dd565b60405180910390a350505050565b6000806004600084815260200190815260200160002060009054906101000a900473ffffffffffffffffffffffffffffffffffffffff169050600073ffffffffffffffffffffffffffffffffffffffff168173ffffffffffffffffffffffffffffffffffffffff160361104b576040517f08c379a000000000000000000000000000000000000000000000000000000000815260040161104290614a44565b60405180910390fd5b80915050919050565b61105d82610fa3565b50600081519050600081116110a7576040517f08c379a000000000000000000000000000000000000000000000000000000000815260040161109e90614ab0565b60405180910390fd5b60005b818110156111705760658382815181106110c7576110c66146b3565b5b60200260200101516020015160ff1610611116576040517f08c379a000000000000000000000000000000000000000000000000000000000815260040161110d90614b1c565b60405180910390fd5b61115d8484838151811061112d5761112c6146b3565b5b60200260200101516000015185848151811061114c5761114b6146b3565b5b602002602001015160200151610ec2565b808061116890614711565b9150506110aa565b50505050565b6111a77f9f2df0fed2c77648de5860a4cc508cd0818c85b8b8a1ab4ceeef8d981c8956a66111a261179e565b611371565b6111e6576040517f08c379a00000000000000000000000000000000000000000000000000000000081526004016111dd90614bae565b60405180910390fd5b6111f9816111f4600d611db0565b611dbe565b611203600d611f97565b50565b5050565b60008073ffffffffffffffffffffffffffffffffffffffff168273ffffffffffffffffffffffffffffffffffffffff160361127a576040517f08c379a000000000000000000000000000000000000000000000000000000000815260040161127190614c40565b60405180910390fd5b600560008373ffffffffffffffffffffffffffffffffffffffff1673ffffffffffffffffffffffffffffffffffffffff168152602001908152602001600020549050919050565b6112f27f65d7a28e3265b37a6474929f336521b332c1681b933f6cb9f3376673440d862a6112ed61179e565b611371565b611331576040517f08c379a000000000000000000000000000000000000000000000000000000000815260040161132890614cd2565b60405180910390fd5b611339611fad565b565b6000611362826001600086815260200190815260200160002061201090919063ffffffff16565b905092915050565b6000919050565b600080600084815260200190815260200160002060000160008373ffffffffffffffffffffffffffffffffffffffff1673ffffffffffffffffffffffffffffffffffffffff16815260200190815260200160002060009054906101000a900460ff16905092915050565b6060600380546113ea906142ee565b80601f0160208091040260200160405190810160405280929190818152602001828054611416906142ee565b80156114635780601f1061143857610100808354040283529160200191611463565b820191906000526020600020905b81548152906001019060200180831161144657829003601f168201915b5050505050905090565b6000801b81565b61148661147f61179e565b838361202a565b5050565b61149b61149561179e565b8361188d565b6114da576040517f08c379a00000000000000000000000000000000000000000000000000000000081526004016114d1906145c5565b60405180910390fd5b6114e684848484612196565b50505050565b60658160ff1610611532576040517f08c379a000000000000000000000000000000000000000000000000000000000815260040161152990614b1c565b60405180910390fd5b61153d838383610ec2565b505050565b606061154d82611753565b60006115576121f2565b9050600081511161157757604051806020016040528060008152506115a2565b8061158184612284565b604051602001611592929190614cf2565b6040516020818303038152906040525b915050919050565b60006115c7600160008481526020019081526020016000206123e4565b9050919050565b606080809150509392505050565b7f9f2df0fed2c77648de5860a4cc508cd0818c85b8b8a1ab4ceeef8d981c8956a681565b61160982610ae9565b61161281611b88565b61161c8383611bfc565b505050565b7f65d7a28e3265b37a6474929f336521b332c1681b933f6cb9f3376673440d862a81565b6000600760008473ffffffffffffffffffffffffffffffffffffffff1673ffffffffffffffffffffffffffffffffffffffff16815260200190815260200160002060008373ffffffffffffffffffffffffffffffffffffffff1673ffffffffffffffffffffffffffffffffffffffff16815260200190815260200160002060009054906101000a900460ff16905092915050565b60007f780e9d63000000000000000000000000000000000000000000000000000000007bffffffffffffffffffffffffffffffffffffffffffffffffffffffff1916827bffffffffffffffffffffffffffffffffffffffffffffffffffffffff1916148061174c575061174b826123f9565b5b9050919050565b61175c816124db565b61179b576040517f08c379a000000000000000000000000000000000000000000000000000000000815260040161179290614a44565b60405180910390fd5b50565b600033905090565b816006600083815260200190815260200160002060006101000a81548173ffffffffffffffffffffffffffffffffffffffff021916908373ffffffffffffffffffffffffffffffffffffffff160217905550808273ffffffffffffffffffffffffffffffffffffffff1661181983610fa3565b73ffffffffffffffffffffffffffffffffffffffff167f8c5be1e5ebec7d5bd14f71427d1e84f3dd0314c0f7b2291e5b200ac8c7c3b92560405160405180910390a45050565b600061186e8360000183612547565b905092915050565b6000611885836000018361256a565b905092915050565b60008061189983610fa3565b90508073ffffffffffffffffffffffffffffffffffffffff168473ffffffffffffffffffffffffffffffffffffffff1614806118db57506118da8185611645565b5b8061191957508373ffffffffffffffffffffffffffffffffffffffff16611901846108a4565b73ffffffffffffffffffffffffffffffffffffffff16145b91505092915050565b8273ffffffffffffffffffffffffffffffffffffffff1661194282610fa3565b73ffffffffffffffffffffffffffffffffffffffff1614611998576040517f08c379a000000000000000000000000000000000000000000000000000000000815260040161198f90614d88565b60405180910390fd5b600073ffffffffffffffffffffffffffffffffffffffff168273ffffffffffffffffffffffffffffffffffffffff1603611a07576040517f08c379a00000000000000000000000000000000000000000000000000000000081526004016119fe90614e1a565b60405180910390fd5b611a128383836125da565b611a1d6000826117a6565b6001600560008573ffffffffffffffffffffffffffffffffffffffff1673ffffffffffffffffffffffffffffffffffffffff1681526020019081526020016000206000828254611a6d9190614e3a565b925050819055506001600560008473ffffffffffffffffffffffffffffffffffffffff1673ffffffffffffffffffffffffffffffffffffffff1681526020019081526020016000206000828254611ac49190614e6e565b92505081905550816004600083815260200190815260200160002060006101000a81548173ffffffffffffffffffffffffffffffffffffffff021916908373ffffffffffffffffffffffffffffffffffffffff160217905550808273ffffffffffffffffffffffffffffffffffffffff168473ffffffffffffffffffffffffffffffffffffffff167fddf252ad1be2c89b69c2b068fc378daa952ba7f163c4a11628f55a4df523b3ef60405160405180910390a4611b838383836125ea565b505050565b611b9981611b9461179e565b6125ef565b50565b611ba6828261268c565b611bcb816001600085815260200190815260200160002061276c90919063ffffffff16565b505050565b6000611bde8260000161279c565b9050919050565b6000611bf483600001836127ad565b905092915050565b611c0682826127d8565b611c2b81600160008581526020019081526020016000206128b990919063ffffffff16565b505050565b611c386128e9565b6000600c60006101000a81548160ff0219169083151502179055507f5db9ee0a495bf2e6ff9c91a7834c1ba4fdd244a5e8aa4e537bd38aeae4b073aa611c7c61179e565b604051611c89919061366e565b60405180910390a1565b6000611c9e82610fa3565b9050611cac816000846125da565b611cb76000836117a6565b6001600560008373ffffffffffffffffffffffffffffffffffffffff1673ffffffffffffffffffffffffffffffffffffffff1681526020019081526020016000206000828254611d079190614e3a565b925050819055506004600083815260200190815260200160002060006101000a81549073ffffffffffffffffffffffffffffffffffffffff021916905581600073ffffffffffffffffffffffffffffffffffffffff168273ffffffffffffffffffffffffffffffffffffffff167fddf252ad1be2c89b69c2b068fc378daa952ba7f163c4a11628f55a4df523b3ef60405160405180910390a4611dac816000846125ea565b5050565b600081600001549050919050565b600073ffffffffffffffffffffffffffffffffffffffff168273ffffffffffffffffffffffffffffffffffffffff1603611e2d576040517f08c379a0000000000000000000000000000000000000000000000000000000008152600401611e2490614eee565b60405180910390fd5b611e36816124db565b15611e76576040517f08c379a0000000000000000000000000000000000000000000000000000000008152600401611e6d90614f5a565b60405180910390fd5b611e82600083836125da565b6001600560008473ffffffffffffffffffffffffffffffffffffffff1673ffffffffffffffffffffffffffffffffffffffff1681526020019081526020016000206000828254611ed29190614e6e565b92505081905550816004600083815260200190815260200160002060006101000a81548173ffffffffffffffffffffffffffffffffffffffff021916908373ffffffffffffffffffffffffffffffffffffffff160217905550808273ffffffffffffffffffffffffffffffffffffffff16600073ffffffffffffffffffffffffffffffffffffffff167fddf252ad1be2c89b69c2b068fc378daa952ba7f163c4a11628f55a4df523b3ef60405160405180910390a4611f93600083836125ea565b5050565b6001816000016000828254019250508190555050565b611fb5612932565b6001600c60006101000a81548160ff0219169083151502179055507f62e78cea01bee320cd4e420270b5ea74000d11b0c9f74754ebdbfc544b05a258611ff961179e565b604051612006919061366e565b60405180910390a1565b600061201f83600001836127ad565b60001c905092915050565b8173ffffffffffffffffffffffffffffffffffffffff168373ffffffffffffffffffffffffffffffffffffffff1603612098576040517f08c379a000000000000000000000000000000000000000000000000000000000815260040161208f90614fc6565b60405180910390fd5b80600760008573ffffffffffffffffffffffffffffffffffffffff1673ffffffffffffffffffffffffffffffffffffffff16815260200190815260200160002060008473ffffffffffffffffffffffffffffffffffffffff1673ffffffffffffffffffffffffffffffffffffffff16815260200190815260200160002060006101000a81548160ff0219169083151502179055508173ffffffffffffffffffffffffffffffffffffffff168373ffffffffffffffffffffffffffffffffffffffff167f17307eab39ab6107e8899845ad3d59bd9653f200f220920489ca2b5937696c318360405161218991906134fd565b60405180910390a3505050565b6121a1848484611922565b6121ad8484848461297c565b6121ec576040517f08c379a00000000000000000000000000000000000000000000000000000000081526004016121e390615058565b60405180910390fd5b50505050565b6060600e8054612201906142ee565b80601f016020809104026020016040519081016040528092919081815260200182805461222d906142ee565b801561227a5780601f1061224f5761010080835404028352916020019161227a565b820191906000526020600020905b81548152906001019060200180831161225d57829003601f168201915b5050505050905090565b6060600082036122cb576040518060400160405280600181526020017f300000000000000000000000000000000000000000000000000000000000000081525090506123df565b600082905060005b600082146122fd5780806122e690614711565b915050600a826122f691906150a7565b91506122d3565b60008167ffffffffffffffff811115612319576123186136ff565b5b6040519080825280601f01601f19166020018201604052801561234b5781602001600182028036833780820191505090505b5090505b600085146123d8576001826123649190614e3a565b9150600a8561237391906150d8565b603061237f9190614e6e565b60f81b818381518110612395576123946146b3565b5b60200101907effffffffffffffffffffffffffffffffffffffffffffffffffffffffffffff1916908160001a905350600a856123d191906150a7565b945061234f565b8093505050505b919050565b60006123f28260000161279c565b9050919050565b60007f80ac58cd000000000000000000000000000000000000000000000000000000007bffffffffffffffffffffffffffffffffffffffffffffffffffffffff1916827bffffffffffffffffffffffffffffffffffffffffffffffffffffffff191614806124c457507f5b5e139f000000000000000000000000000000000000000000000000000000007bffffffffffffffffffffffffffffffffffffffffffffffffffffffff1916827bffffffffffffffffffffffffffffffffffffffffffffffffffffffff1916145b806124d457506124d382612b03565b5b9050919050565b60008073ffffffffffffffffffffffffffffffffffffffff166004600084815260200190815260200160002060009054906101000a900473ffffffffffffffffffffffffffffffffffffffff1673ffffffffffffffffffffffffffffffffffffffff1614159050919050565b600080836001016000848152602001908152602001600020541415905092915050565b60006125768383612547565b6125cf5782600001829080600181540180825580915050600190039060005260206000200160009091909190915055826000018054905083600101600084815260200190815260200160002081905550600190506125d4565b600090505b92915050565b6125e5838383612b7d565b505050565b505050565b6125f98282611371565b6126885761261e8173ffffffffffffffffffffffffffffffffffffffff166014612bd5565b61262c8360001c6020612bd5565b60405160200161263d9291906151a1565b6040516020818303038152906040526040517f08c379a000000000000000000000000000000000000000000000000000000000815260040161267f91906135a8565b60405180910390fd5b5050565b6126968282611371565b61276857600160008084815260200190815260200160002060000160008373ffffffffffffffffffffffffffffffffffffffff1673ffffffffffffffffffffffffffffffffffffffff16815260200190815260200160002060006101000a81548160ff02191690831515021790555061270d61179e565b73ffffffffffffffffffffffffffffffffffffffff168173ffffffffffffffffffffffffffffffffffffffff16837f2f8788117e7eff1d82e926ec794901d17c78024a50270940304540a733656f0d60405160405180910390a45b5050565b6000612794836000018373ffffffffffffffffffffffffffffffffffffffff1660001b61256a565b905092915050565b600081600001805490509050919050565b60008260000182815481106127c5576127c46146b3565b5b9060005260206000200154905092915050565b6127e28282611371565b156128b557600080600084815260200190815260200160002060000160008373ffffffffffffffffffffffffffffffffffffffff1673ffffffffffffffffffffffffffffffffffffffff16815260200190815260200160002060006101000a81548160ff02191690831515021790555061285a61179e565b73ffffffffffffffffffffffffffffffffffffffff168173ffffffffffffffffffffffffffffffffffffffff16837ff6391f5c32d9c69d2a47ea670b442974b53935d1edc7fd64eb21e047a839171b60405160405180910390a45b5050565b60006128e1836000018373ffffffffffffffffffffffffffffffffffffffff1660001b612e11565b905092915050565b6128f1610eab565b612930576040517f08c379a000000000000000000000000000000000000000000000000000000000815260040161292790615227565b60405180910390fd5b565b61293a610eab565b1561297a576040517f08c379a000000000000000000000000000000000000000000000000000000000815260040161297190615293565b60405180910390fd5b565b600061299d8473ffffffffffffffffffffffffffffffffffffffff16612f25565b15612af6578373ffffffffffffffffffffffffffffffffffffffff1663150b7a026129c661179e565b8786866040518563ffffffff1660e01b81526004016129e894939291906152fd565b6020604051808303816000875af1925050508015612a2457506040513d601f19601f82011682018060405250810190612a21919061535e565b60015b612aa6573d8060008114612a54576040519150601f19603f3d011682016040523d82523d6000602084013e612a59565b606091505b506000815103612a9e576040517f08c379a0000000000000000000000000000000000000000000000000000000008152600401612a9590615058565b60405180910390fd5b805181602001fd5b63150b7a0260e01b7bffffffffffffffffffffffffffffffffffffffffffffffffffffffff1916817bffffffffffffffffffffffffffffffffffffffffffffffffffffffff191614915050612afb565b600190505b949350505050565b60007f5a05180f000000000000000000000000000000000000000000000000000000007bffffffffffffffffffffffffffffffffffffffffffffffffffffffff1916827bffffffffffffffffffffffffffffffffffffffffffffffffffffffff19161480612b765750612b7582612f48565b5b9050919050565b612b88838383612fc2565b612b90610eab565b15612bd0576040517f08c379a0000000000000000000000000000000000000000000000000000000008152600401612bc7906153fd565b60405180910390fd5b505050565b606060006002836002612be8919061541d565b612bf29190614e6e565b67ffffffffffffffff811115612c0b57612c0a6136ff565b5b6040519080825280601f01601f191660200182016040528015612c3d5781602001600182028036833780820191505090505b5090507f300000000000000000000000000000000000000000000000000000000000000081600081518110612c7557612c746146b3565b5b60200101907effffffffffffffffffffffffffffffffffffffffffffffffffffffffffffff1916908160001a9053507f780000000000000000000000000000000000000000000000000000000000000081600181518110612cd957612cd86146b3565b5b60200101907effffffffffffffffffffffffffffffffffffffffffffffffffffffffffffff1916908160001a90535060006001846002612d19919061541d565b612d239190614e6e565b90505b6001811115612dc3577f3031323334353637383961626364656600000000000000000000000000000000600f861660108110612d6557612d646146b3565b5b1a60f81b828281518110612d7c57612d7b6146b3565b5b60200101907effffffffffffffffffffffffffffffffffffffffffffffffffffffffffffff1916908160001a905350600485901c945080612dbc9061545f565b9050612d26565b5060008414612e07576040517f08c379a0000000000000000000000000000000000000000000000000000000008152600401612dfe906154d4565b60405180910390fd5b8091505092915050565b60008083600101600084815260200190815260200160002054905060008114612f19576000600182612e439190614e3a565b9050600060018660000180549050612e5b9190614e3a565b9050818114612eca576000866000018281548110612e7c57612e7b6146b3565b5b9060005260206000200154905080876000018481548110612ea057612e9f6146b3565b5b90600052602060002001819055508387600101600083815260200190815260200160002081905550505b85600001805480612ede57612edd6154f4565b5b600190038181906000526020600020016000905590558560010160008681526020019081526020016000206000905560019350505050612f1f565b60009150505b92915050565b6000808273ffffffffffffffffffffffffffffffffffffffff163b119050919050565b60007f7965db0b000000000000000000000000000000000000000000000000000000007bffffffffffffffffffffffffffffffffffffffffffffffffffffffff1916827bffffffffffffffffffffffffffffffffffffffffffffffffffffffff19161480612fbb5750612fba826130d4565b5b9050919050565b612fcd83838361313e565b600073ffffffffffffffffffffffffffffffffffffffff168373ffffffffffffffffffffffffffffffffffffffff160361300f5761300a81613143565b61304e565b8173ffffffffffffffffffffffffffffffffffffffff168373ffffffffffffffffffffffffffffffffffffffff161461304d5761304c838261318c565b5b5b600073ffffffffffffffffffffffffffffffffffffffff168273ffffffffffffffffffffffffffffffffffffffff16036130905761308b816132f9565b6130cf565b8273ffffffffffffffffffffffffffffffffffffffff168273ffffffffffffffffffffffffffffffffffffffff16146130ce576130cd82826133ca565b5b5b505050565b60007f01ffc9a7000000000000000000000000000000000000000000000000000000007bffffffffffffffffffffffffffffffffffffffffffffffffffffffff1916827bffffffffffffffffffffffffffffffffffffffffffffffffffffffff1916149050919050565b505050565b600a80549050600b600083815260200190815260200160002081905550600a81908060018154018082558091505060019003906000526020600020016000909190919091505550565b600060016131998461120a565b6131a39190614e3a565b9050600060096000848152602001908152602001600020549050818114613288576000600860008673ffffffffffffffffffffffffffffffffffffffff1673ffffffffffffffffffffffffffffffffffffffff168152602001908152602001600020600084815260200190815260200160002054905080600860008773ffffffffffffffffffffffffffffffffffffffff1673ffffffffffffffffffffffffffffffffffffffff168152602001908152602001600020600084815260200190815260200160002081905550816009600083815260200190815260200160002081905550505b6009600084815260200190815260200160002060009055600860008573ffffffffffffffffffffffffffffffffffffffff1673ffffffffffffffffffffffffffffffffffffffff16815260200190815260200160002060008381526020019081526020016000206000905550505050565b60006001600a8054905061330d9190614e3a565b90506000600b60008481526020019081526020016000205490506000600a838154811061333d5761333c6146b3565b5b9060005260206000200154905080600a838154811061335f5761335e6146b3565b5b906000526020600020018190555081600b600083815260200190815260200160002081905550600b600085815260200190815260200160002060009055600a8054806133ae576133ad6154f4565b5b6001900381819060005260206000200160009055905550505050565b60006133d58361120a565b905081600860008573ffffffffffffffffffffffffffffffffffffffff1673ffffffffffffffffffffffffffffffffffffffff168152602001908152602001600020600083815260200190815260200160002081905550806009600084815260200190815260200160002081905550505050565b6000604051905090565b600080fd5b600080fd5b60007fffffffff0000000000000000000000000000000000000000000000000000000082169050919050565b6134928161345d565b811461349d57600080fd5b50565b6000813590506134af81613489565b92915050565b6000602082840312156134cb576134ca613453565b5b60006134d9848285016134a0565b91505092915050565b60008115159050919050565b6134f7816134e2565b82525050565b600060208201905061351260008301846134ee565b92915050565b600081519050919050565b600082825260208201905092915050565b60005b83811015613552578082015181840152602081019050613537565b60008484015250505050565b6000601f19601f8301169050919050565b600061357a82613518565b6135848185613523565b9350613594818560208601613534565b61359d8161355e565b840191505092915050565b600060208201905081810360008301526135c2818461356f565b905092915050565b6000819050919050565b6135dd816135ca565b81146135e857600080fd5b50565b6000813590506135fa816135d4565b92915050565b60006020828403121561361657613615613453565b5b6000613624848285016135eb565b91505092915050565b600073ffffffffffffffffffffffffffffffffffffffff82169050919050565b60006136588261362d565b9050919050565b6136688161364d565b82525050565b6000602082019050613683600083018461365f565b92915050565b6136928161364d565b811461369d57600080fd5b50565b6000813590506136af81613689565b92915050565b600080604083850312156136cc576136cb613453565b5b60006136da858286016136a0565b92505060206136eb858286016135eb565b9150509250929050565b600080fd5b600080fd5b7f4e487b7100000000000000000000000000000000000000000000000000000000600052604160045260246000fd5b6137378261355e565b810181811067ffffffffffffffff82111715613756576137556136ff565b5b80604052505050565b6000613769613449565b9050613775828261372e565b919050565b600067ffffffffffffffff821115613795576137946136ff565b5b61379e8261355e565b9050602081019050919050565b82818337600083830152505050565b60006137cd6137c88461377a565b61375f565b9050828152602081018484840111156137e9576137e86136fa565b5b6137f48482856137ab565b509392505050565b600082601f830112613811576138106136f5565b5b81356138218482602086016137ba565b91505092915050565b6000602082840312156138405761383f613453565b5b600082013567ffffffffffffffff81111561385e5761385d613458565b5b61386a848285016137fc565b91505092915050565b61387c816135ca565b82525050565b60006020820190506138976000830184613873565b92915050565b6000806000606084860312156138b6576138b5613453565b5b60006138c4868287016136a0565b93505060206138d5868287016136a0565b92505060406138e6868287016135eb565b9150509250925092565b6000819050919050565b613903816138f0565b811461390e57600080fd5b50565b600081359050613920816138fa565b92915050565b60006020828403121561393c5761393b613453565b5b600061394a84828501613911565b91505092915050565b61395c816138f0565b82525050565b60006020820190506139776000830184613953565b92915050565b600081519050919050565b600082825260208201905092915050565b6000819050602082019050919050565b600082825260208201905092915050565b60006139c582613518565b6139cf81856139a9565b93506139df818560208601613534565b6139e88161355e565b840191505092915050565b600060ff82169050919050565b613a09816139f3565b82525050565b60006040830160008301518482036000860152613a2c82826139ba565b9150506020830151613a416020860182613a00565b508091505092915050565b6000613a588383613a0f565b905092915050565b6000602082019050919050565b6000613a788261397d565b613a828185613988565b935083602082028501613a9485613999565b8060005b85811015613ad05784840389528151613ab18582613a4c565b9450613abc83613a60565b925060208a01995050600181019050613a98565b50829750879550505050505092915050565b60006020820190508181036000830152613afc8184613a6d565b905092915050565b60008060408385031215613b1b57613b1a613453565b5b6000613b2985828601613911565b9250506020613b3a858286016136a0565b9150509250929050565b600081519050919050565b600082825260208201905092915050565b6000819050602082019050919050565b6000613b7c83836139ba565b905092915050565b6000602082019050919050565b6000613b9c82613b44565b613ba68185613b4f565b935083602082028501613bb885613b60565b8060005b85811015613bf45784840389528151613bd58582613b70565b9450613be083613b84565b925060208a01995050600181019050613bbc565b50829750879550505050505092915050565b60006020820190508181036000830152613c208184613b91565b905092915050565b60008060408385031215613c3f57613c3e613453565b5b600083013567ffffffffffffffff811115613c5d57613c5c613458565b5b613c69858286016137fc565b9250506020613c7a858286016135eb565b9150509250929050565b600081519050919050565b600082825260208201905092915050565b6000819050602082019050919050565b613cb9816135ca565b82525050565b6000613ccb8383613cb0565b60208301905092915050565b6000602082019050919050565b6000613cef82613c84565b613cf98185613c8f565b9350613d0483613ca0565b8060005b83811015613d35578151613d1c8882613cbf565b9750613d2783613cd7565b925050600181019050613d08565b5085935050505092915050565b60006020820190508181036000830152613d5c8184613ce4565b905092915050565b613d6d816139f3565b8114613d7857600080fd5b50565b600081359050613d8a81613d64565b92915050565b600080600060608486031215613da957613da8613453565b5b6000613db7868287016135eb565b935050602084013567ffffffffffffffff811115613dd857613dd7613458565b5b613de4868287016137fc565b9250506040613df586828701613d7b565b9150509250925092565b600067ffffffffffffffff821115613e1a57613e196136ff565b5b602082029050602081019050919050565b600080fd5b600080fd5b600080fd5b600060408284031215613e5057613e4f613e30565b5b613e5a604061375f565b9050600082013567ffffffffffffffff811115613e7a57613e79613e35565b5b613e86848285016137fc565b6000830152506020613e9a84828501613d7b565b60208301525092915050565b6000613eb9613eb484613dff565b61375f565b90508083825260208201905060208402830185811115613edc57613edb613e2b565b5b835b81811015613f2357803567ffffffffffffffff811115613f0157613f006136f5565b5b808601613f0e8982613e3a565b85526020850194505050602081019050613ede565b5050509392505050565b600082601f830112613f4257613f416136f5565b5b8135613f52848260208601613ea6565b91505092915050565b60008060408385031215613f7257613f71613453565b5b6000613f80858286016135eb565b925050602083013567ffffffffffffffff811115613fa157613fa0613458565b5b613fad85828601613f2d565b9150509250929050565b600060208284031215613fcd57613fcc613453565b5b6000613fdb848285016136a0565b91505092915050565b60008060408385031215613ffb57613ffa613453565b5b6000614009858286016135eb565b925050602083013567ffffffffffffffff81111561402a57614029613458565b5b614036858286016137fc565b9150509250929050565b6000806040838503121561405757614056613453565b5b600061406585828601613911565b9250506020614076858286016135eb565b9150509250929050565b614089816134e2565b811461409457600080fd5b50565b6000813590506140a681614080565b92915050565b600080604083850312156140c3576140c2613453565b5b60006140d1858286016136a0565b92505060206140e285828601614097565b9150509250929050565b600067ffffffffffffffff821115614107576141066136ff565b5b6141108261355e565b9050602081019050919050565b600061413061412b846140ec565b61375f565b90508281526020810184848401111561414c5761414b6136fa565b5b6141578482856137ab565b509392505050565b600082601f830112614174576141736136f5565b5b813561418484826020860161411d565b91505092915050565b600080600080608085870312156141a7576141a6613453565b5b60006141b5878288016136a0565b94505060206141c6878288016136a0565b93505060406141d7878288016135eb565b925050606085013567ffffffffffffffff8111156141f8576141f7613458565b5b6142048782880161415f565b91505092959194509250565b60008060006060848603121561422957614228613453565b5b600084013567ffffffffffffffff81111561424757614246613458565b5b614253868287016137fc565b9350506020614264868287016135eb565b9250506040614275868287016135eb565b9150509250925092565b6000806040838503121561429657614295613453565b5b60006142a4858286016136a0565b92505060206142b5858286016136a0565b9150509250929050565b7f4e487b7100000000000000000000000000000000000000000000000000000000600052602260045260246000fd5b6000600282049050600182168061430657607f821691505b602082108103614319576143186142bf565b5b50919050565b7f4552433732313a20617070726f76616c20746f2063757272656e74206f776e6560008201527f7200000000000000000000000000000000000000000000000000000000000000602082015250565b600061437b602183613523565b91506143868261431f565b604082019050919050565b600060208201905081810360008301526143aa8161436e565b9050919050565b7f4552433732313a20617070726f76652063616c6c6572206973206e6f7420746f60008201527f6b656e206f776e6572206e6f7220617070726f76656420666f7220616c6c0000602082015250565b600061440d603e83613523565b9150614418826143b1565b604082019050919050565b6000602082019050818103600083015261443c81614400565b9050919050565b600081519050919050565b6000819050602082019050919050565b600061446a82516138f0565b80915050919050565b600082821b905092915050565b600061448b82614443565b826144958461444e565b90506144a08161445e565b925060208210156144e0576144db7fffffffffffffffffffffffffffffffffffffffffffffffffffffffffffffffff83602003600802614473565b831692505b5050919050565b7f416c726561647920696e636c7564656420636f6c6f7200000000000000000000600082015250565b600061451d601683613523565b9150614528826144e7565b602082019050919050565b6000602082019050818103600083015261454c81614510565b9050919050565b7f4552433732313a2063616c6c6572206973206e6f7420746f6b656e206f776e6560008201527f72206e6f7220617070726f766564000000000000000000000000000000000000602082015250565b60006145af602e83613523565b91506145ba82614553565b604082019050919050565b600060208201905081810360008301526145de816145a2565b9050919050565b7f455243373231456e756d657261626c653a206f776e657220696e646578206f7560008201527f74206f6620626f756e6473000000000000000000000000000000000000000000602082015250565b6000614641602b83613523565b915061464c826145e5565b604082019050919050565b6000602082019050818103600083015261467081614634565b9050919050565b6000819050919050565b61469261468d826138f0565b614677565b82525050565b60006146a48284614681565b60208201915081905092915050565b7f4e487b7100000000000000000000000000000000000000000000000000000000600052603260045260246000fd5b7f4e487b7100000000000000000000000000000000000000000000000000000000600052601160045260246000fd5b600061471c826135ca565b91507fffffffffffffffffffffffffffffffffffffffffffffffffffffffffffffffff820361474e5761474d6146e2565b5b600182019050919050565b7f416363657373436f6e74726f6c3a2063616e206f6e6c792072656e6f756e636560008201527f20726f6c657320666f722073656c660000000000000000000000000000000000602082015250565b60006147b5602f83613523565b91506147c082614759565b604082019050919050565b600060208201905081810360008301526147e4816147a8565b9050919050565b7f4552433732315072657365744d696e7465725061757365724175746f49643a2060008201527f6d75737420686176652070617573657220726f6c6520746f20756e7061757365602082015250565b6000614847604083613523565b9150614852826147eb565b604082019050919050565b600060208201905081810360008301526148768161483a565b9050919050565b7f455243373231456e756d657261626c653a20676c6f62616c20696e646578206f60008201527f7574206f6620626f756e64730000000000000000000000000000000000000000602082015250565b60006148d9602c83613523565b91506148e48261487d565b604082019050919050565b60006020820190508181036000830152614908816148cc565b9050919050565b7f556e7265636f676e697a61626c6520636f6c6f72000000000000000000000000600082015250565b6000614945601483613523565b91506149508261490f565b602082019050919050565b6000602082019050818103600083015261497481614938565b9050919050565b600081905092915050565b600061499182613518565b61499b818561497b565b93506149ab818560208601613534565b80840191505092915050565b60006149c38284614986565b915081905092915050565b6149d7816139f3565b82525050565b60006020820190506149f260008301846149ce565b92915050565b7f4552433732313a20696e76616c696420746f6b656e2049440000000000000000600082015250565b6000614a2e601883613523565b9150614a39826149f8565b602082019050919050565b60006020820190508181036000830152614a5d81614a21565b9050919050565b7f4e6f20636f6c6f72207370656369666965642e00000000000000000000000000600082015250565b6000614a9a601383613523565b9150614aa582614a64565b602082019050919050565b60006020820190508181036000830152614ac981614a8d565b9050919050565b7f4d617820666f722073636f726520697320313030000000000000000000000000600082015250565b6000614b06601483613523565b9150614b1182614ad0565b602082019050919050565b60006020820190508181036000830152614b3581614af9565b9050919050565b7f4552433732315072657365744d696e7465725061757365724175746f49643a2060008201527f6d7573742068617665206d696e74657220726f6c6520746f206d696e74000000602082015250565b6000614b98603d83613523565b9150614ba382614b3c565b604082019050919050565b60006020820190508181036000830152614bc781614b8b565b9050919050565b7f4552433732313a2061646472657373207a65726f206973206e6f74206120766160008201527f6c6964206f776e65720000000000000000000000000000000000000000000000602082015250565b6000614c2a602983613523565b9150614c3582614bce565b604082019050919050565b60006020820190508181036000830152614c5981614c1d565b9050919050565b7f4552433732315072657365744d696e7465725061757365724175746f49643a2060008201527f6d75737420686176652070617573657220726f6c6520746f2070617573650000602082015250565b6000614cbc603e83613523565b9150614cc782614c60565b604082019050919050565b60006020820190508181036000830152614ceb81614caf565b9050919050565b6000614cfe8285614986565b9150614d0a8284614986565b91508190509392505050565b7f4552433732313a207472616e736665722066726f6d20696e636f72726563742060008201527f6f776e6572000000000000000000000000000000000000000000000000000000602082015250565b6000614d72602583613523565b9150614d7d82614d16565b604082019050919050565b60006020820190508181036000830152614da181614d65565b9050919050565b7f4552433732313a207472616e7366657220746f20746865207a65726f2061646460008201527f7265737300000000000000000000000000000000000000000000000000000000602082015250565b6000614e04602483613523565b9150614e0f82614da8565b604082019050919050565b60006020820190508181036000830152614e3381614df7565b9050919050565b6000614e45826135ca565b9150614e50836135ca565b9250828203905081811115614e6857614e676146e2565b5b92915050565b6000614e79826135ca565b9150614e84836135ca565b9250828201905080821115614e9c57614e9b6146e2565b5b92915050565b7f4552433732313a206d696e7420746f20746865207a65726f2061646472657373600082015250565b6000614ed8602083613523565b9150614ee382614ea2565b602082019050919050565b60006020820190508181036000830152614f0781614ecb565b9050919050565b7f4552433732313a20746f6b656e20616c7265616479206d696e74656400000000600082015250565b6000614f44601c83613523565b9150614f4f82614f0e565b602082019050919050565b60006020820190508181036000830152614f7381614f37565b9050919050565b7f4552433732313a20617070726f766520746f2063616c6c657200000000000000600082015250565b6000614fb0601983613523565b9150614fbb82614f7a565b602082019050919050565b60006020820190508181036000830152614fdf81614fa3565b9050919050565b7f4552433732313a207472616e7366657220746f206e6f6e20455243373231526560008201527f63656976657220696d706c656d656e7465720000000000000000000000000000602082015250565b6000615042603283613523565b915061504d82614fe6565b604082019050919050565b6000602082019050818103600083015261507181615035565b9050919050565b7f4e487b7100000000000000000000000000000000000000000000000000000000600052601260045260246000fd5b60006150b2826135ca565b91506150bd836135ca565b9250826150cd576150cc615078565b5b828204905092915050565b60006150e3826135ca565b91506150ee836135ca565b9250826150fe576150fd615078565b5b828206905092915050565b7f416363657373436f6e74726f6c3a206163636f756e7420000000000000000000600082015250565b600061513f60178361497b565b915061514a82615109565b601782019050919050565b7f206973206d697373696e6720726f6c6520000000000000000000000000000000600082015250565b600061518b60118361497b565b915061519682615155565b601182019050919050565b60006151ac82615132565b91506151b88285614986565b91506151c38261517e565b91506151cf8284614986565b91508190509392505050565b7f5061757361626c653a206e6f7420706175736564000000000000000000000000600082015250565b6000615211601483613523565b915061521c826151db565b602082019050919050565b6000602082019050818103600083015261524081615204565b9050919050565b7f5061757361626c653a2070617573656400000000000000000000000000000000600082015250565b600061527d601083613523565b915061528882615247565b602082019050919050565b600060208201905081810360008301526152ac81615270565b9050919050565b600082825260208201905092915050565b60006152cf82614443565b6152d981856152b3565b93506152e9818560208601613534565b6152f28161355e565b840191505092915050565b6000608082019050615312600083018761365f565b61531f602083018661365f565b61532c6040830185613873565b818103606083015261533e81846152c4565b905095945050505050565b60008151905061535881613489565b92915050565b60006020828403121561537457615373613453565b5b600061538284828501615349565b91505092915050565b7f4552433732315061757361626c653a20746f6b656e207472616e73666572207760008201527f68696c6520706175736564000000000000000000000000000000000000000000602082015250565b60006153e7602b83613523565b91506153f28261538b565b604082019050919050565b60006020820190508181036000830152615416816153da565b9050919050565b6000615428826135ca565b9150615433836135ca565b9250828202615441816135ca565b91508282048414831517615458576154576146e2565b5b5092915050565b600061546a826135ca565b91506000820361547d5761547c6146e2565b5b600182039050919050565b7f537472696e67733a20686578206c656e67746820696e73756666696369656e74600082015250565b60006154be602083613523565b91506154c982615488565b602082019050919050565b600060208201905081810360008301526154ed816154b1565b9050919050565b7f4e487b7100000000000000000000000000000000000000000000000000000000600052603160045260246000fdfea2646970667358221220799530bc6cc97785e0a11c3cd49fd6a97f97d607cf6ade04482ef77c76ce8a4264736f6c63430008130033",
  "linkReferences": {},
  "deployedLinkReferences": {}
}