{
  "_format": "hh-sol-artifact-1",
  "contractName": "CallMeContract",
  "sourceName": "contracts/multisig/MultisigWallet.sol",
  "abi": [
    {
      "inputs": [
        {
          "internalType": "uint256",
          "name": "j",
          "type": "uint256"
        }
      ],
      "name": "callMe",
      "outputs": [],
      "stateMutability": "nonpayable",
      "type": "function"
    },
    {
      "inputs": [],
      "name": "getData",
      "outputs": [
        {
          "internalType": "bytes",
          "name": "",
          "type": "bytes"
        }
      ],
      "stateMutability": "pure",
      "type": "function"
    }
  ],
  "bytecode": "0x608060405234801561001057600080fd5b50610346806100206000396000f3fe608060405234801561001057600080fd5b50600436106100365760003560e01c80633bc5de301461003b578063e73620c314610059575b600080fd5b610043610075565b60405161005091906101b6565b60405180910390f35b610073600480360381019061006e9190610213565b61010b565b005b6060607b6040516024016100899190610292565b6040516020818303038152906040527fe73620c3000000000000000000000000000000000000000000000000000000007bffffffffffffffffffffffffffffffffffffffffffffffffffffffff19166020820180517bffffffffffffffffffffffffffffffffffffffffffffffffffffffff8381831617835250505050905090565b8060008082825461011c91906102dc565b9250508190555050565b600081519050919050565b600082825260208201905092915050565b60005b83811015610160578082015181840152602081019050610145565b60008484015250505050565b6000601f19601f8301169050919050565b600061018882610126565b6101928185610131565b93506101a2818560208601610142565b6101ab8161016c565b840191505092915050565b600060208201905081810360008301526101d0818461017d565b905092915050565b600080fd5b6000819050919050565b6101f0816101dd565b81146101fb57600080fd5b50565b60008135905061020d816101e7565b92915050565b600060208284031215610229576102286101d8565b5b6000610237848285016101fe565b91505092915050565b6000819050919050565b600060ff82169050919050565b6000819050919050565b600061027c61027761027284610240565b610257565b61024a565b9050919050565b61028c81610261565b82525050565b60006020820190506102a76000830184610283565b92915050565b7f4e487b7100000000000000000000000000000000000000000000000000000000600052601160045260246000fd5b60006102e7826101dd565b91506102f2836101dd565b925082820190508082111561030a576103096102ad565b5b9291505056fea264697066735822122087fd9994371c8d8b4b16a900e56003b88c9114cd7fafc84cd7d27db65786b89f64736f6c63430008130033",
  "linkReferences": {},
  "deployedLinkReferences": {}
}