{
  "_format": "hh-sol-artifact-1",
  "contractName": "MultisigWallet",
  "sourceName": "contracts/multisig/MultisigWallet.sol",
  "abi": [
    {
      "inputs": [
        {
          "internalType": "address[]",
          "name": "owners",
          "type": "address[]"
        },
        {
          "internalType": "uint256",
          "name": "threshold",
          "type": "uint256"
        }
      ],
      "stateMutability": "nonpayable",
      "type": "constructor"
    },
    {
      "anonymous": false,
      "inputs": [
        {
          "indexed": true,
          "internalType": "address",
          "name": "owner",
          "type": "address"
        },
        {
          "indexed": true,
          "internalType": "uint256",
          "name": "txNo",
          "type": "uint256"
        }
      ],
      "name": "Confirm",
      "type": "event"
    },
    {
      "anonymous": false,
      "inputs": [
        {
          "indexed": true,
          "internalType": "address",
          "name": "sender",
          "type": "address"
        },
        {
          "indexed": false,
          "internalType": "uint256",
          "name": "amount",
          "type": "uint256"
        },
        {
          "indexed": false,
          "internalType": "uint256",
          "name": "balance",
          "type": "uint256"
        }
      ],
      "name": "Deposit",
      "type": "event"
    },
    {
      "anonymous": false,
      "inputs": [
        {
          "indexed": true,
          "internalType": "address",
          "name": "owner",
          "type": "address"
        },
        {
          "indexed": true,
          "internalType": "uint256",
          "name": "txNo",
          "type": "uint256"
        }
      ],
      "name": "Execute",
      "type": "event"
    },
    {
      "anonymous": false,
      "inputs": [
        {
          "indexed": true,
          "internalType": "address",
          "name": "owner",
          "type": "address"
        },
        {
          "indexed": true,
          "internalType": "uint256",
          "name": "txNo",
          "type": "uint256"
        }
      ],
      "name": "Revoke",
      "type": "event"
    },
    {
      "anonymous": false,
      "inputs": [
        {
          "indexed": true,
          "internalType": "address",
          "name": "owner",
          "type": "address"
        },
        {
          "indexed": true,
          "internalType": "uint256",
          "name": "txNo",
          "type": "uint256"
        },
        {
          "indexed": true,
          "internalType": "address",
          "name": "to",
          "type": "address"
        },
        {
          "indexed": false,
          "internalType": "uint256",
          "name": "value",
          "type": "uint256"
        },
        {
          "indexed": false,
          "internalType": "bytes",
          "name": "data",
          "type": "bytes"
        }
      ],
      "name": "Submit",
      "type": "event"
    },
    {
      "inputs": [
        {
          "internalType": "uint256",
          "name": "txNo",
          "type": "uint256"
        }
      ],
      "name": "confirmTx",
      "outputs": [],
      "stateMutability": "nonpayable",
      "type": "function"
    },
    {
      "inputs": [
        {
          "internalType": "uint256",
          "name": "txNo",
          "type": "uint256"
        }
      ],
      "name": "executeTx",
      "outputs": [],
      "stateMutability": "nonpayable",
      "type": "function"
    },
    {
      "inputs": [
        {
          "internalType": "uint256",
          "name": "txNo",
          "type": "uint256"
        }
      ],
      "name": "getTx",
      "outputs": [
        {
          "internalType": "address",
          "name": "to",
          "type": "address"
        },
        {
          "internalType": "uint256",
          "name": "value",
          "type": "uint256"
        },
        {
          "internalType": "bytes",
          "name": "data",
          "type": "bytes"
        },
        {
          "internalType": "bool",
          "name": "executed",
          "type": "bool"
        },
        {
          "internalType": "uint256",
          "name": "confirms",
          "type": "uint256"
        }
      ],
      "stateMutability": "view",
      "type": "function"
    },
    {
      "inputs": [],
      "name": "owners",
      "outputs": [
        {
          "internalType": "address[]",
          "name": "",
          "type": "address[]"
        }
      ],
      "stateMutability": "view",
      "type": "function"
    },
    {
      "inputs": [
        {
          "internalType": "uint256",
          "name": "txNo",
          "type": "uint256"
        }
      ],
      "name": "revokeTx",
      "outputs": [],
      "stateMutability": "nonpayable",
      "type": "function"
    },
    {
      "inputs": [
        {
          "internalType": "address",
          "name": "to",
          "type": "address"
        },
        {
          "internalType": "uint256",
          "name": "amount",
          "type": "uint256"
        },
        {
          "internalType": "bytes",
          "name": "data",
          "type": "bytes"
        }
      ],
      "name": "submitTx",
      "outputs": [],
      "stateMutability": "nonpayable",
      "type": "function"
    },
    {
      "inputs": [],
      "name": "threshold",
      "outputs": [
        {
          "internalType": "uint256",
          "name": "",
          "type": "uint256"
        }
      ],
      "stateMutability": "view",
      "type": "function"
    },
    {
      "inputs": [],
      "name": "txCount",
      "outputs": [
        {
          "internalType": "uint256",
          "name": "",
          "type": "uint256"
        }
      ],
      "stateMutability": "view",
      "type": "function"
    },
    {
      "stateMutability": "payable",
      "type": "receive"
    }
  ],
  "bytecode": "0x60806040523480156200001157600080fd5b506040516200237a3803806200237a8339818101604052810190620000379190620004f7565b600081116200007d576040517f08c379a00000000000000000000000000000000000000000000000000000000081526004016200007490620005be565b60405180910390fd5b80825111620000c3576040517f08c379a0000000000000000000000000000000000000000000000000000000008152600401620000ba9062000630565b60405180910390fd5b60005b8251811015620002c5576000838281518110620000e857620000e762000652565b5b60200260200101519050600073ffffffffffffffffffffffffffffffffffffffff168173ffffffffffffffffffffffffffffffffffffffff160362000164576040517f08c379a00000000000000000000000000000000000000000000000000000000081526004016200015b90620006d1565b60405180910390fd5b600160008273ffffffffffffffffffffffffffffffffffffffff1673ffffffffffffffffffffffffffffffffffffffff16815260200190815260200160002060009054906101000a900460ff1615620001f4576040517f08c379a0000000000000000000000000000000000000000000000000000000008152600401620001eb9062000743565b60405180910390fd5b60018060008373ffffffffffffffffffffffffffffffffffffffff1673ffffffffffffffffffffffffffffffffffffffff16815260200190815260200160002060006101000a81548160ff0219169083151502179055506000819080600181540180825580915050600190039060005260206000200160009091909190916101000a81548173ffffffffffffffffffffffffffffffffffffffff021916908373ffffffffffffffffffffffffffffffffffffffff160217905550508080620002bc9062000794565b915050620000c6565b505050620007e1565b6000604051905090565b600080fd5b600080fd5b600080fd5b6000601f19601f8301169050919050565b7f4e487b7100000000000000000000000000000000000000000000000000000000600052604160045260246000fd5b6200033282620002e7565b810181811067ffffffffffffffff82111715620003545762000353620002f8565b5b80604052505050565b600062000369620002ce565b905062000377828262000327565b919050565b600067ffffffffffffffff8211156200039a5762000399620002f8565b5b602082029050602081019050919050565b600080fd5b600073ffffffffffffffffffffffffffffffffffffffff82169050919050565b6000620003dd82620003b0565b9050919050565b620003ef81620003d0565b8114620003fb57600080fd5b50565b6000815190506200040f81620003e4565b92915050565b60006200042c62000426846200037c565b6200035d565b90508083825260208201905060208402830185811115620004525762000451620003ab565b5b835b818110156200047f57806200046a8882620003fe565b84526020840193505060208101905062000454565b5050509392505050565b600082601f830112620004a157620004a0620002e2565b5b8151620004b384826020860162000415565b91505092915050565b6000819050919050565b620004d181620004bc565b8114620004dd57600080fd5b50565b600081519050620004f181620004c6565b92915050565b60008060408385031215620005115762000510620002d8565b5b600083015167ffffffffffffffff811115620005325762000531620002dd565b5b620005408582860162000489565b92505060206200055385828601620004e0565b9150509250929050565b600082825260208201905092915050565b7f496e76616c6964207468726573686f6c64000000000000000000000000000000600082015250565b6000620005a66011836200055d565b9150620005b3826200056e565b602082019050919050565b60006020820190508181036000830152620005d98162000597565b9050919050565b7f4e6f7420656e6f756768206f776e657273000000000000000000000000000000600082015250565b6000620006186011836200055d565b91506200062582620005e0565b602082019050919050565b600060208201905081810360008301526200064b8162000609565b9050919050565b7f4e487b7100000000000000000000000000000000000000000000000000000000600052603260045260246000fd5b7f5a65726f20616464726573732063616e277420626520616e206f776e65720000600082015250565b6000620006b9601e836200055d565b9150620006c68262000681565b602082019050919050565b60006020820190508181036000830152620006ec81620006aa565b9050919050565b7f4f776e6572206475706c6963617465642e000000000000000000000000000000600082015250565b60006200072b6011836200055d565b91506200073882620006f3565b602082019050919050565b600060208201905081810360008301526200075e816200071c565b9050919050565b7f4e487b7100000000000000000000000000000000000000000000000000000000600052601160045260246000fd5b6000620007a182620004bc565b91507fffffffffffffffffffffffffffffffffffffffffffffffffffffffffffffffff8203620007d657620007d562000765565b5b600182019050919050565b611b8980620007f16000396000f3fe60806040526004361061007f5760003560e01c8063801be0601161004e578063801be06014610183578063affe39c1146101ac578063b8c89338146101d7578063bb84c5a914610218576100d6565b80633c540687146100db57806342cde4e81461010657806354b5fe80146101315780635986aaca1461015a576100d6565b366100d6573373ffffffffffffffffffffffffffffffffffffffff167f90890809c654f11d6e72a28fa60149770a0d11ec6c92319d6ceb2bb0a4ea1a1534476040516100cc929190610f2e565b60405180910390a2005b600080fd5b3480156100e757600080fd5b506100f0610241565b6040516100fd9190610f57565b60405180910390f35b34801561011257600080fd5b5061011b61024e565b6040516101289190610f57565b60405180910390f35b34801561013d57600080fd5b5061015860048036038101906101539190610fb2565b610258565b005b34801561016657600080fd5b50610181600480360381019061017c9190610fb2565b610550565b005b34801561018f57600080fd5b506101aa60048036038101906101a59190610fb2565b61082a565b005b3480156101b857600080fd5b506101c1610b07565b6040516101ce91906110cf565b60405180910390f35b3480156101e357600080fd5b506101fe60048036038101906101f99190610fb2565b610b95565b60405161020f9594939291906111ab565b60405180910390f35b34801561022457600080fd5b5061023f600480360381019061023a9190611366565b610d12565b005b6000600380549050905090565b6000600254905090565b600160003373ffffffffffffffffffffffffffffffffffffffff1673ffffffffffffffffffffffffffffffffffffffff16815260200190815260200160002060009054906101000a900460ff166102e4576040517f08c379a00000000000000000000000000000000000000000000000000000000081526004016102db90611432565b60405180910390fd5b80600380549050811061032c576040517f08c379a00000000000000000000000000000000000000000000000000000000081526004016103239061149e565b60405180910390fd5b8160038181548110610341576103406114be565b5b906000526020600020906005020160030160009054906101000a900460ff16156103a0576040517f08c379a000000000000000000000000000000000000000000000000000000000815260040161039790611539565b60405180910390fd5b6000600384815481106103b6576103b56114be565b5b906000526020600020906005020190506002548160040154101561040f576040517f08c379a0000000000000000000000000000000000000000000000000000000008152600401610406906115a5565b60405180910390fd5b60018160030160006101000a81548160ff021916908315150217905550833373ffffffffffffffffffffffffffffffffffffffff167f892cd8f5b436bd5fb7dac1f11aafb73345d892ba3e9fe09cd94d95ba84928e7360405160405180910390a360008160000160009054906101000a900473ffffffffffffffffffffffffffffffffffffffff1673ffffffffffffffffffffffffffffffffffffffff168260010154836002016040516104c391906116c8565b60006040518083038185875af1925050503d8060008114610500576040519150601f19603f3d011682016040523d82523d6000602084013e610505565b606091505b5050905080610549576040517f08c379a00000000000000000000000000000000000000000000000000000000081526004016105409061172b565b60405180910390fd5b5050505050565b600160003373ffffffffffffffffffffffffffffffffffffffff1673ffffffffffffffffffffffffffffffffffffffff16815260200190815260200160002060009054906101000a900460ff166105dc576040517f08c379a00000000000000000000000000000000000000000000000000000000081526004016105d390611432565b60405180910390fd5b806003805490508110610624576040517f08c379a000000000000000000000000000000000000000000000000000000000815260040161061b9061149e565b60405180910390fd5b8160038181548110610639576106386114be565b5b906000526020600020906005020160030160009054906101000a900460ff1615610698576040517f08c379a000000000000000000000000000000000000000000000000000000000815260040161068f90611539565b60405180910390fd5b6004600084815260200190815260200160002060003373ffffffffffffffffffffffffffffffffffffffff1673ffffffffffffffffffffffffffffffffffffffff16815260200190815260200160002060009054906101000a900460ff16610735576040517f08c379a000000000000000000000000000000000000000000000000000000000815260040161072c90611797565b60405180910390fd5b60006003848154811061074b5761074a6114be565b5b90600052602060002090600502019050600181600401600082825461077091906117e6565b9250508190555060006004600086815260200190815260200160002060003373ffffffffffffffffffffffffffffffffffffffff1673ffffffffffffffffffffffffffffffffffffffff16815260200190815260200160002060006101000a81548160ff021916908315150217905550833373ffffffffffffffffffffffffffffffffffffffff167fec9ab91322523c899ede7830ec9bfc992b5981cdcc27b91162fb23de5791117b60405160405180910390a350505050565b600160003373ffffffffffffffffffffffffffffffffffffffff1673ffffffffffffffffffffffffffffffffffffffff16815260200190815260200160002060009054906101000a900460ff166108b6576040517f08c379a00000000000000000000000000000000000000000000000000000000081526004016108ad90611432565b60405180910390fd5b8060038054905081106108fe576040517f08c379a00000000000000000000000000000000000000000000000000000000081526004016108f59061149e565b60405180910390fd5b8160038181548110610913576109126114be565b5b906000526020600020906005020160030160009054906101000a900460ff1615610972576040517f08c379a000000000000000000000000000000000000000000000000000000000815260040161096990611539565b60405180910390fd5b826004600082815260200190815260200160002060003373ffffffffffffffffffffffffffffffffffffffff1673ffffffffffffffffffffffffffffffffffffffff16815260200190815260200160002060009054906101000a900460ff1615610a11576040517f08c379a0000000000000000000000000000000000000000000000000000000008152600401610a0890611866565b60405180910390fd5b600060038581548110610a2757610a266114be565b5b906000526020600020906005020190506001816004016000828254610a4c9190611886565b9250508190555060016004600087815260200190815260200160002060003373ffffffffffffffffffffffffffffffffffffffff1673ffffffffffffffffffffffffffffffffffffffff16815260200190815260200160002060006101000a81548160ff021916908315150217905550843373ffffffffffffffffffffffffffffffffffffffff167fbde73c39e691e6143456e01935275fd9f654dacca25911f03ab0d587644377eb60405160405180910390a35050505050565b60606000805480602002602001604051908101604052809291908181526020018280548015610b8b57602002820191906000526020600020905b8160009054906101000a900473ffffffffffffffffffffffffffffffffffffffff1673ffffffffffffffffffffffffffffffffffffffff1681526020019060010190808311610b41575b5050505050905090565b6000806060600080600060038781548110610bb357610bb26114be565b5b90600052602060002090600502016040518060a00160405290816000820160009054906101000a900473ffffffffffffffffffffffffffffffffffffffff1673ffffffffffffffffffffffffffffffffffffffff1673ffffffffffffffffffffffffffffffffffffffff16815260200160018201548152602001600282018054610c3c906115f4565b80601f0160208091040260200160405190810160405280929190818152602001828054610c68906115f4565b8015610cb55780601f10610c8a57610100808354040283529160200191610cb5565b820191906000526020600020905b815481529060010190602001808311610c9857829003601f168201915b505050505081526020016003820160009054906101000a900460ff16151515158152602001600482015481525050905080600001518160200151826040015183606001518460800151955095509550955095505091939590929450565b600160003373ffffffffffffffffffffffffffffffffffffffff1673ffffffffffffffffffffffffffffffffffffffff16815260200190815260200160002060009054906101000a900460ff16610d9e576040517f08c379a0000000000000000000000000000000000000000000000000000000008152600401610d9590611432565b60405180910390fd5b6000600380549050905060036040518060a001604052808673ffffffffffffffffffffffffffffffffffffffff1681526020018581526020018481526020016000151581526020016000815250908060018154018082558091505060019003906000526020600020906005020160009091909190915060008201518160000160006101000a81548173ffffffffffffffffffffffffffffffffffffffff021916908373ffffffffffffffffffffffffffffffffffffffff160217905550602082015181600101556040820151816002019081610e7a9190611a51565b5060608201518160030160006101000a81548160ff0219169083151502179055506080820151816004015550508373ffffffffffffffffffffffffffffffffffffffff16813373ffffffffffffffffffffffffffffffffffffffff167fae88b418f2b5e7c7e4a839d4244a762f0552c731cb27e637651304317491b1078686604051610f07929190611b23565b60405180910390a450505050565b6000819050919050565b610f2881610f15565b82525050565b6000604082019050610f436000830185610f1f565b610f506020830184610f1f565b9392505050565b6000602082019050610f6c6000830184610f1f565b92915050565b6000604051905090565b600080fd5b600080fd5b610f8f81610f15565b8114610f9a57600080fd5b50565b600081359050610fac81610f86565b92915050565b600060208284031215610fc857610fc7610f7c565b5b6000610fd684828501610f9d565b91505092915050565b600081519050919050565b600082825260208201905092915050565b6000819050602082019050919050565b600073ffffffffffffffffffffffffffffffffffffffff82169050919050565b60006110368261100b565b9050919050565b6110468161102b565b82525050565b6000611058838361103d565b60208301905092915050565b6000602082019050919050565b600061107c82610fdf565b6110868185610fea565b935061109183610ffb565b8060005b838110156110c25781516110a9888261104c565b97506110b483611064565b925050600181019050611095565b5085935050505092915050565b600060208201905081810360008301526110e98184611071565b905092915050565b6110fa8161102b565b82525050565b600081519050919050565b600082825260208201905092915050565b60005b8381101561113a57808201518184015260208101905061111f565b60008484015250505050565b6000601f19601f8301169050919050565b600061116282611100565b61116c818561110b565b935061117c81856020860161111c565b61118581611146565b840191505092915050565b60008115159050919050565b6111a581611190565b82525050565b600060a0820190506111c060008301886110f1565b6111cd6020830187610f1f565b81810360408301526111df8186611157565b90506111ee606083018561119c565b6111fb6080830184610f1f565b9695505050505050565b61120e8161102b565b811461121957600080fd5b50565b60008135905061122b81611205565b92915050565b600080fd5b600080fd5b7f4e487b7100000000000000000000000000000000000000000000000000000000600052604160045260246000fd5b61127382611146565b810181811067ffffffffffffffff821117156112925761129161123b565b5b80604052505050565b60006112a5610f72565b90506112b1828261126a565b919050565b600067ffffffffffffffff8211156112d1576112d061123b565b5b6112da82611146565b9050602081019050919050565b82818337600083830152505050565b6000611309611304846112b6565b61129b565b90508281526020810184848401111561132557611324611236565b5b6113308482856112e7565b509392505050565b600082601f83011261134d5761134c611231565b5b813561135d8482602086016112f6565b91505092915050565b60008060006060848603121561137f5761137e610f7c565b5b600061138d8682870161121c565b935050602061139e86828701610f9d565b925050604084013567ffffffffffffffff8111156113bf576113be610f81565b5b6113cb86828701611338565b9150509250925092565b600082825260208201905092915050565b7f416c6c6f776564206f6e6c7920666f72206f776e657273000000000000000000600082015250565b600061141c6017836113d5565b9150611427826113e6565b602082019050919050565b6000602082019050818103600083015261144b8161140f565b9050919050565b7f4e6f6e6578697374656e74207472616e73616374696f6e000000000000000000600082015250565b60006114886017836113d5565b915061149382611452565b602082019050919050565b600060208201905081810360008301526114b78161147b565b9050919050565b7f4e487b7100000000000000000000000000000000000000000000000000000000600052603260045260246000fd5b7f416c7265616479206578656375746564207472616e73616374696f6e00000000600082015250565b6000611523601c836113d5565b915061152e826114ed565b602082019050919050565b6000602082019050818103600083015261155281611516565b9050919050565b7f4e656564206d6f726520636f6e6669726d730000000000000000000000000000600082015250565b600061158f6012836113d5565b915061159a82611559565b602082019050919050565b600060208201905081810360008301526115be81611582565b9050919050565b7f4e487b7100000000000000000000000000000000000000000000000000000000600052602260045260246000fd5b6000600282049050600182168061160c57607f821691505b60208210810361161f5761161e6115c5565b5b50919050565b600081905092915050565b60008190508160005260206000209050919050565b60008154611652816115f4565b61165c8186611625565b94506001821660008114611677576001811461168c576116bf565b60ff19831686528115158202860193506116bf565b61169585611630565b60005b838110156116b757815481890152600182019150602081019050611698565b838801955050505b50505092915050565b60006116d48284611645565b915081905092915050565b7f5478206661696c65642e00000000000000000000000000000000000000000000600082015250565b6000611715600a836113d5565b9150611720826116df565b602082019050919050565b6000602082019050818103600083015261174481611708565b9050919050565b7f5478206e6f742079657420636f6e6669726d65642e0000000000000000000000600082015250565b60006117816015836113d5565b915061178c8261174b565b602082019050919050565b600060208201905081810360008301526117b081611774565b9050919050565b7f4e487b7100000000000000000000000000000000000000000000000000000000600052601160045260246000fd5b60006117f182610f15565b91506117fc83610f15565b9250828203905081811115611814576118136117b7565b5b92915050565b7f416c726561647920636f6e6669726d6564207472616e73616374696f6e000000600082015250565b6000611850601d836113d5565b915061185b8261181a565b602082019050919050565b6000602082019050818103600083015261187f81611843565b9050919050565b600061189182610f15565b915061189c83610f15565b92508282019050808211156118b4576118b36117b7565b5b92915050565b60006020601f8301049050919050565b600082821b905092915050565b6000600883026119077fffffffffffffffffffffffffffffffffffffffffffffffffffffffffffffffff826118ca565b61191186836118ca565b95508019841693508086168417925050509392505050565b6000819050919050565b600061194e61194961194484610f15565b611929565b610f15565b9050919050565b6000819050919050565b61196883611933565b61197c61197482611955565b8484546118d7565b825550505050565b600090565b611991611984565b61199c81848461195f565b505050565b5b818110156119c0576119b5600082611989565b6001810190506119a2565b5050565b601f821115611a05576119d681611630565b6119df846118ba565b810160208510156119ee578190505b611a026119fa856118ba565b8301826119a1565b50505b505050565b600082821c905092915050565b6000611a2860001984600802611a0a565b1980831691505092915050565b6000611a418383611a17565b9150826002028217905092915050565b611a5a82611100565b67ffffffffffffffff811115611a7357611a7261123b565b5b611a7d82546115f4565b611a888282856119c4565b600060209050601f831160018114611abb5760008415611aa9578287015190505b611ab38582611a35565b865550611b1b565b601f198416611ac986611630565b60005b82811015611af157848901518255600182019150602085019450602081019050611acc565b86831015611b0e5784890151611b0a601f891682611a17565b8355505b6001600288020188555050505b505050505050565b6000604082019050611b386000830185610f1f565b8181036020830152611b4a8184611157565b9050939250505056fea2646970667358221220b0122dca75360ece7960f8280a87d5bff0804c9a92d1074bb464a584056564c064736f6c63430008130033",
  "linkReferences": {},
  "deployedLinkReferences": {}
}