{
  "_format": "hh-sol-artifact-1",
  "contractName": "Descriptive",
  "sourceName": "contracts/meta/Descriptive.sol",
  "abi": [
    {
      "anonymous": false,
      "inputs": [
        {
          "indexed": true,
          "internalType": "string",
          "name": "name",
          "type": "string"
        },
        {
          "indexed": false,
          "internalType": "string",
          "name": "value",
          "type": "string"
        },
        {
          "indexed": false,
          "internalType": "uint256",
          "name": "count",
          "type": "uint256"
        },
        {
          "indexed": true,
          "internalType": "uint256",
          "name": "index",
          "type": "uint256"
        }
      ],
      "name": "AttributeAdded",
      "type": "event"
    },
    {
      "anonymous": false,
      "inputs": [
        {
          "indexed": true,
          "internalType": "string",
          "name": "name",
          "type": "string"
        },
        {
          "indexed": false,
          "internalType": "string",
          "name": "value",
          "type": "string"
        },
        {
          "indexed": true,
          "internalType": "uint256",
          "name": "index",
          "type": "uint256"
        }
      ],
      "name": "AttributeSet",
      "type": "event"
    },
    {
      "inputs": [
        {
          "internalType": "string",
          "name": "name",
          "type": "string"
        },
        {
          "internalType": "string",
          "name": "value",
          "type": "string"
        }
      ],
      "name": "addAttribute",
      "outputs": [],
      "stateMutability": "nonpayable",
      "type": "function"
    },
    {
      "inputs": [
        {
          "internalType": "string",
          "name": "name",
          "type": "string"
        }
      ],
      "name": "getAttribute",
      "outputs": [
        {
          "internalType": "string",
          "name": "",
          "type": "string"
        }
      ],
      "stateMutability": "view",
      "type": "function"
    },
    {
      "inputs": [],
      "name": "getAttributeNames",
      "outputs": [
        {
          "internalType": "string[]",
          "name": "",
          "type": "string[]"
        }
      ],
      "stateMutability": "view",
      "type": "function"
    },
    {
      "inputs": [
        {
          "internalType": "string",
          "name": "name",
          "type": "string"
        }
      ],
      "name": "getAttributes",
      "outputs": [
        {
          "internalType": "string[]",
          "name": "",
          "type": "string[]"
        }
      ],
      "stateMutability": "view",
      "type": "function"
    },
    {
      "inputs": [],
      "name": "getName",
      "outputs": [
        {
          "internalType": "string",
          "name": "",
          "type": "string"
        }
      ],
      "stateMutability": "view",
      "type": "function"
    },
    {
      "inputs": [
        {
          "internalType": "string",
          "name": "name",
          "type": "string"
        },
        {
          "internalType": "string",
          "name": "value",
          "type": "string"
        }
      ],
      "name": "removeAttribute",
      "outputs": [],
      "stateMutability": "nonpayable",
      "type": "function"
    },
    {
      "inputs": [
        {
          "internalType": "string",
          "name": "name",
          "type": "string"
        }
      ],
      "name": "removeAttributes",
      "outputs": [],
      "stateMutability": "nonpayable",
      "type": "function"
    },
    {
      "inputs": [
        {
          "internalType": "string",
          "name": "name",
          "type": "string"
        },
        {
          "internalType": "string",
          "name": "value",
          "type": "string"
        }
      ],
      "name": "setAttribute",
      "outputs": [],
      "stateMutability": "nonpayable",
      "type": "function"
    },
    {
      "inputs": [
        {
          "internalType": "string",
          "name": "name",
          "type": "string"
        }
      ],
      "name": "setName",
      "outputs": [],
      "stateMutability": "nonpayable",
      "type": "function"
    }
  ],
  "bytecode": "0x608060405234801561001057600080fd5b506115ad806100206000396000f3fe608060405234801561001057600080fd5b50600436106100935760003560e01c8063c47f002711610066578063c47f00271461010c578063cf07f74414610128578063e8a51fca14610158578063f577b77714610188578063fcd37b77146101a457610093565b806317d7de7c146100985780632ba56834146100b65780633e61da65146100d25780634e6762fa146100ee575b600080fd5b6100a06101c0565b6040516100ad91906113d2565b60405180910390f35b6100d060048036038101906100cb91906111f2565b610262565b005b6100ec60048036038101906100e791906111f2565b610270565b005b6100f6610529565b60405161010391906113b0565b60405180910390f35b610126600480360381019061012191906111b1565b61068b565b005b610142600480360381019061013d91906111b1565b6106a5565b60405161014f91906113b0565b60405180910390f35b610172600480360381019061016d91906111b1565b610841565b60405161017f91906113d2565b60405180910390f35b6101a2600480360381019061019d91906111f2565b61096c565b005b6101be60048036038101906101b991906111b1565b610ab2565b005b606060068054600181600116156101000203166002900480601f0160208091040260200160405190810160405280929190818152602001828054600181600116156101000203166002900480156102585780601f1061022d57610100808354040283529160200191610258565b820191906000526020600020905b81548152906001019060200180831161023b57829003601f168201915b5050505050905090565b61026c8282610bc5565b5050565b60006102986001846040516102859190611399565b9081526020016040518091039020610d8c565b905060008114156102a95750610525565b6000826040516020016102bc9190611399565b6040516020818303038152906040528051906020012090506060600080600090505b8481101561051f57610316816001896040516102fa9190611399565b9081526020016040518091039020610da190919063ffffffff16565b91506000828154811061032557fe5b90600052602060002090600202016001018054600181600116156101000203166002900480601f0160208091040260200160405190810160405280929190818152602001828054600181600116156101000203166002900480156103ca5780601f1061039f576101008083540402835291602001916103ca565b820191906000526020600020905b8154815290600101906020018083116103ad57829003601f168201915b5050505050925083836040516020016103e39190611399565b604051602081830303815290604052805190602001201415610512576000828154811061040c57fe5b90600052602060002090600202016000808201600061042b9190611018565b60018201600061043b9190611018565b505061046d826001896040516104519190611399565b9081526020016040518091039020610dbb90919063ffffffff16565b50610482826002610dd590919063ffffffff16565b156105115761049b826002610dbb90919063ffffffff16565b5060006104c46001896040516104b19190611399565b9081526020016040518091039020610d8c565b11156105105761050e6104fe600060018a6040516104e29190611399565b9081526020016040518091039020610da190919063ffffffff16565b6002610def90919063ffffffff16565b505b5b5b80806001019150506102de565b50505050505b5050565b606060006105376002610d8c565b905060008167ffffffffffffffff8111801561055257600080fd5b5060405190808252806020026020018201604052801561058657816020015b60608152602001906001900390816105715790505b50905060005b828110156106825760006105aa826002610da190919063ffffffff16565b815481106105b457fe5b90600052602060002090600202016000018054600181600116156101000203166002900480601f0160208091040260200160405190810160405280929190818152602001828054600181600116156101000203166002900480156106595780601f1061062e57610100808354040283529160200191610659565b820191906000526020600020905b81548152906001019060200180831161063c57829003601f168201915b505050505082828151811061066a57fe5b6020026020010181905250808060010191505061058c565b50809250505090565b80600690805190602001906106a1929190611060565b5050565b606060006106cf6001846040516106bc9190611399565b9081526020016040518091039020610d8c565b905060008167ffffffffffffffff811180156106ea57600080fd5b5060405190808252806020026020018201604052801561071e57816020015b60608152602001906001900390816107095790505b50905060005b8281101561083657600061075e826001886040516107429190611399565b9081526020016040518091039020610da190919063ffffffff16565b8154811061076857fe5b90600052602060002090600202016001018054600181600116156101000203166002900480601f01602080910402602001604051908101604052809291908181526020018280546001816001161561010002031660029004801561080d5780601f106107e25761010080835404028352916020019161080d565b820191906000526020600020905b8154815290600101906020018083116107f057829003601f168201915b505050505082828151811061081e57fe5b60200260200101819052508080600101915050610724565b508092505050919050565b6060600061086b6001846040516108589190611399565b9081526020016040518091039020610d8c565b9050606060008211156109625760006108ab600060018760405161088f9190611399565b9081526020016040518091039020610da190919063ffffffff16565b815481106108b557fe5b90600052602060002090600202016001018054600181600116156101000203166002900480601f01602080910402602001604051908101604052809291908181526020018280546001816001161561010002031660029004801561095a5780601f1061092f5761010080835404028352916020019161095a565b820191906000526020600020905b81548152906001019060200180831161093d57829003601f168201915b505050505090505b8092505050919050565b60006109946001846040516109819190611399565b9081526020016040518091039020610d8c565b90506000811115610a6b576109e36109d360006001866040516109b79190611399565b9081526020016040518091039020610da190919063ffffffff16565b6002610dbb90919063ffffffff16565b5060005b81811015610a69576000610a2182600187604051610a059190611399565b9081526020016040518091039020610da190919063ffffffff16565b81548110610a2b57fe5b906000526020600020906002020160008082016000610a4a9190611018565b600182016000610a5a9190611018565b505080806001019150506109e7565b505b600183604051610a7b9190611399565b9081526020016040518091039020600080820160008082016000610a9f91906110ee565b50505050610aad8383610bc5565b505050565b6000610ada600183604051610ac79190611399565b9081526020016040518091039020610d8c565b90506000811415610aeb5750610bc2565b600080600090505b82811015610bbe57610b2b81600186604051610b0f9190611399565b9081526020016040518091039020610da190919063ffffffff16565b915060008281548110610b3a57fe5b906000526020600020906002020160008082016000610b599190611018565b600182016000610b699190611018565b5050610b9b82600186604051610b7f9190611399565b9081526020016040518091039020610dbb90919063ffffffff16565b50610bb0826002610dbb90919063ffffffff16565b508080600101915050610af3565b5050505b50565b600080805490509050600060405180604001604052808581526020018481525090806001815401808255809150506001900390600052602060002090600202016000909190919091506000820151816000019080519060200190610c2a929190611060565b506020820151816001019080519060200190610c47929190611060565b505050610c7a81600185604051610c5e9190611399565b9081526020016040518091039020610def90919063ffffffff16565b506001610ca3600185604051610c909190611399565b9081526020016040518091039020610d8c565b1415610d1157610cbd816002610def90919063ffffffff16565b508083604051610ccd9190611399565b60405180910390207f7d6cf8234ace49b8794c27aaca307bad5bccc1ae9d6f30ada7bde8276ad04f8a84604051610d0491906113d2565b60405180910390a3610d87565b8083604051610d209190611399565b60405180910390207f64772cfb9001a2d0c82f849be77873ae8b209c6dd7ba49bfe408ebae298fda2e84610d70600188604051610d5d9190611399565b9081526020016040518091039020610d8c565b604051610d7e9291906113f4565b60405180910390a35b505050565b6000610d9a82600001610e09565b9050919050565b6000610db08360000183610e1a565b60001c905092915050565b6000610dcd836000018360001b610e9d565b905092915050565b6000610de7836000018360001b610f85565b905092915050565b6000610e01836000018360001b610fa8565b905092915050565b600081600001805490509050919050565b600081836000018054905011610e7b576040517f08c379a00000000000000000000000000000000000000000000000000000000081526004018080602001828103825260228152602001806115566022913960400191505060405180910390fd5b826000018281548110610e8a57fe5b9060005260206000200154905092915050565b60008083600101600084815260200190815260200160002054905060008114610f795760006001820390506000600186600001805490500390506000866000018281548110610ee857fe5b9060005260206000200154905080876000018481548110610f0557fe5b9060005260206000200181905550600183018760010160008381526020019081526020016000208190555086600001805480610f3d57fe5b60019003818190600052602060002001600090559055866001016000878152602001908152602001600020600090556001945050505050610f7f565b60009150505b92915050565b600080836001016000848152602001908152602001600020541415905092915050565b6000610fb48383610f85565b61100d578260000182908060018154018082558091505060019003906000526020600020016000909190919091505582600001805490508360010160008481526020019081526020016000208190555060019050611012565b600090505b92915050565b50805460018160011615610100020316600290046000825580601f1061103e575061105d565b601f01602090049060005260206000209081019061105c919061110f565b5b50565b828054600181600116156101000203166002900490600052602060002090601f01602090048101928261109657600085556110dd565b82601f106110af57805160ff19168380011785556110dd565b828001600101855582156110dd579182015b828111156110dc5782518255916020019190600101906110c1565b5b5090506110ea919061110f565b5090565b508054600082559060005260206000209081019061110c919061112c565b50565b5b80821115611128576000816000905550600101611110565b5090565b5b8082111561114557600081600090555060010161112d565b5090565b600061115c61115784611455565b611424565b90508281526020810184848401111561117457600080fd5b61117f848285611500565b509392505050565b600082601f83011261119857600080fd5b81356111a8848260208601611149565b91505092915050565b6000602082840312156111c357600080fd5b600082013567ffffffffffffffff8111156111dd57600080fd5b6111e984828501611187565b91505092915050565b6000806040838503121561120557600080fd5b600083013567ffffffffffffffff81111561121f57600080fd5b61122b85828601611187565b925050602083013567ffffffffffffffff81111561124857600080fd5b61125485828601611187565b9150509250929050565b600061126a83836112e7565b905092915050565b600061127d82611495565b61128781856114b8565b93508360208202850161129985611485565b8060005b858110156112d557848403895281516112b6858261125e565b94506112c1836114ab565b925060208a0199505060018101905061129d565b50829750879550505050505092915050565b60006112f2826114a0565b6112fc81856114c9565b935061130c81856020860161150f565b61131581611544565b840191505092915050565b600061132b826114a0565b61133581856114da565b935061134581856020860161150f565b61134e81611544565b840191505092915050565b6000611364826114a0565b61136e81856114eb565b935061137e81856020860161150f565b80840191505092915050565b611393816114f6565b82525050565b60006113a58284611359565b915081905092915050565b600060208201905081810360008301526113ca8184611272565b905092915050565b600060208201905081810360008301526113ec8184611320565b905092915050565b6000604082019050818103600083015261140e8185611320565b905061141d602083018461138a565b9392505050565b6000604051905081810181811067ffffffffffffffff8211171561144b5761144a611542565b5b8060405250919050565b600067ffffffffffffffff8211156114705761146f611542565b5b601f19601f8301169050602081019050919050565b6000819050602082019050919050565b600081519050919050565b600081519050919050565b6000602082019050919050565b600082825260208201905092915050565b600082825260208201905092915050565b600082825260208201905092915050565b600081905092915050565b6000819050919050565b82818337600083830152505050565b60005b8381101561152d578082015181840152602081019050611512565b8381111561153c576000848401525b50505050565bfe5b6000601f19601f830116905091905056fe456e756d657261626c655365743a20696e646578206f7574206f6620626f756e6473a2646970667358221220a8d522bdce1447e2d034bb1e8154111ec076da05aa6b6c583899c8648faf1a1064736f6c63430007060033",
  "linkReferences": {},
  "deployedLinkReferences": {}
}