{
  "_format": "hh-sol-artifact-1",
  "contractName": "AttributeRegistry",
  "sourceName": "contracts/meta/AttributeRegistry.sol",
  "abi": [
    {
      "anonymous": false,
      "inputs": [
        {
          "indexed": true,
          "internalType": "uint256",
          "name": "id",
          "type": "uint256"
        },
        {
          "indexed": true,
          "internalType": "string",
          "name": "name",
          "type": "string"
        },
        {
          "indexed": false,
          "internalType": "string",
          "name": "value",
          "type": "string"
        },
        {
          "indexed": false,
          "internalType": "uint256",
          "name": "no",
          "type": "uint256"
        }
      ],
      "name": "AttributeAdded",
      "type": "event"
    },
    {
      "anonymous": false,
      "inputs": [
        {
          "indexed": true,
          "internalType": "uint256",
          "name": "id",
          "type": "uint256"
        },
        {
          "indexed": true,
          "internalType": "string",
          "name": "name",
          "type": "string"
        },
        {
          "indexed": false,
          "internalType": "string",
          "name": "value",
          "type": "string"
        }
      ],
      "name": "AttributeRemoved",
      "type": "event"
    },
    {
      "anonymous": false,
      "inputs": [
        {
          "indexed": true,
          "internalType": "uint256",
          "name": "id",
          "type": "uint256"
        },
        {
          "indexed": true,
          "internalType": "string",
          "name": "name",
          "type": "string"
        }
      ],
      "name": "AttributesRemoved",
      "type": "event"
    },
    {
      "inputs": [
        {
          "internalType": "uint256",
          "name": "id",
          "type": "uint256"
        },
        {
          "internalType": "string",
          "name": "name",
          "type": "string"
        },
        {
          "internalType": "string",
          "name": "value",
          "type": "string"
        }
      ],
      "name": "addAttribute",
      "outputs": [],
      "stateMutability": "nonpayable",
      "type": "function"
    },
    {
      "inputs": [
        {
          "internalType": "uint256",
          "name": "id",
          "type": "uint256"
        },
        {
          "internalType": "string",
          "name": "name",
          "type": "string"
        }
      ],
      "name": "getAttribute",
      "outputs": [
        {
          "internalType": "string",
          "name": "",
          "type": "string"
        }
      ],
      "stateMutability": "view",
      "type": "function"
    },
    {
      "inputs": [
        {
          "internalType": "uint256",
          "name": "id",
          "type": "uint256"
        }
      ],
      "name": "getAttributeNames",
      "outputs": [
        {
          "internalType": "string[]",
          "name": "",
          "type": "string[]"
        }
      ],
      "stateMutability": "view",
      "type": "function"
    },
    {
      "inputs": [
        {
          "internalType": "uint256",
          "name": "id",
          "type": "uint256"
        },
        {
          "internalType": "string",
          "name": "name",
          "type": "string"
        }
      ],
      "name": "getAttributes",
      "outputs": [
        {
          "internalType": "string[]",
          "name": "",
          "type": "string[]"
        }
      ],
      "stateMutability": "view",
      "type": "function"
    },
    {
      "inputs": [
        {
          "internalType": "uint256",
          "name": "id",
          "type": "uint256"
        },
        {
          "internalType": "string",
          "name": "name",
          "type": "string"
        }
      ],
      "name": "getAttributesCount",
      "outputs": [
        {
          "internalType": "uint256",
          "name": "",
          "type": "uint256"
        }
      ],
      "stateMutability": "view",
      "type": "function"
    },
    {
      "inputs": [
        {
          "internalType": "uint256",
          "name": "id",
          "type": "uint256"
        },
        {
          "internalType": "string",
          "name": "name",
          "type": "string"
        },
        {
          "internalType": "string",
          "name": "value",
          "type": "string"
        }
      ],
      "name": "removeAttribute",
      "outputs": [],
      "stateMutability": "nonpayable",
      "type": "function"
    },
    {
      "inputs": [
        {
          "internalType": "uint256",
          "name": "id",
          "type": "uint256"
        },
        {
          "internalType": "string",
          "name": "name",
          "type": "string"
        }
      ],
      "name": "removeAttributes",
      "outputs": [],
      "stateMutability": "nonpayable",
      "type": "function"
    },
    {
      "inputs": [
        {
          "internalType": "uint256",
          "name": "id",
          "type": "uint256"
        },
        {
          "internalType": "string",
          "name": "name",
          "type": "string"
        },
        {
          "internalType": "string",
          "name": "value",
          "type": "string"
        }
      ],
      "name": "setAttribute",
      "outputs": [],
      "stateMutability": "nonpayable",
      "type": "function"
    }
  ],
  "bytecode": "0x608060405234801561001057600080fd5b506116ec806100206000396000f3fe608060405234801561001057600080fd5b50600436106100885760003560e01c806364deba971161005b57806364deba9714610125578063affaeef114610155578063d7f2ca7114610171578063eaf1c6d31461018d57610088565b80630b4c28d41461008d5780632d37bdaf146100bd57806353cd553b146100d95780635514a4a814610109575b600080fd5b6100a760048036038101906100a29190611298565b6101bd565b6040516100b49190611531565b60405180910390f35b6100d760048036038101906100d291906112ec565b6101fe565b005b6100f360048036038101906100ee919061126f565b61020e565b60405161010091906114bd565b60405180910390f35b610123600480360381019061011e91906112ec565b6103a4565b005b61013f600480360381019061013a9190611298565b6103be565b60405161014c91906114bd565b60405180910390f35b61016f600480360381019061016a9190611298565b61058d565b005b61018b600480360381019061018691906112ec565b61059b565b005b6101a760048036038101906101a29190611298565b61094b565b6040516101b491906114df565b60405180910390f35b60006101f660016000858152602001908152602001600020836040516101e391906114a6565b9081526020016040518091039020610aa9565b905092915050565b610209838383610abe565b505050565b6060600061022d60026000858152602001908152602001600020610aa9565b905060008167ffffffffffffffff8111801561024857600080fd5b5060405190808252806020026020018201604052801561027c57816020015b60608152602001906001900390816102675790505b50905060005b82811015610399576000808681526020019081526020016000206102c18260026000898152602001908152602001600020610c9e90919063ffffffff16565b815481106102cb57fe5b90600052602060002090600202016000018054600181600116156101000203166002900480601f0160208091040260200160405190810160405280929190818152602001828054600181600116156101000203166002900480156103705780601f1061034557610100808354040283529160200191610370565b820191906000526020600020905b81548152906001019060200180831161035357829003601f168201915b505050505082828151811061038157fe5b60200260200101819052508080600101915050610282565b508092505050919050565b6103ae8383610cb8565b6103b9838383610abe565b505050565b606060006103f960016000868152602001908152602001600020846040516103e691906114a6565b9081526020016040518091039020610aa9565b905060008167ffffffffffffffff8111801561041457600080fd5b5060405190808252806020026020018201604052801561044857816020015b60608152602001906001900390816104335790505b50905060005b82811015610581576000808781526020019081526020016000206104a982600160008a81526020019081526020016000208860405161048d91906114a6565b9081526020016040518091039020610c9e90919063ffffffff16565b815481106104b357fe5b90600052602060002090600202016001018054600181600116156101000203166002900480601f0160208091040260200160405190810160405280929190818152602001828054600181600116156101000203166002900480156105585780601f1061052d57610100808354040283529160200191610558565b820191906000526020600020905b81548152906001019060200180831161053b57829003601f168201915b505050505082828151811061056957fe5b6020026020010181905250808060010191505061044e565b50809250505092915050565b6105978282610cb8565b5050565b60006105d460016000868152602001908152602001600020846040516105c191906114a6565b9081526020016040518091039020610aa9565b905060008114156105e55750610946565b6000826040516020016105f891906114a6565b6040516020818303038152906040528051906020012090506060600080600090505b848110156109405761066381600160008b81526020019081526020016000208960405161064791906114a6565b9081526020016040518091039020610c9e90919063ffffffff16565b9150600080898152602001908152602001600020828154811061068257fe5b90600052602060002090600202016001018054600181600116156101000203166002900480601f0160208091040260200160405190810160405280929190818152602001828054600181600116156101000203166002900480156107275780601f106106fc57610100808354040283529160200191610727565b820191906000526020600020905b81548152906001019060200180831161070a57829003601f168201915b50505050509250838360405160200161074091906114a6565b60405160208183030381529060405280519060200120141561093357600080898152602001908152602001600020828154811061077957fe5b90600052602060002090600202016000808201600061079891906110c1565b6001820160006107a891906110c1565b50506107eb82600160008b8152602001908152602001600020896040516107cf91906114a6565b9081526020016040518091039020610e6490919063ffffffff16565b5061081182600260008b8152602001908152602001600020610e7e90919063ffffffff16565b156108e45761083b82600260008b8152602001908152602001600020610e6490919063ffffffff16565b506000610875600160008b81526020019081526020016000208960405161086291906114a6565b9081526020016040518091039020610aa9565b11156108e3576108e16108c06000600160008c81526020019081526020016000208a6040516108a491906114a6565b9081526020016040518091039020610c9e90919063ffffffff16565b600260008b8152602001908152602001600020610e9890919063ffffffff16565b505b5b866040516108f291906114a6565b6040518091039020887fee2d84cbe517a6d99340af3cd5fb4d74b82dc4e67ee85941c4834cab02d58b3b8860405161092a91906114df565b60405180910390a35b808060010191505061061a565b50505050505b505050565b60606000610986600160008681526020019081526020016000208460405161097391906114a6565b9081526020016040518091039020610aa9565b905060606000821115610a9e576000808681526020019081526020016000206109e7600060016000898152602001908152602001600020876040516109cb91906114a6565b9081526020016040518091039020610c9e90919063ffffffff16565b815481106109f157fe5b90600052602060002090600202016001018054600181600116156101000203166002900480601f016020809104026020016040519081016040528092919081815260200182805460018160011615610100020316600290048015610a965780601f10610a6b57610100808354040283529160200191610a96565b820191906000526020600020905b815481529060010190602001808311610a7957829003601f168201915b505050505090505b809250505092915050565b6000610ab782600001610eb2565b9050919050565b600080600085815260200190815260200160002080549050905060008085815260200190815260200160002060405180604001604052808581526020018481525090806001815401808255809150506001900390600052602060002090600202016000909190919091506000820151816000019080519060200190610b44929190611109565b506020820151816001019080519060200190610b61929190611109565b505050610ba5816001600087815260200190815260200160002085604051610b8991906114a6565b9081526020016040518091039020610e9890919063ffffffff16565b506000610bdf6001600087815260200190815260200160002085604051610bcc91906114a6565b9081526020016040518091039020610aa9565b90506001811415610c1157610c0f8260026000888152602001908152602001600020610e9890919063ffffffff16565b505b83604051610c1f91906114a6565b6040518091039020857f65920af9435635edb76c49696d4b8a13f6c152cef7066160addca1711adfb1cb85610c81600160008b815260200190815260200160002089604051610c6e91906114a6565b9081526020016040518091039020610aa9565b604051610c8f929190611501565b60405180910390a35050505050565b6000610cad8360000183610ec3565b60001c905092915050565b6000610cf16001600085815260200190815260200160002083604051610cde91906114a6565b9081526020016040518091039020610aa9565b90506000811115610e5f57600080600090505b82811015610dd057610d4d816001600088815260200190815260200160002086604051610d3191906114a6565b9081526020016040518091039020610c9e90919063ffffffff16565b91506000808681526020019081526020016000208281548110610d6c57fe5b906000526020600020906002020160008082016000610d8b91906110c1565b600182016000610d9b91906110c1565b5050610dc28260026000888152602001908152602001600020610e6490919063ffffffff16565b508080600101915050610d04565b506001600085815260200190815260200160002083604051610df291906114a6565b9081526020016040518091039020600080820160008082016000610e169190611197565b5050505082604051610e2891906114a6565b6040518091039020847f58a5205d6570ac73f38123ff3d9a2a4902264199b8c953afa14e3b61d27e256860405160405180910390a3505b505050565b6000610e76836000018360001b610f46565b905092915050565b6000610e90836000018360001b61102e565b905092915050565b6000610eaa836000018360001b611051565b905092915050565b600081600001805490509050919050565b600081836000018054905011610f24576040517f08c379a00000000000000000000000000000000000000000000000000000000081526004018080602001828103825260228152602001806116956022913960400191505060405180910390fd5b826000018281548110610f3357fe5b9060005260206000200154905092915050565b600080836001016000848152602001908152602001600020549050600081146110225760006001820390506000600186600001805490500390506000866000018281548110610f9157fe5b9060005260206000200154905080876000018481548110610fae57fe5b9060005260206000200181905550600183018760010160008381526020019081526020016000208190555086600001805480610fe657fe5b60019003818190600052602060002001600090559055866001016000878152602001908152602001600020600090556001945050505050611028565b60009150505b92915050565b600080836001016000848152602001908152602001600020541415905092915050565b600061105d838361102e565b6110b65782600001829080600181540180825580915050600190039060005260206000200160009091909190915055826000018054905083600101600084815260200190815260200160002081905550600190506110bb565b600090505b92915050565b50805460018160011615610100020316600290046000825580601f106110e75750611106565b601f01602090049060005260206000209081019061110591906111b8565b5b50565b828054600181600116156101000203166002900490600052602060002090601f01602090048101928261113f5760008555611186565b82601f1061115857805160ff1916838001178555611186565b82800160010185558215611186579182015b8281111561118557825182559160200191906001019061116a565b5b50905061119391906111b8565b5090565b50805460008255906000526020600020908101906111b591906111d5565b50565b5b808211156111d15760008160009055506001016111b9565b5090565b5b808211156111ee5760008160009055506001016111d6565b5090565b60006112056112008461157d565b61154c565b90508281526020810184848401111561121d57600080fd5b611228848285611628565b509392505050565b600082601f83011261124157600080fd5b81356112518482602086016111f2565b91505092915050565b6000813590506112698161167d565b92915050565b60006020828403121561128157600080fd5b600061128f8482850161125a565b91505092915050565b600080604083850312156112ab57600080fd5b60006112b98582860161125a565b925050602083013567ffffffffffffffff8111156112d657600080fd5b6112e285828601611230565b9150509250929050565b60008060006060848603121561130157600080fd5b600061130f8682870161125a565b935050602084013567ffffffffffffffff81111561132c57600080fd5b61133886828701611230565b925050604084013567ffffffffffffffff81111561135557600080fd5b61136186828701611230565b9150509250925092565b600061137783836113f4565b905092915050565b600061138a826115bd565b61139481856115e0565b9350836020820285016113a6856115ad565b8060005b858110156113e257848403895281516113c3858261136b565b94506113ce836115d3565b925060208a019950506001810190506113aa565b50829750879550505050505092915050565b60006113ff826115c8565b61140981856115f1565b9350611419818560208601611637565b6114228161166c565b840191505092915050565b6000611438826115c8565b6114428185611602565b9350611452818560208601611637565b61145b8161166c565b840191505092915050565b6000611471826115c8565b61147b8185611613565b935061148b818560208601611637565b80840191505092915050565b6114a08161161e565b82525050565b60006114b28284611466565b915081905092915050565b600060208201905081810360008301526114d7818461137f565b905092915050565b600060208201905081810360008301526114f9818461142d565b905092915050565b6000604082019050818103600083015261151b818561142d565b905061152a6020830184611497565b9392505050565b60006020820190506115466000830184611497565b92915050565b6000604051905081810181811067ffffffffffffffff821117156115735761157261166a565b5b8060405250919050565b600067ffffffffffffffff8211156115985761159761166a565b5b601f19601f8301169050602081019050919050565b6000819050602082019050919050565b600081519050919050565b600081519050919050565b6000602082019050919050565b600082825260208201905092915050565b600082825260208201905092915050565b600082825260208201905092915050565b600081905092915050565b6000819050919050565b82818337600083830152505050565b60005b8381101561165557808201518184015260208101905061163a565b83811115611664576000848401525b50505050565bfe5b6000601f19601f8301169050919050565b6116868161161e565b811461169157600080fd5b5056fe456e756d657261626c655365743a20696e646578206f7574206f6620626f756e6473a26469706673582212200025e70ac42caff6e9a85881132a5bef3eb5a88eb114a7fb8cb66134849a5d7f64736f6c63430007060033",
  "linkReferences": {},
  "deployedLinkReferences": {}
}