{
  "_format": "hh-sol-artifact-1",
  "contractName": "MultisigLounge",
  "sourceName": "contracts/multisig/MultisigSecureToken.sol",
  "abi": [
    {
      "inputs": [],
      "stateMutability": "nonpayable",
      "type": "constructor"
    },
    {
      "inputs": [
        {
          "internalType": "address",
          "name": "contr",
          "type": "address"
        }
      ],
      "name": "addMember",
      "outputs": [],
      "stateMutability": "nonpayable",
      "type": "function"
    },
    {
      "inputs": [],
      "name": "addTx",
      "outputs": [
        {
          "internalType": "uint256",
          "name": "no",
          "type": "uint256"
        }
      ],
      "stateMutability": "nonpayable",
      "type": "function"
    },
    {
      "inputs": [],
      "name": "adminCount",
      "outputs": [
        {
          "internalType": "uint256",
          "name": "",
          "type": "uint256"
        }
      ],
      "stateMutability": "view",
      "type": "function"
    },
    {
      "inputs": [
        {
          "internalType": "uint256",
          "name": "no",
          "type": "uint256"
        }
      ],
      "name": "confirmTx",
      "outputs": [
        {
          "internalType": "uint256",
          "name": "confirms",
          "type": "uint256"
        },
        {
          "internalType": "uint256",
          "name": "remains",
          "type": "uint256"
        }
      ],
      "stateMutability": "nonpayable",
      "type": "function"
    },
    {
      "inputs": [],
      "name": "countTx",
      "outputs": [
        {
          "internalType": "uint256",
          "name": "",
          "type": "uint256"
        }
      ],
      "stateMutability": "view",
      "type": "function"
    },
    {
      "inputs": [
        {
          "internalType": "address",
          "name": "acct",
          "type": "address"
        }
      ],
      "name": "grantAdmin",
      "outputs": [],
      "stateMutability": "nonpayable",
      "type": "function"
    },
    {
      "inputs": [
        {
          "internalType": "address",
          "name": "acct",
          "type": "address"
        }
      ],
      "name": "isAdmin",
      "outputs": [
        {
          "internalType": "bool",
          "name": "",
          "type": "bool"
        }
      ],
      "stateMutability": "view",
      "type": "function"
    },
    {
      "inputs": [
        {
          "internalType": "uint256",
          "name": "s",
          "type": "uint256"
        }
      ],
      "name": "list10",
      "outputs": [],
      "stateMutability": "nonpayable",
      "type": "function"
    },
    {
      "inputs": [
        {
          "internalType": "uint256",
          "name": "no",
          "type": "uint256"
        }
      ],
      "name": "rejectTx",
      "outputs": [
        {
          "internalType": "uint256",
          "name": "confirms",
          "type": "uint256"
        },
        {
          "internalType": "uint256",
          "name": "remains",
          "type": "uint256"
        }
      ],
      "stateMutability": "nonpayable",
      "type": "function"
    },
    {
      "inputs": [
        {
          "internalType": "uint256",
          "name": "no",
          "type": "uint256"
        }
      ],
      "name": "removeTx",
      "outputs": [],
      "stateMutability": "nonpayable",
      "type": "function"
    },
    {
      "inputs": [
        {
          "internalType": "address",
          "name": "acct",
          "type": "address"
        }
      ],
      "name": "revokeAdmin",
      "outputs": [],
      "stateMutability": "nonpayable",
      "type": "function"
    },
    {
      "inputs": [
        {
          "internalType": "uint256",
          "name": "no",
          "type": "uint256"
        }
      ],
      "name": "revokeTx",
      "outputs": [
        {
          "internalType": "uint256",
          "name": "confirms",
          "type": "uint256"
        },
        {
          "internalType": "uint256",
          "name": "remains",
          "type": "uint256"
        }
      ],
      "stateMutability": "nonpayable",
      "type": "function"
    }
  ],
  "bytecode": "0x6080604052600160005534801561001557600080fd5b5061003761002761003d60201b60201c565b600161004560201b90919060201c565b50610114565b600033905090565b6000610073836000018373ffffffffffffffffffffffffffffffffffffffff1660001b61007b60201b60201c565b905092915050565b600061008d83836100f160201b60201c565b6100e65782600001829080600181540180825580915050600190039060005260206000200160009091909190915055826000018054905083600101600084815260200190815260200160002081905550600190506100eb565b600090505b92915050565b600080836001016000848152602001908152602001600020541415905092915050565b610ca9806101236000396000f3fe608060405234801561001057600080fd5b50600436106100b45760003560e01c80635986aaca116100715780635986aaca1461017b57806366c6403d146101ac578063801be060146101c8578063b7fa9c6e146101f9578063ca6d56dc14610215578063ddf6874e14610231576100b4565b806324d7806c146100b95780632b7832b3146100e95780632d3456701461010757806335bb3e16146101235780633d954ff41461013f578063551554951461015d575b600080fd5b6100d360048036038101906100ce91906108fc565b610262565b6040516100e09190610944565b60405180910390f35b6100f161027f565b6040516100fe9190610978565b60405180910390f35b610121600480360381019061011c91906108fc565b610290565b005b61013d600480360381019061013891906108fc565b61034e565b005b6101476103c0565b6040516101549190610978565b60405180910390f35b6101656103c5565b6040516101729190610978565b60405180910390f35b610195600480360381019061019091906109bf565b61043c565b6040516101a39291906109ec565b60405180910390f35b6101c660048036038101906101c191906109bf565b61049e565b005b6101e260048036038101906101dd91906109bf565b6104a1565b6040516101f09291906109ec565b60405180910390f35b610213600480360381019061020e91906109bf565b610503565b005b61022f600480360381019061022a91906108fc565b610560565b005b61024b600480360381019061024691906109bf565b6105d2565b6040516102599291906109ec565b60405180910390f35b600061027882600161063490919063ffffffff16565b9050919050565b600061028b6001610664565b905090565b6102ab61029b610679565b600161063490919063ffffffff16565b6102ea576040517f08c379a00000000000000000000000000000000000000000000000000000000081526004016102e190610a72565b60405180910390fd5b6102fe81600161068190919063ffffffff16565b50600061030b6001610664565b1161034b576040517f08c379a000000000000000000000000000000000000000000000000000000000815260040161034290610ade565b60405180910390fd5b50565b610369610359610679565b600161063490919063ffffffff16565b6103a8576040517f08c379a000000000000000000000000000000000000000000000000000000000815260040161039f90610a72565b60405180910390fd5b6103bc8160016106b190919063ffffffff16565b5050565b600090565b60006103e26103d2610679565b600361063490919063ffffffff16565b610421576040517f08c379a000000000000000000000000000000000000000000000000000000000815260040161041890610b4a565b60405180910390fd5b60008081548092919061043390610b99565b91905055905090565b60008061045a61044a610679565b600361063490919063ffffffff16565b610499576040517f08c379a000000000000000000000000000000000000000000000000000000000815260040161049090610b4a565b60405180910390fd5b915091565b50565b6000806104bf6104af610679565b600361063490919063ffffffff16565b6104fe576040517f08c379a00000000000000000000000000000000000000000000000000000000081526004016104f590610b4a565b60405180910390fd5b915091565b61051e61050e610679565b600361063490919063ffffffff16565b61055d576040517f08c379a000000000000000000000000000000000000000000000000000000000815260040161055490610b4a565b60405180910390fd5b50565b61057b61056b610679565b600161063490919063ffffffff16565b6105ba576040517f08c379a00000000000000000000000000000000000000000000000000000000081526004016105b190610a72565b60405180910390fd5b6105ce8160036106b190919063ffffffff16565b5050565b6000806105f06105e0610679565b600361063490919063ffffffff16565b61062f576040517f08c379a000000000000000000000000000000000000000000000000000000000815260040161062690610b4a565b60405180910390fd5b915091565b600061065c836000018373ffffffffffffffffffffffffffffffffffffffff1660001b6106e1565b905092915050565b600061067282600001610704565b9050919050565b600033905090565b60006106a9836000018373ffffffffffffffffffffffffffffffffffffffff1660001b610715565b905092915050565b60006106d9836000018373ffffffffffffffffffffffffffffffffffffffff1660001b610829565b905092915050565b600080836001016000848152602001908152602001600020541415905092915050565b600081600001805490509050919050565b6000808360010160008481526020019081526020016000205490506000811461081d5760006001826107479190610be1565b905060006001866000018054905061075f9190610be1565b90508181146107ce5760008660000182815481106107805761077f610c15565b5b90600052602060002001549050808760000184815481106107a4576107a3610c15565b5b90600052602060002001819055508387600101600083815260200190815260200160002081905550505b856000018054806107e2576107e1610c44565b5b600190038181906000526020600020016000905590558560010160008681526020019081526020016000206000905560019350505050610823565b60009150505b92915050565b600061083583836106e1565b61088e578260000182908060018154018082558091505060019003906000526020600020016000909190919091505582600001805490508360010160008481526020019081526020016000208190555060019050610893565b600090505b92915050565b600080fd5b600073ffffffffffffffffffffffffffffffffffffffff82169050919050565b60006108c98261089e565b9050919050565b6108d9816108be565b81146108e457600080fd5b50565b6000813590506108f6816108d0565b92915050565b60006020828403121561091257610911610899565b5b6000610920848285016108e7565b91505092915050565b60008115159050919050565b61093e81610929565b82525050565b60006020820190506109596000830184610935565b92915050565b6000819050919050565b6109728161095f565b82525050565b600060208201905061098d6000830184610969565b92915050565b61099c8161095f565b81146109a757600080fd5b50565b6000813590506109b981610993565b92915050565b6000602082840312156109d5576109d4610899565b5b60006109e3848285016109aa565b91505092915050565b6000604082019050610a016000830185610969565b610a0e6020830184610969565b9392505050565b600082825260208201905092915050565b7f416c6c6f77656420666f72206f6e6c792061646d696e732e0000000000000000600082015250565b6000610a5c601883610a15565b9150610a6782610a26565b602082019050919050565b60006020820190508181036000830152610a8b81610a4f565b9050919050565b7f4c6173742061646d696e2063616e27742072656d6f7665642e00000000000000600082015250565b6000610ac8601983610a15565b9150610ad382610a92565b602082019050919050565b60006020820190508181036000830152610af781610abb565b9050919050565b7f416c6c6f77656420666f72206f6e6c79206d656d626572732e00000000000000600082015250565b6000610b34601983610a15565b9150610b3f82610afe565b602082019050919050565b60006020820190508181036000830152610b6381610b27565b9050919050565b7f4e487b7100000000000000000000000000000000000000000000000000000000600052601160045260246000fd5b6000610ba48261095f565b91507fffffffffffffffffffffffffffffffffffffffffffffffffffffffffffffffff8203610bd657610bd5610b6a565b5b600182019050919050565b6000610bec8261095f565b9150610bf78361095f565b9250828203905081811115610c0f57610c0e610b6a565b5b92915050565b7f4e487b7100000000000000000000000000000000000000000000000000000000600052603260045260246000fd5b7f4e487b7100000000000000000000000000000000000000000000000000000000600052603160045260246000fdfea2646970667358221220092fd88050c05628611e6c5a6bd49c85a4a0b210e063e680cab48f43fb41d3bc64736f6c63430008130033",
  "linkReferences": {},
  "deployedLinkReferences": {}
}