{
  "_format": "hh-sol-artifact-1",
  "contractName": "MultisigSecureToken",
  "sourceName": "contracts/multisig/MultisigSecureToken.sol",
  "abi": [
    {
      "inputs": [
        {
          "internalType": "address",
          "name": "from",
          "type": "address"
        },
        {
          "internalType": "address",
          "name": "to",
          "type": "address"
        },
        {
          "internalType": "uint256",
          "name": "amount",
          "type": "uint256"
        }
      ],
      "name": "forceTransfer",
      "outputs": [],
      "stateMutability": "nonpayable",
      "type": "function"
    }
  ],
  "bytecode": "0x60806040526002600160006101000a81548160ff021916908360ff16021790555034801561002c57600080fd5b506102778061003c6000396000f3fe608060405234801561001057600080fd5b506004361061002b5760003560e01c806333bebb7714610030575b600080fd5b61004a600480360381019061004591906101ac565b61004c565b005b60018060009054906101000a900460ff1660ff1611156100fd5760018054906101000a900473ffffffffffffffffffffffffffffffffffffffff1673ffffffffffffffffffffffffffffffffffffffff1663551554956040518163ffffffff1660e01b81526004016020604051808303816000875af11580156100d3573d6000803e3d6000fd5b505050506040513d601f19601f820116820180604052508101906100f79190610214565b50610109565b61010883838361010e565b5b505050565b505050565b600080fd5b600073ffffffffffffffffffffffffffffffffffffffff82169050919050565b600061014382610118565b9050919050565b61015381610138565b811461015e57600080fd5b50565b6000813590506101708161014a565b92915050565b6000819050919050565b61018981610176565b811461019457600080fd5b50565b6000813590506101a681610180565b92915050565b6000806000606084860312156101c5576101c4610113565b5b60006101d386828701610161565b93505060206101e486828701610161565b92505060406101f586828701610197565b9150509250925092565b60008151905061020e81610180565b92915050565b60006020828403121561022a57610229610113565b5b6000610238848285016101ff565b9150509291505056fea2646970667358221220e2ab759df09bbc4a900227b60d183cfc1440ddbb5b3e0ab614c2c975fc7033a464736f6c63430008130033",
  "linkReferences": {},
  "deployedLinkReferences": {}
}