{
  "_format": "hh-sol-artifact-1",
  "contractName": "DocSignings",
  "sourceName": "contracts/docs/DocSignings.sol",
  "abi": [
    {
      "inputs": [
        {
          "internalType": "address",
          "name": "_docsCntrAddr",
          "type": "address"
        }
      ],
      "stateMutability": "nonpayable",
      "type": "constructor"
    },
    {
      "inputs": [
        {
          "internalType": "uint256",
          "name": "_docId",
          "type": "uint256"
        }
      ],
      "name": "findSigningByDoc",
      "outputs": [
        {
          "components": [
            {
              "internalType": "uint256",
              "name": "docId",
              "type": "uint256"
            },
            {
              "internalType": "address",
              "name": "signer",
              "type": "address"
            },
            {
              "internalType": "uint256",
              "name": "at",
              "type": "uint256"
            }
          ],
          "internalType": "struct DocSigning[]",
          "name": "",
          "type": "tuple[]"
        }
      ],
      "stateMutability": "view",
      "type": "function"
    },
    {
      "inputs": [],
      "name": "findSigningsOfMine",
      "outputs": [
        {
          "components": [
            {
              "internalType": "uint256",
              "name": "docId",
              "type": "uint256"
            },
            {
              "internalType": "address",
              "name": "signer",
              "type": "address"
            },
            {
              "internalType": "uint256",
              "name": "at",
              "type": "uint256"
            }
          ],
          "internalType": "struct DocSigning[]",
          "name": "",
          "type": "tuple[]"
        }
      ],
      "stateMutability": "view",
      "type": "function"
    },
    {
      "inputs": [
        {
          "internalType": "uint256",
          "name": "_docId",
          "type": "uint256"
        }
      ],
      "name": "hasSiginedByAll",
      "outputs": [
        {
          "internalType": "bool",
          "name": "",
          "type": "bool"
        }
      ],
      "stateMutability": "view",
      "type": "function"
    },
    {
      "inputs": [
        {
          "internalType": "uint256",
          "name": "_docId",
          "type": "uint256"
        },
        {
          "internalType": "address",
          "name": "_signer",
          "type": "address"
        }
      ],
      "name": "hasSigned",
      "outputs": [
        {
          "internalType": "bool",
          "name": "",
          "type": "bool"
        }
      ],
      "stateMutability": "view",
      "type": "function"
    },
    {
      "inputs": [
        {
          "internalType": "uint256",
          "name": "_docId",
          "type": "uint256"
        }
      ],
      "name": "hasSigned",
      "outputs": [
        {
          "internalType": "bool",
          "name": "",
          "type": "bool"
        }
      ],
      "stateMutability": "view",
      "type": "function"
    },
    {
      "inputs": [
        {
          "internalType": "uint256",
          "name": "_docId",
          "type": "uint256"
        }
      ],
      "name": "sign",
      "outputs": [],
      "stateMutability": "nonpayable",
      "type": "function"
    }
  ],
  "bytecode": "0x608060405234801561001057600080fd5b50604051610bf6380380610bf6833981810160405281019061003291906100fd565b600073ffffffffffffffffffffffffffffffffffffffff168173ffffffffffffffffffffffffffffffffffffffff1614156100a2576040517f08c379a000000000000000000000000000000000000000000000000000000000815260040161009990610166565b60405180910390fd5b806000806101000a81548173ffffffffffffffffffffffffffffffffffffffff021916908373ffffffffffffffffffffffffffffffffffffffff160217905550506101e0565b6000815190506100f7816101c9565b92915050565b60006020828403121561010f57600080fd5b600061011d848285016100e8565b91505092915050565b6000610133601c83610186565b91507f436f6e747261637420616464726573732063616e276265205a45524f000000006000830152602082019050919050565b6000602082019050818103600083015261017f81610126565b9050919050565b600082825260208201905092915050565b60006101a2826101a9565b9050919050565b600073ffffffffffffffffffffffffffffffffffffffff82169050919050565b6101d281610197565b81146101dd57600080fd5b50565b610a07806101ef6000396000f3fe608060405234801561001057600080fd5b50600436106100625760003560e01c80632fb1b25f14610067578063465cbbc814610083578063709df8d9146100b35780637dbaabc0146100e3578063dbcd9f7114610113578063fa8dcebf14610143575b600080fd5b610081600480360381019061007c919061067f565b610161565b005b61009d6004803603810190610098919061067f565b61022e565b6040516100aa91906107d8565b60405180910390f35b6100cd60048036038101906100c891906106a8565b610310565b6040516100da91906107fa565b60405180910390f35b6100fd60048036038101906100f8919061067f565b610318565b60405161010a91906107fa565b60405180910390f35b61012d6004803603810190610128919061067f565b61031f565b60405161013a91906107fa565b60405180910390f35b61014b610326565b60405161015891906107d8565b60405180910390f35b60008060009054906101000a900473ffffffffffffffffffffffffffffffffffffffff1673ffffffffffffffffffffffffffffffffffffffff1663cb58af33836040518263ffffffff1660e01b81526004016101bd9190610815565b60006040518083038186803b1580156101d557600080fd5b505afa1580156101e9573d6000803e3d6000fd5b505050506040513d6000823e3d601f19601f82011682018060405250810190610212919061063e565b9050600081600001515150506000808260e00151905050505050565b6060600060016000848152602001908152602001600020805480602002602001604051908101604052809291908181526020016000905b828210156103015783829060005260206000209060030201604051806060016040529081600082015481526020016001820160009054906101000a900473ffffffffffffffffffffffffffffffffffffffff1673ffffffffffffffffffffffffffffffffffffffff1673ffffffffffffffffffffffffffffffffffffffff16815260200160028201548152505081526020019060010190610265565b50505050905080915050919050565b600092915050565b6000919050565b6000919050565b606090565b600061033e61033984610861565b610830565b9050808382526020820190508285602086028201111561035d57600080fd5b60005b8581101561038d57816103738882610428565b845260208401935060208301925050600181019050610360565b5050509392505050565b60006103aa6103a58461088d565b610830565b9050828152602081018484840111156103c257600080fd5b6103cd84828561096e565b509392505050565b60006103e86103e3846108bd565b610830565b90508281526020810184848401111561040057600080fd5b61040b84828561096e565b509392505050565b600081359050610422816109a3565b92915050565b600081519050610437816109a3565b92915050565b600082601f83011261044e57600080fd5b815161045e84826020860161032b565b91505092915050565b600082601f83011261047857600080fd5b8151610488848260208601610397565b91505092915050565b600082601f8301126104a257600080fd5b81516104b28482602086016103d5565b91505092915050565b600061010082840312156104ce57600080fd5b6104d9610100610830565b9050600082015167ffffffffffffffff8111156104f557600080fd5b61050184828501610467565b600083015250602082015167ffffffffffffffff81111561052157600080fd5b61052d84828501610491565b602083015250604082015167ffffffffffffffff81111561054d57600080fd5b61055984828501610491565b604083015250606082015167ffffffffffffffff81111561057957600080fd5b61058584828501610491565b606083015250608082015167ffffffffffffffff8111156105a557600080fd5b6105b184828501610491565b60808301525060a082015167ffffffffffffffff8111156105d157600080fd5b6105dd84828501610491565b60a08301525060c06105f184828501610428565b60c08301525060e082015167ffffffffffffffff81111561061157600080fd5b61061d8482850161043d565b60e08301525092915050565b600081359050610638816109ba565b92915050565b60006020828403121561065057600080fd5b600082015167ffffffffffffffff81111561066a57600080fd5b610676848285016104bb565b91505092915050565b60006020828403121561069157600080fd5b600061069f84828501610629565b91505092915050565b600080604083850312156106bb57600080fd5b60006106c985828601610629565b92505060206106da85828601610413565b9150509250929050565b60006106f08383610778565b60608301905092915050565b61070581610926565b82525050565b6000610716826108fd565b6107208185610915565b935061072b836108ed565b8060005b8381101561075c57815161074388826106e4565b975061074e83610908565b92505060018101905061072f565b5085935050505092915050565b61077281610938565b82525050565b60608201600082015161078e60008501826107ba565b5060208201516107a160208501826106fc565b5060408201516107b460408501826107ba565b50505050565b6107c381610964565b82525050565b6107d281610964565b82525050565b600060208201905081810360008301526107f2818461070b565b905092915050565b600060208201905061080f6000830184610769565b92915050565b600060208201905061082a60008301846107c9565b92915050565b6000604051905081810181811067ffffffffffffffff82111715610857576108566109a1565b5b8060405250919050565b600067ffffffffffffffff82111561087c5761087b6109a1565b5b602082029050602081019050919050565b600067ffffffffffffffff8211156108a8576108a76109a1565b5b601f19601f8301169050602081019050919050565b600067ffffffffffffffff8211156108d8576108d76109a1565b5b601f19601f8301169050602081019050919050565b6000819050602082019050919050565b600081519050919050565b6000602082019050919050565b600082825260208201905092915050565b600061093182610944565b9050919050565b60008115159050919050565b600073ffffffffffffffffffffffffffffffffffffffff82169050919050565b6000819050919050565b60005b8381101561098c578082015181840152602081019050610971565b8381111561099b576000848401525b50505050565bfe5b6109ac81610926565b81146109b757600080fd5b50565b6109c381610964565b81146109ce57600080fd5b5056fea2646970667358221220d4f52df91f48d4d3be5e859ab9c8e862e0e0b920803881e825f481bc841eca3a64736f6c63430007060033",
  "linkReferences": {},
  "deployedLinkReferences": {}
}