{
  "_format": "hh-sol-artifact-1",
  "contractName": "MultisigWithdrawal",
  "sourceName": "contracts/multisig/MultisigWithrawal.sol",
  "abi": [
    {
      "inputs": [
        {
          "internalType": "address[]",
          "name": "signers",
          "type": "address[]"
        }
      ],
      "stateMutability": "nonpayable",
      "type": "constructor"
    },
    {
      "inputs": [],
      "name": "_nonce",
      "outputs": [
        {
          "internalType": "uint256",
          "name": "",
          "type": "uint256"
        }
      ],
      "stateMutability": "view",
      "type": "function"
    },
    {
      "inputs": [
        {
          "components": [
            {
              "internalType": "uint256",
              "name": "amount",
              "type": "uint256"
            },
            {
              "internalType": "address",
              "name": "to",
              "type": "address"
            }
          ],
          "internalType": "struct Withdrawal",
          "name": "tx_",
          "type": "tuple"
        },
        {
          "internalType": "uint256",
          "name": "nonce",
          "type": "uint256"
        },
        {
          "internalType": "bytes[]",
          "name": "signatures",
          "type": "bytes[]"
        }
      ],
      "name": "transfer",
      "outputs": [],
      "stateMutability": "nonpayable",
      "type": "function"
    }
  ],
  "bytecode": "0x60806040523480156200001157600080fd5b506040516200161e3803806200161e8339818101604052810190620000379190620002cd565b805160018190555060005b600154811015620000d75760016000808484815181106200006857620000676200031e565b5b602002602001015173ffffffffffffffffffffffffffffffffffffffff1673ffffffffffffffffffffffffffffffffffffffff16815260200190815260200160002060006101000a81548160ff0219169083151502179055508080620000ce9062000386565b91505062000042565b5050620003d3565b6000604051905090565b600080fd5b600080fd5b600080fd5b6000601f19601f8301169050919050565b7f4e487b7100000000000000000000000000000000000000000000000000000000600052604160045260246000fd5b6200014382620000f8565b810181811067ffffffffffffffff8211171562000165576200016462000109565b5b80604052505050565b60006200017a620000df565b905062000188828262000138565b919050565b600067ffffffffffffffff821115620001ab57620001aa62000109565b5b602082029050602081019050919050565b600080fd5b600073ffffffffffffffffffffffffffffffffffffffff82169050919050565b6000620001ee82620001c1565b9050919050565b6200020081620001e1565b81146200020c57600080fd5b50565b6000815190506200022081620001f5565b92915050565b60006200023d62000237846200018d565b6200016e565b90508083825260208201905060208402830185811115620002635762000262620001bc565b5b835b818110156200029057806200027b88826200020f565b84526020840193505060208101905062000265565b5050509392505050565b600082601f830112620002b257620002b1620000f3565b5b8151620002c484826020860162000226565b91505092915050565b600060208284031215620002e657620002e5620000e9565b5b600082015167ffffffffffffffff811115620003075762000306620000ee565b5b62000315848285016200029a565b91505092915050565b7f4e487b7100000000000000000000000000000000000000000000000000000000600052603260045260246000fd5b7f4e487b7100000000000000000000000000000000000000000000000000000000600052601160045260246000fd5b6000819050919050565b600062000393826200037c565b91507fffffffffffffffffffffffffffffffffffffffffffffffffffffffffffffffff8203620003c857620003c76200034d565b5b600182019050919050565b61123b80620003e36000396000f3fe608060405234801561001057600080fd5b50600436106100365760003560e01c806345ecf9181461003b5780635d1222aa14610057575b600080fd5b610055600480360381019061005091906108c7565b610075565b005b61005f6100e0565b60405161006c919061094a565b60405180910390f35b600360009054906101000a900460ff161561008f57600080fd5b6001600360006101000a81548160ff0219169083151502179055506100b6848484846100e6565b6100bf84610331565b6000600360006101000a81548160ff02191690831515021790555050505050565b60025481565b600254831161012a576040517f08c379a0000000000000000000000000000000000000000000000000000000008152600401610121906109c2565b60405180910390fd5b6000828290509050600154811015610177576040517f08c379a000000000000000000000000000000000000000000000000000000000815260040161016e90610a2e565b60405180910390fd5b600061018386866103f7565b9050600080600090505b838110156103205760008686838181106101aa576101a9610a4e565b5b90506020028101906101bc9190610a8c565b8080601f016020809104026020016040519081016040528093929190818152602001838380828437600081840152601f19601f820116905080830192505050505050509050600061020d85836104ae565b90508373ffffffffffffffffffffffffffffffffffffffff168173ffffffffffffffffffffffffffffffffffffffff161161027d576040517f08c379a000000000000000000000000000000000000000000000000000000000815260040161027490610b3b565b60405180910390fd5b6000808273ffffffffffffffffffffffffffffffffffffffff1673ffffffffffffffffffffffffffffffffffffffff16815260200190815260200160002060009054906101000a900460ff16610308576040517f08c379a00000000000000000000000000000000000000000000000000000000081526004016102ff90610ba7565b60405180910390fd5b8093505050808061031890610bf6565b91505061018d565b508560028190555050505050505050565b60008160200160208101906103469190610c9c565b73ffffffffffffffffffffffffffffffffffffffff16826000013560405161036d90610cfa565b60006040518083038185875af1925050503d80600081146103aa576040519150601f19603f3d011682016040523d82523d6000602084013e6103af565b606091505b50509050806103f3576040517f08c379a00000000000000000000000000000000000000000000000000000000081526004016103ea90610d5b565b60405180910390fd5b5050565b6000808360405160200161040b9190610e06565b6040516020818303038152906040529050808360405160200161042f929190610ea8565b6040516020818303038152906040528051906020012091506040518060400160405280601c81526020017f19457468657265756d205369676e6564204d6573736167653a0a3332000000008152508260405160200161048f929190610f42565b6040516020818303038152906040528051906020012091505092915050565b60008060006104bd85856104d5565b915091506104ca81610526565b819250505092915050565b60008060418351036105165760008060006020860151925060408601519150606086015160001a905061050a878285856106f2565b9450945050505061051f565b60006002915091505b9250929050565b6000600481111561053a57610539610f6a565b5b81600481111561054d5761054c610f6a565b5b03156106ef576001600481111561056757610566610f6a565b5b81600481111561057a57610579610f6a565b5b036105ba576040517f08c379a00000000000000000000000000000000000000000000000000000000081526004016105b190610fe5565b60405180910390fd5b600260048111156105ce576105cd610f6a565b5b8160048111156105e1576105e0610f6a565b5b03610621576040517f08c379a000000000000000000000000000000000000000000000000000000000815260040161061890611051565b60405180910390fd5b6003600481111561063557610634610f6a565b5b81600481111561064857610647610f6a565b5b03610688576040517f08c379a000000000000000000000000000000000000000000000000000000000815260040161067f906110e3565b60405180910390fd5b60048081111561069b5761069a610f6a565b5b8160048111156106ae576106ad610f6a565b5b036106ee576040517f08c379a00000000000000000000000000000000000000000000000000000000081526004016106e590611175565b60405180910390fd5b5b50565b6000807f7fffffffffffffffffffffffffffffff5d576e7357a4501ddfe92f46681b20a08360001c111561072d5760006003915091506107f5565b601b8560ff16141580156107455750601c8560ff1614155b156107575760006004915091506107f5565b60006001878787876040516000815260200160405260405161077c94939291906111c0565b6020604051602081039080840390855afa15801561079e573d6000803e3d6000fd5b505050602060405103519050600073ffffffffffffffffffffffffffffffffffffffff168173ffffffffffffffffffffffffffffffffffffffff16036107ec576000600192509250506107f5565b80600092509250505b94509492505050565b600080fd5b600080fd5b600080fd5b60006040828403121561082357610822610808565b5b81905092915050565b6000819050919050565b61083f8161082c565b811461084a57600080fd5b50565b60008135905061085c81610836565b92915050565b600080fd5b600080fd5b600080fd5b60008083601f84011261088757610886610862565b5b8235905067ffffffffffffffff8111156108a4576108a3610867565b5b6020830191508360208202830111156108c0576108bf61086c565b5b9250929050565b600080600080608085870312156108e1576108e06107fe565b5b60006108ef8782880161080d565b94505060406109008782880161084d565b935050606085013567ffffffffffffffff81111561092157610920610803565b5b61092d87828801610871565b925092505092959194509250565b6109448161082c565b82525050565b600060208201905061095f600083018461093b565b92915050565b600082825260208201905092915050565b7f4e6f6e636520616c726561647920757365642e00000000000000000000000000600082015250565b60006109ac601383610965565b91506109b782610976565b602082019050919050565b600060208201905081810360008301526109db8161099f565b9050919050565b7f4e6f7420656e6f756768207369676e6572732e00000000000000000000000000600082015250565b6000610a18601383610965565b9150610a23826109e2565b602082019050919050565b60006020820190508181036000830152610a4781610a0b565b9050919050565b7f4e487b7100000000000000000000000000000000000000000000000000000000600052603260045260246000fd5b600080fd5b600080fd5b600080fd5b60008083356001602003843603038112610aa957610aa8610a7d565b5b80840192508235915067ffffffffffffffff821115610acb57610aca610a82565b5b602083019250600182023603831315610ae757610ae6610a87565b5b509250929050565b7f506f737369626c65206475706c69636174650000000000000000000000000000600082015250565b6000610b25601283610965565b9150610b3082610aef565b602082019050919050565b60006020820190508181036000830152610b5481610b18565b9050919050565b7f4e6f742076616c6964207369676e657200000000000000000000000000000000600082015250565b6000610b91601083610965565b9150610b9c82610b5b565b602082019050919050565b60006020820190508181036000830152610bc081610b84565b9050919050565b7f4e487b7100000000000000000000000000000000000000000000000000000000600052601160045260246000fd5b6000610c018261082c565b91507fffffffffffffffffffffffffffffffffffffffffffffffffffffffffffffffff8203610c3357610c32610bc7565b5b600182019050919050565b600073ffffffffffffffffffffffffffffffffffffffff82169050919050565b6000610c6982610c3e565b9050919050565b610c7981610c5e565b8114610c8457600080fd5b50565b600081359050610c9681610c70565b92915050565b600060208284031215610cb257610cb16107fe565b5b6000610cc084828501610c87565b91505092915050565b600081905092915050565b50565b6000610ce4600083610cc9565b9150610cef82610cd4565b600082019050919050565b6000610d0582610cd7565b9150819050919050565b7f5472616e73666572206661696c65642e00000000000000000000000000000000600082015250565b6000610d45601083610965565b9150610d5082610d0f565b602082019050919050565b60006020820190508181036000830152610d7481610d38565b9050919050565b6000610d8a602084018461084d565b905092915050565b610d9b8161082c565b82525050565b6000610db06020840184610c87565b905092915050565b610dc181610c5e565b82525050565b60408201610dd86000830183610d7b565b610de56000850182610d92565b50610df36020830183610da1565b610e006020850182610db8565b50505050565b6000604082019050610e1b6000830184610dc7565b92915050565b600081519050919050565b60005b83811015610e4a578082015181840152602081019050610e2f565b60008484015250505050565b6000610e6182610e21565b610e6b8185610cc9565b9350610e7b818560208601610e2c565b80840191505092915050565b6000819050919050565b610ea2610e9d8261082c565b610e87565b82525050565b6000610eb48285610e56565b9150610ec08284610e91565b6020820191508190509392505050565b600081519050919050565b600081905092915050565b6000610ef182610ed0565b610efb8185610edb565b9350610f0b818560208601610e2c565b80840191505092915050565b6000819050919050565b6000819050919050565b610f3c610f3782610f17565b610f21565b82525050565b6000610f4e8285610ee6565b9150610f5a8284610f2b565b6020820191508190509392505050565b7f4e487b7100000000000000000000000000000000000000000000000000000000600052602160045260246000fd5b7f45434453413a20696e76616c6964207369676e61747572650000000000000000600082015250565b6000610fcf601883610965565b9150610fda82610f99565b602082019050919050565b60006020820190508181036000830152610ffe81610fc2565b9050919050565b7f45434453413a20696e76616c6964207369676e6174757265206c656e67746800600082015250565b600061103b601f83610965565b915061104682611005565b602082019050919050565b6000602082019050818103600083015261106a8161102e565b9050919050565b7f45434453413a20696e76616c6964207369676e6174757265202773272076616c60008201527f7565000000000000000000000000000000000000000000000000000000000000602082015250565b60006110cd602283610965565b91506110d882611071565b604082019050919050565b600060208201905081810360008301526110fc816110c0565b9050919050565b7f45434453413a20696e76616c6964207369676e6174757265202776272076616c60008201527f7565000000000000000000000000000000000000000000000000000000000000602082015250565b600061115f602283610965565b915061116a82611103565b604082019050919050565b6000602082019050818103600083015261118e81611152565b9050919050565b61119e81610f17565b82525050565b600060ff82169050919050565b6111ba816111a4565b82525050565b60006080820190506111d56000830187611195565b6111e260208301866111b1565b6111ef6040830185611195565b6111fc6060830184611195565b9594505050505056fea26469706673582212202e1b319ead1214f2cf55c6fa709ecbeff80bed2f1a606ebc3e4e9737f0a1afe564736f6c63430008130033",
  "linkReferences": {},
  "deployedLinkReferences": {}
}