{
  "_format": "hh-sol-artifact-1",
  "contractName": "SingleOriginAuction",
  "sourceName": "contracts/market/SingleOriginAuction.sol",
  "abi": [
    {
      "inputs": [
        {
          "internalType": "address",
          "name": "assetContr",
          "type": "address"
        }
      ],
      "stateMutability": "nonpayable",
      "type": "constructor"
    },
    {
      "anonymous": false,
      "inputs": [
        {
          "indexed": true,
          "internalType": "uint256",
          "name": "bidId",
          "type": "uint256"
        },
        {
          "indexed": true,
          "internalType": "address",
          "name": "bidder",
          "type": "address"
        },
        {
          "indexed": true,
          "internalType": "uint256",
          "name": "offerId",
          "type": "uint256"
        },
        {
          "indexed": false,
          "internalType": "uint256",
          "name": "price",
          "type": "uint256"
        }
      ],
      "name": "BidPlaced",
      "type": "event"
    },
    {
      "anonymous": false,
      "inputs": [
        {
          "indexed": true,
          "internalType": "uint256",
          "name": "bidId",
          "type": "uint256"
        },
        {
          "indexed": true,
          "internalType": "uint256",
          "name": "assetId",
          "type": "uint256"
        }
      ],
      "name": "BidWithdrawn",
      "type": "event"
    },
    {
      "anonymous": false,
      "inputs": [
        {
          "indexed": true,
          "internalType": "uint256",
          "name": "offerId",
          "type": "uint256"
        },
        {
          "indexed": true,
          "internalType": "address",
          "name": "offerer",
          "type": "address"
        },
        {
          "indexed": true,
          "internalType": "uint256",
          "name": "assetId",
          "type": "uint256"
        },
        {
          "indexed": false,
          "internalType": "uint256",
          "name": "lowestPrice",
          "type": "uint256"
        },
        {
          "indexed": false,
          "internalType": "uint256",
          "name": "closeAt",
          "type": "uint256"
        }
      ],
      "name": "OfferMade",
      "type": "event"
    },
    {
      "anonymous": false,
      "inputs": [
        {
          "indexed": true,
          "internalType": "uint256",
          "name": "offerId",
          "type": "uint256"
        },
        {
          "indexed": true,
          "internalType": "uint256",
          "name": "assetId",
          "type": "uint256"
        }
      ],
      "name": "OfferWithdrawn",
      "type": "event"
    },
    {
      "inputs": [
        {
          "internalType": "uint256",
          "name": "assetId",
          "type": "uint256"
        },
        {
          "internalType": "uint256",
          "name": "price",
          "type": "uint256"
        }
      ],
      "name": "bid",
      "outputs": [
        {
          "internalType": "uint256",
          "name": "",
          "type": "uint256"
        }
      ],
      "stateMutability": "nonpayable",
      "type": "function"
    },
    {
      "inputs": [
        {
          "internalType": "uint256[]",
          "name": "bidIds",
          "type": "uint256[]"
        }
      ],
      "name": "findBids",
      "outputs": [
        {
          "components": [
            {
              "internalType": "uint256",
              "name": "id",
              "type": "uint256"
            },
            {
              "internalType": "uint256",
              "name": "offerId",
              "type": "uint256"
            },
            {
              "internalType": "address",
              "name": "bidder",
              "type": "address"
            },
            {
              "internalType": "uint256",
              "name": "price",
              "type": "uint256"
            },
            {
              "internalType": "bool",
              "name": "isWithdrawn",
              "type": "bool"
            },
            {
              "internalType": "bool",
              "name": "isAccepted",
              "type": "bool"
            }
          ],
          "internalType": "struct Bid[]",
          "name": "",
          "type": "tuple[]"
        }
      ],
      "stateMutability": "view",
      "type": "function"
    },
    {
      "inputs": [
        {
          "internalType": "uint256",
          "name": "offerId",
          "type": "uint256"
        }
      ],
      "name": "findBidsByOffer",
      "outputs": [
        {
          "internalType": "uint256[]",
          "name": "bidIds",
          "type": "uint256[]"
        }
      ],
      "stateMutability": "view",
      "type": "function"
    },
    {
      "inputs": [
        {
          "internalType": "uint256",
          "name": "offerId",
          "type": "uint256"
        }
      ],
      "name": "findOffer",
      "outputs": [
        {
          "components": [
            {
              "internalType": "uint256",
              "name": "id",
              "type": "uint256"
            },
            {
              "internalType": "uint256",
              "name": "assetId",
              "type": "uint256"
            },
            {
              "internalType": "address",
              "name": "offerer",
              "type": "address"
            },
            {
              "internalType": "uint256",
              "name": "lowestPrice",
              "type": "uint256"
            },
            {
              "internalType": "uint256",
              "name": "closedAt",
              "type": "uint256"
            },
            {
              "internalType": "bool",
              "name": "isWithdrawn",
              "type": "bool"
            },
            {
              "internalType": "bool",
              "name": "isOpen",
              "type": "bool"
            }
          ],
          "internalType": "struct Offer",
          "name": "",
          "type": "tuple"
        }
      ],
      "stateMutability": "view",
      "type": "function"
    },
    {
      "inputs": [
        {
          "internalType": "uint256[]",
          "name": "offerIds",
          "type": "uint256[]"
        }
      ],
      "name": "findOffers",
      "outputs": [
        {
          "components": [
            {
              "internalType": "uint256",
              "name": "id",
              "type": "uint256"
            },
            {
              "internalType": "uint256",
              "name": "assetId",
              "type": "uint256"
            },
            {
              "internalType": "address",
              "name": "offerer",
              "type": "address"
            },
            {
              "internalType": "uint256",
              "name": "lowestPrice",
              "type": "uint256"
            },
            {
              "internalType": "uint256",
              "name": "closedAt",
              "type": "uint256"
            },
            {
              "internalType": "bool",
              "name": "isWithdrawn",
              "type": "bool"
            },
            {
              "internalType": "bool",
              "name": "isOpen",
              "type": "bool"
            }
          ],
          "internalType": "struct Offer[]",
          "name": "offers",
          "type": "tuple[]"
        }
      ],
      "stateMutability": "view",
      "type": "function"
    },
    {
      "inputs": [
        {
          "internalType": "address",
          "name": "offerer",
          "type": "address"
        }
      ],
      "name": "findOffersByOfferer",
      "outputs": [
        {
          "internalType": "uint256[]",
          "name": "offerIds",
          "type": "uint256[]"
        }
      ],
      "stateMutability": "view",
      "type": "function"
    },
    {
      "inputs": [
        {
          "internalType": "address",
          "name": "offerer",
          "type": "address"
        }
      ],
      "name": "findOpenOffersByOfferer",
      "outputs": [
        {
          "internalType": "uint256[]",
          "name": "offerIds",
          "type": "uint256[]"
        }
      ],
      "stateMutability": "view",
      "type": "function"
    },
    {
      "inputs": [
        {
          "internalType": "uint256",
          "name": "page",
          "type": "uint256"
        }
      ],
      "name": "findOpenOffersInPage",
      "outputs": [
        {
          "components": [
            {
              "internalType": "uint256",
              "name": "id",
              "type": "uint256"
            },
            {
              "internalType": "uint256",
              "name": "assetId",
              "type": "uint256"
            },
            {
              "internalType": "address",
              "name": "offerer",
              "type": "address"
            },
            {
              "internalType": "uint256",
              "name": "lowestPrice",
              "type": "uint256"
            },
            {
              "internalType": "uint256",
              "name": "closedAt",
              "type": "uint256"
            },
            {
              "internalType": "bool",
              "name": "isWithdrawn",
              "type": "bool"
            },
            {
              "internalType": "bool",
              "name": "isOpen",
              "type": "bool"
            }
          ],
          "internalType": "struct Offer[]",
          "name": "offers",
          "type": "tuple[]"
        }
      ],
      "stateMutability": "view",
      "type": "function"
    },
    {
      "inputs": [
        {
          "internalType": "uint256",
          "name": "page",
          "type": "uint256"
        },
        {
          "internalType": "uint256",
          "name": "pageSize",
          "type": "uint256"
        }
      ],
      "name": "findOpenOffersInPage",
      "outputs": [
        {
          "components": [
            {
              "internalType": "uint256",
              "name": "id",
              "type": "uint256"
            },
            {
              "internalType": "uint256",
              "name": "assetId",
              "type": "uint256"
            },
            {
              "internalType": "address",
              "name": "offerer",
              "type": "address"
            },
            {
              "internalType": "uint256",
              "name": "lowestPrice",
              "type": "uint256"
            },
            {
              "internalType": "uint256",
              "name": "closedAt",
              "type": "uint256"
            },
            {
              "internalType": "bool",
              "name": "isWithdrawn",
              "type": "bool"
            },
            {
              "internalType": "bool",
              "name": "isOpen",
              "type": "bool"
            }
          ],
          "internalType": "struct Offer[]",
          "name": "offers",
          "type": "tuple[]"
        }
      ],
      "stateMutability": "view",
      "type": "function"
    },
    {
      "inputs": [],
      "name": "getAllOpenOffersCount",
      "outputs": [
        {
          "internalType": "uint256",
          "name": "count",
          "type": "uint256"
        }
      ],
      "stateMutability": "view",
      "type": "function"
    },
    {
      "inputs": [],
      "name": "getAllowedPageSizes",
      "outputs": [
        {
          "internalType": "uint256[]",
          "name": "",
          "type": "uint256[]"
        }
      ],
      "stateMutability": "view",
      "type": "function"
    },
    {
      "inputs": [],
      "name": "getAssetContractAddress",
      "outputs": [
        {
          "internalType": "address",
          "name": "",
          "type": "address"
        }
      ],
      "stateMutability": "nonpayable",
      "type": "function"
    },
    {
      "inputs": [],
      "name": "getDefaultPageSize",
      "outputs": [
        {
          "internalType": "uint256",
          "name": "",
          "type": "uint256"
        }
      ],
      "stateMutability": "view",
      "type": "function"
    },
    {
      "inputs": [
        {
          "internalType": "uint256",
          "name": "size",
          "type": "uint256"
        }
      ],
      "name": "isAllowedPageSize",
      "outputs": [
        {
          "internalType": "bool",
          "name": "",
          "type": "bool"
        }
      ],
      "stateMutability": "view",
      "type": "function"
    },
    {
      "inputs": [
        {
          "internalType": "uint256",
          "name": "assetId",
          "type": "uint256"
        },
        {
          "internalType": "uint256",
          "name": "lowestPrice",
          "type": "uint256"
        },
        {
          "internalType": "uint256",
          "name": "closeAt",
          "type": "uint256"
        }
      ],
      "name": "offer",
      "outputs": [
        {
          "internalType": "uint256",
          "name": "",
          "type": "uint256"
        }
      ],
      "stateMutability": "nonpayable",
      "type": "function"
    },
    {
      "inputs": [
        {
          "internalType": "uint256[]",
          "name": "sizes",
          "type": "uint256[]"
        },
        {
          "internalType": "uint256",
          "name": "defaultSize",
          "type": "uint256"
        }
      ],
      "name": "setAllowedPageSizes",
      "outputs": [],
      "stateMutability": "nonpayable",
      "type": "function"
    },
    {
      "inputs": [
        {
          "internalType": "uint256",
          "name": "size",
          "type": "uint256"
        }
      ],
      "name": "setDefaultPageSize",
      "outputs": [],
      "stateMutability": "nonpayable",
      "type": "function"
    },
    {
      "inputs": [
        {
          "internalType": "uint256",
          "name": "assetId",
          "type": "uint256"
        }
      ],
      "name": "withdrawBid",
      "outputs": [],
      "stateMutability": "nonpayable",
      "type": "function"
    },
    {
      "inputs": [
        {
          "internalType": "uint256",
          "name": "assetId",
          "type": "uint256"
        }
      ],
      "name": "withdrawOffer",
      "outputs": [],
      "stateMutability": "nonpayable",
      "type": "function"
    }
  ],
  "bytecode": "0x60806040523480156200001157600080fd5b50604051620029ec380380620029ec833981810160405281019062000037919062000113565b600a8060008190555050600073ffffffffffffffffffffffffffffffffffffffff168173ffffffffffffffffffffffffffffffffffffffff161415620000b4576040517f08c379a0000000000000000000000000000000000000000000000000000000008152600401620000ab90620001a7565b60405180910390fd5b80600360006101000a81548173ffffffffffffffffffffffffffffffffffffffff021916908373ffffffffffffffffffffffffffffffffffffffff1602179055505062000228565b6000815190506200010d816200020e565b92915050565b6000602082840312156200012657600080fd5b60006200013684828501620000fc565b91505092915050565b60006200014e602e83620001c9565b91507f417373657420636f6e747261637420616464726573732063616e6e277420626560008301527f205a65726f20616464726573732e0000000000000000000000000000000000006020830152604082019050919050565b60006020820190508181036000830152620001c2816200013f565b9050919050565b600082825260208201905092915050565b6000620001e782620001ee565b9050919050565b600073ffffffffffffffffffffffffffffffffffffffff82169050919050565b6200021981620001da565b81146200022557600080fd5b50565b6127b480620002386000396000f3fe608060405234801561001057600080fd5b50600436106101215760003560e01c806345df8787116100ad578063869cae0a11610071578063869cae0a1461034057806392a0f5dd14610370578063aec290c3146103a0578063af4f59e1146103d0578063c30c2f2e1461040057610121565b806345df87871461027857806357e2ffa414610294578063598647f8146102c457806380cd2464146102f45780638610f0451461032457610121565b8063249c93dc116100f4578063249c93dc146101d25780632e45e025146101f057806332c9b1831461020e5780633799eeb81461022c5780633b8a2acc1461024857610121565b806303bea489146101265780630c3c9f9f146101565780630eaaf4c8146101865780632162368f146101a2575b600080fd5b610140600480360381019061013b9190611a77565b61041e565b60405161014d919061236a565b60405180910390f35b610170600480360381019061016b9190611b0c565b610425565b60405161017d91906123d0565b60405180910390f35b6101a0600480360381019061019b9190611b0c565b610442565b005b6101bc60048036038101906101b79190611b0c565b61067e565b6040516101c991906123ae565b60405180910390f35b6101da610685565b6040516101e791906123ae565b60405180910390f35b6101f86106e3565b6040516102059190612566565b60405180910390f35b6102166106ec565b604051610223919061234f565b60405180910390f35b61024660048036038101906102419190611b0c565b610716565b005b610262600480360381019061025d9190611b0c565b6107c2565b60405161026f919061238c565b60405180910390f35b610292600480360381019061028d9190611ab8565b61098a565b005b6102ae60048036038101906102a99190611a25565b610b0d565b6040516102bb91906123ae565b60405180910390f35b6102de60048036038101906102d99190611b35565b610b14565b6040516102eb9190612566565b60405180910390f35b61030e60048036038101906103099190611b71565b610ed1565b60405161031b9190612566565b60405180910390f35b61033e60048036038101906103399190611b0c565b61126a565b005b61035a60048036038101906103559190611b0c565b611464565b604051610367919061254b565b60405180910390f35b61038a60048036038101906103859190611b35565b611545565b604051610397919061238c565b60405180910390f35b6103ba60048036038101906103b59190611a25565b61154d565b6040516103c791906123ae565b60405180910390f35b6103ea60048036038101906103e59190611a77565b611554565b6040516103f7919061238c565b60405180910390f35b61040861155b565b6040516104159190612566565b60405180910390f35b6060919050565b600061043b82600161156c90919063ffffffff16565b9050919050565b61045681600761156c90919063ffffffff16565b610495576040517f08c379a000000000000000000000000000000000000000000000000000000000815260040161048c9061246b565b60405180910390fd5b6000600960008381526020019081526020016000205490506000806104cb600c6000858152602001908152602001600020611586565b905060005b81811015610637576000600b600061050384600c60008a815260200190815260200160002061159b90919063ffffffff16565b81526020019081526020016000206040518060c001604052908160008201548152602001600182015481526020016002820160009054906101000a900473ffffffffffffffffffffffffffffffffffffffff1673ffffffffffffffffffffffffffffffffffffffff1673ffffffffffffffffffffffffffffffffffffffff168152602001600382015481526020016004820160009054906101000a900460ff161515151581526020016004820160019054906101000a900460ff16151515158152505090503373ffffffffffffffffffffffffffffffffffffffff16816040015173ffffffffffffffffffffffffffffffffffffffff1614801561060957508060800151155b156106295760018160800190151590811515815250506001935050610637565b5080806001019150506104d0565b5081610678576040517f08c379a000000000000000000000000000000000000000000000000000000000815260040161066f9061248b565b60405180910390fd5b50505050565b6060919050565b60608060006106946001611586565b905060005b818110156106da576106b581600161159b90919063ffffffff16565b8382815181106106c157fe5b6020026020010181815250508080600101915050610699565b50819250505090565b60008054905090565b6000600360009054906101000a900473ffffffffffffffffffffffffffffffffffffffff16905090565b6000811161078c576040517f08c379a00000000000000000000000000000000000000000000000000000000081526004018080602001828103825260198152602001807f506167652073697a652063616e6e2774206265207a65726f2e0000000000000081525060200191505060405180910390fd5b6107a260005460016115b590919063ffffffff16565b506107b78160016115cf90919063ffffffff16565b508060008190555050565b606060006107e0836107d26106e3565b6115e990919063ffffffff16565b90506107ec6007611586565b811061082d576040517f08c379a0000000000000000000000000000000000000000000000000000000008152600401610824906124eb565b60405180910390fd5b600061085461083a6106e3565b83016108466007611586565b61166f90919063ffffffff16565b905060008290505b8181101561098257600660006009600061088085600761159b90919063ffffffff16565b81526020019081526020016000205481526020019081526020016000206040518060e001604052908160008201548152602001600182015481526020016002820160009054906101000a900473ffffffffffffffffffffffffffffffffffffffff1673ffffffffffffffffffffffffffffffffffffffff1673ffffffffffffffffffffffffffffffffffffffff16815260200160038201548152602001600482015481526020016005820160009054906101000a900460ff161515151581526020016005820160019054906101000a900460ff161515151581525050848483038151811061096a57fe5b6020026020010181905250808060010191505061085c565b505050919050565b60008111610a00576040517f08c379a00000000000000000000000000000000000000000000000000000000081526004018080602001828103825260198152602001807f506167652073697a652063616e6e2774206265207a65726f2e0000000000000081525060200191505060405180910390fd5b6001600080820160008082016000610a1891906118bb565b5050505060008251905060005b81811015610aeb576000848281518110610a3b57fe5b602002602001015111610ab6576040517f08c379a00000000000000000000000000000000000000000000000000000000081526004018080602001828103825260198152602001807f506167652073697a652063616e6e2774206265207a65726f2e0000000000000081525060200191505060405180910390fd5b610add848281518110610ac557fe5b602002602001015160016115cf90919063ffffffff16565b508080600101915050610a25565b50610b008260016115cf90919063ffffffff16565b5081600081905550505050565b6060919050565b6000610b2a83600761156c90919063ffffffff16565b610b69576040517f08c379a0000000000000000000000000000000000000000000000000000000008152600401610b60906124ab565b60405180910390fd5b6000600960008581526020019081526020016000205490508260066000838152602001908152602001600020600301541115610bda576040517f08c379a0000000000000000000000000000000000000000000000000000000008152600401610bd1906123eb565b60405180910390fd5b6000610bf7600c6000848152602001908152602001600020611586565b905060005b81811015610d82576000600b6000610c2f84600c600089815260200190815260200160002061159b90919063ffffffff16565b81526020019081526020016000206040518060c001604052908160008201548152602001600182015481526020016002820160009054906101000a900473ffffffffffffffffffffffffffffffffffffffff1673ffffffffffffffffffffffffffffffffffffffff1673ffffffffffffffffffffffffffffffffffffffff168152602001600382015481526020016004820160009054906101000a900460ff161515151581526020016004820160019054906101000a900460ff16151515158152505090503373ffffffffffffffffffffffffffffffffffffffff16816040015173ffffffffffffffffffffffffffffffffffffffff16141580610d3557508060800151155b610d74576040517f08c379a0000000000000000000000000000000000000000000000000000000008152600401610d6b9061252b565b60405180910390fd5b508080600101915050610bfc565b50610d8d600a611688565b6000610d99600a61169e565b90506040518060c001604052808281526020018481526020013373ffffffffffffffffffffffffffffffffffffffff16815260200186815260200160001515815260200160001515815250600b6000838152602001908152602001600020600082015181600001556020820151816001015560408201518160020160006101000a81548173ffffffffffffffffffffffffffffffffffffffff021916908373ffffffffffffffffffffffffffffffffffffffff1602179055506060820151816003015560808201518160040160006101000a81548160ff02191690831515021790555060a08201518160040160016101000a81548160ff021916908315150217905550905050610ec481600c60008681526020019081526020016000206115cf90919063ffffffff16565b5080935050505092915050565b600080339050600073ffffffffffffffffffffffffffffffffffffffff168173ffffffffffffffffffffffffffffffffffffffff161415610f47576040517f08c379a0000000000000000000000000000000000000000000000000000000008152600401610f3e9061244b565b60405180910390fd5b8073ffffffffffffffffffffffffffffffffffffffff16600360009054906101000a900473ffffffffffffffffffffffffffffffffffffffff1673ffffffffffffffffffffffffffffffffffffffff16636352211e876040518263ffffffff1660e01b8152600401610fb99190612566565b60206040518083038186803b158015610fd157600080fd5b505afa158015610fe5573d6000803e3d6000fd5b505050506040513d601f19601f820116820180604052508101906110099190611a4e565b73ffffffffffffffffffffffffffffffffffffffff161461105f576040517f08c379a0000000000000000000000000000000000000000000000000000000008152600401611056906124cb565b60405180910390fd5b61107385600761156c90919063ffffffff16565b156110b3576040517f08c379a00000000000000000000000000000000000000000000000000000000081526004016110aa9061250b565b60405180910390fd5b6110bd6005611688565b60006110c9600561169e565b90506040518060e001604052808281526020018781526020018373ffffffffffffffffffffffffffffffffffffffff1681526020018681526020018581526020016000151581526020016001151581525060066000838152602001908152602001600020600082015181600001556020820151816001015560408201518160020160006101000a81548173ffffffffffffffffffffffffffffffffffffffff021916908373ffffffffffffffffffffffffffffffffffffffff160217905550606082015181600301556080820151816004015560a08201518160050160006101000a81548160ff02191690831515021790555060c08201518160050160016101000a81548160ff0219169083151502179055509050506111f38660076115cf90919063ffffffff16565b50806009600088815260200190815260200160002081905550858273ffffffffffffffffffffffffffffffffffffffff16827f2de6c00e2f7ac3ce5209a69aa69bfb1009db4b5e7af3071e0b794a74ce8a8d188888604051611256929190612581565b60405180910390a480925050509392505050565b3373ffffffffffffffffffffffffffffffffffffffff16600360009054906101000a900473ffffffffffffffffffffffffffffffffffffffff1673ffffffffffffffffffffffffffffffffffffffff16636352211e836040518263ffffffff1660e01b81526004016112dc9190612566565b60206040518083038186803b1580156112f457600080fd5b505afa158015611308573d6000803e3d6000fd5b505050506040513d601f19601f8201168201806040525081019061132c9190611a4e565b73ffffffffffffffffffffffffffffffffffffffff1614611382576040517f08c379a00000000000000000000000000000000000000000000000000000000081526004016113799061242b565b60405180910390fd5b61139681600761156c90919063ffffffff16565b6113d5576040517f08c379a00000000000000000000000000000000000000000000000000000000081526004016113cc9061240b565b60405180910390fd5b60006009600083815260200190815260200160002054905060016006600083815260200190815260200160002060050160006101000a81548160ff02191690831515021790555060006006600083815260200190815260200160002060050160016101000a81548160ff02191690831515021790555061145f8260076115b590919063ffffffff16565b505050565b61146c6118dc565b600660008381526020019081526020016000206040518060e001604052908160008201548152602001600182015481526020016002820160009054906101000a900473ffffffffffffffffffffffffffffffffffffffff1673ffffffffffffffffffffffffffffffffffffffff1673ffffffffffffffffffffffffffffffffffffffff16815260200160038201548152602001600482015481526020016005820160009054906101000a900460ff161515151581526020016005820160019054906101000a900460ff1615151515815250509050919050565b606092915050565b6060919050565b6060919050565b60006115676007611586565b905090565b600061157e836000018360001b6116ac565b905092915050565b6000611594826000016116cf565b9050919050565b60006115aa83600001836116e0565b60001c905092915050565b60006115c7836000018360001b611763565b905092915050565b60006115e1836000018360001b61184b565b905092915050565b6000808314156115fc5760009050611669565b600082840290508284828161160d57fe5b0414611664576040517f08c379a000000000000000000000000000000000000000000000000000000000815260040180806020018281038252602181526020018061275e6021913960400191505060405180910390fd5b809150505b92915050565b600081831061167e5781611680565b825b905092915050565b6001816000016000828254019250508190555050565b600081600001549050919050565b600080836001016000848152602001908152602001600020541415905092915050565b600081600001805490509050919050565b600081836000018054905011611741576040517f08c379a000000000000000000000000000000000000000000000000000000000815260040180806020018281038252602281526020018061273c6022913960400191505060405180910390fd5b82600001828154811061175057fe5b9060005260206000200154905092915050565b6000808360010160008481526020019081526020016000205490506000811461183f57600060018203905060006001866000018054905003905060008660000182815481106117ae57fe5b90600052602060002001549050808760000184815481106117cb57fe5b906000526020600020018190555060018301876001016000838152602001908152602001600020819055508660000180548061180357fe5b60019003818190600052602060002001600090559055866001016000878152602001908152602001600020600090556001945050505050611845565b60009150505b92915050565b600061185783836116ac565b6118b05782600001829080600181540180825580915050600190039060005260206000200160009091909190915055826000018054905083600101600084815260200190815260200160002081905550600190506118b5565b600090505b92915050565b50805460008255906000526020600020908101906118d99190611933565b50565b6040518060e001604052806000815260200160008152602001600073ffffffffffffffffffffffffffffffffffffffff16815260200160008152602001600081526020016000151581526020016000151581525090565b5b8082111561194c576000816000905550600101611934565b5090565b600061196361195e846125db565b6125aa565b9050808382526020820190508285602086028201111561198257600080fd5b60005b858110156119b257816119988882611a10565b845260208401935060208301925050600181019050611985565b5050509392505050565b6000813590506119cb8161270d565b92915050565b6000815190506119e08161270d565b92915050565b600082601f8301126119f757600080fd5b8135611a07848260208601611950565b91505092915050565b600081359050611a1f81612724565b92915050565b600060208284031215611a3757600080fd5b6000611a45848285016119bc565b91505092915050565b600060208284031215611a6057600080fd5b6000611a6e848285016119d1565b91505092915050565b600060208284031215611a8957600080fd5b600082013567ffffffffffffffff811115611aa357600080fd5b611aaf848285016119e6565b91505092915050565b60008060408385031215611acb57600080fd5b600083013567ffffffffffffffff811115611ae557600080fd5b611af1858286016119e6565b9250506020611b0285828601611a10565b9150509250929050565b600060208284031215611b1e57600080fd5b6000611b2c84828501611a10565b91505092915050565b60008060408385031215611b4857600080fd5b6000611b5685828601611a10565b9250506020611b6785828601611a10565b9150509250929050565b600080600060608486031215611b8657600080fd5b6000611b9486828701611a10565b9350506020611ba586828701611a10565b9250506040611bb686828701611a10565b9150509250925092565b6000611bcc838361219a565b60c08301905092915050565b6000611be48383612215565b60e08301905092915050565b6000611bfc8383612331565b60208301905092915050565b611c11816126c3565b82525050565b611c20816126c3565b82525050565b6000611c3182612637565b611c3b818561267f565b9350611c4683612607565b8060005b83811015611c77578151611c5e8882611bc0565b9750611c6983612658565b925050600181019050611c4a565b5085935050505092915050565b6000611c8f82612642565b611c998185612690565b9350611ca483612617565b8060005b83811015611cd5578151611cbc8882611bd8565b9750611cc783612665565b925050600181019050611ca8565b5085935050505092915050565b6000611ced8261264d565b611cf781856126a1565b9350611d0283612627565b8060005b83811015611d33578151611d1a8882611bf0565b9750611d2583612672565b925050600181019050611d06565b5085935050505092915050565b611d49816126d5565b82525050565b611d58816126d5565b82525050565b6000611d6b6030836126b2565b91507f5468652070726963652069732073686f72746572207468616e20746865206c6f60008301527f776572207072696365206c696d69742e000000000000000000000000000000006020830152604082019050919050565b6000611dd16022836126b2565b91507f54686572652773206e6f206f70656e206f6666657220746f207769746864726160008301527f772e0000000000000000000000000000000000000000000000000000000000006020830152604082019050919050565b6000611e37603d836126b2565b91507f54686520776974686472617765722073686f756c642062652066726f6d20746860008301527f65206f776e6572206f6620746865206f6666657265642061737365742e0000006020830152604082019050919050565b6000611e9d6026836126b2565b91507f4f666665726572206164647265732063616e6e2774206265205a65726f20616460008301527f64726573732e00000000000000000000000000000000000000000000000000006020830152604082019050919050565b6000611f03602e836126b2565b91507f54686572652773206e6f206f70656e206f6666657220666f722074686520737060008301527f656369666965642061737365742e0000000000000000000000000000000000006020830152604082019050919050565b6000611f696020836126b2565b91507f54686572652773206e6f2076616c69642062696420746f2077697468647261776000830152602082019050919050565b6000611fa9602d836126b2565b91507f54686572652773206e6f206f70656e206f6666657220666f722074686520737060008301527f65636966696564206173736574000000000000000000000000000000000000006020830152604082019050919050565b600061200f6038836126b2565b91507f546865206f666665722073686f756c642062652066726f6d20746865206f776e60008301527f6572206f6620746865206f6666657265642061737365742e00000000000000006020830152604082019050919050565b6000612075600e836126b2565b91507f546f6f206c6172676520706167650000000000000000000000000000000000006000830152602082019050919050565b60006120b56055836126b2565b91507f546865206f6666657265642061737365742068617320616c7265616479206f7060008301527f656e206f666665722e204d756c7469706c65206f66666572206973206e6f742060208301527f616c6c6f77656420666f7220616e2061737365742e00000000000000000000006040830152606082019050919050565b60006121416023836126b2565b91507f5468652073656e6465722068617320612062696420666f72207468652061737360008301527f65742e00000000000000000000000000000000000000000000000000000000006020830152604082019050919050565b60c0820160008201516121b06000850182612331565b5060208201516121c36020850182612331565b5060408201516121d66040850182611c08565b5060608201516121e96060850182612331565b5060808201516121fc6080850182611d40565b5060a082015161220f60a0850182611d40565b50505050565b60e08201600082015161222b6000850182612331565b50602082015161223e6020850182612331565b5060408201516122516040850182611c08565b5060608201516122646060850182612331565b5060808201516122776080850182612331565b5060a082015161228a60a0850182611d40565b5060c082015161229d60c0850182611d40565b50505050565b60e0820160008201516122b96000850182612331565b5060208201516122cc6020850182612331565b5060408201516122df6040850182611c08565b5060608201516122f26060850182612331565b5060808201516123056080850182612331565b5060a082015161231860a0850182611d40565b5060c082015161232b60c0850182611d40565b50505050565b61233a81612701565b82525050565b61234981612701565b82525050565b60006020820190506123646000830184611c17565b92915050565b600060208201905081810360008301526123848184611c26565b905092915050565b600060208201905081810360008301526123a68184611c84565b905092915050565b600060208201905081810360008301526123c88184611ce2565b905092915050565b60006020820190506123e56000830184611d4f565b92915050565b6000602082019050818103600083015261240481611d5e565b9050919050565b6000602082019050818103600083015261242481611dc4565b9050919050565b6000602082019050818103600083015261244481611e2a565b9050919050565b6000602082019050818103600083015261246481611e90565b9050919050565b6000602082019050818103600083015261248481611ef6565b9050919050565b600060208201905081810360008301526124a481611f5c565b9050919050565b600060208201905081810360008301526124c481611f9c565b9050919050565b600060208201905081810360008301526124e481612002565b9050919050565b6000602082019050818103600083015261250481612068565b9050919050565b60006020820190508181036000830152612524816120a8565b9050919050565b6000602082019050818103600083015261254481612134565b9050919050565b600060e08201905061256060008301846122a3565b92915050565b600060208201905061257b6000830184612340565b92915050565b60006040820190506125966000830185612340565b6125a36020830184612340565b9392505050565b6000604051905081810181811067ffffffffffffffff821117156125d1576125d061270b565b5b8060405250919050565b600067ffffffffffffffff8211156125f6576125f561270b565b5b602082029050602081019050919050565b6000819050602082019050919050565b6000819050602082019050919050565b6000819050602082019050919050565b600081519050919050565b600081519050919050565b600081519050919050565b6000602082019050919050565b6000602082019050919050565b6000602082019050919050565b600082825260208201905092915050565b600082825260208201905092915050565b600082825260208201905092915050565b600082825260208201905092915050565b60006126ce826126e1565b9050919050565b60008115159050919050565b600073ffffffffffffffffffffffffffffffffffffffff82169050919050565b6000819050919050565bfe5b612716816126c3565b811461272157600080fd5b50565b61272d81612701565b811461273857600080fd5b5056fe456e756d657261626c655365743a20696e646578206f7574206f6620626f756e6473536166654d6174683a206d756c7469706c69636174696f6e206f766572666c6f77a2646970667358221220aef7079b2be2310792c21b3b1639b53b1efd5f9a160770a696d0e473bf34a92664736f6c63430007060033",
  "linkReferences": {},
  "deployedLinkReferences": {}
}